:0400000092EF3CF04F
:107924000001E6EF3CF0600ED36E000ED26E000E46
:107934009B6E000E9A6E1200CAEC3CF095EC3CF083
:10794400A7EC3CF01BEC3DF01200010EC26E800E61
:10795400C16EBD0EC06E000EC46E000EC36E12006A
:10796400056E05C003F003460346C2500318830B9B
:107974000318C26EC280C282C2B2FED7C450046E63
:10798400036AC3500324016E000E0420026E120029
:10799400000E8D6E000E8C6E000E896E000E8A6EC7
:1079A400010E8B6E070E966EEF0E926EFB0E936EAB
:1079B400FE0E946EFE0E956E0F015D69770E0F013B
:1079C4005C6F0F015B6912009EEC3CF07080708A62
:1079D400709E708C94908B9095908C900F015D812B
:1079E400000EB2EC3CF001C01AF002C01BF0010E14
:1079F4001C6E200E1D6E010E1E6E000E1F6E000EFC
:107A0400206E080E216E1B50226E1AC023F0DC0E6D
:107A1400246ECB0E256EBC0E266ECD0E276EDE0EAA
:107A2400286E29681C0E136E000E146E61EC3EF075
:107A3400D7D7800E6F6E6E50E00B800AD8A4FBD7A8
:107A4400000E726E000E0E01FA6F000E0E01FB6F37
:107A5400000E0E01F86F000E0E01F96F0E01FE69A3
:107A64000E01FF690E01FC690E01FD69000E0E0195
:107A7400E26F000E0E01E36F880E0E01E06F800EC0
:107A84000E01E16F000E0E01E66F000E0E01E76FAE
:107A9400CC0E0E01E46FC00E0E01E56F000E0E0158
:107AA400EA6F000E0E01EB6F000E0E01E86F000E80
:107AB4000E01E96F000E0E01EE6F000E0E01EF6F66
:107AC400000E0E01EC6F000E0E01ED6F000E0E01A4
:107AD400F26F000E0E01F36F000E0E01F06F000E38
:107AE4000E01F16F000E0E01F66F000E0E01F76F1E
:107AF400000E0E01F46F000E0E01F56F000E0E0164
:107B0400436F980E0E01446F010E0E01456F000E77
:107B14006F6E6ECF01F0E00E0116D8B41200F9D7E3
:107B2400000E126E020E0518D8A481D008C0D9FF29
:107B340009C0DAFF01C0DFFF01C00EF002C00FF080
:107B440003C010F004C011F00FC00EF010C00FF00D
:107B540011C010F0116A0EC001F00FC002F010C085
:107B640003F011C004F006C0D9FF07C0DAFF01C05A
:107B7400DFFF01C00EF002C00FF003C010F004C01C
:107B840011F00FC00EF010C00FF011C010F0116A08
:107B94000EC001F00FC002F010C003F011C004F0D9
:107BA4000150030B126E01C00EF002C00FF003C0AF
:107BB40010F004C011F0030ED8900E360F361036B4
:107BC4001136E82EF9D70EC001F00FC002F010C034
:107BD40003F011C004F00150E00B1224126E125095
:107BE400080F126E1250EB0B0CC0D9FF0DC0DAFF58
:107BF400DF6E01C00EF002C00FF003C010F004C02D
:107C040011F00FC00EF010C00FF011C010F0116A87
:107C14000EC001F00FC002F010C003F011C004F058
:107C24000AC0D9FF0BC0DAFF01C0DFFF120006C093
:107C3400D9FF07C0DAFF000EDF6E08C0D9FF09C004
:107C4400DAFF000EDF6E01C00EF002C00FF003C0B9
:107C540010F004C011F0050ED8900E360F36103611
:107C64001136E82EF9D70EC001F00FC002F010C093
:107C740003F011C004F00CC0D9FF0DC0DAFF01C03D
:107C8400DFFF01C00EF002C00FF003C010F004C00B
:107C940011F00FC00EF010C00FF011C010F0116AF7
:107CA4000EC001F00FC002F010C003F011C004F0C8
:107CB4000AC0D9FF0BC0DAFF01C0DFFF1200000EBB
:107CC400166E000E176E000E186E000E196E000E62
:107CD400156E0F0120B784D020EE01F01350D92681
:107CE4001450DA22DECF01F0DECF02F0DECF03F053
:107CF400DECF04F013C0D9FF14C0DAFFDF50056EE5
:107D0400160E066E000E076E170E086E000E096E34
:107D1400180E0A6E000E0B6E190E0C6E000E0D6E10
:107D240092EC3DF016C023FF17C024FF18C021FFBA
:107D340019C022FF20EE05F01350D9261450DA2280
:107D4400DF500F01256F20EE06F01350D926145092
:107D5400DA22DF500F01266F20EE07F01350D926E8
:107D64001450DA22DF500F01276F20EE08F0135071
:107D7400D9261450DA22DF500F01286F20EE09F0C3
:107D84001350D9261450DA22DF500F01296F20EE48
:107D94000AF01350D9261450DA22DF500F012A6F4B
:107DA40020EE0BF01350D9261450DA22DF500F01C5
:107DB4002B6F20EE0CF01350D9261450DA22DF502A
:107DC4000F012C6F20EE0DF01350D9261450DA2237
:107DD400DF500F012D6F0F012087010E156E120069
:107DE4000F0110B784D020EE01F01350D92614509F
:107DF400DA22DECF01F0DECF02F0DECF03F0DECFF9
:107E040004F013C0D9FF14C0DAFFDF50056E160E5C
:107E1400066E000E076E170E086E000E096E180E21
:107E24000A6E000E0B6E190E0C6E000E0D6E92ECA7
:107E34003DF016C013FF17C014FF18C011FF19C07E
:107E440012FF20EE05F01350D9261450DA22DF5029
:107E54000F01156F20EE06F01350D9261450DA22C4
:107E6400DF500F01166F20EE07F01350D92614507F
:107E7400DA22DF500F01176F20EE08F01350D926D5
:107E84001450DA22DF500F01186F20EE09F013505E
:107E9400D9261450DA22DF500F01196F20EE0AF0B0
:107EA4001350D9261450DA22DF500F011A6F20EE36
:107EB4000BF01350D9261450DA22DF500F011B6F38
:107EC40020EE0CF01350D9261450DA22DF500F01A3
:107ED4001C6F20EE0DF01350D9261450DA22DF5017
:107EE4000F011D6F0F011087010E156E12000F0197
:107EF40000B7120020EE01F01350D9261450DA22F4
:107F0400DECF01F0DECF02F0DECF03F0DECF04F0EF
:107F140013C0D9FF14C0DAFFDF50056E160E066ECB
:107F2400000E076E170E086E000E096E180E0A6E0C
:107F3400000E0B6E190E0C6E000E0D6E92EC3DF0E1
:107F440016C003FF17C004FF18C001FF19C002FFC9
:107F540020EE05F01350D9261450DA22DF500F0119
:107F6400056F20EE06F01350D9261450DA22DF50A4
:107F74000F01066F20EE07F01350D9261450DA22B1
:107F8400DF500F01076F20EE08F01350D92614506C
:107F9400DA22DF500F01086F20EE09F01350D926C2
:107FA4001450DA22DF500F01096F20EE0AF013504B
:107FB400D9261450DA22DF500F010A6F20EE0BF09D
:107FC4001350D9261450DA22DF500F010B6F20EE24
:107FD4000CF01350D9261450DA22DF500F010C6F25
:107FE40020EE0DF01350D9261450DA22DF500F0181
:0C7FF4000D6F0F010087010E156E1200CA
:020000040020DA
:08000000FFFFFFFFFFFFFFFF00
:020000040030CA
:0E0000001D037F7CFF8991FF0FC00FE00F40B2
:00000001FF
