:040000004BEF3FF093
:107E8800000EC76E210EC66E000EC86E1200046A80
:107E9800036A026A016A000164EF3FF0600ED36E64
:107EA800000ED26E000E9B6E000E9A6E12006DECE4
:107EB8003FF052EC3FF044EC3FF089EC3FF0120009
:107EC8005BEC3FF07080708A709E708C95908C90FF
:107ED800FFD7000E8D6E000E8C6E000E896E000EA0
:107EE8008A6E000E8B6E070E966EEF0E926EFB0E6C
:107EF800936ED40E946EFE0E956E0F015D69770E2B
:107F08000F015C6F0F015B691200800E6F6E6E507F
:107F1800E00B800AD8A4FBD7000E726E000E0E018B
:107F2800FA6F000E0E01FB6F000E0E01F86F000EC7
:107F38000E01F96F0E01FE690E01FF690E01FC6961
:107F48000E01FD69000E0E01E26F000E0E01E36FD7
:107F5800880E0E01E06F800E0E01E16F000E0E011B
:107F6800E66F000E0E01E76FCC0E0E01E46FC00E37
:107F78000E01E56F000E0E01EA6F000E0E01EB6FA9
:107F8800000E0E01E86F000E0E01E96F000E0E01E3
:107F9800EE6F000E0E01EF6F000E0E01EC6F000E7B
:107FA8000E01ED6F000E0E01F26F000E0E01F36F61
:107FB800000E0E01F06F000E0E01F16F000E0E01A3
:107FC800F66F000E0E01F76F000E0E01F46F000E33
:107FD8000E01F56F000E0E01436F980E0E01446FEF
:107FE800010E0E01456F000E6F6E6ECF05F0E00EAC
:087FF8000516D8B41200F9D7F8
:020000040020DA
:08000000FFFFFFFFFFFFFFFF00
:020000040030CA
:0E0000001D037F7CFF8991FF0FC00FE00F40B2
:00000001FF
