:0400000070EF3CF071
:1078D200000EC76E210EC66E000EC86E1200116A2F
:1078E200106A0F6A0E6A0001CFEF3DF0016EC69E6C
:1078F20001C0C9FFC7A0FED7C9501200600ED36EE7
:10790200000ED26E000E9B6E000E9A6E1200B9EC43
:107912003CF07FEC3CF069EC3CF058EC3DF012009E
:10792200026E8992025077EC3CF0000E77EC3CF04C
:10793200000E77EC3CF08982120089920450800993
:1079420077EC3CF002C006F003C007F004C008F078
:1079520007C006F008C007F0086A065077EC3CF052
:10796200025077EC3CF0055077EC3CF08982120033
:10797200000E8D6E000E8C6E070E896E000E8A6EE2
:10798200000E8B6E070E966EE90E926EFB0E936ED4
:10799200D70E946EFE0E956EF80E0F015D6F770E88
:1079A2000F015C6F0F015B6912008992045080091C
:1079B20077EC3CF002C007F003C008F004C009F005
:1079C20008C007F009C008F0096A075077EC3CF0DC
:1079D200025077EC3CF0055077EC3CF0065077EC27
:1079E2003CF0898212008992045077EC3CF002C08C
:1079F20005F003C006F004C007F006C005F007C09A
:107A020006F0076A055077EC3CF0025077EC3CF048
:107A1200000E77EC3CF0000E77EC3CF0C9CF08F09A
:107A2200000E77EC3CF08982C950056E0850026E58
:107A320005C003F0120089920450800977EC3CF0F3
:107A420002C009F003C00AF004C00BF00AC009F03A
:107A52000BC00AF00B6A095077EC3CF0025077EC4D
:107A62003CF0055077EC3CF0065077EC3CF00750C8
:107A720077EC3CF005C009F006C00AF007C00BF035
:107A820008C00CF0110E05D0D8900C320B320A321D
:107A92000932E82EF9D70AC009F00BC00AF00CC06F
:107AA2000BF00C6A095077EC3CF089821200800ED0
:107AB2006F6E6E50E00B800AD8A4FBD7000E726E78
:107AC200000E0E01FA6F000E0E01FB6F000E0E018A
:107AD200F86F000E0E01F96F0E01FE690E01FF69CB
:107AE2000E01FC690E01FD69000E0E01E26F000E2F
:107AF2000E01E36F880E0E01E06F800E0E01E16F42
:107B0200000E0E01E66F000E0E01E76FCC0E0E01A5
:107B1200E46FC00E0E01E56F000E0E01EA6F000E5B
:107B22000E01EB6F000E0E01E86F000E0E01E96F01
:107B3200000E0E01EE6F000E0E01EF6F000E0E0131
:107B4200EC6F000E0E01ED6F000E0E01F26F000ED3
:107B52000E01F36F000E0E01F06F000E0E01F16FB9
:107B6200000E0E01F66F000E0E01F76F000E0E01F1
:107B7200F46F000E0E01F56F000E0E01436F980EAA
:107B82000E01446F010E0E01456F000E6F6E6ECF37
:107B920001F0E00E0116D8B41200F9D788EC3CF0DF
:107BA2007080708A709E708C95900F015D930F01AA
:107BB2005D9592929294949A9496928AC79EC78C5B
:107BC200C68AC688C690C692C694C696BBEC3EF0DC
:107BD200000E026E000E036E100E046E070E056E8E
:107BE200000E066E000E076E260E086E1CEC3DF0AF
:107BF200040E026E000E036E100E046E010E056E70
:107C0200000E066E000E076E1F0E086E1CEC3DF095
:107C1200080E026E000E036E100E046EC60E056E86
:107C2200EF0E066E860E076E9B0E086E1CEC3DF084
:107C32000C0E026E000E036E100E046ED40E056E54
:107C4200EF0E066E860E076E9E0E086E1CEC3DF061
:107C5200100E026E000E036E100E046EC40E056E40
:107C6200EF0E066EC60E076EA10E086E1CEC3DF0FE
:107C7200140E026E000E036E100E046EC90E056E17
:107C8200EF0E066E660E076EA50E086E1CEC3DF03A
:107C9200180E026E000E036E100E046E000E056EBC
:107CA200000E066E000E076E210E086E1CEC3DF0F3
:107CB2001C0E026E000E036E100E046E160E056E82
:107CC200160E066EA00E076E040E086E1CEC3DF03A
:107CD200200E026E000E036E100E046E400E056E34
:107CE200010E066E000E076E0D0E086E1CEC3DF0C6
:107CF200240E026E000E036E100E046E020E056E4E
:107D0200000E066E000E076E1F0E086E1CEC3DF094
:107D1200280E026E000E036E100E046E000E056E2B
:107D2200500E066E080E076E980E086E1CEC3DF0A3
:107D32002C0E026E000E036E100E046E000E056E07
:107D4200000E066E000E076E210E086E1CEC3DF052
:107D5200300E026E000E036E100E046E000E056EE3
:107D6200000E066E000E076E000E086E1CEC3DF053
:107D72008C90FFD78994680E0D6EE40EE82EFED724
:107D82000D2EFCD700D08984680E0D6EE40EE82E0D
:107D9200FED70D2EFCD700D0000E91EC3CF0440E25
:107DA20091EC3CF0620E91EC3CF0300E026E240E2F
:107DB200036E100E046E010E066EE00E056ED6EC1A
:107DC2003CF0440E026E240E036E100E046E010E81
:107DD200066E100E056ED6EC3CF0280E026E240ED6
:107DE200036E100E046E020E066E0D0E056ED6ECBC
:107DF2003CF0340E026E240E036E100E046E000E62
:107E0200066E000E056ED6EC3CF0380E026E240EA5
:107E1200036E100E046E000E066E290E056ED6EC71
:107E22003CF02C0E026E240E036E100E046E000E39
:107E3200066E2B0E056ED6EC3CF03C0E026E240E46
:107E4200036E100E046E010E066E1E0E056ED6EC4B
:107E52003CF0480E026E240E036E100E046E000EED
:107E6200066E000E056ED6EC3CF04C0E026E240E31
:107E7200036E100E046E000E066E0A0E056ED6EC30
:107E82003CF0400E026E240E036E100E046E000EC5
:107E9200066E0C0E056ED6EC3CF0640E026E240EDD
:107EA200036E100E046E000E056E9EEC3CF05C0E2E
:107EB200026E240E036E100E046E000E056E9EEC12
:107EC2003CF0580E026E240E036E100E046E010E6C
:107ED200066EB60E056ED6EC3CF0600E026E240EF7
:107EE200036E100E046E000E056E9EEC3CF0680EE2
:107EF200026E240E036E100E046E010E056E9EECD1
:107F02003CF0540E026E240E036E100E046E000E30
:107F1200056E9EEC3CF0000E026E000E036E100E1B
:107F2200046E000E056EFF0E066EFF0E076E020E49
:107F3200086E1CEC3DF0040E026E000E036E100E75
:107F4200046E070E056E000E066E000E076E260EFC
:107F5200086E1CEC3DF0080E026E000E036E100E51
:107F6200046E000E056E000E066E000E076E000E09
:107F7200086E1CEC3DF0500E026E240E036E100EC5
:107F8200046E020E056E9EEC3CF08C0E026E240E08
:107F9200036E100E046EFC0E056E9EEC3CF0900E0D
:107FA200026E240E036E100E046EFF0E056E9EEC22
:107FB2003CF06C0E026E240E036E100E046E050E63
:107FC200056E9EEC3CF0E80E026E240E036E100E5F
:107FD200046EF4EC3CF002C00EF003C00FF0E40EAD
:107FE200026E240E036E100E046EF4EC3CF00E5082
:0E7FF2000218F5E10F500318D8B41200F0D7B2
:020000040020DA
:08000000FFFFFFFFFFFFFFFF00
:020000040030CA
:0E0000001D037F7CFF8991FF0FC00FE00F40B2
:00000001FF
