:0400000044EF00F0D9
:100008003182FACF01F0FBCF02F0E9CF03F0EACF5B
:1000180004F0E1CF05F0E2CF06F0D9CF07F0DACF50
:1000280008F0F3CF09F0F4CF0AF0F6CF0BF0F7CFD2
:100038000CF0F8CF0DF0F5CF0EF0F2B6F2A002D02A
:10004800FDEC1AF00EC0F5FF0DC0F8FF0CC0F7FF6D
:100058000BC0F6FF0AC0F4FF09C0F3FF08C0DAFFBF
:1000680007C0D9FF06C0E2FF05C0E1FF04C0EAFFF0
:1000780003C0E9FF02C0FBFF01C0FAFF3192110083
:04008800C0EF1AF0BB
:100F000000535045454400574154455200564F4CFC
:100F100054530055534544004655454C0054454DE7
:100F200050004241545400313135004B5048004F7D
:100F3000494C00313000313100313200330034008F
:090F4000360037003800390000CA
:100F4A00020E1B6E000E1C6E000E1D6E1F0E1E6E14
:100F5A0051EC1AF0500E1B6E500E1C6E500E1D6E88
:100F6A00040E1E6E51EC1AF0D60E1B6E060E1C6E87
:100F7A00000E1D6E0D0E1E6E51EC1AF0000E1B6E49
:100F8A00300E1C6E070E1D6E9E0E1E6E51EC1AF070
:100F9A00000E1B6E000E1C6E000E1D6E040E1E6EE1
:100FAA0051EC1AF0720E1B6E060E1C6E000E1D6EB0
:100FBA000D0E1E6E51EC1AF0000E1B6E300E1C6EDA
:100FCA00070E1D6E9E0E1E6E51EC1AF0FF0E1B6E62
:100FDA00FF0E1C6EFF0E1D6E040E1E6E51EC1AF0F3
:100FEA00090E1B6EFF0E1C6EFF0E1D6EFF0E1E6E8F
:100FFA0051EC1AF0320E1B6E320E1C6E320E1D6E42
:10100A00000E1E6E51EC1AF0130E1B6EFF0E1C6EB4
:10101A00FF0E1D6EFF0E1E6E51EC1AF02BC024F04F
:10102A002CC025F0266A000E2424176E800E252077
:10103A00186E100E2620196E000E1B6EF00E1A6E18
:10104A0033EC1AF0020E98EC1AF02BC024F02CC0E4
:10105A0025F0266A000E2424176E800E2520186EAD
:10106A00100E2620196E000E1B6E730E1A6E33ECCC
:10107A001AF0020E98EC1AF02BC024F02CC025F0BE
:10108A00266A000E2424176E800E2520186E100E74
:10109A002620196E000E1B6E820E1A6E33EC1AF0A1
:1010AA00020E98EC1AF02BC024F02CC025F0266A08
:1010BA00000E2424176E800E2520186E100E26208E
:1010CA00196E510E1B6E000E1A6E33EC1AF0020ED8
:1010DA0098EC1AF02BC024F02CC025F0266A000EDA
:1010EA002424176E800E2520186E100E2620196EE5
:1010FA00000E1B6E0A0E1A6E33EC1AF0020E98ECF2
:10110A001AF02BC024F02CC025F0266A000E2424E5
:10111A00176E800E2520186E100E2620196E000EEE
:10112A001B6E050E1A6E33EC1AF0020E98EC1AF0CA
:10113A002BC024F02CC025F0266A000E2424176E3A
:10114A00800E2520186E100E2620196E22C00FF070
:10115A0023C010F0030E126EE80E116E08EC19F09F
:10116A000FC01AF010C01BF033EC1AF0020E98EC04
:10117A001AF02BC024F02CC025F0266A000E242475
:10118A00176E800E2520186E100E2620196E000E7E
:10119A001B6E0A0E1A6E33EC1AF0020E98EC1AF055
:1011AA00000E1B6E000E1C6EFF0E1D6E040E1E6ED0
:1011BA0051EC1AF0130E1B6EFF0E1C6EFF0E1D6E05
:1011CA00FF0E1E6E51EC1AF02BC024F02CC025F035
:1011DA00266A000E2424176E800E2520186E100E23
:1011EA002620196E000E1B6EF00E1A6E33EC1AF0E2
:1011FA00020E98EC1AF02BC024F02CC025F0266AB7
:10120A00000E2424176E800E2520186E100E26203C
:10121A00196E000E1B6E730E1A6E33EC1AF0020E64
:10122A0098EC1AF02BC024F02CC025F0266A000E88
:10123A002424176E800E2520186E100E2620196E93
:10124A00000E1B6E820E1A6E33EC1AF0020E98EC28
:10125A001AF02BC024F02CC025F0266A000E242494
:10126A00176E800E2520186E100E2620196E310E6C
:10127A001B6E000E1A6E33EC1AF0020E98EC1AF07E
:10128A002BC024F02CC025F0266A000E2424176EE9
:10129A00800E2520186E100E2620196E000E1B6E69
:1012AA000A0E1A6E33EC1AF0020E98EC1AF02BC0E2
:1012BA0024F02CC025F0266A000E2424176E800E16
:1012CA002520186E100E2620196E000E1B6E050EB4
:1012DA001A6E33EC1AF0020E98EC1AF02BC024F0B6
:1012EA002CC025F0266A000E2424176E800E2520B5
:1012FA00186E100E2620196E22C00FF023C010F0AF
:10130A00030E126EE80E116E08EC19F00FC01AF0F7
:10131A0010C01BF033EC1AF0020E98EC1AF02BC036
:10132A0024F02CC025F0266A000E2424176E800EA5
:10133A002520186E100E2620196E000E1B6E0A0E3E
:10134A001A6E33EC1AF0020E98EC1AF0FF0E1B6EAE
:10135A00FF0E1C6EFF0E1D6E040E1E6E51EC1AF06F
:10136A000C0E1B6EFF0E1C6EFF0E1D6EFF0E1E6E08
:10137A0051EC1AF02BC024F02CC025F0266A000E7E
:10138A002424176E800E2520186E100E2620196E42
:10139A00000E1B6EB70E1A6E33EC1AF0020E98ECA2
:1013AA001AF02BC024F02CC025F0266A000E242443
:1013BA00176E800E2520186E100E2620196E000E4C
:1013CA001B6EA10E1A6E33EC1AF0020E98EC1AF08C
:1013DA002BC024F02CC025F0266A000E2424176E98
:1013EA00800E2520186E100E2620196E000E1B6E18
:1013FA001C0E1A6E33EC1AF0020E98EC1AF02BC07F
:10140A0024F02CC025F0266A000E2424176E800EC4
:10141A002520186E100E2620196E000E1B6E000E67
:10142A001A6E33EC1AF0020E98EC1AF02BC024F064
:10143A002CC025F0266A000E2424156E800E252065
:10144A00166E100E2620176E3A0E186E0F0E196EB3
:10145A00C2EC18F098EC1AF00C0E1B6EFF0E1C6E04
:10146A00FF0E1D6EFF0E1E6E51EC1AF02BC024F0FB
:10147A002CC025F0266A000E2424176E800E252023
:10148A00186E100E2620196E000E1B6EA00E1A6E14
:10149A0033EC1AF0020E98EC1AF02BC024F02CC090
:1014AA0025F0266A000E2424176E800E2520186E59
:1014BA00100E2620196E000E1B6E820E1A6E33EC69
:1014CA001AF0020E98EC1AF02BC024F02CC025F06A
:1014DA00266A000E2424176E800E2520186E100E20
:1014EA002620196E000E1B6E1C0E1A6E33EC1AF0B3
:1014FA00020E98EC1AF02BC024F02CC025F0266AB4
:10150A00000E2424176E800E2520186E100E262039
:10151A00196E000E1B6E000E1A6E33EC1AF0020ED4
:10152A0098EC1AF02BC024F02CC025F0266A000E85
:10153A002424156E800E2520166E100E2620176E96
:10154A003C0E186E0F0E196EC2EC18F098EC1AF0D9
:10155A000C0E1B6EFF0E1C6EFF0E1D6EFF0E1E6E16
:10156A0051EC1AF02BC024F02CC025F0266A000E8C
:10157A002424176E800E2520186E100E2620196E50
:10158A00000E1B6E9B0E1A6E33EC1AF0020E98ECCC
:10159A001AF02BC024F02CC025F0266A000E242451
:1015AA00176E800E2520186E100E2620196E000E5A
:1015BA001B6E5C0E1A6E33EC1AF0020E98EC1AF0DF
:1015CA002BC024F02CC025F0266A000E2424176EA6
:1015DA00800E2520186E100E2620196E000E1B6E26
:1015EA001C0E1A6E33EC1AF0020E98EC1AF02BC08D
:1015FA0024F02CC025F0266A000E2424176E800ED3
:10160A002520186E100E2620196E000E1B6E000E75
:10161A001A6E33EC1AF0020E98EC1AF02BC024F072
:10162A002CC025F0266A000E2424156E800E252073
:10163A00166E100E2620176E3E0E186E0F0E196EBD
:10164A00C2EC18F098EC1AF00C0E1B6EFF0E1C6E12
:10165A00FF0E1D6EFF0E1E6E51EC1AF02BC024F009
:10166A002CC025F0266A000E2424176E800E252031
:10167A00186E100E2620196E000E1B6EAB0E1A6E17
:10168A0033EC1AF0020E98EC1AF02BC024F02CC09E
:10169A0025F0266A000E2424176E800E2520186E67
:1016AA00100E2620196E000E1B6E3A0E1A6E33ECBF
:1016BA001AF0020E98EC1AF02BC024F02CC025F078
:1016CA00266A000E2424176E800E2520186E100E2E
:1016DA002620196E000E1B6E1C0E1A6E33EC1AF0C1
:1016EA00020E98EC1AF02BC024F02CC025F0266AC2
:1016FA00000E2424176E800E2520186E100E262048
:10170A00196E000E1B6E000E1A6E33EC1AF0020EE2
:10171A0098EC1AF02BC024F02CC025F0266A000E93
:10172A002424156E800E2520166E100E2620176EA4
:10173A00290E186E0F0E196EC2EC18F098EC1AF0FA
:10174A000C0E1B6EFF0E1C6EFF0E1D6EFF0E1E6E24
:10175A0051EC1AF02BC024F02CC025F0266A000E9A
:10176A002424176E800E2520186E100E2620196E5E
:10177A00000E1B6EC90E1A6E33EC1AF0020E98ECAC
:10178A001AF02BC024F02CC025F0266A000E24245F
:10179A00176E800E2520186E100E2620196E000E68
:1017AA001B6E210E1A6E33EC1AF0020E98EC1AF028
:1017BA002BC024F02CC025F0266A000E2424176EB4
:1017CA00800E2520186E100E2620196E000E1B6E34
:1017DA001C0E1A6E33EC1AF0020E98EC1AF02BC09B
:1017EA0024F02CC025F0266A000E2424176E800EE1
:1017FA002520186E100E2620196E000E1B6E000E84
:10180A001A6E33EC1AF0020E98EC1AF02BC024F080
:10181A002CC025F0266A000E2424156E800E252081
:10182A00166E100E2620176E400E186E0F0E196EC9
:10183A00C2EC18F098EC1AF00C0E1B6EFF0E1C6E20
:10184A00FF0E1D6EFF0E1E6E51EC1AF02BC024F017
:10185A002CC025F0266A000E2424176E800E25203F
:10186A00186E100E2620196E000E1B6EEB0E1A6EE5
:10187A0033EC1AF0020E98EC1AF02BC024F02CC0AC
:10188A0025F0266A000E2424176E800E2520186E75
:10189A00100E2620196E000E1B6E1A0E1A6E33ECED
:1018AA001AF0020E98EC1AF02BC024F02CC025F086
:1018BA00266A000E2424176E800E2520186E100E3C
:1018CA002620196E000E1B6E1C0E1A6E33EC1AF0CF
:1018DA00020E98EC1AF02BC024F02CC025F0266AD0
:1018EA00000E2424176E800E2520186E100E262056
:1018FA00196E000E1B6E000E1A6E33EC1AF0020EF1
:10190A0098EC1AF02BC024F02CC025F0266A000EA1
:10191A002424156E800E2520166E100E2620176EB2
:10192A00420E186E0F0E196EC2EC18F098EC1AF0EF
:10193A000C0E1B6EFF0E1C6EFF0E1D6EFF0E1E6E32
:10194A0051EC1AF02BC024F02CC025F0266A000EA8
:10195A002424176E800E2520186E100E2620196E6C
:10196A00010E1B6E0D0E1A6E33EC1AF0020E98EC75
:10197A001AF02BC024F02CC025F0266A000E24246D
:10198A00176E800E2520186E100E2620196E000E76
:10199A001B6E210E1A6E33EC1AF0020E98EC1AF036
:1019AA002BC024F02CC025F0266A000E2424176EC2
:1019BA00800E2520186E100E2620196E000E1B6E42
:1019CA001C0E1A6E33EC1AF0020E98EC1AF02BC0A9
:1019DA0024F02CC025F0266A000E2424176E800EEF
:1019EA002520186E100E2620196E000E1B6E000E92
:1019FA001A6E33EC1AF0020E98EC1AF02BC024F08F
:101A0A002CC025F0266A000E2424156E800E25208F
:101A1A00166E100E2620176E440E186E0F0E196ED3
:101A2A00C2EC18F098EC1AF00C0E1B6EFF0E1C6E2E
:101A3A00FF0E1D6EFF0E1E6E51EC1AF02BC024F025
:101A4A002CC025F0266A000E2424176E800E25204D
:101A5A00186E100E2620196E010E1B6E2A0E1A6EB3
:101A6A0033EC1AF0020E98EC1AF02BC024F02CC0BA
:101A7A0025F0266A000E2424176E800E2520186E83
:101A8A00100E2620196E000E1B6E3A0E1A6E33ECDB
:101A9A001AF0020E98EC1AF02BC024F02CC025F094
:101AAA00266A000E2424176E800E2520186E100E4A
:101ABA002620196E000E1B6E1C0E1A6E33EC1AF0DD
:101ACA00020E98EC1AF02BC024F02CC025F0266ADE
:101ADA00000E2424176E800E2520186E100E262064
:101AEA00196E000E1B6E000E1A6E33EC1AF0020EFF
:101AFA0098EC1AF02BC024F02CC025F0266A000EB0
:101B0A002424156E800E2520166E100E2620176EC0
:101B1A00460E186E0F0E196EC2EC18F098EC1AF0F9
:101B2A000C0E1B6EFF0E1C6EFF0E1D6EFF0E1E6E40
:101B3A0051EC1AF02BC024F02CC025F0266A000EB6
:101B4A002424176E800E2520186E100E2620196E7A
:101B5A00010E1B6E2D0E1A6E33EC1AF0020E98EC63
:101B6A001AF02BC024F02CC025F0266A000E24247B
:101B7A00176E800E2520186E100E2620196E000E84
:101B8A001B6E5C0E1A6E33EC1AF0020E98EC1AF009
:101B9A002BC024F02CC025F0266A000E2424176ED0
:101BAA00800E2520186E100E2620196E000E1B6E50
:101BBA001C0E1A6E33EC1AF0020E98EC1AF02BC0B7
:101BCA0024F02CC025F0266A000E2424176E800EFD
:101BDA002520186E100E2620196E000E1B6E000EA0
:101BEA001A6E33EC1AF0020E98EC1AF02BC024F09D
:101BFA002CC025F0266A000E2424156E800E25209E
:101C0A00166E100E2620176E330E186E0F0E196EF2
:101C1A00C2EC18F098EC1AF00C0E1B6EFF0E1C6E3C
:101C2A00FF0E1D6EFF0E1E6E51EC1AF02BC024F033
:101C3A002CC025F0266A000E2424176E800E25205B
:101C4A00186E100E2620196E010E1B6E2B0E1A6EC0
:101C5A0033EC1AF0020E98EC1AF02BC024F02CC0C8
:101C6A0025F0266A000E2424176E800E2520186E91
:101C7A00100E2620196E000E1B6E820E1A6E33ECA1
:101C8A001AF0020E98EC1AF02BC024F02CC025F0A2
:101C9A00266A000E2424176E800E2520186E100E58
:101CAA002620196E000E1B6E1C0E1A6E33EC1AF0EB
:101CBA00020E98EC1AF02BC024F02CC025F0266AEC
:101CCA00000E2424176E800E2520186E100E262072
:101CDA00196E000E1B6E000E1A6E33EC1AF0020E0D
:101CEA0098EC1AF02BC024F02CC025F0266A000EBE
:101CFA002424156E800E2520166E100E2620176ECF
:101D0A00360E186E0F0E196EC2EC18F098EC1AF017
:101D1A000C0E1B6EFF0E1C6EFF0E1D6EFF0E1E6E4E
:101D2A0051EC1AF02BC024F02CC025F0266A000EC4
:101D3A002424176E800E2520186E100E2620196E88
:101D4A00010E1B6E120E1A6E33EC1AF0020E98EC8C
:101D5A001AF02BC024F02CC025F0266A000E242489
:101D6A00176E800E2520186E100E2620196E000E92
:101D7A001B6EA10E1A6E33EC1AF0020E98EC1AF0D2
:101D8A002BC024F02CC025F0266A000E2424176EDE
:101D9A00800E2520186E100E2620196E000E1B6E5E
:101DAA001C0E1A6E33EC1AF0020E98EC1AF02BC0C5
:101DBA0024F02CC025F0266A000E2424176E800E0B
:101DCA002520186E100E2620196E000E1B6E000EAE
:101DDA001A6E33EC1AF0020E98EC1AF02BC024F0AB
:101DEA002CC025F0266A000E2424156E800E2520AC
:101DFA00166E100E2620176E390E186E0F0E196EFB
:101E0A00C2EC18F098EC1AF01200000E266E050EBD
:101E1A00256EFF0E1B6EFF0E1C6EFF0E1D6E040E4E
:101E2A001E6E51EC1AF00C0E1B6EFF0E1C6EFF0E8E
:101E3A001D6EFF0E1E6E51EC1AF02BC022F02CC044
:101E4A0023F0246A000E2224176E800E2320186EB7
:101E5A00100E2420196E000E1B6E050E1A6E33EC3E
:101E6A001AF0020E98EC1AF02BC022F02CC023F0C4
:101E7A00246A000E2224176E800E2320186E100E7C
:101E8A002420196E25C01AF026C01BF033EC1AF074
:101E9A00020E98EC1AF02BC022F02CC023F0246A10
:101EAA00000E2224176E800E2320186E100E242096
:101EBA00196E000E1B6E1A0E1A6E33EC1AF0020E11
:101ECA0098EC1AF02BC022F02CC023F0246A000EE2
:101EDA002224176E800E2320186E100E2420196EED
:101EEA00000E1B6E000E1A6E33EC1AF0020E98ECFE
:101EFA001AF02BC022F02CC023F0246A000E2224F0
:101F0A00156E800E2320166E100E2420176E070EF3
:101F1A00186E0F0E196EC2EC18F098EC1AF00C0E2F
:101F2A001B6EFF0E1C6EFF0E1D6EFF0E1E6E51EC19
:101F3A001AF02BC022F02CC023F0246A000E2224AF
:101F4A00176E800E2320186E100E2420196E000EB4
:101F5A001B6E050E1A6E33EC1AF0020E98EC1AF08C
:101F6A002BC022F02CC023F0246A000E2224176E04
:101F7A00800E2320186E100E2420196E0F0E2526AF
:101F8A00000E262225C01AF026C01BF033EC1AF0E8
:101F9A00020E98EC1AF02BC022F02CC023F0246A0F
:101FAA00000E2224176E800E2320186E100E242095
:101FBA00196E000E1B6E1A0E1A6E33EC1AF0020E10
:101FCA0098EC1AF02BC022F02CC023F0246A000EE1
:101FDA002224176E800E2320186E100E2420196EEC
:101FEA00000E1B6E000E1A6E33EC1AF0020E98ECFD
:101FFA001AF02BC022F02CC023F0246A000E2224EF
:10200A00156E800E2320166E100E2420176E1D0EDC
:10201A00186E0F0E196EC2EC18F098EC1AF00C0E2E
:10202A001B6EFF0E1C6EFF0E1D6EFF0E1E6E51EC18
:10203A001AF02BC022F02CC023F0246A000E2224AE
:10204A00176E800E2320186E100E2420196E000EB3
:10205A001B6E050E1A6E33EC1AF0020E98EC1AF08B
:10206A002BC022F02CC023F0246A000E2224176E03
:10207A00800E2320186E100E2420196E1E0E25269F
:10208A00000E262225C01AF026C01BF033EC1AF0E7
:10209A00020E98EC1AF02BC022F02CC023F0246A0E
:1020AA00000E2224176E800E2320186E100E242094
:1020BA00196E000E1B6E1A0E1A6E33EC1AF0020E0F
:1020CA0098EC1AF02BC022F02CC023F0246A000EE0
:1020DA002224176E800E2320186E100E2420196EEB
:1020EA00000E1B6E000E1A6E33EC1AF0020E98ECFC
:1020FA001AF02BC022F02CC023F0246A000E2224EE
:10210A00156E800E2320166E100E2420176E2F0EC9
:10211A00186E0F0E196EC2EC18F098EC1AF00C0E2D
:10212A001B6EFF0E1C6EFF0E1D6EFF0E1E6E51EC17
:10213A001AF02BC022F02CC023F0246A000E2224AD
:10214A00176E800E2320186E100E2420196E000EB2
:10215A001B6E050E1A6E33EC1AF0020E98EC1AF08A
:10216A002BC022F02CC023F0246A000E2224176E02
:10217A00800E2320186E100E2420196E0F0E2526AD
:10218A00000E262225C01AF026C01BF033EC1AF0E6
:10219A00020E98EC1AF02BC022F02CC023F0246A0D
:1021AA00000E2224176E800E2320186E100E242093
:1021BA00196E000E1B6E1A0E1A6E33EC1AF0020E0E
:1021CA0098EC1AF02BC022F02CC023F0246A000EDF
:1021DA002224176E800E2320186E100E2420196EEA
:1021EA00000E1B6E000E1A6E33EC1AF0020E98ECFB
:1021FA001AF02BC022F02CC023F0246A000E2224ED
:10220A00156E800E2320166E100E2420176E1D0EDA
:10221A00186E0F0E196EC2EC18F098EC1AF00C0E2C
:10222A001B6EFF0E1C6EFF0E1D6EFF0E1E6E51EC16
:10223A001AF02BC022F02CC023F0246A000E2224AC
:10224A00176E800E2320186E100E2420196E000EB1
:10225A001B6E050E1A6E33EC1AF0020E98EC1AF089
:10226A002BC022F02CC023F0246A000E2224176E01
:10227A00800E2320186E100E2420196E1E0E25269D
:10228A00000E262225C01AF026C01BF033EC1AF0E5
:10229A00020E98EC1AF02BC022F02CC023F0246A0C
:1022AA00000E2224176E800E2320186E100E242092
:1022BA00196E000E1B6E1A0E1A6E33EC1AF0020E0D
:1022CA0098EC1AF02BC022F02CC023F0246A000EDE
:1022DA002224176E800E2320186E100E2420196EE9
:1022EA00000E1B6E000E1A6E33EC1AF0020E98ECFA
:1022FA001AF02BC022F02CC023F0246A000E2224EC
:10230A00156E800E2320166E100E2420176E180EDE
:10231A00186E0F0E196EC2EC18F098EC1AF00C0E2B
:10232A001B6EFF0E1C6EFF0E1D6EFF0E1E6E51EC15
:10233A001AF02BC022F02CC023F0246A000E2224AB
:10234A00176E800E2320186E100E2420196E000EB0
:10235A001B6E050E1A6E33EC1AF0020E98EC1AF088
:10236A002BC022F02CC023F0246A000E2224176E00
:10237A00800E2320186E100E2420196E0F0E2526AB
:10238A00000E262225C01AF026C01BF033EC1AF0E4
:10239A00020E98EC1AF02BC022F02CC023F0246A0B
:1023AA00000E2224176E800E2320186E100E242091
:1023BA00196E000E1B6E1A0E1A6E33EC1AF0020E0C
:1023CA0098EC1AF02BC022F02CC023F0246A000EDD
:1023DA002224176E800E2320186E100E2420196EE8
:1023EA00000E1B6E000E1A6E33EC1AF0020E98ECF9
:1023FA001AF02BC022F02CC023F0246A000E2224EB
:10240A00156E800E2320166E100E2420176E130EE2
:10241A00186E0F0E196EC2EC18F098EC1AF00C0E2A
:10242A001B6EFF0E1C6EFF0E1D6EFF0E1E6E51EC14
:10243A001AF02BC022F02CC023F0246A000E2224AA
:10244A00176E800E2320186E100E2420196E000EAF
:10245A001B6E050E1A6E33EC1AF0020E98EC1AF087
:10246A002BC022F02CC023F0246A000E2224176EFF
:10247A00800E2320186E100E2420196E1E0E25269B
:10248A00000E262225C01AF026C01BF033EC1AF0E3
:10249A00020E98EC1AF02BC022F02CC023F0246A0A
:1024AA00000E2224176E800E2320186E100E242090
:1024BA00196E000E1B6E1A0E1A6E33EC1AF0020E0B
:1024CA0098EC1AF02BC022F02CC023F0246A000EDC
:1024DA002224176E800E2320186E100E2420196EE7
:1024EA00000E1B6E000E1A6E33EC1AF0020E98ECF8
:1024FA001AF02BC022F02CC023F0246A000E2224EA
:10250A00156E800E2320166E100E2420176E220ED2
:10251A00186E0F0E196EC2EC18F098EC1AF00C0E29
:10252A001B6EFF0E1C6EFF0E1D6EFF0E1E6E51EC13
:10253A001AF02BC022F02CC023F0246A000E2224A9
:10254A00176E800E2320186E100E2420196E000EAE
:10255A001B6E050E1A6E33EC1AF0020E98EC1AF086
:10256A002BC022F02CC023F0246A000E2224176EFE
:10257A00800E2320186E100E2420196E0F0E2526A9
:10258A00000E262225C01AF026C01BF033EC1AF0E2
:10259A00020E98EC1AF02BC022F02CC023F0246A09
:1025AA00000E2224176E800E2320186E100E24208F
:1025BA00196E000E1B6E1A0E1A6E33EC1AF0020E0A
:1025CA0098EC1AF02BC022F02CC023F0246A000EDB
:1025DA002224176E800E2320186E100E2420196EE6
:1025EA00000E1B6E000E1A6E33EC1AF0020E98ECF7
:1025FA001AF02BC022F02CC023F0246A000E2224E9
:10260A00156E800E2320166E100E2420176E0D0EE6
:10261A00186E0F0E196EC2EC18F098EC1AF00C0E28
:10262A001B6EFF0E1C6EFF0E1D6EFF0E1E6E51EC12
:10263A001AF02BC022F02CC023F0246A000E2224A8
:10264A00176E800E2320186E100E2420196E010EAC
:10265A001B6E680E1A6E33EC1AF0020E98EC1AF022
:10266A002BC022F02CC023F0246A000E2224176EFD
:10267A00800E2320186E100E2420196E000E1B6E79
:10268A00960E1A6E33EC1AF0020E98EC1AF02BC062
:10269A0022F02CC023F0246A000E2224176E800E2A
:1026AA002320186E100E2420196E000E1B6E1A0EAF
:1026BA001A6E33EC1AF0020E98EC1AF02BC022F0C4
:1026CA002CC023F0246A000E2224176E800E2320C9
:1026DA00186E100E2420196E000E1B6E000E1A6E54
:1026EA0033EC1AF0020E98EC1AF02BC022F02CC030
:1026FA0023F0246A000E2224156E800E2320166E03
:10270A00100E2420176E010E186E0F0E196EC2ECF1
:10271A0018F098EC1AF00C0E1B6EFF0E1C6EFF0ED2
:10272A001D6EFF0E1E6E51EC1AF02BC022F02CC04B
:10273A0023F0246A000E2224176E800E2320186EBE
:10274A00100E2420196E010E1B6E680E1A6E33ECE1
:10275A001AF0020E98EC1AF02BC022F02CC023F0CB
:10276A00246A000E2224176E800E2320186E100E83
:10277A002420196E000E1B6EA50E1A6E33EC1AF089
:10278A00020E98EC1AF02BC022F02CC023F0246A17
:10279A00000E2224176E800E2320186E100E24209D
:1027AA00196E000E1B6E1A0E1A6E33EC1AF0020E18
:1027BA0098EC1AF02BC022F02CC023F0246A000EE9
:1027CA002224176E800E2320186E100E2420196EF4
:1027DA00000E1B6E000E1A6E33EC1AF0020E98EC05
:1027EA001AF02BC022F02CC023F0246A000E2224F7
:1027FA00156E800E2320166E100E2420176E2B0ED7
:10280A00186E0F0E196EC2EC18F098EC1AF00C0E36
:10281A001B6EFF0E1C6EFF0E1D6EFF0E1E6E51EC20
:10282A001AF02BC022F02CC023F0246A000E2224B6
:10283A00176E800E2320186E100E2420196E010EBA
:10284A001B6E950E1A6E33EC1AF0020E98EC1AF003
:10285A002BC022F02CC023F0246A000E2224176E0B
:10286A00800E2320186E100E2420196E000E1B6E87
:10287A008C0E1A6E33EC1AF0020E98EC1AF02BC07A
:10288A0022F02CC023F0246A000E2224176E800E38
:10289A002320186E100E2420196E000E1B6E1F0EB8
:1028AA001A6E33EC1AF0020E98EC1AF02BC022F0D2
:1028BA002CC023F0246A000E2224176E800E2320D7
:1028CA00186E100E2420196E000E1B6E000E1A6E62
:1028DA0033EC1AF0020E98EC1AF02BC022F02CC03E
:1028EA0023F0246A000E2224156E800E2320166E11
:1028FA00100E2420176E270E186E0F0E196EC2ECDA
:10290A0018F098EC1AF01200600E1B6E000E1C6E86
:10291A00000E1D6E0E0E1E6E51EC1AF0000E1B6E8E
:10292A007D0E1C6ECA0E1D6E040E1E6E51EC1AF040
:10293A00030E1B6E000E1C6E000E1D6E1F0E1E6E09
:10294A0051EC1AF0FAD1000E1B6EF00E1C6E800EBE
:10295A001D6EB40E1E6E51EC1AF0000E1B6E300E78
:10296A001C6E870E1D6EB40E1E6E51EC1AF0000E10
:10297A001B6EF00E1C6E600E1D6EB40E1E6E51ECB8
:10298A001AF0000E1B6EE00E1C6E010E1D6EB20ECA
:10299A001E6E51EC1AF0000E1B6E400E1C6EA70E36
:1029AA001D6EB20E1E6E51EC1AF0000E1B6E400E1A
:1029BA001C6E670E1D6EB60E1E6E51EC1AF01200DA
:1029CA00000E1B6EF00E1C6E800E1D6EAF0E1E6E7C
:1029DA0051EC1AF0000E1B6EF00E1C6E800E1D6E6E
:1029EA00B90E1E6E51EC1AF0000E1B6E000E1C6E14
:1029FA00810E1D6EB90E1E6E51EC1AF0000E1B6E82
:102A0A00000E1C6E840E1D6EB90E1E6E51EC1AF06D
:102A1A00000E1B6E100E1C6E840E1D6EB90E1E6EFD
:102A2A0051EC1AF0000E1B6E100E1C6E840E1D6EF9
:102A3A00AF0E1E6E51EC1AF0000E1B6E200E1C6EAD
:102A4A00840E1D6EAF0E1E6E51EC1AF0000E1B6E38
:102A5A00300E1C6E870E1D6EAF0E1E6E51EC1AF0F4
:102A6A00000E1B6E300E1C6EA70E1D6EAF0E1E6E74
:102A7A0051EC1AF0000E1B6E300E1C6E870E1D6E86
:102A8A00B90E1E6E51EC1AF01200000E1B6EF00EFB
:102A9A001C6E800E1D6EAF0E1E6E51EC1AF0000EEB
:102AAA001B6EF00E1C6E600E1D6EB90E1E6E51EC82
:102ABA001AF0000E1B6E000E1C6E810E1D6EB90EF2
:102ACA001E6E51EC1AF0000E1B6E300E1C6E870E35
:102ADA001D6EB90E1E6E51EC1AF0000E1B6E100E12
:102AEA001C6E640E1D6EB90E1E6E51EC1AF0000EAD
:102AFA001B6E100E1C6E840E1D6EAF0E1E6E51ECF8
:102B0A001AF0000E1B6E300E1C6EA70E1D6EAF0E55
:102B1A001E6E51EC1AF0000E1B6E300E1C6E670E04
:102B2A001D6EB90E1E6E51EC1AF01200000E1B6ECD
:102B3A00F00E1C6E800E1D6EAF0E1E6E51EC1AF05A
:102B4A00000E1B6E000E1C6E840E1D6EAF0E1E6EE6
:102B5A0051EC1AF0000E1B6E000E1C6E810E1D6EDB
:102B6A00B90E1E6E51EC1AF0000E1B6E300E1C6E62
:102B7A00870E1D6EB90E1E6E51EC1AF0000E1B6EFA
:102B8A00100E1C6E240E1D6EB90E1E6E51EC1AF03C
:102B9A00000E1B6E100E1C6EA40E1D6EAF0E1E6E66
:102BAA0051EC1AF01200000E1B6EF00E1C6E800E15
:102BBA001D6EAF0E1E6E51EC1AF0000E1B6EF00E5B
:102BCA001C6E600E1D6EB90E1E6E51EC1AF0000ED0
:102BDA001B6E000E1C6E810E1D6EAF0E1E6E51EC2A
:102BEA001AF0000E1B6E000E1C6E840E1D6EAF0EC8
:102BFA001E6E51EC1AF0000E1B6E100E1C6E840E27
:102C0A001D6EB90E1E6E51EC1AF0000E1B6E200ED0
:102C1A001C6E870E1D6EB90E1E6E51EC1AF0000E58
:102C2A001B6E100E1C6E240E1D6EB90E1E6E51EC1C
:102C3A001AF0000E1B6E100E1C6EA40E1D6EAF0E47
:102C4A001E6E51EC1AF0000E1B6E300E1C6EA70E93
:102C5A001D6EAF0E1E6E51EC1AF0000E1B6E300E7A
:102C6A001C6E670E1D6EB90E1E6E51EC1AF0120024
:102C7A00000E1B6EF00E1C6E800E1D6EAF0E1E6EC9
:102C8A0051EC1AF0000E1B6EF00E1C6E600E1D6EDB
:102C9A00B90E1E6E51EC1AF0000E1B6E000E1C6E61
:102CAA00810E1D6EAF0E1E6E51EC1AF0000E1B6ED9
:102CBA00300E1C6E870E1D6EAF0E1E6E51EC1AF092
:102CCA00000E1B6E100E1C6E840E1D6EB90E1E6E4B
:102CDA0051EC1AF0000E1B6E200E1C6E870E1D6E34
:102CEA00B90E1E6E51EC1AF0000E1B6E100E1C6E01
:102CFA00240E1D6EB90E1E6E51EC1AF0000E1B6EDC
:102D0A00100E1C6EA40E1D6EAF0E1E6E51EC1AF044
:102D1A00000E1B6E300E1C6EA70E1D6EAF0E1E6EC1
:102D2A0051EC1AF0000E1B6E300E1C6E670E1D6EF3
:102D3A00B90E1E6E51EC1AF0120022C024F023C004
:102D4A0025F02550000AD8A412002450010AD8B44C
:102D5A00FAD5030AD8B434D6010AD8B496D6070AE3
:102D6A00D8B4E4D6010AD8B41ED7030AD8A41200EC
:102D7A007FD78B92680E1F6EE40EE82EFED71F2EA9
:102D8A00FCD700D08B82680E1F6EE40EE82EFED7A9
:102D9A001F2EFCD700D0000EB3EC1AF0440EB3EC91
:102DAA001AF0620EB3EC1AF0300E176E240E186E7B
:102DBA00100E196E010E1B6EE00E1A6E33EC1AF02D
:102DCA00440E176E240E186E100E196E010E1B6E2D
:102DDA00100E1A6E33EC1AF0280E176E240E186EA7
:102DEA00100E196E020E1B6E0D0E1A6E33EC1AF0CF
:102DFA00340E176E240E186E100E196E000E1B6E0E
:102E0A00000E1A6E33EC1AF0380E176E240E186E76
:102E1A00100E196E000E1B6E290E1A6E33EC1AF084
:102E2A002C0E176E240E186E100E196E000E1B6EE5
:102E3A002B0E1A6E33EC1AF03C0E176E240E186E17
:102E4A00100E196E010E1B6E1E0E1A6E33EC1AF05E
:102E5A00480E176E240E186E100E196E000E1B6E99
:102E6A00000E1A6E33EC1AF04C0E176E240E186E02
:102E7A00100E196E000E1B6E0A0E1A6E33EC1AF043
:102E8A00400E176E240E186E100E196E000E1B6E71
:102E9A000C0E1A6E33EC1AF0640E106E240E116EBC
:102EAA00100E126E000E136E6DEC1AF05C0E106EA0
:102EBA00240E116E100E126E000E136E6DEC1AF0C7
:102ECA00580E176E240E186E100E196E010E1B6E18
:102EDA00B60E1A6E33EC1AF0600E106E240E116ED6
:102EEA00100E126E000E136E6DEC1AF0680E106E54
:102EFA00240E116E100E126E000E136E6DEC1AF087
:102F0A00540E106E240E116E100E126E000E136EF9
:102F1A006DEC1AF0000E106E000E116E100E126E8D
:102F2A00000E136E1A0E146E000E156E020E166E39
:102F3A004AEC19F0040E106E000E116E100E126E8D
:102F4A00070E136E000E146E000E156E260E166E08
:102F5A004AEC19F0080E106E000E116E100E126E69
:102F6A00000E136E000E146E000E156E000E166E15
:102F7A004AEC19F0500E106E240E116E100E126EDD
:102F8A00020E136E6DEC1AF08C0E106E240E116E7A
:102F9A00100E126EFC0E136E6DEC1AF0900E106E7F
:102FAA00240E116E100E126EFF0E136E6DEC1AF0D7
:102FBA006C0E106E240E116E100E126E050E136E2C
:102FCA006DEC1AF0E80E106E240E116E100E126ED1
:102FDA0086EC19F010C02BF011C02CF0E40E106E24
:102FEA00240E116E100E126E86EC19F02B5010186A
:102FFA00F5E12C501118D8B41200F0D7800E6F6E7C
:10300A006E50E00B800AD8A4FBD7000E726E0E0138
:10301A00FA690E01FB690E01F8690E01F9690E01E0
:10302A00FE690E01FF690E01FC690E01FD69000EC1
:10303A000E01E26F000E0E01E36FC80E0E01E06F83
:10304A00000E0E01E16F000E0E01E66F000E0E017A
:10305A00E76F000E0E01E46F000E0E01E56F000E21
:10306A000E01EA6F000E0E01EB6F000E0E01E86F03
:10307A00000E0E01E96F000E0E01EE6F000E0E013A
:10308A00EF6F000E0E01EC6F000E0E01ED6F000ED9
:10309A000E01F26F000E0E01F36F000E0E01F06FBB
:1030AA00000E0E01F16F000E0E01F66F000E0E01FA
:1030BA00F76F000E0E01F46F000E0E01F56F000E91
:1030CA000E01436F980E0E01446F010E0E01456FFB
:1030DA00000E6F6E6ECF0FF0E00E0F16D8B412000E
:1030EA00F9D7000E2A6E000E296ED6EC1AF07080FF
:1030FA00708A709E708C608A609C60946090C79E93
:10310A00C78CC68AC688C690C692C694C696BEECB6
:10311A0016F0CBEC1AF0A6EC1AF0F5EC19F00AEC62
:10312A000FF0000E236E020E226E89EC14F0070EC9
:10313A00236ED00E226EA5EC07F0D4EC19F089822A
:10314A00020E286E040E276EBA0EE82EFED7272E20
:10315A00FCD7282EFAD700D0AA0EF7EC1AF08992DB
:10316A00020E286E040E276EBA0EE82EFED7272E00
:10317A00FCD7282EFAD700D0E2D78C9017508009B6
:10318A00E8EC1AF015C01AF016C01BF017C01CF0B4
:10319A001BC01AF01CC01BF01C6A1A50E8EC1AF08B
:1031AA001550E8EC1AF018C00FF019C010F014EC22
:1031BA001AF00F501D6E000E1E6E13D01E50010D18
:1031CA0018C01AF019C01BF0F3501A26F4501B222B
:1031DA001AC0F6FF1BC0F7FF0800F550E8EC1AF01A
:1031EA001E2A1E501D5CD8A005D0E8D7000EE8ECB8
:1031FA001AF01E2A1EC01AF0030E1A16D8A4F6D701
:10320A008C801E501200000E146E12AE06D0116C85
:10321A00121ED8B0122A010E146E10AE06D00F6C10
:10322A00101ED8B0102A010E141A000E166E000EC7
:10323A00156E11501210D8B41CD0010E136E04D0A2
:10324A00D89011361236132A12AEFAD7D8901536FC
:10325A00163611500F5C12501058D8A005D01150D4
:10326A000F5E1250105A1580D89012321132132E56
:10327A00EDD71450D8B404D0156C161ED8B0162A3F
:10328A0015C00FF016C010F012008C901250800971
:10329A00E8EC1AF010C017F011C018F012C019F0BB
:1032AA0018C017F019C018F0196A1750E8EC1AF08C
:1032BA001050E8EC1AF01350E8EC1AF01450E8EC4D
:1032CA001AF01550E8EC1AF013C017F014C018F0F1
:1032DA0015C019F016C01AF0110E05D0D8901A327E
:1032EA00193218321732E82EF9D718C017F019C058
:1032FA0018F01AC019F01A6A1750E8EC1AF08C8004
:10330A0012008C901250E8EC1AF010C013F011C0A1
:10331A0014F012C015F014C013F015C014F0156A99
:10332A001350E8EC1AF01050E8EC1AF0000EE8EC32
:10333A001AF0000EE8EC1AF0C9CF16F0000EE8EC0D
:10334A001AF08C80C950136E1650106E13C011F00B
:10335A001200000E8D6E000E8C6E070E896E000E26
:10336A008A6E000E8B6E070E966EED0E926EFB0E37
:10337A00936E950E946EBC0E956EF80E0F015D6FEE
:10338A00650E0F015C6F0F015B690F015A89100E00
:10339A000F6E360E106E03EC1BF0F2861200000E52
:1033AA001B6E000E1C6E000E1D6E000E1E6E51EC82
:1033BA001AF0010E1B6EFF0E1C6EFF0E1D6EFF0E25
:1033CA001E6E51EC1AF0E80E176E240E186E100ECF
:1033DA00196E2BC01AF02CC01BF033EC1AF0120035
:1033EA00000E1B6EFF0E1C6EFF0E1D6EFF0E1E6E74
:1033FA0051EC1AF0140E1B6E140E1C6E140E1D6E78
:10340A00020E1E6E51EC1AF0070E1B6E000E1C6E99
:10341A00000E1D6E260E1E6E51EC1AF012000FC021
:10342A0013F010C014F002D0134A142A13C0F6FF86
:10343A0014C0F7FF0800F5500009D8A4F5D70FC04B
:10344A0011F010C012F0111E121E114A122A135046
:10345A0011240F6E14501220106E12008C90195005
:10346A008009E8EC1AF017C01CF018C01DF019C04A
:10347A001EF01DC01CF01EC01DF01E6A1C50E8EC98
:10348A001AF01750E8EC1AF01A50E8EC1AF01B5030
:10349A00E8EC1AF08C8012002BC01FF02CC020F030
:1034AA00216A000E1F24106E800E2020116E100E4D
:1034BA002120126E1BC013F01CC014F01DC015F0A1
:1034CA001EC016F04AEC19F0040E98EC1AF012001D
:1034DA008C9012508009E8EC1AF010C014F011C058
:1034EA0015F012C016F015C014F016C015F0166AC1
:1034FA001450E8EC1AF01050E8EC1AF01350E8EC0B
:10350A001AF08C8012002F503010D8B4120001D853
:10351A0012000500FA6E2F50FD6E3050FE6EF85004
:10352A00FF6EFA501200116E11502B240F6E000E0E
:10353A002C20106EFF0E0F142B6E0F0E10142C6E13
:10354A001200290E106E960E0F6E7F0EE82EFED711
:10355A000F2EFCD7102EFAD700F01200106E8C90A6
:10356A001050E8EC1AF0000EE8EC1AF0000EE8EC45
:10357A001AF08C8012002E6A2D6A2C6A2B6A3190FE
:10358A003192000EF86E000176EF18F0080EA76E61
:10359A00900EAB6E240EAC6E220EAF6E000E7D6ED8
:1035AA001200AEEC19F0DFEC1AF0F0EC1AF003ECB2
:1035BA0018F01200600ED36E000ED26E000E9B6ED3
:1035CA00000E9A6E12000F6EC69E0FC0C9FFC7A0EA
:1035DA00FED7C9501200000EC76E200EC66E000E2E
:1035EA00C86E12000F6E9EA8FED70FC0ADFF120064
:1035FA000F015AB988EC1AF0F29012000FC02FF09E
:08360A0010C030F012001200A4
:020000040020DA
:08000000FFFFFFFFFFFFFFFF00
:020000040030CA
:0E00000015037F7CFF8991FF0FC00FE00F40BA
:00000001FF
