:0400000075EF00F0A8
:100008003E82FACF10F0FBCF11F0E9CF12F0EACF21
:1000180013F0E1CF14F0E2CF15F0D9CF16F0DACF14
:1000280017F0F3CF18F0F4CF19F0F6CF1AF0F7CF96
:100038001BF0F8CF1CF0F5CF1DF03EC01EF03FC0FE
:100048001FF040C020F041C021F077A024D0769066
:10005800010E2C6E62CF01F0615027EC34F001C024
:100068002DF002C02EF003C02FF004C030F065CF91
:1000780031F066CF32F067CF33F068CF34F069CF14
:1000880035F06ACF36F06BCF37F06CCF38F06DCFE4
:1000980039F0609E768021C041F020C040F01FC03A
:1000A8003FF01EC03EF01DC0F5FF1CC0F8FF1BC08E
:1000B800F7FF1AC0F6FF19C0F4FF18C0F3FF17C006
:1000C800DAFF16C0D9FF15C0E2FF14C0E1FF13C064
:1000D800EAFF12C0E9FF11C0FBFF10C0FAFF3E9211
:0600E80011005FEF36F08D
:100F00000053504545440057415445520050524506
:100F1000535300564F4C54530068656C6C6F00522D
:100F20003138200055534544004655454C00544542
:100F30004D50004C415354004245535400424154DB
:100F400054004B5048004F494C0052504D004C410A
:100F50005000313000313100313200545000250052
:100F60002E003300340035003600370038003900D9
:050F70003A006B0000D7
:100F76006DC022F06EC023F0030E256EE80E246EBF
:100F86006AEC34F022C076F023C077F0000E256EAE
:100F9600640E246E6DC022F06EC023F06AEC34F04D
:100FA60022C060F023C061F0000E0001636F0A0EDC
:100FB600626FEAEC34F060C074F061C075F0FF0E49
:100FC6000001666FFF0E676FFF0E686F040E696F94
:100FD600CDEC35F0090E0001666FFF0E676FFF0E50
:100FE600686FFF0E696FCDEC35F0320E0001666F4B
:100FF600320E676F320E686F000E696FCDEC35F0FA
:10100600130E0001666FFF0E676FFF0E686FFF0E0F
:10101600696FCDEC35F03AC06FF03BC070F000015F
:10102600716B000E6F25236E800E7021246E100EDC
:101036007121256E000E276EF00E266EAFEC35F090
:10104600020E51EC36F03AC06FF03BC070F0000172
:10105600716B000E6F25236E800E7021246E100EAC
:101066007121256E000E276E730E266EAFEC35F0DD
:10107600020E51EC36F03AC06FF03BC070F0000142
:10108600716B000E6F25236E800E7021246E100E7C
:101096007121256E000E276E820E266EAFEC35F09E
:1010A600020E51EC36F03AC06FF03BC070F0000112
:1010B600716B000E6F25236E800E7021246E100E4C
:1010C6007121256E510E276E000E266EAFEC35F09F
:1010D600020E51EC36F03AC06FF03BC070F00001E2
:1010E600716B000E6F25236E800E7021246E100E1C
:1010F6007121256E000E276E0A0E266EAFEC35F0B6
:10110600020E51EC36F03AC06FF03BC070F00001B1
:10111600716B000E6F25236E800E7021246E100EEB
:101126007121256E000E276E050E266EAFEC35F08A
:10113600020E51EC36F03AC06FF03BC070F0000181
:10114600716B000E6F25236E800E7021246E100EBB
:101156007121256E000E276E000E266EAFEC35F05F
:10116600020E51EC36F03AC06FF03BC070F0000151
:10117600716B000E6F25236E800E7021246E100E8B
:101186007121256E000E276E320E266EAFEC35F0FD
:10119600020E51EC36F0000E0001666F000E676F0E
:1011A600FF0E686F040E696FCDEC35F0000177BF56
:1011B60006D0775103E1020E765DD8B0CBD0130E80
:1011C600666FFF0E676FFF0E686FFF0E696FCDECDF
:1011D60035F03AC06FF03BC070F00001716B000E45
:1011E6006F25236E800E7021246E100E7121256EE0
:1011F600000E276EF00E266EAFEC35F0020E51ECA7
:1012060036F03AC06FF03BC070F00001716B000E13
:101216006F25236E800E7021246E100E7121256EAF
:10122600000E276E730E266EAFEC35F0020E51ECF3
:1012360036F03AC06FF03BC070F00001716B000EE3
:101246006F25236E800E7021246E100E7121256E7F
:10125600000E276E820E266EAFEC35F0020E51ECB4
:1012660036F03AC06FF03BC070F00001716B000EB3
:101276006F25236E800E7021246E100E7121256E4F
:10128600310E276E000E266EAFEC35F0020E51ECD5
:1012960036F03AC06FF03BC070F00001716B000E83
:1012A6006F25236E800E7021246E100E7121256E1F
:1012B600000E276E0A0E266EAFEC35F0020E51ECCC
:1012C60036F03AC06FF03BC070F00001716B000E53
:1012D6006F25236E800E7021246E100E7121256EEF
:1012E600000E276E050E266EAFEC35F0020E51ECA1
:1012F60036F03AC06FF03BC070F00001716B000E23
:101306006F25236E800E7021246E100E7121256EBE
:1013160076C026F077C027F0AFEC35F0020E51EC20
:1013260036F03AC06FF03BC070F00001716B000EF2
:101336006F25236E800E7021246E100E7121256E8E
:10134600000E276E320E266EAFEC35F0020E51EC13
:1013560036F0ECD0FE0E00017625226EFF0E7721C8
:10136600236E000E256E050E246E3EEC36F022C06E
:101376006FF023C070F074C022F075C023F0000E29
:10138600256E020E246E6AEC34F0225000016F25A1
:10139600726F23507021736F130E666FFF0E676FA7
:1013A600FF0E686FFF0E696FCDEC35F03AC06FF037
:1013B6003BC070F00001716B000E6F25236E800E2E
:1013C6007021246E100E7121256E000E276EF00E10
:1013D600266EAFEC35F0020E51EC36F03AC06FF0E7
:1013E6003BC070F00001716B000E6F25236E800EFE
:1013F6007021246E100E7121256E000E276E730E5D
:10140600266EAFEC35F0020E51EC36F03AC06FF0B6
:101416003BC070F00001716B000E6F25236E800ECD
:101426007021246E100E7121256E000E276E820E1D
:10143600266EAFEC35F0020E51EC36F03AC06FF086
:101446003BC070F00001716B000E6F25236E800E9D
:101456007021246E100E7121256E310E276E000E3E
:10146600266EAFEC35F0020E51EC36F03AC06FF056
:101476003BC070F00001716B000E6F25236E800E6D
:101486007021246E100E7121256E000E276E0A0E35
:10149600266EAFEC35F0020E51EC36F03AC06FF026
:1014A6003BC070F00001716B000E6F25236E800E3D
:1014B6007021246E100E7121256E000E276E050E0A
:1014C600266EAFEC35F0020E51EC36F03AC06FF0F6
:1014D6003BC070F00001716B000E6F25236E800E0D
:1014E6007021246E100E7121256E72C026F073C015
:1014F60027F0AFEC35F0020E51EC36F03AC06FF043
:101506003BC070F00001716B000E6F25236E800EDC
:101516007021246E100E7121256E000E276E320E7C
:10152600266EAFEC35F0020E51EC36F0FF0E0001E0
:10153600666FFF0E676FFF0E686F040E696FCDEC66
:1015460035F02E0E0001666FFF0E676FFF0E686F97
:10155600FF0E696FCDEC35F03AC06FF03BC070F00E
:101566000001716B000E6F25236E800E7021246EB4
:10157600100E7121256E000E276EED0E266EAFEC55
:1015860035F0020E51EC36F03AC06FF03BC070F009
:101596000001716B000E6F25236E800E7021246E84
:1015A600100E7121256E000E276E590E266EAFECB9
:1015B60035F0020E51EC36F03AC06FF03BC070F0D9
:1015C6000001716B000E6F25236E800E7021246E54
:1015D600100E7121256E000E276E1F0E266EAFECC3
:1015E60035F0020E51EC36F03AC06FF03BC070F0A9
:1015F6000001716B000E6F25236E800E7021246E24
:10160600100E7121256E080E276E000E266EAFECA9
:1016160035F0020E51EC36F076C066F077C067F012
:101626000001000E67BFFF0E686F696FCDEC35F0E5
:101636002E0E0001666FFF0E676FFF0E686FFF0EBE
:10164600696FCDEC35F03AC06FF03BC070F0000129
:10165600716B000E6F25236E800E7021246E100EA6
:101666007121256E000E276EF30E266EAFEC35F057
:10167600020E51EC36F03AC06FF03BC070F000013C
:10168600716B000E6F25236E800E7021246E100E76
:101696007121256E000E276E590E266EAFEC35F0C1
:1016A600020E51EC36F03AC06FF03BC070F000010C
:1016B600716B000E6F25236E800E7021246E100E46
:1016C6007121256E000E276E1F0E266EAFEC35F0CB
:1016D600020E51EC36F03AC06FF03BC070F00001DC
:1016E600716B000E6F25236E800E7021246E100E16
:1016F6007121256E000E276E000E266EAFEC35F0BA
:10170600020E51EC36F074C066F075C067F0000149
:10171600000E67BFFF0E686F696FCDEC35F00C0EDB
:101726000001666FFF0E676FFF0E686FFF0E696F31
:10173600CDEC35F03AC06FF03BC070F00001716B34
:10174600000E6F25236E800E7021246E100E7121FF
:10175600256E000E276EB70E266EAFEC35F0020E24
:1017660051EC36F03AC06FF03BC070F00001716B7F
:10177600000E6F25236E800E7021246E100E7121CF
:10178600256E000E276EA10E266EAFEC35F0020E0A
:1017960051EC36F03AC06FF03BC070F00001716B4F
:1017A600000E6F25236E800E7021246E100E71219F
:1017B600256E000E276E1C0E266EAFEC35F0020E5F
:1017C60051EC36F03AC06FF03BC070F00001716B1F
:1017D600000E6F25236E800E7021246E100E71216F
:1017E600256E000E276E000E266EAFEC35F0020E4B
:1017F60051EC36F03AC06FF03BC070F00001716BEF
:10180600000E6F25606F800E7021616F100E7121C2
:10181600626F590E636F0F0E646F97EC33F051ECE5
:1018260036F00C0E0001666FFF0E676FFF0E686FD5
:10183600FF0E696FCDEC35F03AC06FF03BC070F02B
:101846000001716B000E6F25236E800E7021246ED1
:10185600100E7121256E000E276EA00E266EAFECBF
:1018660035F0020E51EC36F03AC06FF03BC070F026
:101876000001716B000E6F25236E800E7021246EA1
:10188600100E7121256E000E276E820E266EAFECAD
:1018960035F0020E51EC36F03AC06FF03BC070F0F6
:1018A6000001716B000E6F25236E800E7021246E71
:1018B600100E7121256E000E276E1C0E266EAFECE3
:1018C60035F0020E51EC36F03AC06FF03BC070F0C6
:1018D6000001716B000E6F25236E800E7021246E41
:1018E600100E7121256E000E276E000E266EAFECCF
:1018F60035F0020E51EC36F03AC06FF03BC070F096
:101906000001716B000E6F25606F800E7021616F94
:10191600100E7121626F620E636F0F0E646F97EC8B
:1019260033F051EC36F00C0E0001666FFF0E676F58
:10193600FF0E686FFF0E696FCDEC35F03AC06FF0A1
:101946003BC070F00001716B000E6F25236E800E98
:101956007021246E100E7121256E000E276E9B0ECF
:10196600266EAFEC35F0020E51EC36F03AC06FF051
:101976003BC070F00001716B000E6F25236E800E68
:101986007021246E100E7121256E000E276E5C0EDE
:10199600266EAFEC35F0020E51EC36F03AC06FF021
:1019A6003BC070F00001716B000E6F25236E800E38
:1019B6007021246E100E7121256E000E276E1C0EEE
:1019C600266EAFEC35F0020E51EC36F03AC06FF0F1
:1019D6003BC070F00001716B000E6F25236E800E08
:1019E6007021246E100E7121256E000E276E000EDA
:1019F600266EAFEC35F0020E51EC36F03AC06FF0C1
:101A06003BC070F00001716B000E6F25606F800E99
:101A16007021616F100E7121626F640E636F0F0E7D
:101A2600646F97EC33F051EC36F00C0E0001666FE4
:101A3600FF0E676FFF0E686FFF0E696FCDEC35F016
:101A46003AC06FF03BC070F00001716B000E6F255D
:101A5600236E800E7021246E100E7121256E000EED
:101A6600276EAB0E266EAFEC35F0020E51EC36F05B
:101A76003AC06FF03BC070F00001716B000E6F252D
:101A8600236E800E7021246E100E7121256E000EBD
:101A9600276E3A0E266EAFEC35F0020E51EC36F09C
:101AA6003AC06FF03BC070F00001716B000E6F25FD
:101AB600236E800E7021246E100E7121256E000E8D
:101AC600276E1C0E266EAFEC35F0020E51EC36F08A
:101AD6003AC06FF03BC070F00001716B000E6F25CD
:101AE600236E800E7021246E100E7121256E000E5D
:101AF600276E000E266EAFEC35F0020E51EC36F076
:101B06003AC06FF03BC070F00001716B000E6F259C
:101B1600606F800E7021616F100E7121626F660E0C
:101B2600636F0F0E646F97EC33F051EC36F00C0ECA
:101B36000001666FFF0E676FFF0E686FFF0E696F1D
:101B4600CDEC35F03AC06FF03BC070F00001716B20
:101B5600000E6F25236E800E7021246E100E7121EB
:101B6600256E000E276EC90E266EAFEC35F0020EFE
:101B760051EC36F03AC06FF03BC070F00001716B6B
:101B8600000E6F25236E800E7021246E100E7121BB
:101B9600256E000E276E210E266EAFEC35F0020E76
:101BA60051EC36F03AC06FF03BC070F00001716B3B
:101BB600000E6F25236E800E7021246E100E71218B
:101BC600256E000E276E1C0E266EAFEC35F0020E4B
:101BD60051EC36F03AC06FF03BC070F00001716B0B
:101BE600000E6F25236E800E7021246E100E71215B
:101BF600256E000E276E000E266EAFEC35F0020E37
:101C060051EC36F03AC06FF03BC070F00001716BDA
:101C1600000E6F25606F800E7021616F100E7121AE
:101C2600626F680E636F0F0E646F97EC33F051ECC2
:101C360036F00C0E0001666FFF0E676FFF0E686FC1
:101C4600FF0E696FCDEC35F03AC06FF03BC070F017
:101C56000001716B000E6F25236E800E7021246EBD
:101C6600100E7121256E000E276EEB0E266EAFEC60
:101C760035F0020E51EC36F03AC06FF03BC070F012
:101C86000001716B000E6F25236E800E7021246E8D
:101C9600100E7121256E000E276E1A0E266EAFEC01
:101CA60035F0020E51EC36F03AC06FF03BC070F0E2
:101CB6000001716B000E6F25236E800E7021246E5D
:101CC600100E7121256E000E276E1C0E266EAFECCF
:101CD60035F0020E51EC36F03AC06FF03BC070F0B2
:101CE6000001716B000E6F25236E800E7021246E2D
:101CF600100E7121256E000E276E000E266EAFECBB
:101D060035F0020E51EC36F03AC06FF03BC070F081
:101D16000001716B000E6F25606F800E7021616F80
:101D2600100E7121626F6A0E636F0F0E646F97EC6F
:101D360033F051EC36F00C0E0001666FFF0E676F44
:101D4600FF0E686FFF0E696FCDEC35F03AC06FF08D
:101D56003BC070F00001716B000E6F25236E800E84
:101D66007021246E100E7121256E010E276E0D0E48
:101D7600266EAFEC35F0020E51EC36F03AC06FF03D
:101D86003BC070F00001716B000E6F25236E800E54
:101D96007021246E100E7121256E000E276E210E05
:101DA600266EAFEC35F0020E51EC36F03AC06FF00D
:101DB6003BC070F00001716B000E6F25236E800E24
:101DC6007021246E100E7121256E000E276E1C0EDA
:101DD600266EAFEC35F0020E51EC36F03AC06FF0DD
:101DE6003BC070F00001716B000E6F25236E800EF4
:101DF6007021246E100E7121256E000E276E000EC6
:101E0600266EAFEC35F0020E51EC36F03AC06FF0AC
:101E16003BC070F00001716B000E6F25606F800E85
:101E26007021616F100E7121626F6C0E636F0F0E61
:101E3600646F97EC33F051EC36F00C0E0001666FD0
:101E4600FF0E676FFF0E686FFF0E696FCDEC35F002
:101E56003AC06FF03BC070F00001716B000E6F2549
:101E6600236E800E7021246E100E7121256E010ED8
:101E7600276E2A0E266EAFEC35F0020E51EC36F0C8
:101E86003AC06FF03BC070F00001716B000E6F2519
:101E9600236E800E7021246E100E7121256E000EA9
:101EA600276E3A0E266EAFEC35F0020E51EC36F088
:101EB6003AC06FF03BC070F00001716B000E6F25E9
:101EC600236E800E7021246E100E7121256E000E79
:101ED600276E1C0E266EAFEC35F0020E51EC36F076
:101EE6003AC06FF03BC070F00001716B000E6F25B9
:101EF600236E800E7021246E100E7121256E000E49
:101F0600276E000E266EAFEC35F0020E51EC36F061
:101F16003AC06FF03BC070F00001716B000E6F2588
:101F2600606F800E7021616F100E7121626F6E0EF0
:101F3600636F0F0E646F97EC33F051EC36F00C0EB6
:101F46000001666FFF0E676FFF0E686FFF0E696F09
:101F5600CDEC35F03AC06FF03BC070F00001716B0C
:101F6600000E6F25236E800E7021246E100E7121D7
:101F7600256E010E276E2D0E266EAFEC35F0020E85
:101F860051EC36F03AC06FF03BC070F00001716B57
:101F9600000E6F25236E800E7021246E100E7121A7
:101FA600256E000E276E5C0E266EAFEC35F0020E27
:101FB60051EC36F03AC06FF03BC070F00001716B27
:101FC600000E6F25236E800E7021246E100E712177
:101FD600256E000E276E1C0E266EAFEC35F0020E37
:101FE60051EC36F03AC06FF03BC070F00001716BF7
:101FF600000E6F25236E800E7021246E100E712147
:10200600256E000E276E000E266EAFEC35F0020E22
:1020160051EC36F03AC06FF03BC070F00001716BC6
:10202600000E6F25606F800E7021616F100E71219A
:10203600626F520E636F0F0E646F97EC33F051ECC4
:1020460036F00C0E0001666FFF0E676FFF0E686FAD
:10205600FF0E696FCDEC35F03AC06FF03BC070F003
:102066000001716B000E6F25236E800E7021246EA9
:10207600100E7121256E010E276E2B0E266EAFEC0B
:1020860035F0020E51EC36F03AC06FF03BC070F0FE
:102096000001716B000E6F25236E800E7021246E79
:1020A600100E7121256E000E276E820E266EAFEC85
:1020B60035F0020E51EC36F03AC06FF03BC070F0CE
:1020C6000001716B000E6F25236E800E7021246E49
:1020D600100E7121256E000E276E1C0E266EAFECBB
:1020E60035F0020E51EC36F03AC06FF03BC070F09E
:1020F6000001716B000E6F25236E800E7021246E19
:10210600100E7121256E000E276E000E266EAFECA6
:1021160035F0020E51EC36F03AC06FF03BC070F06D
:102126000001716B000E6F25606F800E7021616F6C
:10213600100E7121626F550E636F0F0E646F97EC70
:1021460033F051EC36F00C0E0001666FFF0E676F30
:10215600FF0E686FFF0E696FCDEC35F03AC06FF079
:102166003BC070F00001716B000E6F25236E800E70
:102176007021246E100E7121256E010E276E120E2F
:10218600266EAFEC35F0020E51EC36F03AC06FF029
:102196003BC070F00001716B000E6F25236E800E40
:1021A6007021246E100E7121256E000E276EA10E71
:1021B600266EAFEC35F0020E51EC36F03AC06FF0F9
:1021C6003BC070F00001716B000E6F25236E800E10
:1021D6007021246E100E7121256E000E276E1C0EC6
:1021E600266EAFEC35F0020E51EC36F03AC06FF0C9
:1021F6003BC070F00001716B000E6F25236E800EE0
:102206007021246E100E7121256E000E276E000EB1
:10221600266EAFEC35F0020E51EC36F03AC06FF098
:102226003BC070F00001716B000E6F25606F800E71
:102236007021616F100E7121626F580E636F0F0E61
:10224600646F97EC33F051EC36F00C0E0001666FBC
:10225600FF0E676FFF0E686FFF0E696FCDEC35F0EE
:102266003AC06FF03BC070F00001716B000E6F2535
:10227600236E800E7021246E100E7121256E000EC5
:10228600276EF10E266EAFEC35F0020E51EC36F0ED
:102296003AC06FF03BC070F00001716B000E6F2505
:1022A600236E800E7021246E100E7121256E000E95
:1022B600276E720E266EAFEC35F0020E51EC36F03C
:1022C6003AC06FF03BC070F00001716B000E6F25D5
:1022D600236E800E7021246E100E7121256E000E65
:1022E600276E1F0E266EAFEC35F0020E51EC36F05F
:1022F6003AC06FF03BC070F00001716B000E6F25A5
:10230600236E800E7021246E100E7121256E060E2E
:10231600276E000E266EAFEC35F0020E51EC36F04D
:102326003AC06FF03BC070F00001716B000E6F2574
:10233600606F800E7021616F100E7121626F600EEA
:10234600636F0F0E646F97EC33F051EC36F00C0EA2
:102356000001666FFF0E676FFF0E686FFF0E696FF5
:10236600CDEC35F03AC06FF03BC070F00001716BF8
:10237600000E6F25236E800E7021246E100E7121C3
:10238600256E010E276E0B0E266EAFEC35F0020E93
:1023960051EC36F03AC06FF03BC070F00001716B43
:1023A600000E6F25236E800E7021246E100E712193
:1023B600256E000E276E6C0E266EAFEC35F0020E03
:1023C60051EC36F03AC06FF03BC070F00001716B13
:1023D600000E6F25236E800E7021246E100E712163
:1023E600256E000E276E1C0E266EAFEC35F0020E23
:1023F60051EC36F03AC06FF03BC070F00001716BE3
:10240600000E6F25236E800E7021246E100E712132
:10241600256E000E276E000E266EAFEC35F0020E0E
:1024260051EC36F03AC06FF03BC070F00001716BB2
:10243600000E6F25606F800E7021616F100E712186
:10244600626F720E636F0F0E646F97EC33F051EC90
:1024560036F00C0E0001666FFF0E676FFF0E686F99
:10246600FF0E696FCDEC35F03AC06FF03BC070F0EF
:102476000001716B000E6F25236E800E7021246E95
:10248600100E7121256E000E276EE30E266EAFEC40
:1024960035F0020E51EC36F03AC06FF03BC070F0EA
:1024A6000001716B000E6F25236E800E7021246E65
:1024B600100E7121256E000E276E840E266EAFEC6F
:1024C60035F0020E51EC36F03AC06FF03BC070F0BA
:1024D6000001716B000E6F25236E800E7021246E35
:1024E600100E7121256E000E276E1A0E266EAFECA9
:1024F60035F0020E51EC36F03AC06FF03BC070F08A
:102506000001716B000E6F25236E800E7021246E04
:10251600100E7121256E000E276E000E266EAFEC92
:1025260035F0020E51EC36F03AC06FF03BC070F059
:102536000001716B000E6F25606F800E7021616F58
:10254600100E7121626F4A0E636F0F0E646F97EC67
:1025560033F051EC36F01200000E0001666F000EEB
:10256600676FFF0E686F040E696FCDEC35F0080ECD
:102576000001666F000E676F000E686F1F0E696FB1
:10258600CDEC35F0000E0001666F800E676F0C0E05
:10259600686F800E696FCDEC35F0000E0001666F36
:1025A600800E676F6C0E686F970E696FCDEC35F015
:1025B600000E0001666FD00E676F0A0E686F9B0EE5
:1025C600696FCDEC35F0000E0001666FD00E676FB7
:1025D600EA0E686FA00E696FCDEC35F0000E0001B3
:1025E600666F800E676F8C0E686FA40E696FCDECF8
:1025F60035F0000E0001666F800E676F0C0E686F77
:10260600BC0E696FCDEC35F0000E0001666F000E52
:10261600676F000E686F040E696FCDEC35F0080E1B
:102626000001666F000E676F000E686F1F0E696F00
:10263600CDEC35F0000E0001666FD00E676F0C0E04
:10264600686F800E696FCDEC35F0000E0001666F85
:10265600C00E676FAC0E686F970E696FCDEC35F0E4
:10266600000E0001666F100E676F2B0E686F9B0ED3
:10267600696FCDEC35F0000E0001666F100E676FC6
:10268600AB0E686FA00E696FCDEC35F0000E000141
:10269600666FC00E676F2C0E686FA40E696FCDEC67
:1026A60035F0000E0001666FD00E676F6C0E686F16
:1026B600BC0E696FCDEC35F0000E0001666F7D0E25
:1026C600676FFF0E686F040E696FCDEC35F00C0E68
:1026D6000001666FFF0E676FFF0E686FFF0E696F72
:1026E600CDEC35F03AC078F03BC079F000017A6B5A
:1026F600000E7825236E800E7921246E100E7A2125
:10270600256E000E276E050E266EAFEC35F0020E16
:1027160051EC36F03AC078F03BC079F000017A6BA4
:10272600000E7825236E800E7921246E100E7A21F4
:10273600256E000E276ECF0E266EAFEC35F0020E1C
:1027460051EC36F03AC078F03BC079F000017A6B74
:10275600000E7825236E800E7921246E100E7A21C4
:10276600256E000E276E1B0E266EAFEC35F0020EA0
:1027760051EC36F03AC078F03BC079F000017A6B44
:10278600000E7825236E800E7921246E100E7A2194
:10279600256E000E276E000E266EAFEC35F0020E8B
:1027A60051EC36F03AC078F03BC079F000017A6B14
:1027B600000E7825606F800E7921616F100E7A21E8
:1027C600626F330E636F0F0E646F97EC33F051EC4C
:1027D60036F02E0E0001666FFF0E676FFF0E686FF4
:1027E600FF0E696FCDEC35F03AC078F03BC079F05A
:1027F60000017A6B000E7825236E800E7921246EF7
:10280600100E7A21256E000E276E420E266EAFEC54
:1028160035F0020E51EC36F03AC078F03BC079F054
:1028260000017A6B000E7825236E800E7921246EC6
:10283600100E7A21256E000E276ED90E266EAFEC8D
:1028460035F0020E51EC36F03AC078F03BC079F024
:1028560000017A6B000E7825236E800E7921246E96
:10286600100E7A21256E000E276E1B0E266EAFEC1B
:1028760035F0020E51EC36F03AC078F03BC079F0F4
:1028860000017A6B000E7825236E800E7921246E66
:10289600100E7A21256E060E276E000E266EAFEC00
:1028A60035F0020E51EC36F0000E0001666F000E98
:1028B600676F000E686F000E696FCDEC35F00C0E79
:1028C6000001666FFF0E676FFF0E686FFF0E696F80
:1028D600CDEC35F03AC078F03BC079F000017A6B68
:1028E600000E7825236E800E7921246E100E7A2133
:1028F600256E010E276EC00E266EAFEC35F0020E69
:1029060051EC36F03AC078F03BC079F000017A6BB2
:10291600000E7825236E800E7921246E100E7A2102
:10292600256E000E276ECF0E266EAFEC35F0020E2A
:1029360051EC36F03AC078F03BC079F000017A6B82
:10294600000E7825236E800E7921246E100E7A21D2
:10295600256E000E276E1B0E266EAFEC35F0020EAE
:1029660051EC36F03AC078F03BC079F000017A6B52
:10297600000E7825236E800E7921246E100E7A21A2
:10298600256E080E276E000E266EAFEC35F0020E91
:1029960051EC36F03AC078F03BC079F000017A6B22
:1029A600000E7825606F800E7921616F100E7A21F6
:1029B600626F380E636F0F0E646F97EC33F051EC55
:1029C60036F02E0E0001666FFF0E676FFF0E686F02
:1029D600FF0E696FCDEC35F03AC078F03BC079F068
:1029E60000017A6B000E7825236E800E7921246E05
:1029F600100E7A21256E010E276EDB0E266EAFECC9
:102A060035F0020E51EC36F03AC078F03BC079F062
:102A160000017A6B000E7825236E800E7921246ED4
:102A2600100E7A21256E000E276ECF0E266EAFECA5
:102A360035F0020E51EC36F03AC078F03BC079F032
:102A460000017A6B000E7825236E800E7921246EA4
:102A5600100E7A21256E000E276E1B0E266EAFEC29
:102A660035F0020E51EC36F03AC078F03BC079F002
:102A760000017A6B000E7825236E800E7921246E74
:102A8600100E7A21256E080E276E000E266EAFEC0C
:102A960035F0020E51EC36F0000E0001666F000EA6
:102AA600676F000E686F000E696FCDEC35F00C0E87
:102AB6000001666FFF0E676FFF0E686FFF0E696F8E
:102AC600CDEC35F03AC078F03BC079F000017A6B76
:102AD600000E7825236E800E7921246E100E7A2141
:102AE600256E000E276EF00E266EAFEC35F0020E48
:102AF60051EC36F03AC078F03BC079F000017A6BC1
:102B0600000E7825236E800E7921246E100E7A2110
:102B1600256E000E276EA50E266EAFEC35F0020E62
:102B260051EC36F03AC078F03BC079F000017A6B90
:102B3600000E7825236E800E7921246E100E7A21E0
:102B4600256E000E276E1B0E266EAFEC35F0020EBC
:102B560051EC36F03AC078F03BC079F000017A6B60
:102B6600000E7825236E800E7921246E100E7A21B0
:102B7600256E060E276E000E266EAFEC35F0020EA1
:102B860051EC36F03AC078F03BC079F000017A6B30
:102B9600000E7825606F800E7921616F100E7A2104
:102BA600626F4E0E636F0F0E646F97EC33F051EC4D
:102BB60036F02E0E0001666FFF0E676FFF0E686F10
:102BC600FF0E696FCDEC35F03AC078F03BC079F076
:102BD60000017A6B000E7825236E800E7921246E13
:102BE600100E7A21256E000E276EF00E266EAFECC3
:102BF60035F0020E51EC36F03AC078F03BC079F071
:102C060000017A6B000E7825236E800E7921246EE2
:102C1600100E7A21256E000E276EBE0E266EAFECC4
:102C260035F0020E51EC36F03AC078F03BC079F040
:102C360000017A6B000E7825236E800E7921246EB2
:102C4600100E7A21256E000E276E1D0E266EAFEC35
:102C560035F0020E51EC36F03AC078F03BC079F010
:102C660000017A6B000E7825236E800E7921246E82
:102C7600100E7A21256E060E276E000E266EAFEC1C
:102C860035F0020E51EC36F0000E0001666F000EB4
:102C9600676F000E686F000E696FCDEC35F0FF0EA2
:102CA6000001666FFF0E676FFF0E686F040E696F97
:102CB600CDEC35F02E0E0001666FFF0E676FFF0E2E
:102CC600686FFF0E696FCDEC35F03AC078F03BC007
:102CD60079F000017A6B000E7825236E800E79213B
:102CE600246E100E7A21256E000E276E240E266E97
:102CF600AFEC35F0020E51EC36F03AC078F03BC03E
:102D060079F000017A6B000E7825236E800E79210A
:102D1600246E100E7A21256E000E276EDE0E266EAC
:102D2600AFEC35F0020E51EC36F03AC078F03BC00D
:102D360079F000017A6B000E7825236E800E7921DA
:102D4600246E100E7A21256E000E276E1E0E266E3C
:102D5600AFEC35F0020E51EC36F03AC078F03BC0DD
:102D660079F000017A6B000E7825236E800E7921AA
:102D7600246E100E7A21256E080E276E000E266E22
:102D8600AFEC35F0020E51EC36F0000E0001666F26
:102D9600000E676F000E686F000E696FCDEC35F0A0
:102DA6000C0E0001666FFF0E676FFF0E686FFF0E59
:102DB600696FCDEC35F03AC078F03BC079F0000190
:102DC6007A6B000E7825236E800E7921246E100E04
:102DD6007A21256E000E276E270E266EAFEC35F093
:102DE600020E51EC36F03AC078F03BC079F00001A3
:102DF6007A6B000E7825236E800E7921246E100ED4
:102E06007A21256E000E276EEE0E266EAFEC35F09B
:102E1600020E51EC36F03AC078F03BC079F0000172
:102E26007A6B000E7825236E800E7921246E100EA3
:102E36007A21256E000E276E1C0E266EAFEC35F03D
:102E4600020E51EC36F03AC078F03BC079F0000142
:102E56007A6B000E7825236E800E7921246E100E73
:102E66007A21256E060E276E000E266EAFEC35F023
:102E7600020E51EC36F03AC078F03BC079F0000112
:102E86007A6B000E7825606F800E7921616F100EC7
:102E96007A21626F700E636F0F0E646F97EC33F0DA
:102EA60051EC36F02E0E0001666FFF0E676FFF0EB7
:102EB600686FFF0E696FCDEC35F03AC078F03BC015
:102EC60079F000017A6B000E7825236E800E792149
:102ED600246E100E7A21256E000E276E2A0E266E9F
:102EE600AFEC35F0020E51EC36F03AC078F03BC04C
:102EF60079F000017A6B000E7825236E800E792119
:102F0600246E100E7A21256E000E276EDE0E266EBA
:102F1600AFEC35F0020E51EC36F03AC078F03BC01B
:102F260079F000017A6B000E7825236E800E7921E8
:102F3600246E100E7A21256E000E276E1E0E266E4A
:102F4600AFEC35F0020E51EC36F03AC078F03BC0EB
:102F560079F000017A6B000E7825236E800E7921B8
:102F6600246E100E7A21256E000E276E020E266E36
:102F7600AFEC35F0020E51EC36F0000E0001666F34
:102F8600000E676F000E686F000E696FCDEC35F0AE
:102F96000C0E0001666FFF0E676FFF0E686FFF0E67
:102FA600696FCDEC35F03AC078F03BC079F000019E
:102FB6007A6B000E7825236E800E7921246E100E12
:102FC6007A21256E000E276E4F0E266EAFEC35F079
:102FD600020E51EC36F03AC078F03BC079F00001B1
:102FE6007A6B000E7825236E800E7921246E100EE2
:102FF6007A21256E000E276EEE0E266EAFEC35F0AA
:10300600020E51EC36F03AC078F03BC079F0000180
:103016007A6B000E7825236E800E7921246E100EB1
:103026007A21256E000E276E1C0E266EAFEC35F04B
:10303600020E51EC36F03AC078F03BC079F0000150
:103046007A6B000E7825236E800E7921246E100E81
:103056007A21256E060E276E000E266EAFEC35F031
:10306600020E51EC36F03AC078F03BC079F0000120
:103076007A6B000E7825606F800E7921616F100ED5
:103086007A21626F700E636F0F0E646F97EC33F0E8
:1030960051EC36F02E0E0001666FFF0E676FFF0EC5
:1030A600686FFF0E696FCDEC35F03AC078F03BC023
:1030B60079F000017A6B000E7825236E800E792157
:1030C600246E100E7A21256E000E276E520E266E85
:1030D600AFEC35F0020E51EC36F03AC078F03BC05A
:1030E60079F000017A6B000E7825236E800E792127
:1030F600246E100E7A21256E000E276EDD0E266ECA
:10310600AFEC35F0020E51EC36F03AC078F03BC029
:1031160079F000017A6B000E7825236E800E7921F6
:10312600246E100E7A21256E000E276E1E0E266E58
:10313600AFEC35F0020E51EC36F03AC078F03BC0F9
:1031460079F000017A6B000E7825236E800E7921C6
:10315600246E100E7A21256E000E276E020E266E44
:10316600AFEC35F0020E51EC36F0000E0001666F42
:10317600000E676F000E686F000E696FCDEC35F0BC
:103186002E0E0001666FFF0E676FFF0E686FFF0E53
:10319600696FCDEC35F03AC078F03BC079F00001AC
:1031A6007A6B000E7825236E800E7921246E100E20
:1031B6007A21256E010E276E8D0E266EAFEC35F048
:1031C600020E51EC36F03AC078F03BC079F00001BF
:1031D6007A6B000E7825236E800E7921246E100EF0
:1031E6007A21256E000E276EDE0E266EAFEC35F0C8
:1031F600020E51EC36F03AC078F03BC079F000018F
:103206007A6B000E7825236E800E7921246E100EBF
:103216007A21256E000E276E1E0E266EAFEC35F057
:10322600020E51EC36F03AC078F03BC079F000015E
:103236007A6B000E7825236E800E7921246E100E8F
:103246007A21256E080E276E000E266EAFEC35F03D
:10325600020E51EC36F0000E0001666F000E676F2D
:10326600000E686F000E696FCDEC35F00C0E000194
:10327600666FFF0E676FFF0E686FFF0E696FCDEC0E
:1032860035F03AC078F03BC079F000017A6B000E59
:103296007825236E800E7921246E100E7A21256EF4
:1032A600010E276E900E266EAFEC35F0020E51EC35
:1032B60036F03AC078F03BC079F000017A6B000E28
:1032C6007825236E800E7921246E100E7A21256EC4
:1032D600000E276EEF0E266EAFEC35F0020E51ECA7
:1032E60036F03AC078F03BC079F000017A6B000EF8
:1032F6007825236E800E7921246E100E7A21256E94
:10330600000E276E1C0E266EAFEC35F0020E51EC49
:1033160036F03AC078F03BC079F000017A6B000EC7
:103326007825236E800E7921246E100E7A21256E63
:10333600060E276E000E266EAFEC35F0020E51EC2F
:1033460036F03AC078F03BC079F000017A6B000E97
:103356007825606F800E7921616F100E7A21626F79
:10336600700E636F0F0E646F97EC33F051EC36F00E
:103376002E0E0001666FFF0E676FFF0E686FFF0E61
:10338600696FCDEC35F03AC078F03BC079F00001BA
:103396007A6B000E7825236E800E7921246E100E2E
:1033A6007A21256E010E276E930E266EAFEC35F050
:1033B600020E51EC36F03AC078F03BC079F00001CD
:1033C6007A6B000E7825236E800E7921246E100EFE
:1033D6007A21256E000E276EDE0E266EAFEC35F0D6
:1033E600020E51EC36F03AC078F03BC079F000019D
:1033F6007A6B000E7825236E800E7921246E100ECE
:103406007A21256E000E276E1E0E266EAFEC35F065
:10341600020E51EC36F03AC078F03BC079F000016C
:103426007A6B000E7825236E800E7921246E100E9D
:103436007A21256E000E276E020E266EAFEC35F051
:10344600020E51EC36F0000E0001666F000E676F3B
:10345600000E686F000E696FCDEC35F00C0E0001A2
:10346600666FFF0E676FFF0E686FFF0E696FCDEC1C
:1034760035F03AC078F03BC079F000017A6B000E67
:103486007825236E800E7921246E100E7A21256E02
:10349600010E276EB70E266EAFEC35F0020E51EC1C
:1034A60036F03AC078F03BC079F000017A6B000E36
:1034B6007825236E800E7921246E100E7A21256ED2
:1034C600000E276EEF0E266EAFEC35F0020E51ECB5
:1034D60036F03AC078F03BC079F000017A6B000E06
:1034E6007825236E800E7921246E100E7A21256EA2
:1034F600000E276E1C0E266EAFEC35F0020E51EC58
:1035060036F03AC078F03BC079F000017A6B000ED5
:103516007825236E800E7921246E100E7A21256E71
:10352600060E276E000E266EAFEC35F0020E51EC3D
:1035360036F03AC078F03BC079F000017A6B000EA5
:103546007825606F800E7921616F100E7A21626F87
:10355600700E636F0F0E646F97EC33F051EC36F01C
:103566002E0E0001666FFF0E676FFF0E686FFF0E6F
:10357600696FCDEC35F03AC078F03BC079F00001C8
:103586007A6B000E7825236E800E7921246E100E3C
:103596007A21256E010E276EDB0E266EAFEC35F016
:1035A600020E51EC36F03AC078F03BC079F00001DB
:1035B6007A6B000E7825236E800E7921246E100E0C
:1035C6007A21256E000E276EDE0E266EAFEC35F0E4
:1035D600020E51EC36F03AC078F03BC079F00001AB
:1035E6007A6B000E7825236E800E7921246E100EDC
:1035F6007A21256E000E276E1E0E266EAFEC35F074
:10360600020E51EC36F03AC078F03BC079F000017A
:103616007A6B000E7825236E800E7921246E100EAB
:103626007A21256E080E276E000E266EAFEC35F059
:10363600020E51EC36F0000E0001666F000E676F49
:10364600000E686F000E696FCDEC35F02E0E00018E
:10365600666FFF0E676FFF0E686FFF0E696FCDEC2A
:1036660035F03AC078F03BC079F000017A6B000E75
:103676007825236E800E7921246E100E7A21256E10
:10368600000E276ED90E266EAFEC35F0020E51EC09
:1036960036F03AC078F03BC079F000017A6B000E44
:1036A6007825236E800E7921246E100E7A21256EE0
:1036B600000E276EED0E266EAFEC35F0020E51ECC5
:1036C60036F03AC078F03BC079F000017A6B000E14
:1036D6007825236E800E7921246E100E7A21256EB0
:1036E600000E276E1E0E266EAFEC35F0020E51EC64
:1036F60036F03AC078F03BC079F000017A6B000EE4
:103706007825236E800E7921246E100E7A21256E7F
:10371600080E276E000E266EAFEC35F0020E51EC49
:1037260036F0000E0001666F000E676F000E686FC0
:10373600000E696FCDEC35F00C0E0001666FFF0EC2
:10374600676FFF0E686FFF0E696FCDEC35F03AC0FC
:1037560078F03BC079F000017A6B000E7825236E75
:10376600800E7921246E100E7A21256E000E276EAA
:10377600DD0E266EAFEC35F0020E51EC36F03AC097
:1037860078F03BC079F000017A6B000E7825236E45
:10379600800E7921246E100E7A21256E000E276E7A
:1037A600FE0E266EAFEC35F0020E51EC36F03AC046
:1037B60078F03BC079F000017A6B000E7825236E15
:1037C600800E7921246E100E7A21256E000E276E4A
:1037D6001C0E266EAFEC35F0020E51EC36F03AC0F8
:1037E60078F03BC079F000017A6B000E7825236EE5
:1037F600800E7921246E100E7A21256E060E276E14
:10380600000E266EAFEC35F0020E51EC36F03AC0E3
:1038160078F03BC079F000017A6B000E7825606F76
:10382600800E7921616F100E7A21626F700E636FC0
:103836000F0E646F97EC33F051EC36F02E0E00014C
:10384600666FFF0E676FFF0E686FFF0E696FCDEC38
:1038560035F03AC078F03BC079F000017A6B000E83
:103866007825236E800E7921246E100E7A21256E1E
:10387600000E276EF00E266EAFEC35F0020E51EC00
:1038860036F03AC078F03BC079F000017A6B000E52
:103896007825236E800E7921246E100E7A21256EEE
:1038A600000E276E2668AFEC35F0020E51EC36F0AE
:1038B6003AC078F03BC079F000017A6B000E7825AB
:1038C600236E800E7921246E100E7A21256E000E4D
:1038D600276E1E0E266EAFEC35F0020E51EC36F05A
:1038E6003AC078F03BC079F000017A6B000E78257B
:1038F600236E800E7921246E100E7A21256E060E17
:10390600276E000E266EAFEC35F0020E51EC36F047
:10391600000E0001666F000E676F000E686F000EE6
:10392600696FCDEC35F00C0E0001666FFF0E676F08
:10393600FF0E686FFF0E696FCDEC35F03AC078F078
:103946003BC079F000017A6B000E7825236E800E5D
:103956007921246E100E7A21256E010E276E050E32
:10396600266EAFEC35F0020E51EC36F03AC078F028
:103976003BC079F000017A6B000E7825236E800E2D
:103986007921246E100E7A21256E000E276EFE0E0A
:10399600266EAFEC35F0020E51EC36F03AC078F0F8
:1039A6003BC079F000017A6B000E7825236E800EFD
:1039B6007921246E100E7A21256E000E276E1C0EBC
:1039C600266EAFEC35F0020E51EC36F03AC078F0C8
:1039D6003BC079F000017A6B000E7825236E800ECD
:1039E6007921246E100E7A21256E060E276E000EA2
:1039F600266EAFEC35F0020E51EC36F03AC078F098
:103A06003BC079F000017A6B000E7825606F800E5E
:103A16007921616F100E7A21626F700E636F0F0E3F
:103A2600646F97EC33F051EC36F02E0E0001666FA2
:103A3600FF0E676FFF0E686FFF0E696FCDEC35F0F6
:103A46003AC078F03BC079F000017A6B000E782519
:103A5600236E800E7921246E100E7A21256E010EBA
:103A6600276E2A0E266EAFEC35F0020E51EC36F0BC
:103A76003AC078F03BC079F000017A6B000E7825E9
:103A8600236E800E7921246E100E7A21256E000E8B
:103A9600276EED0E266EAFEC35F0020E51EC36F0C9
:103AA6003AC078F03BC079F000017A6B000E7825B9
:103AB600236E800E7921246E100E7A21256E000E5B
:103AC600276E1E0E266EAFEC35F0020E51EC36F068
:103AD6003AC078F03BC079F000017A6B000E782589
:103AE600236E800E7921246E100E7A21256E080E23
:103AF600276E000E266EAFEC35F0020E51EC36F056
:103B0600000E0001666F000E676F000E686F000EF4
:103B1600696FCDEC35F01200000E0001716F050ED5
:103B2600706FFF0E666FFF0E676FFF0E686F040EF5
:103B3600696FCDEC35F00C0E0001666FFF0E676FF6
:103B4600FF0E686FFF0E696FCDEC35F03AC06DF071
:103B56003BC06EF000016F6B000E6D25236E800E6C
:103B66006E21246E100E6F21256E000E276E050E37
:103B7600266EAFEC35F0020E51EC36F03AC06DF021
:103B86003BC06EF000016F6B000E6D25236E800E3C
:103B96006E21246E100E6F21256E70C026F071C046
:103BA60027F0AFEC35F0020E51EC36F03AC06DF06E
:103BB6003BC06EF000016F6B000E6D25236E800E0C
:103BC6006E21246E100E6F21256E000E276E1A0EC2
:103BD600266EAFEC35F0020E51EC36F03AC06DF0C1
:103BE6003BC06EF000016F6B000E6D25236E800EDC
:103BF6006E21246E100E6F21256E000E276E000EAC
:103C0600266EAFEC35F0020E51EC36F03AC06DF090
:103C16003BC06EF000016F6B000E6D25606F800E6D
:103C26006E21616F100E6F21626F070E636F0F0EAC
:103C3600646F97EC33F051EC36F00C0E0001666FB2
:103C4600FF0E676FFF0E686FFF0E696FCDEC35F0E4
:103C56003AC06DF03BC06EF000016F6B000E6D2533
:103C6600236E800E6E21246E100E6F21256E000EBF
:103C7600276E050E266EAFEC35F0020E51EC36F0CF
:103C86003AC06DF03BC06EF000016F6B000E6D2503
:103C9600236E800E6E21246E100E6F21256E0F0E80
:103CA6007027000E712370C026F071C027F0AFECAC
:103CB60035F0020E51EC36F03AC06DF03BC06EF0B6
:103CC60000016F6B000E6D25236E800E6E21246E33
:103CD600100E6F21256E000E276E1A0E266EAFECA3
:103CE60035F0020E51EC36F03AC06DF03BC06EF086
:103CF60000016F6B000E6D25236E800E6E21246E03
:103D0600100E6F21256E000E276E000E266EAFEC8C
:103D160035F0020E51EC36F03AC06DF03BC06EF055
:103D260000016F6B000E6D25606F800E6E21616F56
:103D3600100E6F21626F2E0E636F0F0E646F97EC7D
:103D460033F051EC36F00C0E0001666FFF0E676F14
:103D5600FF0E686FFF0E696FCDEC35F03AC06DF05F
:103D66003BC06EF000016F6B000E6D25236E800E5A
:103D76006E21246E100E6F21256E000E276E050E25
:103D8600266EAFEC35F0020E51EC36F03AC06DF00F
:103D96003BC06EF000016F6B000E6D25236E800E2A
:103DA6006E21246E100E6F21256E190E7027000EDF
:103DB600712370C026F071C027F0AFEC35F0020E0B
:103DC60051EC36F03AC06DF03BC06EF000016F6BFF
:103DD600000E6D25236E800E6E21246E100E6F214F
:103DE600256E000E276E1A0E266EAFEC35F0020E0B
:103DF60051EC36F03AC06DF03BC06EF000016F6BCF
:103E0600000E6D25236E800E6E21246E100E6F211E
:103E1600256E000E276E000E266EAFEC35F0020EF4
:103E260051EC36F03AC06DF03BC06EF000016F6B9E
:103E3600000E6D25606F800E6E21616F100E6F2172
:103E4600626F460E636F0F0E646F97EC33F051ECA2
:103E560036F00C0E0001666FFF0E676FFF0E686F7F
:103E6600FF0E696FCDEC35F03AC06DF03BC06EF0D9
:103E760000016F6B000E6D25236E800E6E21246E81
:103E8600100E6F21256E000E276E050E266EAFEC06
:103E960035F0020E51EC36F03AC06DF03BC06EF0D4
:103EA60000016F6B000E6D25236E800E6E21246E51
:103EB600100E6F21256E0F0E7027000E712370C035
:103EC60026F071C027F0AFEC35F0020E51EC36F05B
:103ED6003AC06DF03BC06EF000016F6B000E6D25B1
:103EE600236E800E6E21246E100E6F21256E000E3D
:103EF600276E1A0E266EAFEC35F0020E51EC36F038
:103F06003AC06DF03BC06EF000016F6B000E6D2580
:103F1600236E800E6E21246E100E6F21256E000E0C
:103F2600276E000E266EAFEC35F0020E51EC36F021
:103F36003AC06DF03BC06EF000016F6B000E6D2550
:103F4600606F800E6E21616F100E6F21626F2E0EF4
:103F5600636F0F0E646F97EC33F051EC36F00C0E76
:103F66000001666FFF0E676FFF0E686FFF0E696FC9
:103F7600CDEC35F03AC06DF03BC06EF000016F6BD2
:103F8600000E6D25236E800E6E21246E100E6F219D
:103F9600256E000E276E050E266EAFEC35F0020E6E
:103FA60051EC36F03AC06DF03BC06EF000016F6B1D
:103FB600000E6D25236E800E6E21246E100E6F216D
:103FC600256E190E7027000E712370C026F071C081
:103FD60027F0AFEC35F0020E51EC36F03AC06DF03A
:103FE6003BC06EF000016F6B000E6D25236E800ED8
:103FF6006E21246E100E6F21256E000E276E1A0E8E
:10400600266EAFEC35F0020E51EC36F03AC06DF08C
:104016003BC06EF000016F6B000E6D25236E800EA7
:104026006E21246E100E6F21256E000E276E000E77
:10403600266EAFEC35F0020E51EC36F03AC06DF05C
:104046003BC06EF000016F6B000E6D25606F800E39
:104056006E21616F100E6F21626F290E636F0F0E56
:10406600646F97EC33F051EC36F00C0E0001666F7E
:10407600FF0E676FFF0E686FFF0E696FCDEC35F0B0
:104086003AC06DF03BC06EF000016F6B000E6D25FF
:10409600236E800E6E21246E100E6F21256E000E8B
:1040A600276E050E266EAFEC35F0020E51EC36F09B
:1040B6003AC06DF03BC06EF000016F6B000E6D25CF
:1040C600236E800E6E21246E100E6F21256E0F0E4C
:1040D6007027000E712370C026F071C027F0AFEC78
:1040E60035F0020E51EC36F03AC06DF03BC06EF082
:1040F60000016F6B000E6D25236E800E6E21246EFF
:10410600100E6F21256E000E276E1A0E266EAFEC6E
:1041160035F0020E51EC36F03AC06DF03BC06EF051
:1041260000016F6B000E6D25236E800E6E21246ECE
:10413600100E6F21256E000E276E000E266EAFEC58
:1041460035F0020E51EC36F03AC06DF03BC06EF021
:1041560000016F6B000E6D25606F800E6E21616F22
:10416600100E6F21626F240E636F0F0E646F97EC53
:1041760033F051EC36F00C0E0001666FFF0E676FE0
:10418600FF0E686FFF0E696FCDEC35F03AC06DF02B
:104196003BC06EF000016F6B000E6D25236E800E26
:1041A6006E21246E100E6F21256E000E276E050EF1
:1041B600266EAFEC35F0020E51EC36F03AC06DF0DB
:1041C6003BC06EF000016F6B000E6D25236E800EF6
:1041D6006E21246E100E6F21256E190E7027000EAB
:1041E600712370C026F071C027F0AFEC35F0020ED7
:1041F60051EC36F03AC06DF03BC06EF000016F6BCB
:10420600000E6D25236E800E6E21246E100E6F211A
:10421600256E000E276E1A0E266EAFEC35F0020ED6
:1042260051EC36F03AC06DF03BC06EF000016F6B9A
:10423600000E6D25236E800E6E21246E100E6F21EA
:10424600256E000E276E000E266EAFEC35F0020EC0
:1042560051EC36F03AC06DF03BC06EF000016F6B6A
:10426600000E6D25606F800E6E21616F100E6F213E
:10427600626F3D0E636F0F0E646F97EC33F051EC77
:1042860036F00C0E0001666FFF0E676FFF0E686F4B
:10429600FF0E696FCDEC35F03AC06DF03BC06EF0A5
:1042A60000016F6B000E6D25236E800E6E21246E4D
:1042B600100E6F21256E000E276E050E266EAFECD2
:1042C60035F0020E51EC36F03AC06DF03BC06EF0A0
:1042D60000016F6B000E6D25236E800E6E21246E1D
:1042E600100E6F21256E0F0E7027000E712370C001
:1042F60026F071C027F0AFEC35F0020E51EC36F027
:104306003AC06DF03BC06EF000016F6B000E6D257C
:10431600236E800E6E21246E100E6F21256E000E08
:10432600276E1A0E266EAFEC35F0020E51EC36F003
:104336003AC06DF03BC06EF000016F6B000E6D254C
:10434600236E800E6E21246E100E6F21256E000ED8
:10435600276E000E266EAFEC35F0020E51EC36F0ED
:104366003AC06DF03BC06EF000016F6B000E6D251C
:10437600606F800E6E21616F100E6F21626F130EDB
:10438600636F0F0E646F97EC33F051EC36F00C0E42
:104396000001666FFF0E676FFF0E686FFF0E696F95
:1043A600CDEC35F03AC06DF03BC06EF000016F6B9E
:1043B600000E6D25236E800E6E21246E100E6F2169
:1043C600256E000E276E050E266EAFEC35F0020E3A
:1043D60051EC36F03AC06DF03BC06EF000016F6BE9
:1043E600000E6D25236E800E6E21246E100E6F2139
:1043F600256E190E7027000E712370C026F071C04D
:1044060027F0AFEC35F0020E51EC36F03AC06DF005
:104416003BC06EF000016F6B000E6D25236E800EA3
:104426006E21246E100E6F21256E000E276E1A0E59
:10443600266EAFEC35F0020E51EC36F03AC06DF058
:104446003BC06EF000016F6B000E6D25236E800E73
:104456006E21246E100E6F21256E000E276E000E43
:10446600266EAFEC35F0020E51EC36F03AC06DF028
:104476003BC06EF000016F6B000E6D25606F800E05
:104486006E21616F100E6F21626F460E636F0F0E05
:10449600646F97EC33F051EC36F00C0E0001666F4A
:1044A600FF0E676FFF0E686FFF0E696FCDEC35F07C
:1044B6003AC06DF03BC06EF000016F6B000E6D25CB
:1044C600236E800E6E21246E100E6F21256E000E57
:1044D600276E050E266EAFEC35F0020E51EC36F067
:1044E6003AC06DF03BC06EF000016F6B000E6D259B
:1044F600236E800E6E21246E100E6F21256E0F0E18
:104506007027000E712370C026F071C027F0AFEC43
:1045160035F0020E51EC36F03AC06DF03BC06EF04D
:1045260000016F6B000E6D25236E800E6E21246ECA
:10453600100E6F21256E000E276E1A0E266EAFEC3A
:1045460035F0020E51EC36F03AC06DF03BC06EF01D
:1045560000016F6B000E6D25236E800E6E21246E9A
:10456600100E6F21256E000E276E000E266EAFEC24
:1045760035F0020E51EC36F03AC06DF03BC06EF0ED
:1045860000016F6B000E6D25606F800E6E21616FEE
:10459600100E6F21626F0D0E636F0F0E646F97EC36
:1045A60033F051EC36F00C0E0001666FFF0E676FAC
:1045B600FF0E686FFF0E696FCDEC35F03AC06DF0F7
:1045C6003BC06EF000016F6B000E6D25236E800EF2
:1045D6006E21246E100E6F21256E010E276E680E59
:1045E600266EAFEC35F0020E51EC36F03AC06DF0A7
:1045F6003BC06EF000016F6B000E6D25236E800EC2
:104606006E21246E100E6F21256E000E276E820E0F
:10461600266EAFEC35F0020E51EC36F03AC06DF076
:104626003BC06EF000016F6B000E6D25236E800E91
:104636006E21246E100E6F21256E000E276E1A0E47
:10464600266EAFEC35F0020E51EC36F03AC06DF046
:104656003BC06EF000016F6B000E6D25236E800E61
:104666006E21246E100E6F21256E000E276E000E31
:10467600266EAFEC35F0020E51EC36F03AC06DF016
:104686003BC06EF000016F6B000E6D25606F800EF3
:104696006E21616F100E6F21626F010E636F0F0E38
:1046A600646F97EC33F051EC36F00C0E0001666F38
:1046B600FF0E676FFF0E686FFF0E696FCDEC35F06A
:1046C6003AC06DF03BC06EF000016F6B000E6D25B9
:1046D600236E800E6E21246E100E6F21256E010E44
:1046E600276E680E266EAFEC35F0020E51EC36F0F2
:1046F6003AC06DF03BC06EF000016F6B000E6D2589
:10470600236E800E6E21246E100E6F21256E000E14
:10471600276E910E266EAFEC35F0020E51EC36F098
:104726003AC06DF03BC06EF000016F6B000E6D2558
:10473600236E800E6E21246E100E6F21256E000EE4
:10474600276E1A0E266EAFEC35F0020E51EC36F0DF
:104756003AC06DF03BC06EF000016F6B000E6D2528
:10476600236E800E6E21246E100E6F21256E000EB4
:10477600276E000E266EAFEC35F0020E51EC36F0C9
:104786003AC06DF03BC06EF000016F6B000E6D25F8
:10479600606F800E6E21616F100E6F21626F420E88
:1047A600636F0F0E646F97EC33F051EC36F00C0E1E
:1047B6000001666FFF0E676FFF0E686FFF0E696F71
:1047C600CDEC35F03AC06DF03BC06EF000016F6B7A
:1047D600000E6D25236E800E6E21246E100E6F2145
:1047E600256E010E276E7C0E266EAFEC35F0020E9E
:1047F60051EC36F03AC06DF03BC06EF000016F6BC5
:10480600000E6D25236E800E6E21246E100E6F2114
:10481600256E000E276EB40E266EAFEC35F0020E36
:1048260051EC36F03AC06DF03BC06EF000016F6B94
:10483600000E6D25236E800E6E21246E100E6F21E4
:10484600256E000E276E1A0E266EAFEC35F0020EA0
:1048560051EC36F03AC06DF03BC06EF000016F6B64
:10486600000E6D25236E800E6E21246E100E6F21B4
:10487600256E000E276E000E266EAFEC35F0020E8A
:1048860051EC36F03AC06DF03BC06EF000016F6B34
:10489600000E6D25606F800E6E21616F100E6F2108
:1048A600626F5B0E636F0F0E646F97EC33F051EC23
:1048B60036F00C0E0001666FFF0E676FFF0E686F15
:1048C600FF0E696FCDEC35F03AC06DF03BC06EF06F
:1048D60000016F6B000E6D25236E800E6E21246E17
:1048E600100E6F21256E010E276ECB0E266EAFECD5
:1048F60035F0020E51EC36F03AC06DF03BC06EF06A
:1049060000016F6B000E6D25236E800E6E21246EE6
:10491600100E6F21256E000E276EAE0E266EAFECC2
:1049260035F0020E51EC36F03AC06DF03BC06EF039
:1049360000016F6B000E6D25236E800E6E21246EB6
:10494600100E6F21256E000E276E1C0E266EAFEC24
:1049560035F0020E51EC36F03AC06DF03BC06EF009
:1049660000016F6B000E6D25236E800E6E21246E86
:10497600100E6F21256E000E276E000E266EAFEC10
:1049860035F0020E51EC36F03AC06DF03BC06EF0D9
:1049960000016F6B000E6D25606F800E6E21616FDA
:1049A600100E6F21626F5E0E636F0F0E646F97ECD1
:1049B60033F051EC36F0020E0001666F000E676FA1
:1049C600000E686F1F0E696FCDEC35F0140E0001F6
:1049D600666F140E676F140E686F040E696FCDEC68
:1049E60035F0D60E0001666F060E676F000E686F13
:1049F6000D0E696FCDEC35F0000E0001666F300EBE
:104A0600676F070E686F9E0E696FCDEC35F03C0E32
:104A16000001666F3C0E676F3C0E686F040E696F8F
:104A2600CDEC35F0720E0001666F060E676F000E54
:104A3600686F0D0E696FCDEC35F0000E0001666FE4
:104A4600300E676F070E686F9E0E696FCDEC35F0FE
:104A56001200600E0001666F000E676F000E686F31
:104A66000E0E696FCDEC35F0000E0001666F7D0EFF
:104A7600676FCA0E686F040E696FCDEC35F0030ED2
:104A86000001666F000E676F000E686F1F0E696F7C
:104A9600CDEC35F06FD2000E0001666FF00E676F39
:104AA600800E686FAF0E696FCDEC35F0000E000119
:104AB600666F300E676F870E686FAF0E696FCDEC4D
:104AC60035F0000E0001666FF00E676F800E686F9E
:104AD600AF0E696FCDEC35F0000E0001666F300E3B
:104AE600676F870E686FB90E696FCDEC35F0000EF3
:104AF6000001666F400E676F870E686FB90E696FAB
:104B0600CDEC35F0000E0001666FF00E676F800E7B
:104B1600686FB90E696FCDEC35F01200000E00011A
:104B2600666FF00E676F800E686FB40E696FCDEC1E
:104B360035F0000E0001666F300E676F870E686FE6
:104B4600B40E696FCDEC35F0000E0001666FF00E05
:104B5600676F600E686FB40E696FCDEC35F0000EAE
:104B66000001666FE00E676F010E686FB20E696F27
:104B7600CDEC35F0000E0001666F400E676FA70E94
:104B8600686FB20E696FCDEC35F0000E0001666FEE
:104B9600400E676F670E686FB60E696FCDEC35F025
:104BA6001200000E0001666FF00E676F800E686FD0
:104BB600AF0E696FCDEC35F0000E0001666FF00E9A
:104BC600676F800E686FB90E696FCDEC35F0000E19
:104BD6000001666F000E676F810E686FB90E696F10
:104BE600CDEC35F0000E0001666F000E676F840E87
:104BF600686FB90E696FCDEC35F0000E0001666F77
:104C0600100E676F840E686FB90E696FCDEC35F0C4
:104C1600000E0001666F100E676F840E686FAF0E90
:104C2600696FCDEC35F0000E0001666F200E676FE0
:104C3600840E686FAF0E696FCDEC35F0000E000183
:104C4600666F300E676F870E686FAF0E696FCDECBB
:104C560035F0000E0001666F300E676FA70E686FA5
:104C6600AF0E696FCDEC35F0000E0001666F300EA9
:104C7600676F870E686FB90E696FCDEC35F012005D
:104C8600000E0001666FF00E676F800E686FAF0E44
:104C9600696FCDEC35F0000E0001666FF00E676FA0
:104CA600600E686FB90E696FCDEC35F0000E00012D
:104CB600666F000E676F810E686FB90E696FCDEC77
:104CC60035F0000E0001666F300E676F870E686F55
:104CD600B90E696FCDEC35F0000E0001666F100E4F
:104CE600676F640E686FB90E696FCDEC35F0000E14
:104CF6000001666F100E676F840E686FAF0E696FE6
:104D0600CDEC35F0000E0001666F300E676FA70E12
:104D1600686FAF0E696FCDEC35F0000E0001666F5F
:104D2600300E676F670E686FB90E696FCDEC35F0A0
:104D36001200000E0001666FF00E676F800E686F3E
:104D4600AF0E696FCDEC35F0000E0001666F000EF8
:104D5600676F840E686FAF0E696FCDEC35F0000E8D
:104D66000001666F000E676F810E686FB90E696F7E
:104D7600CDEC35F0000E0001666F300E676F870EC2
:104D8600686FB90E696FCDEC35F0000E0001666FE5
:104D9600100E676F240E686FB90E696FCDEC35F093
:104DA600000E0001666F100E676FA40E686FAF0EDF
:104DB600696FCDEC35F01200000E0001666FF00E43
:104DC600676F800E686FAF0E696FCDEC35F0000E21
:104DD6000001666FF00E676F600E686FB90E696F3F
:104DE600CDEC35F0000E0001666F000E676F810E88
:104DF600686FAF0E696FCDEC35F0000E0001666F7F
:104E0600000E676F840E686FAF0E696FCDEC35F0DC
:104E1600000E0001666F100E676F840E686FB90E84
:104E2600696FCDEC35F0000E0001666F200E676FDE
:104E3600870E686FB90E696FCDEC35F0000E000174
:104E4600666F100E676F240E686FB90E696FCDEC32
:104E560035F0000E0001666F100E676FA40E686FC6
:104E6600AF0E696FCDEC35F0000E0001666F300EA7
:104E7600676FA70E686FAF0E696FCDEC35F0000E49
:104E86000001666F300E676F670E686FB90E696F47
:104E9600CDEC35F01200000E0001666FF00E676F64
:104EA600800E686FAF0E696FCDEC35F0000E000115
:104EB600666FF00E676F600E686FB90E696FCDECA6
:104EC60035F0000E0001666F000E676F810E686F89
:104ED600AF0E696FCDEC35F0000E0001666F300E37
:104EE600676F870E686FAF0E696FCDEC35F0000EF9
:104EF6000001666F100E676F840E686FB90E696FDA
:104F0600CDEC35F0000E0001666F200E676F870E40
:104F1600686FB90E696FCDEC35F0000E0001666F53
:104F2600100E676F240E686FB90E696FCDEC35F001
:104F3600000E0001666F100E676FA40E686FAF0E4D
:104F4600696FCDEC35F0000E0001666F300E676FAD
:104F5600A70E686FAF0E696FCDEC35F0000E00013D
:104F6600666F300E676F670E686FB90E696FCDECAE
:104F760035F012006DC06FF06EC070F00001705118
:104F8600000AD8A412006F51000AD8B484D5010AC9
:104F9600D8B4C4D5030AD8B404D6010AD8B470D696
:104FA600070AD8B4C6D6010AD8B406D7030AD8A4C5
:104FB600120071D72E0E0001666FFF0E676FFF0E8F
:104FC600686FFF0E696FCDEC35F03AC06FF03BC0ED
:104FD60070F00001716B000E6F25236E800E70213C
:104FE600246E100E7121256E000E276E420E266E5F
:104FF600AFEC35F0020E51EC36F03AC06FF03BC024
:1050060070F00001716B000E6F25236E800E70210B
:10501600246E100E7121256E000E276E820E266EEE
:10502600AFEC35F0020E51EC36F03AC06FF03BC0F3
:1050360070F00001716B000E6F25236E800E7021DB
:10504600246E100E7121256E000E276E1C0E266E24
:10505600AFEC35F0020E51EC36F03AC06FF03BC0C3
:1050660070F00001716B000E6F25236E800E7021AB
:10507600246E100E7121256E000E276E000E266E10
:10508600AFEC35F0020E51EC36F06DC022F06EC07A
:1050960023F0000E256E0A0E246E6AEC34F022C050
:1050A60066F023C067F00001000E67BFFF0E686F51
:1050B600696FCDEC35F00C0E0001666FFF0E676F61
:1050C600FF0E686FFF0E696FCDEC35F03AC06FF0DA
:1050D6003BC070F00001716B000E6F25236E800ED1
:1050E6007021246E100E7121256E000E276E5A0E49
:1050F600266EAFEC35F0020E51EC36F03AC06FF08A
:105106003BC070F00001716B000E6F25236E800EA0
:105116007021246E100E7121256E000E276E830EEF
:10512600266EAFEC35F0020E51EC36F03AC06FF059
:105136003BC070F00001716B000E6F25236E800E70
:105146007021246E100E7121256E000E276E1C0E26
:10515600266EAFEC35F0020E51EC36F03AC06FF029
:105166003BC070F00001716B000E6F25236E800E40
:105176007021246E100E7121256E000E276E000E12
:10518600266EAFEC35F0020E51EC36F03AC06FF0F9
:105196003BC070F00001716B000E6F25606F800ED2
:1051A6007021616F100E7121626F600E636F0F0EBA
:1051B600646F97EC33F051EC36F02E0E0001666FFB
:1051C600FF0E676FFF0E686FFF0E696FCDEC35F04F
:1051D6003AC06FF03BC070F00001716B000E6F2596
:1051E600236E800E7021246E100E7121256E000E26
:1051F600276E600E266EAFEC35F0020E51EC36F0DF
:105206003AC06FF03BC070F00001716B000E6F2565
:10521600236E800E7021246E100E7121256E000EF5
:10522600276E820E266EAFEC35F0020E51EC36F08C
:105236003AC06FF03BC070F00001716B000E6F2535
:10524600236E800E7021246E100E7121256E000EC5
:10525600276E1C0E266EAFEC35F0020E51EC36F0C2
:105266003AC06FF03BC070F00001716B000E6F2505
:10527600236E800E7021246E100E7121256E000E95
:10528600276E000E266EAFEC35F0020E51EC36F0AE
:105296006DC060F06EC061F0000E0001636F0A0E13
:1052A600626FEAEC34F0000160C066F061C067F03E
:1052B600000E67BFFF0E686F696FCDEC35F0120008
:1052C6002E0E0001666FFF0E676FFF0E686FFF0EF2
:1052D600696FCDEC35F03AC06FF03BC070F000015D
:1052E600716B000E6F25236E800E7021246E100EDA
:1052F6007121256E000E276E420E266EAFEC35F03C
:10530600020E51EC36F03AC06FF03BC070F000016F
:10531600716B000E6F25236E800E7021246E100EA9
:105326007121256E000E276E590E266EAFEC35F0F4
:10533600020E51EC36F03AC06FF03BC070F000013F
:10534600716B000E6F25236E800E7021246E100E79
:105356007121256E000E276E1C0E266EAFEC35F001
:10536600020E51EC36F03AC06FF03BC070F000010F
:10537600716B000E6F25236E800E7021246E100E49
:105386007121256E000E276E000E266EAFEC35F0ED
:10539600020E51EC36F0030E0001666F000E676FC9
:1053A600000E686F000E696FCDEC35F00C0E000133
:1053B600666FFF0E676FFF0E686FFF0E696FCDECAD
:1053C60035F03AC06FF03BC070F00001716B000E13
:1053D6006F25236E800E7021246E100E7121256EAE
:1053E600000E276E4E0E266EAFEC35F0020E51EC17
:1053F60036F03AC06FF03BC070F00001716B000EE2
:105406006F25236E800E7021246E100E7121256E7D
:10541600000E276E5A0E266EAFEC35F0020E51ECDA
:1054260036F03AC06FF03BC070F00001716B000EB1
:105436006F25236E800E7021246E100E7121256E4D
:10544600000E276E1C0E266EAFEC35F0020E51ECE8
:1054560036F03AC06FF03BC070F00001716B000E81
:105466006F25236E800E7021246E100E7121256E1D
:10547600000E276E000E266EAFEC35F0020E51ECD4
:1054860036F03AC06FF03BC070F00001716B000E51
:105496006F25606F800E7021616F100E7121626F33
:1054A600600E636F0F0E646F97EC33F051EC36F0BD
:1054B6002E0E0001666FFF0E676FFF0E686FFF0E00
:1054C600696FCDEC35F03AC06FF03BC070F000016B
:1054D600716B000E6F25236E800E7021246E100EE8
:1054E6007121256E000E276E530E266EAFEC35F039
:1054F600020E51EC36F03AC06FF03BC070F000017E
:10550600716B000E6F25236E800E7021246E100EB7
:105516007121256E000E276E590E266EAFEC35F002
:10552600020E51EC36F03AC06FF03BC070F000014D
:10553600716B000E6F25236E800E7021246E100E87
:105546007121256E000E276E1C0E266EAFEC35F00F
:10555600020E51EC36F03AC06FF03BC070F000011D
:10556600716B000E6F25236E800E7021246E100E57
:105576007121256E000E276E000E266EAFEC35F0FB
:10558600020E51EC36F0030E0001666F000E676FD7
:10559600000E686F000E696FCDEC35F012008B922D
:1055A600680E2B6EE40EE82EFED72B2EFCD700D00D
:1055B6008B82680E2B6EE40EE82EFED72B2EFCD7C0
:1055C60000D0000E86EC36F0440E86EC36F0620E05
:1055D60086EC36F0300E236E240E246E100E256EE9
:1055E600010E276EE00E266EAFEC35F0440E236EEC
:1055F600240E246E100E256E010E276E100E266EDA
:10560600AFEC35F0280E236E240E246E100E256E98
:10561600020E276E0D0E266EAFEC35F0340E236E9D
:10562600240E246E100E256E000E276E000E266EBA
:10563600AFEC35F0380E236E240E246E100E256E58
:10564600000E276E290E266EAFEC35F02C0E236E5B
:10565600240E246E100E256E000E276E2B0E266E5F
:10566600AFEC35F03C0E236E240E246E100E256E24
:10567600010E276E1E0E266EAFEC35F0480E236E19
:10568600240E246E100E256E000E276E000E266E5A
:10569600AFEC35F04C0E236E240E246E100E256EE4
:1056A600000E276E0A0E266EAFEC35F0400E236E06
:1056B600240E246E100E256E000E276E0C0E266E1E
:1056C600AFEC35F0640E236E240E246E100E256E9C
:1056D600000E266E23EC36F05C0E236E240E246E2E
:1056E600100E256E000E266E23EC36F0580E236E35
:1056F600240E246E100E256E010E276EB60E266E33
:10570600AFEC35F0600E236E240E246E100E256E5F
:10571600000E266E23EC36F0680E236E240E246EE1
:10572600100E256E000E266E23EC36F0540E236EF8
:10573600240E246E100E256E000E266E23EC36F017
:10574600000E236E000E246E100E256E000E266EC1
:105756001A0E276E000E286E020E296EACEC34F07F
:10576600040E236E000E246E100E256E070E266E96
:10577600000E276E000E286E260E296EACEC34F055
:10578600080E236E000E246E100E256E000E266E79
:10579600000E276E000E286E000E296EACEC34F05B
:1057A600500E236E240E246E100E256E020E266EEB
:1057B60023EC36F08C0E236E240E246E100E256E0E
:1057C600FC0E266E23EC36F0900E236E240E246E0D
:1057D600100E256EFF0E266E23EC36F06C0E236E31
:1057E600240E246E100E256E050E266E23EC36F062
:1057F600E80E236E240E246E100E256E23EC35F073
:1058060023C03AF024C03BF0E40E236E240E246E2F
:10581600100E256E23EC35F03A502318F5E13B5077
:105826002418D8B41200F0D7000E0001926F000EB3
:10583600916F000E946F000E936F000E966F000E20
:10584600956F000E986F000E976F000E9A6F000E00
:10585600996F000E9C6F000E9B6F000E9E6F000EE0
:105866009D6F000EA06F000E9F6F000EA26F000EC0
:10587600A16F6CEC36F0000E0001906F000E8F6F7A
:1058860079EC36F07080708A709E708C608A609CAD
:10589600609460907680C80E0E01F46F000EF56F6E
:1058A600C80EF06F200EF16FC80EEC6F400EED6F54
:1058B600C79EC78CC68AC688C690C692C694C69628
:1058C600D2EC2AF09EEC36F06CEC36F089928C988D
:1058D60089908A8A8C9A8C868B8491C07BF092C040
:1058E6007CF093C07DF094C07EF095C07FF096C0AA
:1058F60080F097C081F098C082F099C083F09AC07A
:1059060084F09BC085F09CC086F09DC087F09EC049
:1059160088F09FC089F0A0C08AF0A1C08BF0A2C019
:105926008CF089EC32F0A30E2A6E000E2B6E2EEC54
:105936002DF00009D8B4F7D7400E0001A4193FE1B5
:10594600060EA519A611A711D8A439D0AA51A9C027
:105956008DF08E6B8DC08EF08D6B8D11916F8E518B
:10596600926FAC51ABC08DF08E6B8DC08EF08D6B8F
:105976008D11226E8E51236E000E256E0A0E246E38
:105986006AEC34F022C093F023C094F00001A951D0
:105996008D6F8E6B8D3B8E3BF00E8E178D510F0BE0
:1059A6008E13F00E8D17AE518D11956F8E51966F29
:1059B600AFC097F0986BB0C099F09A6B1FD0410EAC
:1059C600A4190AE1060EA519A611A711D8A404D098
:1059D600AFC09BF09C6B12D0420EA4190FE1060ECD
:1059E600A519A611A711D8A409D0A9C09DF09E6B30
:1059F600AAC09FF0A06BABC0A1F0A26B91C07BF0D8
:105A060092C07CF093C07DF094C07EF095C07FF08C
:105A160096C080F097C081F098C082F099C083F05C
:105A26009AC084F09BC085F09CC086F09DC087F02C
:105A36009EC088F09FC089F0A0C08AF0A1C08BF0FC
:105A4600A2C08CF089EC32F089828C8889808A8A9F
:105A56008C8A8C8668D7000E00016B6F60AE83D08F
:105A660062A61ED02AC0D9FF2BC0DAFF020EDF6E57
:105A760064CF22F061CF23F062CF24F06350FEECB6
:105A86002EF020EE01F02A50D9262B50DA2222C021
:105A9600DEFF23C0DEFF24C0DEFF25C0DEFF19D0F7
:105AA6002AC0D9FF2BC0DAFF010EDF6E62CF22F0CB
:105AB6006150E2EC33F020EE01F02A50D9262B504B
:105AC600DA2222C0DEFF23C0DEFF24C0DEFF25C0AF
:105AD600DEFF20EE05F02A50D9262B50DA2265CFBC
:105AE600DFFF20EE06F02A50D9262B50DA2266CFA9
:105AF600DFFF20EE07F02A50D9262B50DA2267CF97
:105B0600DFFF20EE08F02A50D9262B50DA2268CF84
:105B1600DFFF20EE09F02A50D9262B50DA2269CF72
:105B2600DFFF20EE0AF02A50D9262B50DA226ACF60
:105B3600DFFF20EE0BF02A50D9262B50DA226BCF4E
:105B4600DFFF20EE0CF02A50D9262B50DA226CCF3C
:105B5600DFFF20EE0DF02A50D9262B50DA226DCF2A
:105B6600DFFF609E87D00F0130AF87D032A71ED0EF
:105B76002AC0D9FF2BC0DAFF020EDF6E34CF22F027
:105B860031CF23F032CF24F03351FEEC2EF020EE4D
:105B960001F02A50D9262B50DA2222C0DEFF23C07C
:105BA600DEFF24C0DEFF25C0DEFF1AD02AC0D9FFE3
:105BB6002BC0DAFF010EDF6E32CF22F00F0131511A
:105BC600E2EC33F020EE01F02A50D9262B50DA22EF
:105BD60022C0DEFF23C0DEFF24C0DEFF25C0DEFFBD
:105BE60020EE05F02A50D9262B50DA2235CFDFFFDA
:105BF60020EE06F02A50D9262B50DA2236CFDFFFC8
:105C060020EE07F02A50D9262B50DA2237CFDFFFB5
:105C160020EE08F02A50D9262B50DA2238CFDFFFA3
:105C260020EE09F02A50D9262B50DA2239CFDFFF91
:105C360020EE0AF02A50D9262B50DA223ACFDFFF7F
:105C460020EE0BF02A50D9262B50DA223BCFDFFF6D
:105C560020EE0CF02A50D9262B50DA223CCFDFFF5B
:105C660020EE0DF02A50D9262B50DA223DCFDFFF49
:105C76000F01309F010E00016B6F779200016B518F
:105C86001200090E0001666F000E676F000E686F46
:105C96001F0E696FCDEC35F03C0E0001666F3C0EB1
:105CA600676F3C0E686F040E696FCDEC35F0000E21
:105CB6000001666F700E676FCD0E686FAB0E696F71
:105CC600CDEC35F0000E0001666F600E676FCE0EEC
:105CD600686F900E696FCDEC35F0FF0E0001666FB0
:105CE600FF0E676FFF0E686F040E696FCDEC35F01F
:105CF6000C0E0001666FFF0E676FFF0E686FFF0EDA
:105D0600696FCDEC35F03AC06FF03BC070F0000122
:105D1600716B000E6F25236E800E7021246E100E9F
:105D26007121256E000E276EF00E266EAFEC35F053
:105D3600020E51EC36F03AC06FF03BC070F0000135
:105D4600716B000E6F25236E800E7021246E100E6F
:105D56007121256E000E276EDE0E266EAFEC35F035
:105D6600020E51EC36F03AC06FF03BC070F0000105
:105D7600716B000E6F25236E800E7021246E100E3F
:105D86007121256E000E276E1C0E266EAFEC35F0C7
:105D9600020E51EC36F03AC06FF03BC070F00001D5
:105DA600716B000E6F25236E800E7021246E100E0F
:105DB6007121256E060E276E000E266EAFEC35F0AD
:105DC600020E51EC36F03AC06FF03BC070F00001A5
:105DD600716B000E6F25606F800E7021616F100E63
:105DE6007121626F1F0E636F0F0E646F97EC33F0B5
:105DF60051EC36F012000001606F000E0001616F79
:105E0600000E626F000E636F000E646F000E676F08
:105E1600000E686F000E696F000E6A6F2450030B48
:105E2600656F2438E842070B666F2350266E276A93
:105E3600D89026362736D89026362736D890263656
:105E4600273626C067F027C068F0000E68BFFF0E31
:105E5600696F6A6F66516725676F000E6821686F04
:105E6600000E6921696F000E6A216A6F67C026F00D
:105E760068C027F069C028F06AC029F0020ED890E1
:105E86002636273628362936E82EF9D726C067F073
:105E960027C068F028C069F029C06AF065516725F7
:105EA600676F000E6821686F000E6921696F000E2A
:105EB6006A216A6F67C027F068C028F069C029F0B8
:105EC600266A26C067F027C068F028C069F029C096
:105ED6006AF060516725676F000E6821686F000ED3
:105EE6006921696F000E6A216A6F67C027F068C072
:105EF60028F069C029F0266A26C067F027C068F036
:105F060028C069F029C06AF022506725676F000E25
:105F16006821686F000E6921696F000E6A216A6F39
:105F260067C061F068C062F069C063F06AC064F07F
:105F360061C022F062C023F063C024F064C025F083
:105F46001200FF0E0001666FFF0E676FFF0E686F8F
:105F5600040E696FCDEC35F02E0E0001666FFF0E54
:105F6600676FFF0E686FFF0E696FCDEC35F03AC0B4
:105F76006FF03BC070F00001716B000E6F25236E51
:105F8600800E7021246E100E7121256E000E276E74
:105F9600400E266EAFEC35F0020E51EC36F03AC0EC
:105FA6006FF03BC070F00001716B000E6F25236E21
:105FB600800E7021246E100E7121256E000E276E44
:105FC600070E266EAFEC35F0020E51EC36F03AC0F5
:105FD6006FF03BC070F00001716B000E6F25236EF1
:105FE600800E7021246E100E7121256E000E276E14
:105FF6001C0E266EAFEC35F0020E51EC36F03AC0B0
:106006006FF03BC070F00001716B000E6F25236EC0
:10601600800E7021246E100E7121256E000E276EE3
:10602600000E266EAFEC35F0020E51EC36F06DC068
:1060360066F06EC067F00001000E67BFFF0E686F66
:10604600696FCDEC35F012002E0E0001666FFF0E63
:10605600676FFF0E686FFF0E696FCDEC35F03AC0C3
:1060660070F03BC071F00001726B000E7025236E5C
:10607600800E7121246E100E7221256E000E276E81
:10608600420E266EAFEC35F0020E51EC36F03AC0F9
:1060960070F03BC071F00001726B000E7025236E2C
:1060A600800E7121246E100E7221256E000E276E51
:1060B600AB0E266EAFEC35F0020E51EC36F03AC060
:1060C60070F03BC071F00001726B000E7025236EFC
:1060D600800E7121246E100E7221256E000E276E21
:1060E6001C0E266EAFEC35F0020E51EC36F03AC0BF
:1060F60070F03BC071F00001726B000E7025236ECC
:10610600800E7121246E100E7221256E000E276EF0
:10611600000E266EAFEC35F0020E51EC36F06DC077
:1061260022F06EC023F06FC024F0A5EC30F022C040
:1061360066F023C067F024C068F025C069F0CDEC96
:1061460035F0120024C026F0276A286A2334263642
:1061560001E3278026500001656F6551D8A409D058
:10616600000E226E000E236E000E246E000E256EAB
:106176001200170E266E22C027F023C028F024C076
:1061860029F026282A6E04D0D890293228322732C0
:106196002A2EFAD727500001606F238EFF0E221693
:1061A600FF0E2316000E24162250616F2350626FD5
:1061B6002450636F646B8E0E655F65AF16D06551B4
:1061C600800A8F0FD8B009D0000E226E000E236E03
:1061D600000E246E000E256E1200D89064336333D1
:1061E60062336133653FF9D715D0170E65650FD059
:1061F600000E226E000E236E000E246E000E256E1B
:106206001200D89061376237633764376507655186
:10621600D8A4F7D76051D8B408D0641F631F621F93
:10622600616D000E62236323642361C022F062C0A5
:1062360023F063C024F064C025F012002E0E000186
:10624600666FFF0E676FFF0E686FFF0E696FCDEC0E
:1062560035F03AC06FF03BC070F00001716B000E74
:106266006F25236E800E7021246E100E7121256E0F
:10627600010E276EC70E266EAFEC35F0020E51ECFE
:1062860036F03AC06FF03BC070F00001716B000E43
:106296006F25236E800E7021246E100E7121256EDF
:1062A600000E276EA60E266EAFEC35F0020E51ECF0
:1062B60036F03AC06FF03BC070F00001716B000E13
:1062C6006F25236E800E7021246E100E7121256EAF
:1062D600000E276E1E0E266EAFEC35F0020E51EC48
:1062E60036F03AC06FF03BC070F00001716B000EE3
:1062F6006F25236E800E7021246E100E7121256E7F
:10630600080E276E000E266EAFEC35F0020E51EC2D
:1063160036F06DC066F06EC067F00001000E67BF14
:10632600FF0E686F696FCDEC35F012002E0E00017E
:10633600666FFF0E676FFF0E686FFF0E696FCDEC1D
:1063460035F03AC06FF03BC070F00001716B000E83
:106356006F25236E800E7021246E100E7121256E1E
:10636600010E276EDB0E266EAFEC35F0020E51ECF9
:1063760036F03AC06FF03BC070F00001716B000E52
:106386006F25236E800E7021246E100E7121256EEE
:10639600000E276E780E266EAFEC35F0020E51EC2D
:1063A60036F03AC06FF03BC070F00001716B000E22
:1063B6006F25236E800E7021246E100E7121256EBE
:1063C600000E276E1F0E266EAFEC35F0020E51EC56
:1063D60036F03AC06FF03BC070F00001716B000EF2
:1063E6006F25236E800E7021246E100E7121256E8E
:1063F600080E276E000E266EAFEC35F0020E51EC3D
:1064060036F06DC066F06EC067F00001000E67BF23
:10641600FF0E686F696FCDEC35F012002E0E00018D
:10642600666FFF0E676FFF0E686FFF0E696FCDEC2C
:1064360035F03AC06FF03BC070F00001716B000E92
:106446006F25236E800E7021246E100E7121256E2D
:10645600000E276E420E266EAFEC35F0020E51ECA2
:1064660036F03AC06FF03BC070F00001716B000E61
:106476006F25236E800E7021246E100E7121256EFD
:10648600000E276E300E266EAFEC35F0020E51EC84
:1064960036F03AC06FF03BC070F00001716B000E31
:1064A6006F25236E800E7021246E100E7121256ECD
:1064B600000E276E1C0E266EAFEC35F0020E51EC68
:1064C60036F03AC06FF03BC070F00001716B000E01
:1064D6006F25236E800E7021246E100E7121256E9D
:1064E600000E276E000E266EAFEC35F0020E51EC54
:1064F60036F06DC066F06EC067F00001000E67BF33
:10650600FF0E686F696FCDEC35F012006EEC35F05A
:106516008FEC1DF087C06DF088C06EF0A4EC2FF0F4
:1065260089C06DF08AC06EF011EC32F0000E0001E9
:106536006E6F040E6D6F63EC29F08BC06DF08CC02E
:106546006EF0DDEC27F07DC060F07EC061F0EAEC15
:1065560035F060C06DF061C06EF062C06FF027EC80
:1065660030F085C06DF086C06EF02CEC25F07BC057
:106576006DF07CC06EF0BBEC07F083C06DF084C09C
:106586006EF099EC31F081C06DF082C06EF021ECB6
:1065960031F0000E00016D6F000E6E6F000E6F6F12
:1065A600000E706F000E716F000E726F000E736F2B
:1065B600000E746F000E756F000E776F000E766F0B
:1065C600AFEC12F0190E00016D6F0F0E6E6F44ECFA
:1065D6002EF04BEC35F012002550D8B405D02250E1
:1065E60023102410D8A40CD0000E226E000E236EA9
:1065F600000E246E1200252AD8902432233222322D
:10660600000E2214276E000E2314286EFE0E24148C
:10661600296E275028102910D8B40CD0ECD7252A7B
:10662600010E2226000E2322000E2422D8902432A8
:1066360023322232000E2214276E000E2314286EF7
:10664600FF0E2414296E275028102910D8B406D01E
:10665600E6D72506D89022362336243623BE03D025
:10666600020E2560F6D725A0239ED8902532255008
:1066760024122650D8A4248E22C022F023C023F050
:1066860024C024F01200800E6F6E6E50E00B800A5C
:10669600D8A4FBD7000E726E0E01FA69FB69F86981
:1066A600F969FE69FF69FC69FD69000EE26F000E7B
:1066B600E36F000EE06F000EE16F000EE66F000E56
:1066C600E76F000EE46F000EE56F000EEA6F000E36
:1066D600EB6F000EE86F000EE96F000EEE6F000E16
:1066E600EF6F000EEC6F000EED6F000EF26F000EF6
:1066F600F36F000EF06F000EF16F000EF66F000ED6
:10670600F76F000EF46F000EF56F000E436F980ED4
:10671600446F010E456F000E6F6E6ECF22F0E00ED5
:106726002216D8B41200F9D78C9000016251800964
:10673600B2EC36F060C028F061C029F062C02AF0E1
:1067460029C028F02AC029F02A6A2850B2EC36F06F
:1067560000016051B2EC36F063C022F064C023F051
:1067660090EC35F022500001656F000E666F14D074
:106776006651010D63C028F064C029F0F350282645
:10678600F450292228C0F6FF29C0F7FF0800F5506B
:10679600B2EC36F00001662B6651655DD8A006D0D6
:1067A600E7D7000EB2EC36F00001662B66C028F083
:1067B600030E2816D8A4F5D78C8066511200000166
:1067C600606F000E0001616F000E626F000E636F56
:1067D600000E646F6051266E276AD89026362736DB
:1067E600D89026362736D8902636273626C065F026
:1067F60027C066F0000E66BFFF0E676F686F22C087
:1068060026F0050E276ED8902632272EFCD7265066
:106816006525656F000E6621666F000E6721676F3E
:10682600000E6821686F65C061F066C062F067C0DF
:1068360063F068C064F061C022F062C023F063C0F8
:1068460024F064C025F01200076E000E086E000EDC
:10685600096E000E0A6E000E0B6E0750056E066A74
:10686600D89005360636D89005360636D8900536C1
:10687600063605C00CF006C00DF0000E0DBEFF0E6C
:106886000E6E0F6E01C005F0050E066ED89005322D
:10689600062EFCD705500C240C6E000E0D200D6E36
:1068A600000E0E200E6E000E0F200F6E0CC008F0AC
:1068B6000DC009F00EC00AF00FC00BF008C001F0C1
:1068C60009C002F00AC003F00BC004F01200000E6B
:1068D600276E25AE06D0246C251ED8B0252A010EBB
:1068E600276E23AE06D0226C231ED8B0232A010EB3
