:0400000045EF00F0D8
:100008004782FACF01F0FBCF02F0E9CF03F0EACF45
:1000180004F0E1CF05F0E2CF06F0D9CF07F0DACF50
:1000280008F0F3CF09F0F4CF0AF0F6CF0BF0F7CFD2
:100038000CF0F8CF0DF0F5CF0EF0F2BC76A003D09F
:1000480077B0F4EC31F00EC0F5FF0DC0F8FF0CC02E
:10005800F7FF0BC0F6FF0AC0F4FF09C0F3FF08C0A2
:10006800DAFF07C0D9FF06C0E2FF05C0E1FF04C000
:10007800EAFF03C0E9FF02C0FBFF01C0FAFF479295
:060088001100A8EF31F0A9
:100F00000053504545440057415445520050524506
:100F1000535300564F4C54530068656C6C6F00522D
:100F20003138200055534544004655454C00544542
:100F30004D50004C415354004245535400424154DB
:100F400054004B5048004F494C0052504D004C410A
:100F50005000313000313100313200545000250052
:100F60002E003300340035003600370038003900D9
:050F70003A006B0000D7
:100F760025C00FF026C010F0030E126EE80E116E9B
:100F8600BCEC2FF00FC02EF010C02FF0000E126E2A
:100F9600640E116E25C00FF026C010F0BCEC2FF0C9
:100FA6000FC017F010C018F0000E1A6E0A0E196E58
:100FB6003AEC30F017C02CF018C02DF0FF0E1E6E64
:100FC600FF0E1F6EFF0E206E040E216E34EC31F004
:100FD600090E1E6EFF0E1F6EFF0E206EFF0E216E97
:100FE60034EC31F0320E1E6E320E1F6E320E206E53
:100FF600000E216E34EC31F0130E1E6EFF0E1F6EC6
:10100600FF0E206EFF0E216E34EC31F043C027F048
:1010160044C028F0296A000E2724106E800E28206E
:10102600116E100E2920126E000E146EF00E136E45
:10103600F9EC30F0020E9AEC31F043C027F044C0D0
:1010460028F0296A000E2724106E800E2820116EC3
:10105600100E2920126E000E146E730E136EF9EC2C
:1010660030F0020E9AEC31F043C027F044C028F06D
:10107600296A000E2724106E800E2820116E100E8D
:101086002920126E000E146E820E136EF9EC30F0EB
:10109600020E9AEC31F043C027F044C028F0296ACA
:1010A600000E2724106E800E2820116E100E2920A7
:1010B600126E510E146E000E136EF9EC30F0020E25
:1010C6009AEC31F043C027F044C028F0296A000E9C
:1010D6002724106E800E2820116E100E2920126E05
:1010E600000E146E0A0E136EF9EC30F0020E9AEC36
:1010F60031F043C027F044C028F0296A000E2724A7
:10110600106E800E2820116E100E2920126E000E11
:10111600146E050E136EF9EC30F0020E9AEC31F0F7
:1011260043C027F044C028F0296A000E2724106E19
:10113600800E2820116E100E2920126E000E146EDD
:10114600000E136EF9EC30F0020E9AEC31F043C04B
:1011560027F044C028F0296A000E2724106E800E5E
:101166002820116E100E2920126E000E146E320EFB
:10117600136EF9EC30F0020E9AEC31F0000E1E6E92
:10118600000E1F6EFF0E206E040E216E34EC31F041
:101196002FBE06D02F5003E1020E2E5CD8B0C3D06E
:1011A600130E1E6EFF0E1F6EFF0E206EFF0E216EBB
:1011B60034EC31F043C027F044C028F0296A000E11
:1011C6002724106E800E2820116E100E2920126E14
:1011D600000E146EF00E136EF9EC30F0020E9AEC5F
:1011E60031F043C027F044C028F0296A000E2724B6
:1011F600106E800E2820116E100E2920126E000E21
:10120600146E730E136EF9EC30F0020E9AEC31F098
:1012160043C027F044C028F0296A000E2724106E28
:10122600800E2820116E100E2920126E000E146EEC
:10123600820E136EF9EC30F0020E9AEC31F043C0D8
:1012460027F044C028F0296A000E2724106E800E6D
:101256002820116E100E2920126E310E146E000E0B
:10126600136EF9EC30F0020E9AEC31F043C027F021
:1012760044C028F0296A000E2724106E800E28200C
:10128600116E100E2920126E000E146E0A0E136EC9
:10129600F9EC30F0020E9AEC31F043C027F044C06E
:1012A60028F0296A000E2724106E800E2820116E61
:1012B600100E2920126E000E146E050E136EF9EC38
:1012C60030F0020E9AEC31F043C027F044C028F00B
:1012D600296A000E2724106E800E2820116E100E2B
:1012E6002920126E2EC013F02FC014F0F9EC30F046
:1012F600020E9AEC31F043C027F044C028F0296A68
:10130600000E2724106E800E2820116E100E292044
:10131600126E000E146E320E136EF9EC30F0020EE1
:101326009AEC31F0E2D0FE0E2E240F6EFF0E2F2027
:10133600106E000E126E050E116E87EC31F00FC0A6
:1013460027F010C028F02CC00FF02DC010F0000EB2
:10135600126E020E116EBCEC2FF00F5027242A6E6F
:10136600105028202B6E130E1E6EFF0E1F6EFF0EE2
:10137600206EFF0E216E34EC31F043C027F044C0DE
:1013860028F0296A000E2724106E800E2820116E80
:10139600100E2920126E000E146EF00E136EF9EC6C
:1013A60030F0020E9AEC31F043C027F044C028F02A
:1013B600296A000E2724106E800E2820116E100E4A
:1013C6002920126E000E146E730E136EF9EC30F0B7
:1013D600020E9AEC31F043C027F044C028F0296A87
:1013E600000E2724106E800E2820116E100E292064
:1013F600126E000E146E820E136EF9EC30F0020EB1
:101406009AEC31F043C027F044C028F0296A000E58
:101416002724106E800E2820116E100E2920126EC1
:10142600310E146E000E136EF9EC30F0020E9AECCB
:1014360031F043C027F044C028F0296A000E272463
:10144600106E800E2820116E100E2920126E000ECE
:10145600146E0A0E136EF9EC30F0020E9AEC31F0AF
:1014660043C027F044C028F0296A000E2724106ED6
:10147600800E2820116E100E2920126E000E146E9A
:10148600050E136EF9EC30F0020E9AEC31F043C003
:1014960027F044C028F0296A000E2724106E800E1B
:1014A6002820116E100E2920126E2AC013F02BC0B0
:1014B60014F0F9EC30F0020E9AEC31F043C027F04C
:1014C60044C028F0296A000E2724106E800E2820BA
:1014D600116E100E2920126E000E146E320E136E4F
:1014E600F9EC30F0020E9AEC31F0FF0E1E6EFF0E94
:1014F6001F6EFF0E206E040E216E34EC31F02E0EA0
:101506001E6EFF0E1F6EFF0E206EFF0E216E34EC58
:1015160031F043C027F044C028F0296A000E272482
:10152600106E800E2820116E100E2920126E000EED
:10153600146EED0E136EF9EC30F0020E9AEC31F0EB
:1015460043C027F044C028F0296A000E2724106EF5
:10155600800E2820116E100E2920126E000E146EB9
:10156600590E136EF9EC30F0020E9AEC31F043C0CE
:1015760027F044C028F0296A000E2724106E800E3A
:101586002820116E100E2920126E000E146E1F0EEA
:10159600136EF9EC30F0020E9AEC31F043C027F0EE
:1015A60044C028F0296A000E2724106E800E2820D9
:1015B600116E100E2920126E080E146E000E136E98
:1015C600F9EC30F0020E9AEC31F02EC01EF02FC06E
:1015D6001FF0000E1FBEFF0E206E216E34EC31F0A0
:1015E6002E0E1E6EFF0E1F6EFF0E206EFF0E216E5C
:1015F60034EC31F043C027F044C028F0296A000ECD
:101606002724106E800E2820116E100E2920126ECF
:10161600000E146EF30E136EF9EC30F0020E9AEC17
:1016260031F043C027F044C028F0296A000E272471
:10163600106E800E2820116E100E2920126E000EDC
:10164600146E590E136EF9EC30F0020E9AEC31F06E
:1016560043C027F044C028F0296A000E2724106EE4
:10166600800E2820116E100E2920126E000E146EA8
:101676001F0E136EF9EC30F0020E9AEC31F043C0F7
:1016860027F044C028F0296A000E2724106E800E29
:101696002820116E100E2920126E000E146E000EF8
:1016A600136EF9EC30F0020E9AEC31F02CC01EF0FD
:1016B6002DC01FF0000E1FBEFF0E206E216E34ECF3
:1016C60031F00C0E1E6EFF0E1F6EFF0E206EFF0E0B
:1016D600216E34EC31F043C027F044C028F0296A6B
:1016E600000E2724106E800E2820116E100E292061
:1016F600126E000E146EB70E136EF9EC30F0020E79
:101706009AEC31F043C027F044C028F0296A000E55
:101716002724106E800E2820116E100E2920126EBE
:10172600000E146EA10E136EF9EC30F0020E9AEC58
:1017360031F043C027F044C028F0296A000E272460
:10174600106E800E2820116E100E2920126E000ECB
:10175600146E1C0E136EF9EC30F0020E9AEC31F09A
:1017660043C027F044C028F0296A000E2724106ED3
:10177600800E2820116E100E2920126E000E146E97
:10178600000E136EF9EC30F0020E9AEC31F043C005
:1017960027F044C028F0296A000E2724156E800E13
:1017A6002820166E100E2920176E590E186E0F0E71
:1017B600196E33EC2FF09AEC31F00C0E1E6EFF0E04
:1017C6001F6EFF0E206EFF0E216E34EC31F043C00B
:1017D60027F044C028F0296A000E2724106E800ED8
:1017E6002820116E100E2920126E000E146EA00E07
:1017F600136EF9EC30F0020E9AEC31F043C027F08C
:1018060044C028F0296A000E2724106E800E282076
:10181600116E100E2920126E000E146E820E136EBB
:10182600F9EC30F0020E9AEC31F043C027F044C0D8
:1018360028F0296A000E2724106E800E2820116ECB
:10184600100E2920126E000E146E1C0E136EF9EC8B
:1018560030F0020E9AEC31F043C027F044C028F075
:10186600296A000E2724106E800E2820116E100E95
:101876002920126E000E146E000E136EF9EC30F075
:10188600020E9AEC31F043C027F044C028F0296AD2
:10189600000E2724156E800E2820166E100E2920A5
:1018A600176E620E186E0F0E196E33EC2FF09AEC4F
:1018B60031F00C0E1E6EFF0E1F6EFF0E206EFF0E19
:1018C600216E34EC31F043C027F044C028F0296A79
:1018D600000E2724106E800E2820116E100E29206F
:1018E600126E000E146E9B0E136EF9EC30F0020EA3
:1018F6009AEC31F043C027F044C028F0296A000E64
:101906002724106E800E2820116E100E2920126ECC
:10191600000E146E5C0E136EF9EC30F0020E9AECAB
:1019260031F043C027F044C028F0296A000E27246E
:10193600106E800E2820116E100E2920126E000ED9
:10194600146E1C0E136EF9EC30F0020E9AEC31F0A8
:1019560043C027F044C028F0296A000E2724106EE1
:10196600800E2820116E100E2920126E000E146EA5
:10197600000E136EF9EC30F0020E9AEC31F043C013
:1019860027F044C028F0296A000E2724156E800E21
:101996002820166E100E2920176E640E186E0F0E74
:1019A600196E33EC2FF09AEC31F00C0E1E6EFF0E12
:1019B6001F6EFF0E206EFF0E216E34EC31F043C019
:1019C60027F044C028F0296A000E2724106E800EE6
:1019D6002820116E100E2920126E000E146EAB0E0A
:1019E600136EF9EC30F0020E9AEC31F043C027F09A
:1019F60044C028F0296A000E2724106E800E282085
:101A0600116E100E2920126E000E146E3A0E136E11
:101A1600F9EC30F0020E9AEC31F043C027F044C0E6
:101A260028F0296A000E2724106E800E2820116ED9
:101A3600100E2920126E000E146E1C0E136EF9EC99
:101A460030F0020E9AEC31F043C027F044C028F083
:101A5600296A000E2724106E800E2820116E100EA3
:101A66002920126E000E146E000E136EF9EC30F083
:101A7600020E9AEC31F043C027F044C028F0296AE0
:101A8600000E2724156E800E2820166E100E2920B3
:101A9600176E660E186E0F0E196E33EC2FF09AEC59
:101AA60031F00C0E1E6EFF0E1F6EFF0E206EFF0E27
:101AB600216E34EC31F043C027F044C028F0296A87
:101AC600000E2724106E800E2820116E100E29207D
:101AD600126E000E146EC90E136EF9EC30F0020E83
:101AE6009AEC31F043C027F044C028F0296A000E72
:101AF6002724106E800E2820116E100E2920126EDB
:101B0600000E146E210E136EF9EC30F0020E9AECF4
:101B160031F043C027F044C028F0296A000E27247C
:101B2600106E800E2820116E100E2920126E000EE7
:101B3600146E1C0E136EF9EC30F0020E9AEC31F0B6
:101B460043C027F044C028F0296A000E2724106EEF
:101B5600800E2820116E100E2920126E000E146EB3
:101B6600000E136EF9EC30F0020E9AEC31F043C021
:101B760027F044C028F0296A000E2724156E800E2F
:101B86002820166E100E2920176E680E186E0F0E7E
:101B9600196E33EC2FF09AEC31F00C0E1E6EFF0E20
:101BA6001F6EFF0E206EFF0E216E34EC31F043C027
:101BB60027F044C028F0296A000E2724106E800EF4
:101BC6002820116E100E2920126E000E146EEB0ED8
:101BD600136EF9EC30F0020E9AEC31F043C027F0A8
:101BE60044C028F0296A000E2724106E800E282093
:101BF600116E100E2920126E000E146E1A0E136E40
:101C0600F9EC30F0020E9AEC31F043C027F044C0F4
:101C160028F0296A000E2724106E800E2820116EE7
:101C2600100E2920126E000E146E1C0E136EF9ECA7
:101C360030F0020E9AEC31F043C027F044C028F091
:101C4600296A000E2724106E800E2820116E100EB1
:101C56002920126E000E146E000E136EF9EC30F091
:101C6600020E9AEC31F043C027F044C028F0296AEE
:101C7600000E2724156E800E2820166E100E2920C1
:101C8600176E6A0E186E0F0E196E33EC2FF09AEC63
:101C960031F00C0E1E6EFF0E1F6EFF0E206EFF0E35
:101CA600216E34EC31F043C027F044C028F0296A95
:101CB600000E2724106E800E2820116E100E29208B
:101CC600126E010E146E0D0E136EF9EC30F0020E4C
:101CD6009AEC31F043C027F044C028F0296A000E80
:101CE6002724106E800E2820116E100E2920126EE9
:101CF600000E146E210E136EF9EC30F0020E9AEC03
:101D060031F043C027F044C028F0296A000E27248A
:101D1600106E800E2820116E100E2920126E000EF5
:101D2600146E1C0E136EF9EC30F0020E9AEC31F0C4
:101D360043C027F044C028F0296A000E2724106EFD
:101D4600800E2820116E100E2920126E000E146EC1
:101D5600000E136EF9EC30F0020E9AEC31F043C02F
:101D660027F044C028F0296A000E2724156E800E3D
:101D76002820166E100E2920176E6C0E186E0F0E88
:101D8600196E33EC2FF09AEC31F00C0E1E6EFF0E2E
:101D96001F6EFF0E206EFF0E216E34EC31F043C035
:101DA60027F044C028F0296A000E2724106E800E02
:101DB6002820116E100E2920126E010E146E2A0EA6
:101DC600136EF9EC30F0020E9AEC31F043C027F0B6
:101DD60044C028F0296A000E2724106E800E2820A1
:101DE600116E100E2920126E000E146E3A0E136E2E
:101DF600F9EC30F0020E9AEC31F043C027F044C003
:101E060028F0296A000E2724106E800E2820116EF5
:101E1600100E2920126E000E146E1C0E136EF9ECB5
:101E260030F0020E9AEC31F043C027F044C028F09F
:101E3600296A000E2724106E800E2820116E100EBF
:101E46002920126E000E146E000E136EF9EC30F09F
:101E5600020E9AEC31F043C027F044C028F0296AFC
:101E6600000E2724156E800E2820166E100E2920CF
:101E7600176E6E0E186E0F0E196E33EC2FF09AEC6D
:101E860031F00C0E1E6EFF0E1F6EFF0E206EFF0E43
:101E9600216E34EC31F043C027F044C028F0296AA3
:101EA600000E2724106E800E2820116E100E292099
:101EB600126E010E146E2D0E136EF9EC30F0020E3A
:101EC6009AEC31F043C027F044C028F0296A000E8E
:101ED6002724106E800E2820116E100E2920126EF7
:101EE600000E146E5C0E136EF9EC30F0020E9AECD6
:101EF60031F043C027F044C028F0296A000E272499
:101F0600106E800E2820116E100E2920126E000E03
:101F1600146E1C0E136EF9EC30F0020E9AEC31F0D2
:101F260043C027F044C028F0296A000E2724106E0B
:101F3600800E2820116E100E2920126E000E146ECF
:101F4600000E136EF9EC30F0020E9AEC31F043C03D
:101F560027F044C028F0296A000E2724156E800E4B
:101F66002820166E100E2920176E520E186E0F0EB0
:101F7600196E33EC2FF09AEC31F00C0E1E6EFF0E3C
:101F86001F6EFF0E206EFF0E216E34EC31F043C043
:101F960027F044C028F0296A000E2724106E800E10
:101FA6002820116E100E2920126E010E146E2B0EB3
:101FB600136EF9EC30F0020E9AEC31F043C027F0C4
:101FC60044C028F0296A000E2724106E800E2820AF
:101FD600116E100E2920126E000E146E820E136EF4
:101FE600F9EC30F0020E9AEC31F043C027F044C011
:101FF60028F0296A000E2724106E800E2820116E04
:10200600100E2920126E000E146E1C0E136EF9ECC3
:1020160030F0020E9AEC31F043C027F044C028F0AD
:10202600296A000E2724106E800E2820116E100ECD
:102036002920126E000E146E000E136EF9EC30F0AD
:10204600020E9AEC31F043C027F044C028F0296A0A
:10205600000E2724156E800E2820166E100E2920DD
:10206600176E550E186E0F0E196E33EC2FF09AEC94
:1020760031F00C0E1E6EFF0E1F6EFF0E206EFF0E51
:10208600216E34EC31F043C027F044C028F0296AB1
:10209600000E2724106E800E2820116E100E2920A7
:1020A600126E010E146E120E136EF9EC30F0020E63
:1020B6009AEC31F043C027F044C028F0296A000E9C
:1020C6002724106E800E2820116E100E2920126E05
:1020D600000E146EA10E136EF9EC30F0020E9AEC9F
:1020E60031F043C027F044C028F0296A000E2724A7
:1020F600106E800E2820116E100E2920126E000E12
:10210600146E1C0E136EF9EC30F0020E9AEC31F0E0
:1021160043C027F044C028F0296A000E2724106E19
:10212600800E2820116E100E2920126E000E146EDD
:10213600000E136EF9EC30F0020E9AEC31F043C04B
:1021460027F044C028F0296A000E2724156E800E59
:102156002820166E100E2920176E580E186E0F0EB8
:10216600196E33EC2FF09AEC31F00C0E1E6EFF0E4A
:102176001F6EFF0E206EFF0E216E34EC31F043C051
:1021860027F044C028F0296A000E2724106E800E1E
:102196002820116E100E2920126E000E146EF10EFC
:1021A600136EF9EC30F0020E9AEC31F043C027F0D2
:1021B60044C028F0296A000E2724106E800E2820BD
:1021C600116E100E2920126E000E146E720E136E12
:1021D600F9EC30F0020E9AEC31F043C027F044C01F
:1021E60028F0296A000E2724106E800E2820116E12
:1021F600100E2920126E000E146E1F0E136EF9ECCF
:1022060030F0020E9AEC31F043C027F044C028F0BB
:10221600296A000E2724106E800E2820116E100EDB
:102226002920126E060E146E000E136EF9EC30F0B5
:10223600020E9AEC31F043C027F044C028F0296A18
:10224600000E2724156E800E2820166E100E2920EB
:10225600176E600E186E0F0E196E33EC2FF09AEC97
:1022660031F00C0E1E6EFF0E1F6EFF0E206EFF0E5F
:10227600216E34EC31F043C027F044C028F0296ABF
:10228600000E2724106E800E2820116E100E2920B5
:10229600126E010E146E0B0E136EF9EC30F0020E78
:1022A6009AEC31F043C027F044C028F0296A000EAA
:1022B6002724106E800E2820116E100E2920126E13
:1022C600000E146E6C0E136EF9EC30F0020E9AECE2
:1022D60031F043C027F044C028F0296A000E2724B5
:1022E600106E800E2820116E100E2920126E000E20
:1022F600146E1C0E136EF9EC30F0020E9AEC31F0EF
:1023060043C027F044C028F0296A000E2724106E27
:10231600800E2820116E100E2920126E000E146EEB
:10232600000E136EF9EC30F0020E9AEC31F043C059
:1023360027F044C028F0296A000E2724156E800E67
:102346002820166E100E2920176E720E186E0F0EAC
:10235600196E33EC2FF09AEC31F00C0E1E6EFF0E58
:102366001F6EFF0E206EFF0E216E34EC31F043C05F
:1023760027F044C028F0296A000E2724106E800E2C
:102386002820116E100E2920126E000E146EE30E18
:10239600136EF9EC30F0020E9AEC31F043C027F0E0
:1023A60044C028F0296A000E2724106E800E2820CB
:1023B600116E100E2920126E000E146E840E136E0E
:1023C600F9EC30F0020E9AEC31F043C027F044C02D
:1023D60028F0296A000E2724106E800E2820116E20
:1023E600100E2920126E000E146E1A0E136EF9ECE2
:1023F60030F0020E9AEC31F043C027F044C028F0CA
:10240600296A000E2724106E800E2820116E100EE9
:102416002920126E000E146E000E136EF9EC30F0C9
:10242600020E9AEC31F043C027F044C028F0296A26
:10243600000E2724156E800E2820166E100E2920F9
:10244600176E4A0E186E0F0E196E33EC2FF09AECBB
:1024560031F01200000E1E6E000E1F6EFF0E206E73
:10246600040E216E34EC31F0080E1E6E000E1F6E47
:10247600000E206E1F0E216E34EC31F0000E1E6E23
:10248600800E1F6E0C0E206E800E216E34EC31F025
:10249600000E1E6E800E1F6E6C0E206E970E216E45
:1024A60034EC31F0000E1E6ED00E1F6E0A0E206E3A
:1024B6009B0E216E34EC31F0000E1E6ED00E1F6E98
:1024C600EA0E206EA00E216E34EC31F0000E1E6E68
:1024D600800E1F6E8C0E206EA40E216E34EC31F031
:1024E600000E1E6E800E1F6E0C0E206EBC0E216E30
:1024F60034EC31F0000E1E6E000E1F6E000E206EC4
:10250600040E216E34EC31F0080E1E6E000E1F6EA6
:10251600000E206E1F0E216E34EC31F0000E1E6E82
:10252600D00E1F6E0C0E206E800E216E34EC31F034
:10253600000E1E6EC00E1F6EAC0E206E970E216E24
:1025460034EC31F0000E1E6E100E1F6E2B0E206E38
:102556009B0E216E34EC31F0000E1E6E100E1F6EB7
:10256600AB0E206EA00E216E34EC31F0000E1E6E06
:10257600C00E1F6E2C0E206EA40E216E34EC31F0B0
:10258600000E1E6ED00E1F6E6C0E206EBC0E216EDF
:1025960034EC31F0000E1E6E7D0E1F6EFF0E206EA7
:1025A600040E216E34EC31F00C0E1E6EFF0E1F6E03
:1025B600FF0E206EFF0E216E34EC31F043C030F07A
:1025C60044C031F0326A000E3024106E800E312085
:1025D600116E100E3220126E000E146E050E136E62
:1025E600F9EC30F0020E9AEC31F043C030F044C002
:1025F60031F0326A000E3024106E800E3120116EDA
:10260600100E3220126E000E146ECF0E136EF9EC01
:1026160030F0020E9AEC31F043C030F044C031F095
:10262600326A000E3024106E800E3120116E100EAC
:102636003220126E000E146E1B0E136EF9EC30F083
:10264600020E9AEC31F043C030F044C031F0326AE9
:10265600000E3024106E800E3120116E100E3220C6
:10266600126E000E146E000E136EF9EC30F0020EB0
:102676009AEC31F043C030F044C031F0326A000EBB
:102686003024156E800E3120166E100E3220176E15
:10269600330E186E0F0E196E33EC2FF09AEC31F0E4
:1026A6002E0E1E6EFF0E1F6EFF0E206EFF0E216E8B
:1026B60034EC31F043C030F044C031F0326A000EE1
:1026C6003024106E800E3120116E100E3220126EE4
:1026D600000E146E420E136EF9EC30F0020E9AECF8
:1026E60031F043C030F044C031F0326A000E30247D
:1026F600106E800E3120116E100E3220126E000EFA
:10270600146ED90E136EF9EC30F0020E9AEC31F01D
:1027160043C030F044C031F0326A000E3024106EEF
:10272600800E3120116E100E3220126E000E146EC5
:102736001B0E136EF9EC30F0020E9AEC31F043C02A
:1027460030F044C031F0326A000E3024106E800E34
:102756003120116E100E3220126E060E146E000E0F
:10276600136EF9EC30F0020E9AEC31F0000E1E6E8C
:10277600000E1F6E000E206E000E216E34EC31F03E
:102786000C0E1E6EFF0E1F6EFF0E206EFF0E216ECC
:1027960034EC31F043C030F044C031F0326A000E00
:1027A6003024106E800E3120116E100E3220126E03
:1027B600010E146EC00E136EF9EC30F0020E9AEC98
:1027C60031F043C030F044C031F0326A000E30249C
:1027D600106E800E3120116E100E3220126E000E19
:1027E600146ECF0E136EF9EC30F0020E9AEC31F047
:1027F60043C030F044C031F0326A000E3024106E0F
:10280600800E3120116E100E3220126E000E146EE4
:102816001B0E136EF9EC30F0020E9AEC31F043C049
:1028260030F044C031F0326A000E3024106E800E53
:102836003120116E100E3220126E080E146E000E2C
:10284600136EF9EC30F0020E9AEC31F043C030F022
:1028560044C031F0326A000E3024156E800E3120ED
:10286600166E100E3220176E380E186E0F0E196E79
:1028760033EC2FF09AEC31F02E0E1E6EFF0E1F6E0B
:10288600FF0E206EFF0E216E34EC31F043C030F0A7
:1028960044C031F0326A000E3024106E800E3120B2
:1028A600116E100E3220126E010E146EDB0E136EB8
:1028B600F9EC30F0020E9AEC31F043C030F044C02F
:1028C60031F0326A000E3024106E800E3120116E07
:1028D600100E3220126E000E146ECF0E136EF9EC2F
:1028E60030F0020E9AEC31F043C030F044C031F0C3
:1028F600326A000E3024106E800E3120116E100EDA
:102906003220126E000E146E1B0E136EF9EC30F0B0
:10291600020E9AEC31F043C030F044C031F0326A16
:10292600000E3024106E800E3120116E100E3220F3
:10293600126E080E146E000E136EF9EC30F0020ED5
:102946009AEC31F0000E1E6E000E1F6E000E206E09
:10295600000E216E34EC31F00C0E1E6EFF0E1F6E53
:10296600FF0E206EFF0E216E34EC31F043C030F0C6
:1029760044C031F0326A000E3024106E800E3120D1
:10298600116E100E3220126E000E146EF00E136EC3
:10299600F9EC30F0020E9AEC31F043C030F044C04E
:1029A60031F0326A000E3024106E800E3120116E26
:1029B600100E3220126E000E146EA50E136EF9EC78
:1029C60030F0020E9AEC31F043C030F044C031F0E2
:1029D600326A000E3024106E800E3120116E100EF9
:1029E6003220126E000E146E1B0E136EF9EC30F0D0
:1029F600020E9AEC31F043C030F044C031F0326A36
:102A0600000E3024106E800E3120116E100E322012
:102A1600126E060E146E000E136EF9EC30F0020EF6
:102A26009AEC31F043C030F044C031F0326A000E07
:102A36003024156E800E3120166E100E3220176E61
:102A46004E0E186E0F0E196E33EC2FF09AEC31F015
:102A56002E0E1E6EFF0E1F6EFF0E206EFF0E216ED7
:102A660034EC31F043C030F044C031F0326A000E2D
:102A76003024106E800E3120116E100E3220126E30
:102A8600000E146EF00E136EF9EC30F0020E9AEC96
:102A960031F043C030F044C031F0326A000E3024C9
:102AA600106E800E3120116E100E3220126E000E46
:102AB600146EBE0E136EF9EC30F0020E9AEC31F085
:102AC60043C030F044C031F0326A000E3024106E3C
:102AD600800E3120116E100E3220126E000E146E12
:102AE6001D0E136EF9EC30F0020E9AEC31F043C075
:102AF60030F044C031F0326A000E3024106E800E81
:102B06003120116E100E3220126E060E146E000E5B
:102B1600136EF9EC30F0020E9AEC31F0000E1E6ED8
:102B2600000E1F6E000E206E000E216E34EC31F08A
:102B3600FF0E1E6EFF0E1F6EFF0E206E040E216E20
:102B460034EC31F02E0E1E6EFF0E1F6EFF0E206E41
:102B5600FF0E216E34EC31F043C030F044C031F04A
:102B6600326A000E3024106E800E3120116E100E67
:102B76003220126E000E146E240E136EF9EC30F035
:102B8600020E9AEC31F043C030F044C031F0326AA4
:102B9600000E3024106E800E3120116E100E322081
:102BA600126E000E146EDE0E136EF9EC30F0020E8D
:102BB6009AEC31F043C030F044C031F0326A000E76
:102BC6003024106E800E3120116E100E3220126EDF
:102BD600000E146E1E0E136EF9EC30F0020E9AEC17
:102BE60031F043C030F044C031F0326A000E302478
:102BF600106E800E3120116E100E3220126E080EED
:102C0600146E000E136EF9EC30F0020E9AEC31F0F1
:102C1600000E1E6E000E1F6E000E206E000E216E40
:102C260034EC31F00C0E1E6EFF0E1F6EFF0E206E82
:102C3600FF0E216E34EC31F043C030F044C031F069
:102C4600326A000E3024106E800E3120116E100E86
:102C56003220126E000E146E270E136EF9EC30F051
:102C6600020E9AEC31F043C030F044C031F0326AC3
:102C7600000E3024106E800E3120116E100E3220A0
:102C8600126E000E146EEE0E136EF9EC30F0020E9C
:102C96009AEC31F043C030F044C031F0326A000E95
:102CA6003024106E800E3120116E100E3220126EFE
:102CB600000E146E1C0E136EF9EC30F0020E9AEC38
:102CC60031F043C030F044C031F0326A000E302497
:102CD600106E800E3120116E100E3220126E060E0E
:102CE600146E000E136EF9EC30F0020E9AEC31F011
:102CF60043C030F044C031F0326A000E3024156E05
:102D0600800E3120166E100E3220176E700E186E61
:102D16000F0E196E33EC2FF09AEC31F02E0E1E6E5C
:102D2600FF0E1F6EFF0E206EFF0E216E34EC31F08B
:102D360043C030F044C031F0326A000E3024106EC9
:102D4600800E3120116E100E3220126E000E146E9F
:102D56002A0E136EF9EC30F0020E9AEC31F043C0F5
:102D660030F044C031F0326A000E3024106E800E0E
:102D76003120116E100E3220126E000E146EDE0E11
:102D8600136EF9EC30F0020E9AEC31F043C030F0DD
:102D960044C031F0326A000E3024106E800E3120AD
:102DA600116E100E3220126E000E146E1E0E136E71
:102DB600F9EC30F0020E9AEC31F043C030F044C02A
:102DC60031F0326A000E3024106E800E3120116E02
:102DD600100E3220126E000E146E020E136EF9ECF7
:102DE60030F0020E9AEC31F0000E1E6E000E1F6ED1
:102DF600000E206E000E216E34EC31F02E0E1E6E8B
:102E0600FF0E1F6EFF0E206EFF0E216E34EC31F0AA
:102E160043C030F044C031F0326A000E3024106EE8
:102E2600800E3120116E100E3220126E010E146EBD
:102E3600B20E136EF9EC30F0020E9AEC31F043C08C
:102E460030F044C031F0326A000E3024106E800E2D
:102E56003120116E100E3220126E000E146EDE0E30
:102E6600136EF9EC30F0020E9AEC31F043C030F0FC
:102E760044C031F0326A000E3024106E800E3120CC
:102E8600116E100E3220126E000E146E1E0E136E90
:102E9600F9EC30F0020E9AEC31F043C030F044C049
:102EA60031F0326A000E3024106E800E3120116E21
:102EB600100E3220126E080E146E000E136EF9EC10
:102EC60030F0020E9AEC31F0000E1E6E000E1F6EF0
:102ED600000E206E000E216E34EC31F00C0E1E6ECC
:102EE600FF0E1F6EFF0E206EFF0E216E34EC31F0CA
:102EF60043C030F044C031F0326A000E3024106E08
:102F0600800E3120116E100E3220126E010E146EDC
:102F1600B50E136EF9EC30F0020E9AEC31F043C0A8
:102F260030F044C031F0326A000E3024106E800E4C
:102F36003120116E100E3220126E000E146EEF0E3E
:102F4600136EF9EC30F0020E9AEC31F043C030F01B
:102F560044C031F0326A000E3024106E800E3120EB
:102F6600116E100E3220126E000E146E1C0E136EB1
:102F7600F9EC30F0020E9AEC31F043C030F044C068
:102F860031F0326A000E3024106E800E3120116E40
:102F9600100E3220126E060E146E000E136EF9EC31
:102FA60030F0020E9AEC31F043C030F044C031F0FC
:102FB600326A000E3024156E800E3120166E100E09
:102FC6003220176E700E186E0F0E196E33EC2FF03E
:102FD6009AEC31F02E0E1E6EFF0E1F6EFF0E206E47
:102FE600FF0E216E34EC31F043C030F044C031F0B6
:102FF600326A000E3024106E800E3120116E100ED3
:103006003220126E010E146EB80E136EF9EC30F00B
:10301600020E9AEC31F043C030F044C031F0326A0F
:10302600000E3024106E800E3120116E100E3220EC
:10303600126E000E146EDE0E136EF9EC30F0020EF8
:103046009AEC31F043C030F044C031F0326A000EE1
:103056003024106E800E3120116E100E3220126E4A
:10306600000E146E1E0E136EF9EC30F0020E9AEC82
:1030760031F043C030F044C031F0326A000E3024E3
:10308600106E800E3120116E100E3220126E000E60
:10309600146E020E136EF9EC30F0020E9AEC31F05B
:1030A600000E1E6E000E1F6E000E206E000E216EAC
:1030B60034EC31F02E0E1E6EFF0E1F6EFF0E206ECC
:1030C600FF0E216E34EC31F043C030F044C031F0D5
:1030D600326A000E3024106E800E3120116E100EF2
:1030E6003220126E000E146EE90E136EF9EC30F0FB
:1030F600020E9AEC31F043C030F044C031F0326A2F
:10310600000E3024106E800E3120116E100E32200B
:10311600126E000E146EEB0E136EF9EC30F0020E0A
:103126009AEC31F043C030F044C031F0326A000E00
:103136003024106E800E3120116E100E3220126E69
:10314600000E146E1E0E136EF9EC30F0020E9AECA1
:1031560031F043C030F044C031F0326A000E302402
:10316600106E800E3120116E100E3220126E080E77
:10317600146E000E136EF9EC30F0020E9AEC31F07C
:10318600000E1E6E000E1F6E000E206E000E216ECB
:1031960034EC31F00C0E1E6EFF0E1F6EFF0E206E0D
:1031A600FF0E216E34EC31F043C030F044C031F0F4
:1031B600326A000E3024106E800E3120116E100E11
:1031C6003220126E000E146EED0E136EF9EC30F016
:1031D600020E9AEC31F043C030F044C031F0326A4E
:1031E600000E3024106E800E3120116E100E32202B
:1031F600126E000E146EFC0E136EF9EC30F0020E19
:103206009AEC31F043C030F044C031F0326A000E1F
:103216003024106E800E3120116E100E3220126E88
:10322600000E146E1C0E136EF9EC30F0020E9AECC2
:1032360031F043C030F044C031F0326A000E302421
:10324600106E800E3120116E100E3220126E060E98
:10325600146E000E136EF9EC30F0020E9AEC31F09B
:1032660043C030F044C031F0326A000E3024156E8F
:10327600800E3120166E100E3220176E700E186EEC
:103286000F0E196E33EC2FF09AEC31F02E0E1E6EE7
:10329600FF0E1F6EFF0E206EFF0E216E34EC31F016
:1032A60043C030F044C031F0326A000E3024106E54
:1032B600800E3120116E100E3220126E000E146E2A
:1032C600F00E136EF9EC30F0020E9AEC31F043C0BA
:1032D60030F044C031F0326A000E3024106E800E99
:1032E6003120116E100E3220126E000E146EEB0E8F
:1032F600136EF9EC30F0020E9AEC31F043C030F068
:1033060044C031F0326A000E3024106E800E312037
:10331600116E100E3220126E000E146E1E0E136EFB
:10332600F9EC30F0020E9AEC31F043C030F044C0B4
:1033360031F0326A000E3024106E800E3120116E8C
:10334600100E3220126E000E146E020E136EF9EC81
:1033560030F0020E9AEC31F0000E1E6E000E1F6E5B
:10336600000E206E000E216E34EC31F01200000EBD
:10337600296E050E286EFF0E1E6EFF0E1F6EFF0EC7
:10338600206E040E216E34EC31F00C0E1E6EFF0E14
:103396001F6EFF0E206EFF0E216E34EC31F043C01F
:1033A60025F044C026F0276A000E2524106E800EF4
:1033B6002620116E100E2720126E000E146E050EBA
:1033C600136EF9EC30F0020E9AEC31F043C025F0A2
:1033D60044C026F0276A000E2524106E800E262093
:1033E600116E100E2720126E28C013F029C014F09B
:1033F600F9EC30F0020E9AEC31F043C025F044C0EF
:1034060026F0276A000E2524106E800E2620116EE7
:10341600100E2720126E000E146E1A0E136EF9ECA3
:1034260030F0020E9AEC31F043C025F044C026F08D
:10343600276A000E2524106E800E2620116E100EAF
:103446002720126E000E146E000E136EF9EC30F08B
:10345600020E9AEC31F043C025F044C026F0276AEC
:10346600000E2524156E800E2620166E100E2720BF
:10347600176E070E186E0F0E196E33EC2FF09AECBE
:1034860031F00C0E1E6EFF0E1F6EFF0E206EFF0E2D
:10349600216E34EC31F043C025F044C026F0276A93
:1034A600000E2524106E800E2620116E100E272089
:1034B600126E000E146E050E136EF9EC30F0020E4D
:1034C6009AEC31F043C025F044C026F0276A000E7E
:1034D6002524106E800E2620116E100E2720126EE7
:1034E6000F0E2826000E292228C013F029C014F03A
:1034F600F9EC30F0020E9AEC31F043C025F044C0EE
:1035060026F0276A000E2524106E800E2620116EE6
:10351600100E2720126E000E146E1A0E136EF9ECA2
:1035260030F0020E9AEC31F043C025F044C026F08C
:10353600276A000E2524106E800E2620116E100EAE
:103546002720126E000E146E000E136EF9EC30F08A
:10355600020E9AEC31F043C025F044C026F0276AEB
:10356600000E2524156E800E2620166E100E2720BE
:10357600176E2E0E186E0F0E196E33EC2FF09AEC96
:1035860031F00C0E1E6EFF0E1F6EFF0E206EFF0E2C
:10359600216E34EC31F043C025F044C026F0276A92
:1035A600000E2524106E800E2620116E100E272088
:1035B600126E000E146E050E136EF9EC30F0020E4C
:1035C6009AEC31F043C025F044C026F0276A000E7D
:1035D6002524106E800E2620116E100E2720126EE6
:1035E600190E2826000E292228C013F029C014F02F
:1035F600F9EC30F0020E9AEC31F043C025F044C0ED
:1036060026F0276A000E2524106E800E2620116EE5
:10361600100E2720126E000E146E1A0E136EF9ECA1
:1036260030F0020E9AEC31F043C025F044C026F08B
:10363600276A000E2524106E800E2620116E100EAD
:103646002720126E000E146E000E136EF9EC30F089
:10365600020E9AEC31F043C025F044C026F0276AEA
:10366600000E2524156E800E2620166E100E2720BD
:10367600176E460E186E0F0E196E33EC2FF09AEC7D
:1036860031F00C0E1E6EFF0E1F6EFF0E206EFF0E2B
:10369600216E34EC31F043C025F044C026F0276A91
:1036A600000E2524106E800E2620116E100E272087
:1036B600126E000E146E050E136EF9EC30F0020E4B
:1036C6009AEC31F043C025F044C026F0276A000E7C
:1036D6002524106E800E2620116E100E2720126EE5
:1036E6000F0E2826000E292228C013F029C014F038
:1036F600F9EC30F0020E9AEC31F043C025F044C0EC
:1037060026F0276A000E2524106E800E2620116EE4
:10371600100E2720126E000E146E1A0E136EF9ECA0
:1037260030F0020E9AEC31F043C025F044C026F08A
:10373600276A000E2524106E800E2620116E100EAC
:103746002720126E000E146E000E136EF9EC30F088
:10375600020E9AEC31F043C025F044C026F0276AE9
:10376600000E2524156E800E2620166E100E2720BC
:10377600176E2E0E186E0F0E196E33EC2FF09AEC94
:1037860031F00C0E1E6EFF0E1F6EFF0E206EFF0E2A
:10379600216E34EC31F043C025F044C026F0276A90
:1037A600000E2524106E800E2620116E100E272086
:1037B600126E000E146E050E136EF9EC30F0020E4A
:1037C6009AEC31F043C025F044C026F0276A000E7B
:1037D6002524106E800E2620116E100E2720126EE4
:1037E600190E2826000E292228C013F029C014F02D
:1037F600F9EC30F0020E9AEC31F043C025F044C0EB
:1038060026F0276A000E2524106E800E2620116EE3
:10381600100E2720126E000E146E1A0E136EF9EC9F
:1038260030F0020E9AEC31F043C025F044C026F089
:10383600276A000E2524106E800E2620116E100EAB
:103846002720126E000E146E000E136EF9EC30F087
:10385600020E9AEC31F043C025F044C026F0276AE8
:10386600000E2524156E800E2620166E100E2720BB
:10387600176E290E186E0F0E196E33EC2FF09AEC98
:1038860031F00C0E1E6EFF0E1F6EFF0E206EFF0E29
:10389600216E34EC31F043C025F044C026F0276A8F
:1038A600000E2524106E800E2620116E100E272085
:1038B600126E000E146E050E136EF9EC30F0020E49
:1038C6009AEC31F043C025F044C026F0276A000E7A
:1038D6002524106E800E2620116E100E2720126EE3
:1038E6000F0E2826000E292228C013F029C014F036
:1038F600F9EC30F0020E9AEC31F043C025F044C0EA
:1039060026F0276A000E2524106E800E2620116EE2
:10391600100E2720126E000E146E1A0E136EF9EC9E
:1039260030F0020E9AEC31F043C025F044C026F088
:10393600276A000E2524106E800E2620116E100EAA
:103946002720126E000E146E000E136EF9EC30F086
:10395600020E9AEC31F043C025F044C026F0276AE7
:10396600000E2524156E800E2620166E100E2720BA
:10397600176E240E186E0F0E196E33EC2FF09AEC9C
:1039860031F00C0E1E6EFF0E1F6EFF0E206EFF0E28
:10399600216E34EC31F043C025F044C026F0276A8E
:1039A600000E2524106E800E2620116E100E272084
:1039B600126E000E146E050E136EF9EC30F0020E48
:1039C6009AEC31F043C025F044C026F0276A000E79
:1039D6002524106E800E2620116E100E2720126EE2
:1039E600190E2826000E292228C013F029C014F02B
:1039F600F9EC30F0020E9AEC31F043C025F044C0E9
:103A060026F0276A000E2524106E800E2620116EE1
:103A1600100E2720126E000E146E1A0E136EF9EC9D
:103A260030F0020E9AEC31F043C025F044C026F087
:103A3600276A000E2524106E800E2620116E100EA9
:103A46002720126E000E146E000E136EF9EC30F085
:103A5600020E9AEC31F043C025F044C026F0276AE6
:103A6600000E2524156E800E2620166E100E2720B9
:103A7600176E3D0E186E0F0E196E33EC2FF09AEC82
:103A860031F00C0E1E6EFF0E1F6EFF0E206EFF0E27
:103A9600216E34EC31F043C025F044C026F0276A8D
:103AA600000E2524106E800E2620116E100E272083
:103AB600126E000E146E050E136EF9EC30F0020E47
:103AC6009AEC31F043C025F044C026F0276A000E78
:103AD6002524106E800E2620116E100E2720126EE1
:103AE6000F0E2826000E292228C013F029C014F034
:103AF600F9EC30F0020E9AEC31F043C025F044C0E8
:103B060026F0276A000E2524106E800E2620116EE0
:103B1600100E2720126E000E146E1A0E136EF9EC9C
:103B260030F0020E9AEC31F043C025F044C026F086
:103B3600276A000E2524106E800E2620116E100EA8
:103B46002720126E000E146E000E136EF9EC30F084
:103B5600020E9AEC31F043C025F044C026F0276AE5
:103B6600000E2524156E800E2620166E100E2720B8
:103B7600176E130E186E0F0E196E33EC2FF09AECAB
:103B860031F00C0E1E6EFF0E1F6EFF0E206EFF0E26
:103B9600216E34EC31F043C025F044C026F0276A8C
:103BA600000E2524106E800E2620116E100E272082
:103BB600126E000E146E050E136EF9EC30F0020E46
:103BC6009AEC31F043C025F044C026F0276A000E77
:103BD6002524106E800E2620116E100E2720126EE0
:103BE600190E2826000E292228C013F029C014F029
:103BF600F9EC30F0020E9AEC31F043C025F044C0E7
:103C060026F0276A000E2524106E800E2620116EDF
:103C1600100E2720126E000E146E1A0E136EF9EC9B
:103C260030F0020E9AEC31F043C025F044C026F085
:103C3600276A000E2524106E800E2620116E100EA7
:103C46002720126E000E146E000E136EF9EC30F083
:103C5600020E9AEC31F043C025F044C026F0276AE4
:103C6600000E2524156E800E2620166E100E2720B7
:103C7600176E460E186E0F0E196E33EC2FF09AEC77
:103C860031F00C0E1E6EFF0E1F6EFF0E206EFF0E25
:103C9600216E34EC31F043C025F044C026F0276A8B
:103CA600000E2524106E800E2620116E100E272081
:103CB600126E000E146E050E136EF9EC30F0020E45
:103CC6009AEC31F043C025F044C026F0276A000E76
:103CD6002524106E800E2620116E100E2720126EDF
:103CE6000F0E2826000E292228C013F029C014F032
:103CF600F9EC30F0020E9AEC31F043C025F044C0E6
:103D060026F0276A000E2524106E800E2620116EDE
:103D1600100E2720126E000E146E1A0E136EF9EC9A
:103D260030F0020E9AEC31F043C025F044C026F084
:103D3600276A000E2524106E800E2620116E100EA6
:103D46002720126E000E146E000E136EF9EC30F082
:103D5600020E9AEC31F043C025F044C026F0276AE3
:103D6600000E2524156E800E2620166E100E2720B6
:103D7600176E0D0E186E0F0E196E33EC2FF09AECAF
:103D860031F00C0E1E6EFF0E1F6EFF0E206EFF0E24
:103D9600216E34EC31F043C025F044C026F0276A8A
:103DA600000E2524106E800E2620116E100E272080
:103DB600126E010E146E680E136EF9EC30F0020EE0
:103DC6009AEC31F043C025F044C026F0276A000E75
:103DD6002524106E800E2620116E100E2720126EDE
:103DE600000E146E820E136EF9EC30F0020E9AEC91
:103DF60031F043C025F044C026F0276A000E252482
:103E0600106E800E2620116E100E2720126E000EE8
:103E1600146E1A0E136EF9EC30F0020E9AEC31F0B5
:103E260043C025F044C026F0276A000E2524106EF4
:103E3600800E2620116E100E2720126E000E146EB4
:103E4600000E136EF9EC30F0020E9AEC31F043C01E
:103E560025F044C026F0276A000E2524156E800E34
:103E66002620166E100E2720176E010E186E0F0EE6
:103E7600196E33EC2FF09AEC31F00C0E1E6EFF0E1D
:103E86001F6EFF0E206EFF0E216E34EC31F043C024
:103E960025F044C026F0276A000E2524106E800EF9
:103EA6002620116E100E2720126E010E146E680E5B
:103EB600136EF9EC30F0020E9AEC31F043C025F0A7
:103EC60044C026F0276A000E2524106E800E262098
:103ED600116E100E2720126E000E146E910E136EC8
:103EE600F9EC30F0020E9AEC31F043C025F044C0F4
:103EF60026F0276A000E2524106E800E2620116EED
:103F0600100E2720126E000E146E1A0E136EF9ECA8
:103F160030F0020E9AEC31F043C025F044C026F092
:103F2600276A000E2524106E800E2620116E100EB4
:103F36002720126E000E146E000E136EF9EC30F090
:103F4600020E9AEC31F043C025F044C026F0276AF1
:103F5600000E2524156E800E2620166E100E2720C4
:103F6600176E420E186E0F0E196E33EC2FF09AEC88
:103F760031F00C0E1E6EFF0E1F6EFF0E206EFF0E32
:103F8600216E34EC31F043C025F044C026F0276A98
:103F9600000E2524106E800E2620116E100E27208E
:103FA600126E010E146E7C0E136EF9EC30F0020EDA
:103FB6009AEC31F043C025F044C026F0276A000E83
:103FC6002524106E800E2620116E100E2720126EEC
:103FD600000E146EB40E136EF9EC30F0020E9AEC6D
:103FE60031F043C025F044C026F0276A000E252490
:103FF600106E800E2620116E100E2720126E000EF7
:10400600146E1A0E136EF9EC30F0020E9AEC31F0C3
:1040160043C025F044C026F0276A000E2524106E02
:10402600800E2620116E100E2720126E000E146EC2
:10403600000E136EF9EC30F0020E9AEC31F043C02C
:1040460025F044C026F0276A000E2524156E800E42
:104056002620166E100E2720176E5B0E186E0F0E9A
:10406600196E33EC2FF09AEC31F00C0E1E6EFF0E2B
:104076001F6EFF0E206EFF0E216E34EC31F043C032
:1040860025F044C026F0276A000E2524106E800E07
:104096002620116E100E2720126E010E146ECB0E06
:1040A600136EF9EC30F0020E9AEC31F043C025F0B5
:1040B60044C026F0276A000E2524106E800E2620A6
:1040C600116E100E2720126E000E146EAE0E136EB9
:1040D600F9EC30F0020E9AEC31F043C025F044C002
:1040E60026F0276A000E2524106E800E2620116EFB
:1040F600100E2720126E000E146E1C0E136EF9ECB5
:1041060030F0020E9AEC31F043C025F044C026F0A0
:10411600276A000E2524106E800E2620116E100EC2
:104126002720126E000E146E000E136EF9EC30F09E
:10413600020E9AEC31F043C025F044C026F0276AFF
:10414600000E2524156E800E2620166E100E2720D2
:10415600176E5E0E186E0F0E196E33EC2FF09AEC7A
:1041660031F0020E1E6E000E1F6E000E206E1F0E28
:10417600216E34EC31F0140E1E6E140E1F6E140EEA
:10418600206E040E216E34EC31F0D60E1E6E060E35
:104196001F6E000E206E0D0E216E34EC31F0000EF7
:1041A6001E6E300E1F6E070E206E9E0E216E34ECB4
:1041B60031F03C0E1E6E3C0E1F6E3C0E206E040E41
:1041C600216E34EC31F0720E1E6E060E1F6E000E5E
:1041D600206E0D0E216E34EC31F0000E1E6E300E88
:1041E6001F6E070E206E9E0E216E34EC31F012000B
:1041F600600E1E6E000E1F6E000E206E0E0E216EDD
:1042060034EC31F0000E1E6E7D0E1F6ECA0E206E4F
:10421600040E216E34EC31F0030E1E6E000E1F6E7E
:10422600000E206E1F0E216E34EC31F037D2000ED8
:104236001E6EF00E1F6E800E206EAF0E216E34ECD9
:1042460031F0000E1E6E300E1F6E870E206EAF0E02
:10425600216E34EC31F0000E1E6EF00E1F6E800ED5
:10426600206EAF0E216E34EC31F0000E1E6E300E55
:104276001F6E870E206EB90E216E34EC31F0000EE3
:104286001E6E400E1F6E870E206EB90E216E34EC28
:1042960031F0000E1E6EF00E1F6E800E206EB90EEF
:1042A600216E34EC31F01200000E1E6EF00E1F6E01
:1042B600800E206EB40E216E34EC31F0000E1E6EB0
:1042C600300E1F6E870E206EB40E216E34EC31F068
:1042D600000E1E6EF00E1F6E600E206EB40E216E66
:1042E60034EC31F0000E1E6EE00E1F6E010E206ED5
:1042F600B20E216E34EC31F0000E1E6E400E1F6EB3
:10430600A70E206EB20E216E34EC31F0000E1E6E3A
:10431600400E1F6E670E206EB60E216E34EC31F025
:104326001200000E1E6EF00E1F6E800E206EAF0E77
:10433600216E34EC31F0000E1E6EF00E1F6E800EF4
:10434600206EB90E216E34EC31F0000E1E6E000E9A
:104356001F6E810E206EB90E216E34EC31F0000E08
:104366001E6E000E1F6E840E206EB90E216E34EC8A
:1043760031F0000E1E6E100E1F6E840E206EB90EEA
:10438600216E34EC31F0000E1E6E100E1F6E840E80
:10439600206EAF0E216E34EC31F0000E1E6E200E34
:1043A6001F6E840E206EAF0E216E34EC31F0000EBF
:1043B6001E6E300E1F6E870E206EAF0E216E34EC11
:1043C60031F0000E1E6E300E1F6EA70E206EAF0E61
:1043D600216E34EC31F0000E1E6E300E1F6E870E0D
:1043E600206EB90E216E34EC31F01200000E1E6EF6
:1043F600F00E1F6E800E206EAF0E216E34EC31F083
:10440600000E1E6EF00E1F6E600E206EB90E216E2F
:1044160034EC31F0000E1E6E000E1F6E810E206E03
:10442600B90E216E34EC31F0000E1E6E300E1F6E8A
:10443600870E206EB90E216E34EC31F0000E1E6E22
:10444600100E1F6E640E206EB90E216E34EC31F024
:10445600000E1E6E100E1F6E840E206EAF0E216EA5
:1044660034EC31F0000E1E6E300E1F6EA70E206E5D
:10447600AF0E216E34EC31F0000E1E6E300E1F6E44
:10448600670E206EB90E216E34EC31F01200000E6C
:104496001E6EF00E1F6E800E206EAF0E216E34EC77
:1044A60031F0000E1E6E000E1F6E840E206EAF0ED3
:1044B600216E34EC31F0000E1E6E000E1F6E810E62
:1044C600206EB90E216E34EC31F0000E1E6E300EE9
:1044D6001F6E870E206EB90E216E34EC31F0000E81
:1044E6001E6E100E1F6E240E206EB90E216E34EC59
:1044F60031F0000E1E6E100E1F6EA40E206EAF0E53
:10450600216E34EC31F01200000E1E6EF00E1F6E9E
:10451600800E206EAF0E216E34EC31F0000E1E6E52
:10452600F00E1F6E600E206EB90E216E34EC31F067
:10453600000E1E6E000E1F6E810E206EAF0E216ED7
:1045460034EC31F0000E1E6E000E1F6E840E206ECF
:10455600AF0E216E34EC31F0000E1E6E100E1F6E83
:10456600840E206EB90E216E34EC31F0000E1E6EF4
:10457600200E1F6E870E206EB90E216E34EC31F0C0
:10458600000E1E6E100E1F6E240E206EB90E216ECA
:1045960034EC31F0000E1E6E100E1F6EA40E206E4F
:1045A600AF0E216E34EC31F0000E1E6E300E1F6E13
:1045B600A70E206EAF0E216E34EC31F0000E1E6E8B
:1045C600300E1F6E670E206EB90E216E34EC31F080
:1045D6001200000E1E6EF00E1F6E800E206EAF0EC5
:1045E600216E34EC31F0000E1E6EF00E1F6E600E62
:1045F600206EB90E216E34EC31F0000E1E6E000EE8
:104606001F6E810E206EAF0E216E34EC31F0000E5F
:104616001E6E300E1F6E870E206EAF0E216E34ECAE
:1046260031F0000E1E6E100E1F6E840E206EB90E37
:10463600216E34EC31F0000E1E6E200E1F6E870EBA
:10464600206EB90E216E34EC31F0000E1E6E100E87
:104656001F6E240E206EB90E216E34EC31F0000E62
:104666001E6E100E1F6EA40E206EAF0E216E34EC61
:1046760031F0000E1E6E300E1F6EA70E206EAF0EAE
:10468600216E34EC31F0000E1E6E300E1F6E670E7A
:10469600206EB90E216E34EC31F0120025C027F0E1
:1046A60026C028F02850000AD8A412002750000A75
:1046B600D8B4BDD5010AD8B4F7D5030AD8B431D6D3
:1046C600010AD8B493D6070AD8B4E1D6010AD8B4F9
:1046D6001BD7030AD8A412007CD72E0E1E6EFF0E1F
:1046E6001F6EFF0E206EFF0E216E34EC31F043C0BC
:1046F60027F044C028F0296A000E2724106E800E89
:104706002820116E100E2920126E000E146E420E15
:10471600136EF9EC30F0020E9AEC31F043C027F03C
:1047260044C028F0296A000E2724106E800E282027
:10473600116E100E2920126E000E146E820E136E6C
:10474600F9EC30F0020E9AEC31F043C027F044C089
:1047560028F0296A000E2724106E800E2820116E7C
:10476600100E2920126E000E146E1C0E136EF9EC3C
:1047760030F0020E9AEC31F043C027F044C028F026
:10478600296A000E2724106E800E2820116E100E46
:104796002920126E000E146E000E136EF9EC30F026
:1047A600020E9AEC31F025C00FF026C010F0000E74
:1047B600126E0A0E116EBCEC2FF00FC01EF010C068
:1047C6001FF0000E1FBEFF0E206E216E34EC31F07E
:1047D6000C0E1E6EFF0E1F6EFF0E206EFF0E216E5C
:1047E60034EC31F043C027F044C028F0296A000EAB
:1047F6002724106E800E2820116E100E2920126EAE
:10480600000E146E5A0E136EF9EC30F0020E9AEC8E
:1048160031F043C027F044C028F0296A000E27244F
:10482600106E800E2820116E100E2920126E000EBA
:10483600146E830E136EF9EC30F0020E9AEC31F022
:1048460043C027F044C028F0296A000E2724106EC2
:10485600800E2820116E100E2920126E000E146E86
:104866001C0E136EF9EC30F0020E9AEC31F043C0D8
:1048760027F044C028F0296A000E2724106E800E07
:104886002820116E100E2920126E000E146E000ED6
:10489600136EF9EC30F0020E9AEC31F043C027F0BB
:1048A60044C028F0296A000E2724156E800E2820A1
:1048B600166E100E2920176E600E186E0F0E196EEA
:1048C60033EC2FF09AEC31F02E0E1E6EFF0E1F6E9B
:1048D600FF0E206EFF0E216E34EC31F043C027F040
:1048E60044C028F0296A000E2724106E800E282066
:1048F600116E100E2920126E000E146E600E136ECD
:10490600F9EC30F0020E9AEC31F043C027F044C0C7
:1049160028F0296A000E2724106E800E2820116EBA
:10492600100E2920126E000E146E820E136EF9EC14
:1049360030F0020E9AEC31F043C027F044C028F064
:10494600296A000E2724106E800E2820116E100E84
:104956002920126E000E146E1C0E136EF9EC30F048
:10496600020E9AEC31F043C027F044C028F0296AC1
:10497600000E2724106E800E2820116E100E29209E
:10498600126E000E146E000E136EF9EC30F0020E6D
:104996009AEC31F025C017F026C018F0000E1A6EFA
:1049A6000A0E196E3AEC30F017C01EF018C01FF050
:1049B600000E1FBEFF0E206E216E34EC31F0120089
:1049C6002E0E1E6EFF0E1F6EFF0E206EFF0E216E48
:1049D60034EC31F043C027F044C028F0296A000EB9
:1049E6002724106E800E2820116E100E2920126EBC
:1049F600000E146E420E136EF9EC30F0020E9AECB5
:104A060031F043C027F044C028F0296A000E27245D
:104A1600106E800E2820116E100E2920126E000EC8
:104A2600146E590E136EF9EC30F0020E9AEC31F05A
:104A360043C027F044C028F0296A000E2724106ED0
:104A4600800E2820116E100E2920126E000E146E94
:104A56001C0E136EF9EC30F0020E9AEC31F043C0E6
:104A660027F044C028F0296A000E2724106E800E15
:104A76002820116E100E2920126E000E146E000EE4
:104A8600136EF9EC30F0020E9AEC31F0030E1E6E46
:104A9600000E1F6E000E206E000E216E34EC31F0FB
:104AA6000C0E1E6EFF0E1F6EFF0E206EFF0E216E89
:104AB60034EC31F043C027F044C028F0296A000ED8
:104AC6002724106E800E2820116E100E2920126EDB
:104AD600000E146E4E0E136EF9EC30F0020E9AECC8
:104AE60031F043C027F044C028F0296A000E27247D
:104AF600106E800E2820116E100E2920126E000EE8
:104B0600146E5A0E136EF9EC30F0020E9AEC31F078
:104B160043C027F044C028F0296A000E2724106EEF
:104B2600800E2820116E100E2920126E000E146EB3
:104B36001C0E136EF9EC30F0020E9AEC31F043C005
:104B460027F044C028F0296A000E2724106E800E34
:104B56002820116E100E2920126E000E146E000E03
:104B6600136EF9EC30F0020E9AEC31F043C027F0E8
:104B760044C028F0296A000E2724156E800E2820CE
:104B8600166E100E2920176E600E186E0F0E196E17
:104B960033EC2FF09AEC31F02E0E1E6EFF0E1F6EC8
:104BA600FF0E206EFF0E216E34EC31F043C027F06D
:104BB60044C028F0296A000E2724106E800E282093
:104BC600116E100E2920126E000E146E530E136E07
:104BD600F9EC30F0020E9AEC31F043C027F044C0F5
:104BE60028F0296A000E2724106E800E2820116EE8
:104BF600100E2920126E000E146E590E136EF9EC6B
:104C060030F0020E9AEC31F043C027F044C028F091
:104C1600296A000E2724106E800E2820116E100EB1
:104C26002920126E000E146E1C0E136EF9EC30F075
:104C3600020E9AEC31F043C027F044C028F0296AEE
:104C4600000E2724106E800E2820116E100E2920CB
:104C5600126E000E146E000E136EF9EC30F0020E9A
:104C66009AEC31F0030E1E6E000E1F6E000E206EC3
:104C7600000E216E34EC31F0120089928C988990E6
:104C86008A9A8C9A8C96000E00017B6F000E7A6FC2
:104C9600000E00017D6F000E7C6F000E00017F6F1D
:104CA600000E7E6F000E0001816F000E806F000EF9
:104CB6000001836F000E826F000E0001856F000EEB
:104CC600846F000E0001876F000E866F000E0001D4
:104CD600896F000E886F000E00018B6F000E8A6FC1
:104CE600000E0001776F000E766F000E0001796FDF
:104CF600000E786F000E0001736F000E726FB5EC38
:104D060031F0000E0001756F000E746FCFEC31F0BC
:104D16007080708A709E708C608A609C60946090CF
:104D26007680C80E0E01F46F000E0E01F56FC80EE8
:104D36000E01F06F200E0E01F16FC80E0E01EC6F22
:104D4600400E0E01ED6FC79EC78CC68AC688C690F8
:104D5600C692C694C69690EC27F0B5EC31F07AC0B0
:104D660060F07BC061F07CC062F07DC063F07EC005
:104D760064F07FC065F080C066F081C067F082C0D5
:104D860068F083C069F084C06AF085C06BF086C0A5
:104D96006CF087C06DF088C06EF089C06FF08AC075
:104DA60070F08BC071F079EC2EF08C0E226E000E36
:104DB600236ED5EC28F00009D8B4F7D7400E0001D1
:104DC6008D194BE1060E00018E1900018F110001AD
:104DD6009011D8A442D00001935192C033F0346AA6
:104DE60033C034F0336A331000017A6F3450000157
:104DF6007B6F0001955194C033F0346A33C034F0B0
:104E0600336A33100F6E3450106E000E126E0A0E97
:104E1600116EBCEC2FF00FC07CF010C07DF00001CD
:104E26009251336E346A333A343AF00E34163350B4
:104E36000F0B3412F00E3316000197513310000198
:104E46007E6F345000017F6F98C080F00001816B47
:104E560099C082F00001836B33D0410E00018D1999
:104E660016E1060E00018E1900018F110001901146
:104E7600D8A40DD092C076F00001776B93C078F07D
:104E86000001796B98C084F00001856B19D0420E41
:104E960000018D1915E1060E00018E1900018F1112
:104EA60000019011D8A40CD092C086F00001876B47
:104EB60093C088F00001896B94C08AF000018B6B67
:104EC6007AC060F07BC061F07CC062F07DC063F0A8
:104ED6007EC064F07FC065F080C066F081C067F078
:104EE60082C068F083C069F084C06AF085C06BF048
:104EF60086C06CF087C06DF088C06EF089C06FF018
:104F06008AC070F08BC071F079EC2EF089928C9883
:104F160089908A9A8C9A8C9648D78B92680E1B6ECB
:104F2600E40EE82EFED71B2EFCD700D08B82680E2F
:104F36001B6EE40EE82EFED71B2EFCD700D0000E0B
:104F4600C2EC31F0440EC2EC31F0620EC2EC31F02C
:104F5600300E106E240E116E100E126E010E146EAF
:104F6600E00E136EF9EC30F0440E106E240E116E46
:104F7600100E126E010E146E100E136EF9EC30F058
:104F8600280E106E240E116E100E126E020E146E86
:104F96000D0E136EF9EC30F0340E106E240E116EF9
:104FA600100E126E000E146E000E136EF9EC30F039
:104FB600380E106E240E116E100E126E000E146E48
:104FC600290E136EF9EC30F02C0E106E240E116EB5
:104FD600100E126E000E146E2B0E136EF9EC30F0DE
:104FE6003C0E106E240E116E100E126E010E146E13
:104FF6001E0E136EF9EC30F0480E106E240E116E74
:10500600100E126E000E146E000E136EF9EC30F0D8
:105016004C0E106E240E116E100E126E000E146ED3
:105026000A0E136EF9EC30F0400E106E240E116E5F
:10503600100E126E000E146E0C0E136EF9EC30F09C
:10504600640E106E240E116E100E126E000E136E8C
:105056006CEC31F05C0E106E240E116E100E126E9A
:10506600000E136E6CEC31F0580E106E240E116E9D
:10507600100E126E010E146EB60E136EF9EC30F0B1
:10508600600E106E240E116E100E126E000E136E50
:105096006CEC31F0680E106E240E116E100E126E4E
:1050A600000E136E6CEC31F0540E106E240E116E61
:1050B600100E126E000E136E6CEC31F0000E106EB8
:1050C600000E116E100E126E000E136E1A0E146E76
:1050D600000E156E020E166EFEEC2FF0040E106E0C
:1050E600000E116E100E126E070E136E000E146E69
:1050F600000E156E260E166EFEEC2FF0080E106EC4
:10510600000E116E100E126E000E136E000E146E4F
:10511600000E156E000E166EFEEC2FF0500E106E81
:10512600240E116E100E126E020E136E6CEC31F020
:105136008C0E106E240E116E100E126EFC0E136E77
:105146006CEC31F0900E106E240E116E100E126E75
:10515600FF0E136E6CEC31F06C0E106E240E116E99
:10516600100E126E050E136E6CEC31F0E80E106E1A
:10517600240E116E100E126E72EC30F010C043F059
:1051860011C044F0E40E106E240E116E100E126E55
:1051960072EC30F043501018F5E144501118D8B4B1
:1051A6001200F0D7000E246E60AE83D062A61ED029
:1051B60022C0D9FF23C0DAFF020EDF6E64CF0FF0E4
:1051C60061CF10F062CF11F0635099EC2AF020EE17
:1051D60001F02250D9262350DA220FC0DEFF10C07C
:1051E600DEFF11C0DEFF12C0DEFF19D022C0D9FFDC
:1051F60023C0DAFF010EDF6E62CF0FF0615079EC4B
:105206002FF020EE01F02250D9262350DA220FC0CB
:10521600DEFF10C0DEFF11C0DEFF12C0DEFF20EE93
:1052260005F02250D9262350DA2265CFDFFF20EE83
:1052360006F02250D9262350DA2266CFDFFF20EE71
:1052460007F02250D9262350DA2267CFDFFF20EE5F
:1052560008F02250D9262350DA2268CFDFFF20EE4D
:1052660009F02250D9262350DA2269CFDFFF20EE3B
:105276000AF02250D9262350DA226ACFDFFF20EE29
:105286000BF02250D9262350DA226BCFDFFF20EE17
:105296000CF02250D9262350DA226CCFDFFF20EE05
:1052A6000DF02250D9262350DA226DCFDFFF609E03
:1052B60089D00F0130AF88D00F0132A71FD022C08E
:1052C600D9FF23C0DAFF020EDF6E34CF0FF031CFE5
:1052D60010F032CF11F00F01335199EC2AF020EE85
:1052E60001F02250D9262350DA220FC0DEFF10C06B
:1052F600DEFF11C0DEFF12C0DEFF1AD022C0D9FFCA
:1053060023C0DAFF010EDF6E32CF0FF00F013151ED
:1053160079EC2FF020EE01F02250D9262350DA2224
:105326000FC0DEFF10C0DEFF11C0DEFF12C0DEFFC1
:1053360020EE05F02250D9262350DA2235CFDFFFA2
:1053460020EE06F02250D9262350DA2236CFDFFF90
:1053560020EE07F02250D9262350DA2237CFDFFF7E
:1053660020EE08F02250D9262350DA2238CFDFFF6C
:1053760020EE09F02250D9262350DA2239CFDFFF5A
:1053860020EE0AF02250D9262350DA223ACFDFFF48
:1053960020EE0BF02250D9262350DA223BCFDFFF36
:1053A60020EE0CF02250D9262350DA223CCFDFFF24
:1053B60020EE0DF02250D9262350DA223DCFDFFF12
:1053C6000F01309F010E246E779224501200090EB1
:1053D6001E6E000E1F6E000E206E1F0E216E34EC28
:1053E60031F03C0E1E6E3C0E1F6E3C0E206E040EFF
:1053F600216E34EC31F0000E1E6E700E1F6ECD0E57
:10540600206EAB0E216E34EC31F0000E1E6E600E77
:105416001F6ECE0E206E900E216E34EC31F0FF0E14
:105426001E6EFF0E1F6EFF0E206E040E216E34ECF4
:1054360031F00C0E1E6EFF0E1F6EFF0E206EFF0E5D
:10544600216E34EC31F043C027F044C028F0296ABD
:10545600000E2724106E800E2820116E100E2920B3
:10546600126E000E146EF00E136EF9EC30F0020E92
:105476009AEC31F043C027F044C028F0296A000EA8
:105486002724106E800E2820116E100E2920126E11
:10549600000E146EDE0E136EF9EC30F0020E9AEC6E
:1054A60031F043C027F044C028F0296A000E2724B3
:1054B600106E800E2820116E100E2920126E000E1E
:1054C600146E1C0E136EF9EC30F0020E9AEC31F0ED
:1054D60043C027F044C028F0296A000E2724106E26
:1054E600800E2820116E100E2920126E060E146EE4
:1054F600000E136EF9EC30F0020E9AEC31F043C058
:1055060027F044C028F0296A000E2724156E800E65
:105516002820166E100E2920176E1F0E186E0F0EFD
:10552600196E33EC2FF09AEC31F01200176E000E64
:10553600186E000E196E000E1A6E000E1B6E000E0F
:105546001E6E000E1F6E000E206E000E216E115094
:10555600030B1C6E1138E842070B1D6E1050136EBC
:10556600146AD89013361436D89013361436D89059
:105576001336143613C01EF014C01FF0000E1FBEE3
:10558600FF0E206E216E1D501E241E6E000E1F2063
:105596001F6E000E2020206E000E2120216E1EC0E0
:1055A60013F01FC014F020C015F021C016F0020E33
:1055B600D8901336143615361636E82EF9D713C09A
:1055C6001EF014C01FF015C020F016C021F01C50AC
:1055D6001E241E6E000E1F201F6E000E2020206E41
:1055E600000E2120216E1EC014F01FC015F020C031
:1055F60016F0136A13C01EF014C01FF015C020F079
:1056060016C021F017501E241E6E000E1F201F6E9E
:10561600000E2020206E000E2120216E1EC014F0E8
:105626001FC015F020C016F0136A13C01EF014C078
:105636001FF015C020F016C021F00F501E241E6E5C
:10564600000E1F201F6E000E2020206E000E21204F
:10565600216E1EC018F01FC019F020C01AF021C01C
:105666001BF018C00FF019C010F01AC011F01BC0C3
:1056760012F01200FF0E1E6EFF0E1F6EFF0E206E42
:10568600040E216E34EC31F02E0E1E6EFF0E1F6ED0
:10569600FF0E206EFF0E216E34EC31F043C027F072
:1056A60044C028F0296A000E2724106E800E282098
:1056B600116E100E2920126E000E146E400E136E1F
:1056C600F9EC30F0020E9AEC31F043C027F044C0FA
:1056D60028F0296A000E2724106E800E2820116EED
:1056E600100E2920126E000E146E070E136EF9ECC2
:1056F60030F0020E9AEC31F043C027F044C028F097
:10570600296A000E2724106E800E2820116E100EB6
:105716002920126E000E146E1C0E136EF9EC30F07A
:10572600020E9AEC31F043C027F044C028F0296AF3
:10573600000E2724106E800E2820116E100E2920D0
:10574600126E000E146E000E136EF9EC30F0020E9F
:105756009AEC31F025C01EF026C01FF0000E1FBEC9
:10576600FF0E206E216E34EC31F0120011C013F0E2
:10577600146A156A1034133601E3148013501D6E33
:105786001D50D8A409D0000E0F6E000E106E000E2C
:10579600116E000E126E1200170E136E0FC014F06B
:1057A60010C015F011C016F01328176E04D0D8904B
:1057B600163215321432172EFAD71450186E108E70
:1057C600FF0E0F16FF0E1016000E11160F50196E53
:1057D60010501A6E11501B6E1C6A8E0E1D5E1DAE89
:1057E60016D01D50800A8F0FD8B009D0000E0F6E4C
:1057F600000E106E000E116E000E126E1200D89082
:105806001C321B321A3219321D3EF9D715D0170E2B
:105816001D640FD0000E0F6E000E106E000E116E7E
:10582600000E126E1200D89019361A361B361C3628
:105836001D061D50D8A4F7D71850D8B408D01C1E82
:105846001B1E1A1E196C000E1A221B221C2219C0BE
:105856000FF01AC010F01BC011F01CC012F012009D
:105866002E0E1E6EFF0E1F6EFF0E206EFF0E216E99
:1058760034EC31F043C028F044C029F02A6A000E07
:105886002824106E800E2920116E100E2A20126E0A
:10589600000E146E420E136EF9EC30F0020E9AEC06
:1058A60031F043C028F044C029F02A6A000E2824AB
:1058B600106E800E2920116E100E2A20126E000E18
:1058C600146EAB0E136EF9EC30F0020E9AEC31F05A
:1058D60043C028F044C029F02A6A000E2824106E1E
:1058E600800E2920116E100E2A20126E000E146EE4
:1058F6001C0E136EF9EC30F0020E9AEC31F043C038
:1059060028F044C029F02A6A000E2824106E800E62
:105916002920116E100E2A20126E000E146E000E33
:10592600136EF9EC30F0020E9AEC31F025C00FF050
:1059360026C010F027C011F0B9EC2BF00FC01EF0F6
:1059460010C01FF011C020F012C021F034EC31F06D
:105956001200800E6F6E6E50E00B800AD8A4FBD743
:10596600000E726E000E0E01FA6F000E0E01FB6F36
:10597600000E0E01F86F000E0E01F96F0E01FE69A2
:105986000E01FF690E01FC690E01FD69000E0E0194
:10599600E26F000E0E01E36F880E0E01E06F800EBF
:1059A6000E01E16F000E0E01E66F000E0E01E76FAD
:1059B600CC0E0E01E46FC00E0E01E56F000E0E0157
:1059C600EA6F000E0E01EB6F000E0E01E86F000E7F
:1059D6000E01E96F000E0E01EE6F000E0E01EF6F65
:1059E600000E0E01EC6F000E0E01ED6F000E0E01A3
:1059F600F26F000E0E01F36F000E0E01F06F000E37
:105A06000E01F16F000E0E01F66F000E0E01F76F1C
:105A1600000E0E01F46F000E0E01F56F000E0E0162
:105A2600436F980E0E01446F010E0E01456F000E76
:105A36006F6E6ECF0FF0E00E0F16D8B41200F9D7C6
:105A46002E0E1E6EFF0E1F6EFF0E206EFF0E216EB7
:105A560034EC31F043C027F044C028F0296A000E28
:105A66002724106E800E2820116E100E2920126E2B
:105A7600010E146EC70E136EF9EC30F0020E9AEC9E
:105A860031F043C027F044C028F0296A000E2724CD
:105A9600106E800E2820116E100E2920126E000E38
:105AA600146EA60E136EF9EC30F0020E9AEC31F07D
:105AB60043C027F044C028F0296A000E2724106E40
:105AC600800E2820116E100E2920126E000E146E04
:105AD6001E0E136EF9EC30F0020E9AEC31F043C054
:105AE60027F044C028F0296A000E2724106E800E85
:105AF6002820116E100E2920126E080E146E000E4C
:105B0600136EF9EC30F0020E9AEC31F025C01EF05F
:105B160026C01FF0000E1FBEFF0E206E216E34EC55
:105B260031F012002E0E1E6EFF0E1F6EFF0E206E3F
:105B3600FF0E216E34EC31F043C027F044C028F04C
:105B4600296A000E2724106E800E2820116E100E72
:105B56002920126E010E146EDB0E136EF9EC30F076
:105B6600020E9AEC31F043C027F044C028F0296AAF
:105B7600000E2724106E800E2820116E100E29208C
:105B8600126E000E146E780E136EF9EC30F0020EE3
:105B96009AEC31F043C027F044C028F0296A000E81
:105BA6002724106E800E2820116E100E2920126EEA
:105BB600000E146E1F0E136EF9EC30F0020E9AEC06
:105BC60031F043C027F044C028F0296A000E27248C
:105BD600106E800E2820116E100E2920126E080EEF
:105BE600146E000E136EF9EC30F0020E9AEC31F0E2
:105BF60025C01EF026C01FF0000E1FBEFF0E206E31
:105C0600216E34EC31F012002E0E1E6EFF0E1F6E4A
:105C1600FF0E206EFF0E216E34EC31F043C027F0EC
:105C260044C028F0296A000E2724106E800E282012
:105C3600116E100E2920126E000E146E420E136E97
:105C4600F9EC30F0020E9AEC31F043C027F044C074
:105C560028F0296A000E2724106E800E2820116E67
:105C6600100E2920126E000E146E300E136EF9EC13
:105C760030F0020E9AEC31F043C027F044C028F011
:105C8600296A000E2724106E800E2820116E100E31
:105C96002920126E000E146E1C0E136EF9EC30F0F5
:105CA600020E9AEC31F043C027F044C028F0296A6E
:105CB600000E2724106E800E2820116E100E29204B
:105CC600126E000E146E000E136EF9EC30F0020E1A
:105CD6009AEC31F025C01EF026C01FF0000E1FBE44
:105CE600FF0E206E216E34EC31F01200BBEC30F06A
:105CF600BAEC19F06CC025F06DC026F03DEC2BF027
:105D06006EC025F06FC026F007EC2EF0000E266E52
:105D1600040E256EE3EC24F070C025F071C026F069
:105D260070EC23F062C017F063C018F050EC31F04D
:105D360017C025F018C026F019C027F033EC2CF058
:105D46006AC025F06BC026F0FBEC20F060C025F0A1
:105D560061C026F0BBEC07F068C025F069C026F0EC
:105D660095EC2DF066C025F067C026F023EC2DF0EB
:105D7600000E256E000E266E000E276E000E286E93
:105D8600000E296E000E2A6E000E2B6E000E2C6E73
:105D9600000E2D6E000E2F6E000E2E6E2DEC12F0E4
:105DA600190E256E0F0E266EEAEC29F09AEC30F0ED
:105DB60012001250D8B405D00F5010101110D8A4EC
:105DC6000CD0000E0F6E000E106E000E116E12003B
:105DD600122AD890113210320F32000E0F14146EA0
:105DE600000E1014156EFE0E1114166E14501510BA
:105DF6001610D8B40CD0ECD7122A010E0F26000EBE
:105E06001022000E1122D890113210320F32000EDD
:105E16000F14146E000E1014156EFF0E1114166E6C
:105E2600145015101610D8B406D0E6D71206D8901E
:105E36000F361036113610BE03D0020E1260F6D79A
:105E460012A0109ED8901232125011121350D8A4DC
:105E5600118E0FC00FF010C010F011C011F012001B
:105E66008C9017508009E3EC31F015C01AF016C07B
:105E76001BF017C01CF01BC01AF01CC01BF01C6ADC
:105E86001A50E3EC31F01550E3EC31F018C00FF086
:105E960019C010F0DAEC30F00F501D6E000E1E6EB9
:105EA60013D01E50010D18C01AF019C01BF0F35084
:105EB6001A26F4501B221AC0F6FF1BC0F7FF080073
:105EC600F550E3EC31F01E2A1E501D5CD8A005D01B
:105ED600E8D7000EE3EC31F01E2A1EC01AF0030EBE
:105EE6001A16D8A4F6D78C801E501200156E000E16
:105EF600166E000E176E000E186E000E196E1550F7
:105F0600136E146AD89013361436D8901336143696
:105F1600D8901336143613C01AF014C01BF0000EB6
:105F26001BBEFF0E1C6E1D6E0FC013F0050E146E09
:105F3600D8901332142EFCD713501A241A6E000E62
:105F46001B201B6E000E1C201C6E000E1D201D6EDD
:105F56001AC016F01BC017F01CC018F01DC019F0AF
:105F660016C00FF017C010F018C011F019C012F0CB
:105F76001200000E146E12AE06D0116C121ED8B0AE
:105F8600122A010E146E10AE06D00F6C101ED8B079
:105F9600102A010E141A000E166E000E156E115000
:105FA6001210D8B41CD0010E136E04D0D89011363E
:105FB6001236132A12AEFAD7D89015361636115065
:105FC6000F5C12501058D8A005D011500F5E125019
:105FD600105A1580D89012321132132EEDD7145064
:105FE600D8B404D0156C161ED8B0162A15C00FF0FA
:105FF60016C010F012008C9012508009E3EC31F0BC
:1060060010C017F011C018F012C019F018C017F020
:1060160019C018F0196A1750E3EC31F01050E3EC90
:1060260031F01350E3EC31F01450E3EC31F015503D
:10603600E3EC31F013C017F014C018F015C019F0D6
:1060460016C01AF0110E05D0D8901A32193218322D
:106056001732E82EF9D718C017F019C018F01AC071
:1060660019F01A6A1750E3EC31F08C801200000E1A
:106076001C6E18AE06D0176C181ED8B0182A010E62
:106086001C6E1AAE04D0196C1A1ED8B01A2A1950F2
:106096001A10D8B418D0010E1B6E04D0D890193639
:1060A6001A361B2A1AAEFAD71950175C1A50185806
:1060B600D8A004D01950175E1A50185AD8901A3220
:1060C60019321B2EF1D71C50D8B404D0176C181EE9
:1060D600D8B0182A17C017F018C018F012008C9004
:1060E6001250E3EC31F010C013F011C014F012C0DE
:1060F60015F014C013F015C014F0156A1350E3EC34
:1061060031F01050E3EC31F0000EE3EC31F0000E0C
:10611600E3EC31F0C9CF16F0000EE3EC31F08C80E1
:10612600C950136E1650106E13C011F01200000EF7
:106136001E6E000E1F6E000E206E000E216E34ECD9
:1061460031F0010E1E6EFF0E1F6EFF0E206EFF0E4B
:10615600216E34EC31F0E80E106E240E116E100E26
:10616600126E43C013F044C014F0F9EC30F0120084
:10617600000E1E6EFF0E1F6EFF0E206EFF0E216EAE
:1061860034EC31F0140E1E6E140E1F6E140E206EBB
:10619600020E216E34EC31F0070E1E6E000E1F6EDD
:1061A600000E206E260E216E34EC31F012000FC068
:1061B60013F010C014F002D0134A142A13C0F6FFCD
:1061C60014C0F7FF0800F5500009D8A4F5D70FC092
:1061D60011F010C012F0111E121E114A122A13508D
:1061E60011240F6E14501220106E12008C90125053
:1061F6008009E3EC31F010C015F011C016F012C0A2
:1062060017F016C015F017C016F0176A1550E3EC14
:1062160031F01050E3EC31F01350E3EC31F0145050
:10622600E3EC31F08C801200000E8D6E000E8C6E49
:10623600040E896E000E8A6E000E8B6E070E966E29
:10624600EC0E926EDB0E936ED50E946EC40E956EAA
:10625600F80E0F015D6F250E0F015C6F0F015B6974
:10626600120043C022F044C023F0246A000E222408
:10627600106E800E2320116E100E2420126E1EC08A
:1062860013F01FC014F020C015F021C016F0FEEC6C
:106296002FF0040E9AEC31F01200000E1A6E18AEB2
:1062A60006D0176C181ED8B0182A010E1A6E17C021
:1062B6000FF018C010F0116A8E0E126E1AC013F08D
:1062C600DCEC2EF00FC017F010C018F011C019F05A
:1062D60012008C9012508009E3EC31F010C014F0DB
:1062E60011C015F012C016F015C014F016C015F046
:1062F600166A1450E3EC31F01050E3EC31F0135011
:10630600E3EC31F08C8012000F501102F3CF13F042
:10631600F4CF14F00F501202F3501426105011024D
:10632600F350142613C00FF014C010F01200116EB3
:10633600115043240F6E000E4420106EFF0E0F14F2
:10634600436E0F0E1014446E120000EE35F0120E5E
:10635600EE6AE806FDE147904792000EF86E0001EE
:1063660040EF26F0290E106E960E0F6E7F0EE82E69
:10637600FED70F2EFCD7102EFAD700F01200106EA3
:106386008C901050E3EC31F0000EE3EC31F0000E8F
:10639600E3EC31F08C801200F2EC31F017EC31F0C6
:1063A600DAEC31F0EBEC31F0ACEC2CF01200600ED4
:1063B600D36E000ED26E000E9B6E000E9A6E120009
:1063C6000F6EC69E0FC0C9FFC7A0FED7C9501200E8
:1063D600000EC76E200EC66E000EC86E1200D09E4E
:0663E60012007790120086
:020000040020DA
:08000000FFFFFFFFFFFFFFFF00
:020000040030CA
:0E0000001D037F7CFF8991FF0FC00FE00F40B2
:00000001FF
