:0400000044EF00F0D9
:100008002482FACF01F0FBCF02F0E9CF03F0EACF68
:1000180004F0E1CF05F0E2CF06F0D9CF07F0DACF50
:1000280008F0F3CF09F0F4CF0AF0F6CF0BF0F7CFD2
:100038000CF0F8CF0DF0F5CF0EF0F2B6F2A002D02A
:1000480050EC03F00EC0F5FF0DC0F8FF0CC0F7FF31
:100058000BC0F6FF0AC0F4FF09C0F3FF08C0DAFFBF
:1000680007C0D9FF06C0E2FF05C0E1FF04C0EAFFF0
:1000780003C0E9FF02C0FBFF01C0FAFF2492110090
:1000880013EF03F08B92680E1B6EE40EE82EFED77A
:100098001B2EFCD700D08B82680E1B6EE40EE82E58
:1000A800FED71B2EFCD700D0000E06EC03F0440E42
:1000B80006EC03F0620E06EC03F0300E106E240E10
:1000C800116E100E126E010E146EE00E136EBDEC62
:1000D80002F0440E106E240E116E100E126E010EF8
:1000E800146E100E136EBDEC02F0280E106E240E66
:1000F800116E100E126E020E146E0D0E136EBDEC04
:1001080002F0340E106E240E116E100E126E000ED8
:10011800146E000E136EBDEC02F0380E106E240E35
:10012800116E100E126E000E146E290E136EBDECB9
:1001380002F02C0E106E240E116E100E126E000EB0
:10014800146E2B0E136EBDEC02F03C0E106E240ED6
:10015800116E100E126E010E146E1E0E136EBDEC93
:1001680002F0480E106E240E116E100E126E000E64
:10017800146E000E136EBDEC02F04C0E106E240EC1
:10018800116E100E126E000E146E0A0E136EBDEC78
:1001980002F0400E106E240E116E100E126E000E3C
:1001A800146E0C0E136EBDEC02F0640E106E240E6D
:1001B800116E100E126E000E136EDBEC02F05C0E68
:1001C800106E240E116E100E126E000E136EDBEC04
:1001D80002F0580E106E240E116E100E126E010EE3
:1001E800146EB60E136EBDEC02F0600E106E240E87
:1001F800116E100E126E000E136EDBEC02F0680E1C
:10020800106E240E116E100E126E000E136EDBECC3
:1002180002F0540E106E240E116E100E126E000EA7
:10022800136EDBEC02F0000E106E000E116E100E55
:10023800126E000E136E000E146E640E156E020E12
:10024800166EFEEC01F0040E106E000E116E100E0C
:10025800126E070E136E000E146E000E156E260E2B
:10026800166EFEEC01F0080E106E000E116E100EE8
:10027800126E000E136E000E146E000E156E000E38
:10028800166EFEEC01F0500E106E240E116E100E5C
:10029800126E020E136EDBEC02F08C0E106E240E42
:1002A800116E100E126EFC0E136EDBEC02F0900E47
:1002B800106E240E116E100E126EFF0E136EDBEC14
:1002C80002F06C0E106E240E116E100E126E050EDA
:1002D800136EDBEC02F0E80E106E240E116E100E99
:1002E800126E6FEC02F010C01EF011C01FF0E40E89
:1002F800106E240E116E100E126E6FEC02F01E506E
:100308001018F5E11F501118D8B41200F0D7800E5C
:100318006F6E6E50E00B800AD8A4FBD7000E726E89
:100328000E01FA690E01FB690E01F8690E01F969FF
:100338000E01FE690E01FF690E01FC690E01FD69DF
:10034800000E0E01E26F000E0E01E36FC80E0E01E3
:10035800E06F000E0E01E16F000E0E01E66F000E59
:100368000E01E76F000E0E01E46F000E0E01E56F3F
:10037800000E0E01EA6F000E0E01EB6F000E0E016B
:10038800E86F000E0E01E96F000E0E01EE6F000E11
:100398000E01EF6F000E0E01EC6F000E0E01ED6FF7
:1003A800000E0E01F26F000E0E01F36F000E0E012B
:1003B800F06F000E0E01F16F000E0E01F66F000EC9
:1003C8000E01F76F000E0E01F46F000E0E01F56FAF
:1003D800000E0E01436F980E0E01446F010E0E01C0
:1003E800456F000E6F6E6ECF0FF0E00E0F16D8B48B
:1003F8001200F9D78C90125080093BEC03F010C022
:1004080017F011C018F012C019F018C017F019C071
:1004180018F0196A17503BEC03F010503BEC03F04E
:1004280013503BEC03F014503BEC03F015503BEC3D
:1004380003F013C017F014C018F015C019F016C057
:100448001AF0110E05D0D8901A3219321832173214
:10045800E82EF9D718C017F019C018F01AC019F00B
:100468001A6A17503BEC03F08C80120029EC03F059
:100478007080708A709E708C608A609C60946090B6
:10048800C79EC78CC68AC688C690C692C694C696AA
:1004980046EC00F01EEC03F08B928982020E1D6E72
:1004A800040E1C6EBA0EE82EFED71C2EFCD71D2E8D
:1004B800FAD700D0AA0E4AEC03F08992020E1D6EFC
:1004C800040E1C6EBA0EE82EFED71C2EFCD71D2E6D
:1004D800FAD700D0E2D78C9012503BEC03F010C052
:1004E80013F011C014F012C015F014C013F015C0A9
:1004F80014F0156A13503BEC03F010503BEC03F07A
:10050800000E3BEC03F0000E3BEC03F0C9CF16F0F5
:10051800000E3BEC03F08C80C950136E1650106E21
:1005280013C011F01200000E8D6E000E8C6E070EB7
:10053800896E000E8A6E000E8B6E070E966EED0E9B
:10054800926EFB0E936E950E946EBC0E956EF80E21
:100558000F015D6F650E0F015C6F0F015B690F0185
:100568005A89B60E0F6E060E106E56EC03F0F28620
:1005780012008C90125080093BEC03F010C015F06B
:1005880011C016F012C017F016C015F017C016F0FB
:10059800176A15503BEC03F010503BEC03F0135076
:1005A8003BEC03F014503BEC03F08C8012008C9071
:1005B800125080093BEC03F010C014F011C015F084
:1005C80012C016F015C014F016C015F0166A1450B3
:1005D8003BEC03F010503BEC03F013503BEC03F002
:1005E8008C80120022502310D8B4120001D81200B7
:1005F8000500FA6E2250FD6E2350FE6EF850FF6E15
:10060800FA501200106E8C9010503BEC03F0000E64
:100618003BEC03F0000E3BEC03F08C801200216AE7
:10062800206A1F6A1E6A24902492000EF86E000148
:100638003AEF02F0080EA76E900EAB6E240EAC6E69
:10064800220EAF6E000E7D6E120097EC02F032ECB7
:1006580003F043EC03F08BEC01F01200600ED36E54
:10066800000ED26E000E9B6E000E9A6E12000F6E78
:10067800C69E0FC0C9FFC7A0FED7C9501200000E02
:10068800C76E200EC66E000EC86E12000F6E9EA8B2
:10069800FED70FC0ADFF12000F015AB9F6EC02F0F9
:1006A800F29012000FC022F010C023F012001200C6
:020000040020DA
:08000000FFFFFFFFFFFFFFFF00
:020000040030CA
:0E00000015037F7CFF8991FF0FC00FE00F40BA
:00000001FF
