:0400000045EF00F0D8
:100008003B82FACF17F0FBCF18F0E9CF19F0EACF0F
:100018001AF0E1CF1BF0E2CF1CF0D9CF1DF0DACFF8
:100028001EF0F3CF1FF0F4CF20F0F6CF21F0F7CF7A
:1000380022F0F8CF23F0F5CF24F0F2BC76A003D05D
:1000480077B0CAEC3CF024C0F5FF23C0F8FF22C00B
:10005800F7FF21C0F6FF20C0F4FF1FC0F3FF1EC04A
:10006800DAFF1DC0D9FF1CC0E2FF1BC0E1FF1AC0A8
:10007800EAFF19C0E9FF18C0FBFF17C0FAFF3B925F
:06008800110093EF3CF0B3
:100F00000053504545440057415445520050524506
:100F1000535300564F4C54530068656C6C6F00522D
:100F20003138200055534544004655454C00544542
:100F30004D50004C415354004245535400424154DB
:100F400054004B5048004F494C0052504D004C410A
:100F50005000313000313100313200545000250052
:100F60002E003300340035003600370038003900D9
:050F70003A006B0000D7
:100F760072C025F073C026F0030E286EE80E276EA9
:100F860071EC3AF025C07BF026C07CF0000E286E8E
:100F9600640E276E72C025F073C026F071EC3AF02D
:100FA60025C064F026C065F0000E0001676F0A0ECA
:100FB600666F20EC3AF064C079F065C07AF0FF0EF7
:100FC60000016B6FFF0E6C6FFF0E6D6F040E6E6F80
:100FD6009AEC3BF0090E00016B6FFF0E6C6FFF0E73
:100FE6006D6FFF0E6E6F9AEC3BF0320E00016B6F69
:100FF600320E6C6F320E6D6F000E6E6F9AEC3BF018
:10100600130E00016B6FFF0E6C6FFF0E6D6FFF0E00
:101016006E6F9AEC3BF029C074F02AC075F000019F
:10102600766B000E000174250001606F800E0001D2
:1010360075210001616F100E000176210001626FBB
:10104600000E0001646FF00E636F01EC3CF0020EBF
:10105600A2EC3CF029C074F02AC075F00001766B52
:10106600000E000174250001606F800E00017521DD
:101076000001616F100E000176210001626F000E03
:101086000001646F730E636F01EC3CF0020EA2EC7C
:101096003CF029C074F02AC075F00001766B000E92
:1010A600000174250001606F800E000175210001AA
:1010B600616F100E000176210001626F000E0001C3
:1010C600646F820E636F01EC3CF0020EA2EC3CF002
:1010D60029C074F02AC075F00001766B000E00017D
:1010E60074250001606F800E000175210001616F9B
:1010F600100E000176210001626F510E0001646F2F
:10110600000E636F01EC3CF0020EA2EC3CF029C02D
:1011160074F02AC075F00001766B000E000174258C
:101126000001606F800E000175210001616F100ED5
:10113600000176210001626F000E0001646F0A0E45
:10114600636F01EC3CF0020EA2EC3CF029C074F097
:101156002AC075F00001766B000E000174250001AF
:10116600606F800E000175210001616F100E000195
:1011760076210001626F000E0001646F050E636F39
:1011860001EC3CF0020EA2EC3CF029C074F02AC03F
:1011960075F00001766B000E000174250001606F8A
:1011A600800E000175210001616F100E000176218D
:1011B6000001626F000E0001646F000E636F01ECA8
:1011C6003CF0020EA2EC3CF029C074F02AC075F087
:1011D6000001766B000E000174250001606F800E21
:1011E600000175210001616F100E000176210001DA
:1011F600626F000E0001646F320E636F01EC3CF00B
:10120600020EA2EC3CF0000E00016B6F000E6C6F3C
:10121600FF0E6D6F040E6E6F9AEC3BF000017CBF03
:1012260008D000017C5104E1020E00017B5DD8B0BC
:1012360003D1130E00016B6FFF0E6C6FFF0E6D6F07
:10124600FF0E6E6F9AEC3BF029C074F02AC075F061
:101256000001766B000E000174250001606F800EA0
:10126600000175210001616F100E00017621000159
:10127600626F000E0001646FF00E636F01EC3CF0CC
:10128600020EA2EC3CF029C074F02AC075F00001F1
:10129600766B000E000174250001606F800E000160
:1012A60075210001616F100E000176210001626F49
:1012B600000E0001646F730E636F01EC3CF0020ECA
:1012C600A2EC3CF029C074F02AC075F00001766BE0
:1012D600000E000174250001606F800E000175216B
:1012E6000001616F100E000176210001626F000E91
:1012F6000001646F820E636F01EC3CF0020EA2ECFB
:101306003CF029C074F02AC075F00001766B000E1F
:10131600000174250001606F800E00017521000137
:10132600616F100E000176210001626F310E00011F
:10133600646F000E636F01EC3CF0020EA2EC3CF011
:1013460029C074F02AC075F00001766B000E00010A
:1013560074250001606F800E000175210001616F28
:10136600100E000176210001626F000E0001646F0D
:101376000A0E636F01EC3CF0020EA2EC3CF029C0B1
:1013860074F02AC075F00001766B000E000174251A
:101396000001606F800E000175210001616F100E63
:1013A600000176210001626F000E0001646F050ED8
:1013B600636F01EC3CF0020EA2EC3CF029C074F025
:1013C6002AC075F00001766B000E0001742500013D
:1013D600606F800E000175210001616F100E000123
:1013E60076210001626F7BC063F07CC064F001EC83
:1013F6003CF0020EA2EC3CF029C074F02AC075F055
:101406000001766B000E000174250001606F800EEE
:10141600000175210001616F100E000176210001A7
:10142600626F000E0001646F320E636F01EC3CF0D8
:10143600020EA2EC3CF028D1FE0E00017B25256EA3
:10144600FF0E00017C21266E000E286E050E276E0B
:101456007EEC3CF025C074F026C075F079C025F00E
:101466007AC026F0000E286E020E276E71EC3AF056
:101476002550000174250001776F26500001752163
:101486000001786F130E00016B6FFF0E6C6FFF0E7D
:101496006D6FFF0E6E6F9AEC3BF029C074F02AC098
:1014A60075F00001766B000E000174250001606F77
:1014B600800E000175210001616F100E000176217A
:1014C6000001626F000E0001646FF00E636F01ECA5
:1014D6003CF0020EA2EC3CF029C074F02AC075F074
:1014E6000001766B000E000174250001606F800E0E
:1014F600000175210001616F100E000176210001C7
:10150600626F000E0001646F730E636F01EC3CF0B6
:10151600020EA2EC3CF029C074F02AC075F000015E
:10152600766B000E000174250001606F800E0001CD
:1015360075210001616F100E000176210001626FB6
:10154600000E0001646F820E636F01EC3CF0020E28
:10155600A2EC3CF029C074F02AC075F00001766B4D
:10156600000E000174250001606F800E00017521D8
:101576000001616F100E000176210001626F310ECD
:101586000001646F000E636F01EC3CF0020EA2ECEA
:101596003CF029C074F02AC075F00001766B000E8D
:1015A600000174250001606F800E000175210001A5
:1015B600616F100E000176210001626F000E0001BE
:1015C600646F0A0E636F01EC3CF0020EA2EC3CF075
:1015D60029C074F02AC075F00001766B000E000178
:1015E60074250001606F800E000175210001616F96
:1015F600100E000176210001626F000E0001646F7B
:10160600050E636F01EC3CF0020EA2EC3CF029C023
:1016160074F02AC075F00001766B000E0001742587
:101626000001606F800E000175210001616F100ED0
:10163600000176210001626F77C063F078C064F024
:1016460001EC3CF0020EA2EC3CF029C074F02AC07A
:1016560075F00001766B000E000174250001606FC5
:10166600800E000175210001616F100E00017621C8
:101676000001626F000E0001646F320E636F01ECB1
:101686003CF0020EA2EC3CF0FF0E00016B6FFF0E69
:101696006C6FFF0E6D6F040E6E6F9AEC3BF02E0EA4
:1016A60000016B6FFF0E6C6FFF0E6D6FFF0E6E6F9E
:1016B6009AEC3BF029C074F02AC075F00001766BF5
:1016C600000E000174250001606F800E0001752177
:1016D6000001616F100E000176210001626F000E9D
:1016E6000001646FED0E636F01EC3CF0020EA2EC9C
:1016F6003CF029C074F02AC075F00001766B000E2C
:10170600000174250001606F800E00017521000143
:10171600616F100E000176210001626F000E00015C
:10172600646F590E636F01EC3CF0020EA2EC3CF0C4
:1017360029C074F02AC075F00001766B000E000116
:1017460074250001606F800E000175210001616F34
:10175600100E000176210001626F000E0001646F19
:101766001F0E636F01EC3CF0020EA2EC3CF029C0A8
:1017760074F02AC075F00001766B000E0001742526
:101786000001606F800E000175210001616F100E6F
:10179600000176210001626F080E0001646F000EE1
:1017A600636F01EC3CF0020EA2EC3CF07BC06BF0E8
:1017B6007CC06CF00001000E6CBFFF0E6D6F6E6F8B
:1017C6009AEC3BF02E0E00016B6FFF0E6C6FFF0E56
:1017D6006D6FFF0E6E6F9AEC3BF029C074F02AC055
:1017E60075F00001766B000E000174250001606F34
:1017F600800E000175210001616F100E0001762137
:101806000001626F000E0001646FF30E636F01EC5E
:101816003CF0020EA2EC3CF029C074F02AC075F030
:101826000001766B000E000174250001606F800ECA
:10183600000175210001616F100E00017621000183
:10184600626F000E0001646F590E636F01EC3CF08D
:10185600020EA2EC3CF029C074F02AC075F000011B
:10186600766B000E000174250001606F800E00018A
:1018760075210001616F100E000176210001626F73
:10188600000E0001646F1F0E636F01EC3CF0020E48
:10189600A2EC3CF029C074F02AC075F00001766B0A
:1018A600000E000174250001606F800E0001752195
:1018B6000001616F100E000176210001626F000EBB
:1018C6000001646F000E636F01EC3CF0020EA2ECA7
:1018D6003CF079C06BF07AC06CF00001000E6CBF72
:1018E600FF0E6D6F6E6F9AEC3BF00C0E00016B6F86
:1018F600FF0E6C6FFF0E6D6FFF0E6E6F9AEC3BF076
:1019060029C074F02AC075F00001766B000E000144
:1019160074250001606F800E000175210001616F62
:10192600100E000176210001626F000E0001646F47
:10193600B70E636F01EC3CF0020EA2EC3CF029C03E
:1019460074F02AC075F00001766B000E0001742554
:101956000001606F800E000175210001616F100E9D
:10196600000176210001626F000E0001646FA10E76
:10197600636F01EC3CF0020EA2EC3CF029C074F05F
:101986002AC075F00001766B000E00017425000177
:10199600606F800E000175210001616F100E00015D
:1019A60076210001626F000E0001646F1C0E636FEA
:1019B60001EC3CF0020EA2EC3CF029C074F02AC007
:1019C60075F00001766B000E000174250001606F52
:1019D600800E000175210001616F100E0001762155
:1019E6000001626F000E0001646F000E636F01EC70
:1019F6003CF0020EA2EC3CF029C074F02AC075F04F
:101A06000001766B000E000174250001626F800EE6
:101A1600000175210001636F100E0001762100019F
:101A2600646F590E0001656F0F0E0001666FCBECF7
:101A360039F0A2EC3CF00C0E00016B6FFF0E6C6FE0
:101A4600FF0E6D6FFF0E6E6F9AEC3BF029C074F0BF
:101A56002AC075F00001766B000E000174250001A6
:101A6600606F800E000175210001616F100E00018C
:101A760076210001626F000E0001646FA00E636F95
:101A860001EC3CF0020EA2EC3CF029C074F02AC036
:101A960075F00001766B000E000174250001606F81
:101AA600800E000175210001616F100E0001762184
:101AB6000001626F000E0001646F820E636F01EC1D
:101AC6003CF0020EA2EC3CF029C074F02AC075F07E
:101AD6000001766B000E000174250001606F800E18
:101AE600000175210001616F100E000176210001D1
:101AF600626F000E0001646F1C0E636F01EC3CF018
:101B0600020EA2EC3CF029C074F02AC075F0000168
:101B1600766B000E000174250001606F800E0001D7
:101B260075210001616F100E000176210001626FC0
:101B3600000E0001646F000E636F01EC3CF0020EB4
:101B4600A2EC3CF029C074F02AC075F00001766B57
:101B5600000E000174250001626F800E00017521E0
:101B66000001636F100E000176210001646F620EA2
:101B76000001656F0F0E0001666FCBEC39F0A2EC29
:101B86003CF00C0E00016B6FFF0E6C6FFF0E6D6F5D
:101B9600FF0E6E6F9AEC3BF029C074F02AC075F008
:101BA6000001766B000E000174250001606F800E47
:101BB600000175210001616F100E00017621000100
:101BC600626F000E0001646F9B0E636F01EC3CF0C8
:101BD600020EA2EC3CF029C074F02AC075F0000198
:101BE600766B000E000174250001606F800E000107
:101BF60075210001616F100E000176210001626FF0
:101C0600000E0001646F5C0E636F01EC3CF0020E87
:101C1600A2EC3CF029C074F02AC075F00001766B86
:101C2600000E000174250001606F800E0001752111
:101C36000001616F100E000176210001626F000E37
:101C46000001646F1C0E636F01EC3CF0020EA2EC07
:101C56003CF029C074F02AC075F00001766B000EC6
:101C6600000174250001606F800E000175210001DE
:101C7600616F100E000176210001626F000E0001F7
:101C8600646F000E636F01EC3CF0020EA2EC3CF0B8
:101C960029C074F02AC075F00001766B000E0001B1
:101CA60074250001626F800E000175210001636FCB
:101CB600100E000176210001646F640E0001656F4D
:101CC6000F0E0001666FCBEC39F0A2EC3CF00C0E67
:101CD60000016B6FFF0E6C6FFF0E6D6FFF0E6E6F68
:101CE6009AEC3BF029C074F02AC075F00001766BBF
:101CF600000E000174250001606F800E0001752141
:101D06000001616F100E000176210001626F000E66
:101D16000001646FAB0E636F01EC3CF0020EA2ECA7
:101D26003CF029C074F02AC075F00001766B000EF5
:101D3600000174250001606F800E0001752100010D
:101D4600616F100E000176210001626F000E000126
:101D5600646F3A0E636F01EC3CF0020EA2EC3CF0AD
:101D660029C074F02AC075F00001766B000E0001E0
:101D760074250001606F800E000175210001616FFE
:101D8600100E000176210001626F000E0001646FE3
:101D96001C0E636F01EC3CF0020EA2EC3CF029C075
:101DA60074F02AC075F00001766B000E00017425F0
:101DB6000001606F800E000175210001616F100E39
:101DC600000176210001626F000E0001646F000EB3
:101DD600636F01EC3CF0020EA2EC3CF029C074F0FB
:101DE6002AC075F00001766B000E00017425000113
:101DF600626F800E000175210001636F100E0001F5
:101E060076210001646F660E0001656F0F0E0001FA
:101E1600666FCBEC39F0A2EC3CF00C0E00016B6F58
:101E2600FF0E6C6FFF0E6D6FFF0E6E6F9AEC3BF040
:101E360029C074F02AC075F00001766B000E00010F
:101E460074250001606F800E000175210001616F2D
:101E5600100E000176210001626F000E0001646F12
:101E6600C90E636F01EC3CF0020EA2EC3CF029C0F7
:101E760074F02AC075F00001766B000E000174251F
:101E86000001606F800E000175210001616F100E68
:101E9600000176210001626F000E0001646F210EC1
:101EA600636F01EC3CF0020EA2EC3CF029C074F02A
:101EB6002AC075F00001766B000E00017425000142
:101EC600606F800E000175210001616F100E000128
:101ED60076210001626F000E0001646F1C0E636FB5
:101EE60001EC3CF0020EA2EC3CF029C074F02AC0D2
:101EF60075F00001766B000E000174250001606F1D
:101F0600800E000175210001616F100E000176211F
:101F16000001626F000E0001646F000E636F01EC3A
:101F26003CF0020EA2EC3CF029C074F02AC075F019
:101F36000001766B000E000174250001626F800EB1
:101F4600000175210001636F100E0001762100016A
:101F5600646F680E0001656F0F0E0001666FCBECB3
:101F660039F0A2EC3CF00C0E00016B6FFF0E6C6FAB
:101F7600FF0E6D6FFF0E6E6F9AEC3BF029C074F08A
:101F86002AC075F00001766B000E00017425000171
:101F9600606F800E000175210001616F100E000157
:101FA60076210001626F000E0001646FEB0E636F15
:101FB60001EC3CF0020EA2EC3CF029C074F02AC001
:101FC60075F00001766B000E000174250001606F4C
:101FD600800E000175210001616F100E000176214F
:101FE6000001626F000E0001646F1A0E636F01EC50
:101FF6003CF0020EA2EC3CF029C074F02AC075F049
:102006000001766B000E000174250001606F800EE2
:10201600000175210001616F100E0001762100019B
:10202600626F000E0001646F1C0E636F01EC3CF0E2
:10203600020EA2EC3CF029C074F02AC075F0000133
:10204600766B000E000174250001606F800E0001A2
:1020560075210001616F100E000176210001626F8B
:10206600000E0001646F000E636F01EC3CF0020E7F
:10207600A2EC3CF029C074F02AC075F00001766B22
:10208600000E000174250001626F800E00017521AB
:102096000001636F100E000176210001646F6A0E65
:1020A6000001656F0F0E0001666FCBEC39F0A2ECF4
:1020B6003CF00C0E00016B6FFF0E6C6FFF0E6D6F28
:1020C600FF0E6E6F9AEC3BF029C074F02AC075F0D3
:1020D6000001766B000E000174250001606F800E12
:1020E600000175210001616F100E000176210001CB
:1020F600626F010E0001646F0D0E636F01EC3CF020
:10210600020EA2EC3CF029C074F02AC075F0000162
:10211600766B000E000174250001606F800E0001D1
:1021260075210001616F100E000176210001626FBA
:10213600000E0001646F210E636F01EC3CF0020E8D
:10214600A2EC3CF029C074F02AC075F00001766B51
:10215600000E000174250001606F800E00017521DC
:102166000001616F100E000176210001626F000E02
:102176000001646F1C0E636F01EC3CF0020EA2ECD2
:102186003CF029C074F02AC075F00001766B000E91
:10219600000174250001606F800E000175210001A9
:1021A600616F100E000176210001626F000E0001C2
:1021B600646F000E636F01EC3CF0020EA2EC3CF083
:1021C60029C074F02AC075F00001766B000E00017C
:1021D60074250001626F800E000175210001636F96
:1021E600100E000176210001646F6C0E0001656F10
:1021F6000F0E0001666FCBEC39F0A2EC3CF00C0E32
:1022060000016B6FFF0E6C6FFF0E6D6FFF0E6E6F32
:102216009AEC3BF029C074F02AC075F00001766B89
:10222600000E000174250001606F800E000175210B
:102236000001616F100E000176210001626F010E30
:102246000001646F2A0E636F01EC3CF0020EA2ECF3
:102256003CF029C074F02AC075F00001766B000EC0
:10226600000174250001606F800E000175210001D8
:10227600616F100E000176210001626F000E0001F1
:10228600646F3A0E636F01EC3CF0020EA2EC3CF078
:1022960029C074F02AC075F00001766B000E0001AB
:1022A60074250001606F800E000175210001616FC9
:1022B600100E000176210001626F000E0001646FAE
:1022C6001C0E636F01EC3CF0020EA2EC3CF029C040
:1022D60074F02AC075F00001766B000E00017425BB
:1022E6000001606F800E000175210001616F100E04
:1022F600000176210001626F000E0001646F000E7E
:10230600636F01EC3CF0020EA2EC3CF029C074F0C5
:102316002AC075F00001766B000E000174250001DD
:10232600626F800E000175210001636F100E0001BF
:1023360076210001646F6E0E0001656F0F0E0001BD
:10234600666FCBEC39F0A2EC3CF00C0E00016B6F23
:10235600FF0E6C6FFF0E6D6FFF0E6E6F9AEC3BF00B
:1023660029C074F02AC075F00001766B000E0001DA
:1023760074250001606F800E000175210001616FF8
:10238600100E000176210001626F010E0001646FDC
:102396002D0E636F01EC3CF0020EA2EC3CF029C05E
:1023A60074F02AC075F00001766B000E00017425EA
:1023B6000001606F800E000175210001616F100E33
:1023C600000176210001626F000E0001646F5C0E51
:1023D600636F01EC3CF0020EA2EC3CF029C074F0F5
:1023E6002AC075F00001766B000E0001742500010D
:1023F600606F800E000175210001616F100E0001F3
:1024060076210001626F000E0001646F1C0E636F7F
:1024160001EC3CF0020EA2EC3CF029C074F02AC09C
:1024260075F00001766B000E000174250001606FE7
:10243600800E000175210001616F100E00017621EA
:102446000001626F000E0001646F000E636F01EC05
:102456003CF0020EA2EC3CF029C074F02AC075F0E4
:102466000001766B000E000174250001626F800E7C
:10247600000175210001636F100E00017621000135
:10248600646F520E0001656F0F0E0001666FCBEC94
:1024960039F0A2EC3CF00C0E00016B6FFF0E6C6F76
:1024A600FF0E6D6FFF0E6E6F9AEC3BF029C074F055
:1024B6002AC075F00001766B000E0001742500013C
:1024C600606F800E000175210001616F100E000122
:1024D60076210001626F010E0001646F2B0E636F9F
:1024E60001EC3CF0020EA2EC3CF029C074F02AC0CC
:1024F60075F00001766B000E000174250001606F17
:10250600800E000175210001616F100E0001762119
:102516000001626F000E0001646F820E636F01ECB2
:102526003CF0020EA2EC3CF029C074F02AC075F013
:102536000001766B000E000174250001606F800EAD
:10254600000175210001616F100E00017621000166
:10255600626F000E0001646F1C0E636F01EC3CF0AD
:10256600020EA2EC3CF029C074F02AC075F00001FE
:10257600766B000E000174250001606F800E00016D
:1025860075210001616F100E000176210001626F56
:10259600000E0001646F000E636F01EC3CF0020E4A
:1025A600A2EC3CF029C074F02AC075F00001766BED
:1025B600000E000174250001626F800E0001752176
:1025C6000001636F100E000176210001646F550E45
:1025D6000001656F0F0E0001666FCBEC39F0A2ECBF
:1025E6003CF00C0E00016B6FFF0E6C6FFF0E6D6FF3
:1025F600FF0E6E6F9AEC3BF029C074F02AC075F09E
:102606000001766B000E000174250001606F800EDC
:10261600000175210001616F100E00017621000195
:10262600626F010E0001646F120E636F01EC3CF0E5
:10263600020EA2EC3CF029C074F02AC075F000012D
:10264600766B000E000174250001606F800E00019C
:1026560075210001616F100E000176210001626F85
:10266600000E0001646FA10E636F01EC3CF0020ED8
:10267600A2EC3CF029C074F02AC075F00001766B1C
:10268600000E000174250001606F800E00017521A7
:102696000001616F100E000176210001626F000ECD
:1026A6000001646F1C0E636F01EC3CF0020EA2EC9D
:1026B6003CF029C074F02AC075F00001766B000E5C
:1026C600000174250001606F800E00017521000174
:1026D600616F100E000176210001626F000E00018D
:1026E600646F000E636F01EC3CF0020EA2EC3CF04E
:1026F60029C074F02AC075F00001766B000E000147
:1027060074250001626F800E000175210001636F60
:10271600100E000176210001646F580E0001656FEE
:102726000F0E0001666FCBEC39F0A2EC3CF00C0EFC
:1027360000016B6FFF0E6C6FFF0E6D6FFF0E6E6FFD
:102746009AEC3BF029C074F02AC075F00001766B54
:10275600000E000174250001606F800E00017521D6
:102766000001616F100E000176210001626F000EFC
:102776000001646FF10E636F01EC3CF0020EA2ECF7
:102786003CF029C074F02AC075F00001766B000E8B
:10279600000174250001606F800E000175210001A3
:1027A600616F100E000176210001626F000E0001BC
:1027B600646F720E636F01EC3CF0020EA2EC3CF00B
:1027C60029C074F02AC075F00001766B000E000176
:1027D60074250001606F800E000175210001616F94
:1027E600100E000176210001626F000E0001646F79
:1027F6001F0E636F01EC3CF0020EA2EC3CF029C008
:1028060074F02AC075F00001766B000E0001742585
:102816000001606F800E000175210001616F100ECE
:10282600000176210001626F060E0001646F000E42
:10283600636F01EC3CF0020EA2EC3CF029C074F090
:102846002AC075F00001766B000E000174250001A8
:10285600626F800E000175210001636F100E00018A
:1028660076210001646F600E0001656F0F0E000196
:10287600666FCBEC39F0A2EC3CF00C0E00016B6FEE
:10288600FF0E6C6FFF0E6D6FFF0E6E6F9AEC3BF0D6
:1028960029C074F02AC075F00001766B000E0001A5
:1028A60074250001606F800E000175210001616FC3
:1028B600100E000176210001626F010E0001646FA7
:1028C6000B0E636F01EC3CF0020EA2EC3CF029C04B
:1028D60074F02AC075F00001766B000E00017425B5
:1028E6000001606F800E000175210001616F100EFE
:1028F600000176210001626F000E0001646F6C0E0C
:10290600636F01EC3CF0020EA2EC3CF029C074F0BF
:102916002AC075F00001766B000E000174250001D7
:10292600606F800E000175210001616F100E0001BD
:1029360076210001626F000E0001646F1C0E636F4A
:1029460001EC3CF0020EA2EC3CF029C074F02AC067
:1029560075F00001766B000E000174250001606FB2
:10296600800E000175210001616F100E00017621B5
:102976000001626F000E0001646F000E636F01ECD0
:102986003CF0020EA2EC3CF029C074F02AC075F0AF
:102996000001766B000E000174250001626F800E47
:1029A600000175210001636F100E00017621000100
:1029B600646F720E0001656F0F0E0001666FCBEC3F
:1029C60039F0A2EC3CF00C0E00016B6FFF0E6C6F41
:1029D600FF0E6D6FFF0E6E6F9AEC3BF029C074F020
:1029E6002AC075F00001766B000E00017425000107
:1029F600606F800E000175210001616F100E0001ED
:102A060076210001626F000E0001646FE30E636FB2
:102A160001EC3CF0020EA2EC3CF029C074F02AC096
:102A260075F00001766B000E000174250001606FE1
:102A3600800E000175210001616F100E00017621E4
:102A46000001626F000E0001646F840E636F01EC7B
:102A56003CF0020EA2EC3CF029C074F02AC075F0DE
:102A66000001766B000E000174250001606F800E78
:102A7600000175210001616F100E00017621000131
:102A8600626F000E0001646F1A0E636F01EC3CF07A
:102A9600020EA2EC3CF029C074F02AC075F00001C9
:102AA600766B000E000174250001606F800E000138
:102AB60075210001616F100E000176210001626F21
:102AC600000E0001646F000E636F01EC3CF0020E15
:102AD600A2EC3CF029C074F02AC075F00001766BB8
:102AE600000E000174250001626F800E0001752141
:102AF6000001636F100E000176210001646F4A0E1B
:102B06000001656F0F0E0001666FCBEC39F0A2EC89
:102B16003CF01200000E00016B6F000E6C6FFF0E92
:102B26006D6F040E6E6F9AEC3BF0080E00016B6F32
:102B3600000E6C6F000E6D6F1F0E6E6F9AEC3BF001
:102B4600000E00016B6F800E6C6F0C0E6D6F800EA9
:102B56006E6F9AEC3BF0000E00016B6F800E6C6F8F
:102B66006C0E6D6F970E6E6F9AEC3BF0000E0001C7
:102B76006B6FD00E6C6F0A0E6D6F9B0E6E6F9AECBC
:102B86003BF0000E00016B6FD00E6C6FEA0E6D6F9E
:102B9600A00E6E6F9AEC3BF0000E00016B6F800E7C
:102BA6006C6F8C0E6D6FA40E6E6F9AEC3BF0000E80
:102BB60000016B6F800E6C6F0C0E6D6FBC0E6E6F2E
:102BC6009AEC3BF0000E00016B6F000E6C6F000E6E
:102BD6006D6F040E6E6F9AEC3BF0080E00016B6F82
:102BE600000E6C6F000E6D6F1F0E6E6F9AEC3BF051
:102BF600000E00016B6FD00E6C6F0C0E6D6F800EA9
:102C06006E6F9AEC3BF0000E00016B6FC00E6C6F9E
:102C1600AC0E6D6F970E6E6F9AEC3BF0000E0001D6
:102C26006B6F100E6C6F2B0E6D6F9B0E6E6F9AECAA
:102C36003BF0000E00016B6F100E6C6FAB0E6D6FEC
:102C4600A00E6E6F9AEC3BF0000E00016B6FC00E8B
:102C56006C6F2C0E6D6FA40E6E6F9AEC3BF0000E2F
:102C660000016B6FD00E6C6F6C0E6D6FBC0E6E6FCD
:102C76009AEC3BF0000E00016B6F7D0E6C6FFF0E41
:102C86006D6F040E6E6F9AEC3BF00C0E00016B6FCD
:102C9600FF0E6C6FFF0E6D6FFF0E6E6F9AEC3BF0C2
:102CA60029C07DF02AC07EF000017F6B000E000176
:102CB6007D250001606F800E00017E210001616F9D
:102CC600100E00017F210001626F000E0001646F8B
:102CD600050E636F01EC3CF0020EA2EC3CF029C03D
:102CE6007DF02AC07EF000017F6B000E00017D257D
:102CF6000001606F800E00017E210001616F100EE1
:102D060000017F210001626F000E0001646FCF0E8B
:102D1600636F01EC3CF0020EA2EC3CF029C07DF0A2
:102D26002AC07EF000017F6B000E00017D250001A8
:102D3600606F800E00017E210001616F100E0001A0
:102D46007F210001626F000E0001646F1B0E636F2E
:102D560001EC3CF0020EA2EC3CF029C07DF02AC04A
:102D66007EF000017F6B000E00017D250001606F83
:102D7600800E00017E210001616F100E00017F218F
:102D86000001626F000E0001646F000E636F01ECBC
:102D96003CF0020EA2EC3CF029C07DF02AC07EF089
:102DA60000017F6B000E00017D250001626F800E21
:102DB60000017E210001636F100E00017F210001DA
:102DC600646F330E0001656F0F0E0001666FCBEC6A
:102DD60039F0A2EC3CF02E0E00016B6FFF0E6C6F0B
:102DE600FF0E6D6FFF0E6E6F9AEC3BF029C07DF003
:102DF6002AC07EF000017F6B000E00017D250001D8
:102E0600606F800E00017E210001616F100E0001CF
:102E16007F210001626F000E0001646F420E636F36
:102E260001EC3CF0020EA2EC3CF029C07DF02AC079
:102E36007EF000017F6B000E00017D250001606FB2
:102E4600800E00017E210001616F100E00017F21BE
:102E56000001626F000E0001646FD90E636F01EC12
:102E66003CF0020EA2EC3CF029C07DF02AC07EF0B8
:102E760000017F6B000E00017D250001606F800E52
:102E860000017E210001616F100E00017F2100010B
:102E9600626F000E0001646F1B0E636F01EC3CF065
:102EA600020EA2EC3CF029C07DF02AC07EF00001A3
:102EB6007F6B000E00017D250001606F800E000112
:102EC6007E210001616F100E00017F210001626FFB
:102ED600060E0001646F000E636F01EC3CF0020EFB
:102EE600A2EC3CF0000E00016B6F000E6C6F000E42
:102EF6006D6F000E6E6F9AEC3BF00C0E00016B6F5F
:102F0600FF0E6C6FFF0E6D6FFF0E6E6F9AEC3BF04F
:102F160029C07DF02AC07EF000017F6B000E000103
:102F26007D250001606F800E00017E210001616F2A
:102F3600100E00017F210001626F010E0001646F17
:102F4600C00E636F01EC3CF0020EA2EC3CF029C00F
:102F56007DF02AC07EF000017F6B000E00017D250A
:102F66000001606F800E00017E210001616F100E6E
:102F760000017F210001626F000E0001646FCF0E19
:102F8600636F01EC3CF0020EA2EC3CF029C07DF030
:102F96002AC07EF000017F6B000E00017D25000136
:102FA600606F800E00017E210001616F100E00012E
:102FB6007F210001626F000E0001646F1B0E636FBC
:102FC60001EC3CF0020EA2EC3CF029C07DF02AC0D8
:102FD6007EF000017F6B000E00017D250001606F11
:102FE600800E00017E210001616F100E00017F211D
:102FF6000001626F080E0001646F000E636F01EC42
:103006003CF0020EA2EC3CF029C07DF02AC07EF016
:1030160000017F6B000E00017D250001626F800EAE
:1030260000017E210001636F100E00017F21000167
:10303600646F380E0001656F0F0E0001666FCBECF2
:1030460039F0A2EC3CF02E0E00016B6FFF0E6C6F98
:10305600FF0E6D6FFF0E6E6F9AEC3BF029C07DF090
:103066002AC07EF000017F6B000E00017D25000165
:10307600606F800E00017E210001616F100E00015D
:103086007F210001626F010E0001646FDB0E636F2A
:1030960001EC3CF0020EA2EC3CF029C07DF02AC007
:1030A6007EF000017F6B000E00017D250001606F40
:1030B600800E00017E210001616F100E00017F214C
:1030C6000001626F000E0001646FCF0E636F01ECAA
:1030D6003CF0020EA2EC3CF029C07DF02AC07EF046
:1030E60000017F6B000E00017D250001606F800EE0
:1030F60000017E210001616F100E00017F21000199
:10310600626F000E0001646F1B0E636F01EC3CF0F2
:10311600020EA2EC3CF029C07DF02AC07EF0000130
:103126007F6B000E00017D250001606F800E00019F
:103136007E210001616F100E00017F210001626F88
:10314600080E0001646F000E636F01EC3CF0020E86
:10315600A2EC3CF0000E00016B6F000E6C6F000ECF
:103166006D6F000E6E6F9AEC3BF00C0E00016B6FEC
:10317600FF0E6C6FFF0E6D6FFF0E6E6F9AEC3BF0DD
:1031860029C07DF02AC07EF000017F6B000E000191
:103196007D250001606F800E00017E210001616FB8
:1031A600100E00017F210001626F000E0001646FA6
:1031B600F00E636F01EC3CF0020EA2EC3CF029C06D
:1031C6007DF02AC07EF000017F6B000E00017D2598
:1031D6000001606F800E00017E210001616F100EFC
:1031E60000017F210001626F000E0001646FA50ED1
:1031F600636F01EC3CF0020EA2EC3CF029C07DF0BE
:103206002AC07EF000017F6B000E00017D250001C3
:10321600606F800E00017E210001616F100E0001BB
:103226007F210001626F000E0001646F1B0E636F49
:1032360001EC3CF0020EA2EC3CF029C07DF02AC065
:103246007EF000017F6B000E00017D250001606F9E
:10325600800E00017E210001616F100E00017F21AA
:103266000001626F060E0001646F000E636F01ECD1
:103276003CF0020EA2EC3CF029C07DF02AC07EF0A4
:1032860000017F6B000E00017D250001626F800E3C
:1032960000017E210001636F100E00017F210001F5
:1032A600646F4E0E0001656F0F0E0001666FCBEC6A
:1032B60039F0A2EC3CF02E0E00016B6FFF0E6C6F26
:1032C600FF0E6D6FFF0E6E6F9AEC3BF029C07DF01E
:1032D6002AC07EF000017F6B000E00017D250001F3
:1032E600606F800E00017E210001616F100E0001EB
:1032F6007F210001626F000E0001646FF00E636FA4
:1033060001EC3CF0020EA2EC3CF029C07DF02AC094
:103316007EF000017F6B000E00017D250001606FCD
:10332600800E00017E210001616F100E00017F21D9
:103336000001626F000E0001646FBE0E636F01EC48
:103346003CF0020EA2EC3CF029C07DF02AC07EF0D3
:1033560000017F6B000E00017D250001606F800E6D
:1033660000017E210001616F100E00017F21000126
:10337600626F000E0001646F1D0E636F01EC3CF07E
:10338600020EA2EC3CF029C07DF02AC07EF00001BE
:103396007F6B000E00017D250001606F800E00012D
:1033A6007E210001616F100E00017F210001626F16
:1033B600060E0001646F000E636F01EC3CF0020E16
:1033C600A2EC3CF0000E00016B6F000E6C6F000E5D
:1033D6006D6F000E6E6F9AEC3BF0FF0E00016B6F87
:1033E600FF0E6C6FFF0E6D6F040E6E6F9AEC3BF066
:1033F6002E0E00016B6FFF0E6C6FFF0E6D6FFF0ED2
:103406006E6F9AEC3BF029C07DF02AC07EF0000179
:103416007F6B000E00017D250001606F800E0001AC
:103426007E210001616F100E00017F210001626F95
:10343600000E0001646F240E636F01EC3CF0020E77
:10344600A2EC3CF029C07DF02AC07EF000017F6B23
:10345600000E00017D250001606F800E00017E21B7
:103466000001616F100E00017F210001626F000EE6
:103476000001646FDE0E636F01EC3CF0020EA2ECFD
:103486003CF029C07DF02AC07EF000017F6B000E63
:1034960000017D250001606F800E00017E21000184
:1034A600616F100E00017F210001626F000E0001A6
:1034B600646F1E0E636F01EC3CF0020EA2EC3CF052
:1034C60029C07DF02AC07EF000017F6B000E00014E
:1034D6007D250001606F800E00017E210001616F75
:1034E600100E00017F210001626F080E0001646F5B
:1034F600000E636F01EC3CF0020EA2EC3CF0000EF5
:1035060000016B6F000E6C6F000E6D6F000E6E6F1C
:103516009AEC3BF00C0E00016B6FFF0E6C6FFF0E0A
:103526006D6FFF0E6E6F9AEC3BF029C07DF02AC0DE
:103536007EF000017F6B000E00017D250001606FAB
:10354600800E00017E210001616F100E00017F21B7
:103556000001626F000E0001646F270E636F01ECBD
:103566003CF0020EA2EC3CF029C07DF02AC07EF0B1
:1035760000017F6B000E00017D250001606F800E4B
:1035860000017E210001616F100E00017F21000104
:10359600626F000E0001646FEE0E636F01EC3CF08B
:1035A600020EA2EC3CF029C07DF02AC07EF000019C
:1035B6007F6B000E00017D250001606F800E00010B
:1035C6007E210001616F100E00017F210001626FF4
:1035D600000E0001646F1C0E636F01EC3CF0020EDE
:1035E600A2EC3CF029C07DF02AC07EF000017F6B82
:1035F600000E00017D250001606F800E00017E2116
:103606000001616F100E00017F210001626F060E3E
:103616000001646F000E636F01EC3CF0020EA2EC39
:103626003CF029C07DF02AC07EF000017F6B000EC1
:1036360000017D250001626F800E00017E210001E0
:10364600636F100E00017F210001646F700E000190
:10365600656F0F0E0001666FCBEC39F0A2EC3CF003
:103666002E0E00016B6FFF0E6C6FFF0E6D6FFF0E5F
:103676006E6F9AEC3BF029C07DF02AC07EF0000107
:103686007F6B000E00017D250001606F800E00013A
:103696007E210001616F100E00017F210001626F23
:1036A600000E0001646F2A0E636F01EC3CF0020EFF
:1036B600A2EC3CF029C07DF02AC07EF000017F6BB1
:1036C600000E00017D250001606F800E00017E2145
:1036D6000001616F100E00017F210001626F000E74
:1036E6000001646FDE0E636F01EC3CF0020EA2EC8B
:1036F6003CF029C07DF02AC07EF000017F6B000EF1
:1037060000017D250001606F800E00017E21000111
:10371600616F100E00017F210001626F000E000133
:10372600646F1E0E636F01EC3CF0020EA2EC3CF0DF
:1037360029C07DF02AC07EF000017F6B000E0001DB
:103746007D250001606F800E00017E210001616F02
:10375600100E00017F210001626F000E0001646FF0
:10376600020E636F01EC3CF0020EA2EC3CF0000E80
:1037760000016B6F000E6C6F000E6D6F000E6E6FAA
:103786009AEC3BF02E0E00016B6FFF0E6C6FFF0E76
:103796006D6FFF0E6E6F9AEC3BF029C07DF02AC06C
:1037A6007EF000017F6B000E00017D250001606F39
:1037B600800E00017E210001616F100E00017F2145
:1037C6000001626F010E0001646FB20E636F01ECBF
:1037D6003CF0020EA2EC3CF029C07DF02AC07EF03F
:1037E60000017F6B000E00017D250001606F800ED9
:1037F60000017E210001616F100E00017F21000192
:10380600626F000E0001646FDE0E636F01EC3CF028
:10381600020EA2EC3CF029C07DF02AC07EF0000129
:103826007F6B000E00017D250001606F800E000198
:103836007E210001616F100E00017F210001626F81
:10384600000E0001646F1E0E636F01EC3CF0020E69
:10385600A2EC3CF029C07DF02AC07EF000017F6B0F
:10386600000E00017D250001606F800E00017E21A3
:103876000001616F100E00017F210001626F080ECA
:103886000001646F000E636F01EC3CF0020EA2ECC7
:103896003CF0000E00016B6F000E6C6F000E6D6F3A
:1038A600000E6E6F9AEC3BF00C0E00016B6FFF0E74
:1038B6006C6FFF0E6D6FFF0E6E6F9AEC3BF029C0BA
:1038C6007DF02AC07EF000017F6B000E00017D2591
:1038D6000001606F800E00017E210001616F100EF5
:1038E60000017F210001626F010E0001646FB50EB9
:1038F600636F01EC3CF0020EA2EC3CF029C07DF0B7
:103906002AC07EF000017F6B000E00017D250001BC
:10391600606F800E00017E210001616F100E0001B4
:103926007F210001626F000E0001646FEF0E636F6E
:1039360001EC3CF0020EA2EC3CF029C07DF02AC05E
:103946007EF000017F6B000E00017D250001606F97
:10395600800E00017E210001616F100E00017F21A3
:103966000001626F000E0001646F1C0E636F01ECB4
:103976003CF0020EA2EC3CF029C07DF02AC07EF09D
:1039860000017F6B000E00017D250001606F800E37
:1039960000017E210001616F100E00017F210001F0
:1039A600626F060E0001646F000E636F01EC3CF05F
:1039B600020EA2EC3CF029C07DF02AC07EF0000188
:1039C6007F6B000E00017D250001626F800E0001F5
:1039D6007E210001636F100E00017F210001646FDC
:1039E600700E0001656F0F0E0001666FCBEC39F0AB
:1039F600A2EC3CF02E0E00016B6FFF0E6C6FFF0EFB
:103A06006D6FFF0E6E6F9AEC3BF029C07DF02AC0F9
:103A16007EF000017F6B000E00017D250001606FC6
:103A2600800E00017E210001616F100E00017F21D2
:103A36000001626F010E0001646FB80E636F01EC46
:103A46003CF0020EA2EC3CF029C07DF02AC07EF0CC
:103A560000017F6B000E00017D250001606F800E66
:103A660000017E210001616F100E00017F2100011F
:103A7600626F000E0001646FDE0E636F01EC3CF0B6
:103A8600020EA2EC3CF029C07DF02AC07EF00001B7
:103A96007F6B000E00017D250001606F800E000126
:103AA6007E210001616F100E00017F210001626F0F
:103AB600000E0001646F1E0E636F01EC3CF0020EF7
:103AC600A2EC3CF029C07DF02AC07EF000017F6B9D
:103AD600000E00017D250001606F800E00017E2131
:103AE6000001616F100E00017F210001626F000E60
:103AF6000001646F020E636F01EC3CF0020EA2EC53
:103B06003CF0000E00016B6F000E6C6F000E6D6FC7
:103B1600000E6E6F9AEC3BF02E0E00016B6FFF0EDF
:103B26006C6FFF0E6D6FFF0E6E6F9AEC3BF029C047
:103B36007DF02AC07EF000017F6B000E00017D251E
:103B46000001606F800E00017E210001616F100E82
:103B560000017F210001626F000E0001646FE90E13
:103B6600636F01EC3CF0020EA2EC3CF029C07DF044
:103B76002AC07EF000017F6B000E00017D2500014A
:103B8600606F800E00017E210001616F100E000142
:103B96007F210001626F000E0001646FEB0E636F00
:103BA60001EC3CF0020EA2EC3CF029C07DF02AC0EC
:103BB6007EF000017F6B000E00017D250001606F25
:103BC600800E00017E210001616F100E00017F2131
:103BD6000001626F000E0001646F1E0E636F01EC40
:103BE6003CF0020EA2EC3CF029C07DF02AC07EF02B
:103BF60000017F6B000E00017D250001606F800EC5
:103C060000017E210001616F100E00017F2100017D
:103C1600626F080E0001646F000E636F01EC3CF0EA
:103C2600020EA2EC3CF0000E00016B6F000E6C6FF2
:103C3600000E6D6F000E6E6F9AEC3BF00C0E0001DD
:103C46006B6FFF0E6C6FFF0E6D6FFF0E6E6F9AEC53
:103C56003BF029C07DF02AC07EF000017F6B000E8C
:103C660000017D250001606F800E00017E210001AC
:103C7600616F100E00017F210001626F000E0001CE
:103C8600646FED0E636F01EC3CF0020EA2EC3CF0AB
:103C960029C07DF02AC07EF000017F6B000E000176
:103CA6007D250001606F800E00017E210001616F9D
:103CB600100E00017F210001626F000E0001646F8B
:103CC600FC0E636F01EC3CF0020EA2EC3CF029C046
:103CD6007DF02AC07EF000017F6B000E00017D257D
:103CE6000001606F800E00017E210001616F100EE1
:103CF60000017F210001626F000E0001646F1C0E3F
:103D0600636F01EC3CF0020EA2EC3CF029C07DF0A2
:103D16002AC07EF000017F6B000E00017D250001A8
:103D2600606F800E00017E210001616F100E0001A0
:103D36007F210001626F060E0001646F000E636F43
:103D460001EC3CF0020EA2EC3CF029C07DF02AC04A
:103D56007EF000017F6B000E00017D250001626F81
:103D6600800E00017E210001636F100E00017F218D
:103D76000001646F700E0001656F0F0E0001666F23
:103D8600CBEC39F0A2EC3CF02E0E00016B6FFF0E6F
:103D96006C6FFF0E6D6FFF0E6E6F9AEC3BF029C0D5
:103DA6007DF02AC07EF000017F6B000E00017D25AC
:103DB6000001606F800E00017E210001616F100E10
:103DC60000017F210001626F000E0001646FF00E9A
:103DD600636F01EC3CF0020EA2EC3CF029C07DF0D2
:103DE6002AC07EF000017F6B000E00017D250001D8
:103DF600606F800E00017E210001616F100E0001D0
:103E06007F210001626F000E0001646FEB0E636F8D
:103E160001EC3CF0020EA2EC3CF029C07DF02AC079
:103E26007EF000017F6B000E00017D250001606FB2
:103E3600800E00017E210001616F100E00017F21BE
:103E46000001626F000E0001646F1E0E636F01ECCD
:103E56003CF0020EA2EC3CF029C07DF02AC07EF0B8
:103E660000017F6B000E00017D250001606F800E52
:103E760000017E210001616F100E00017F2100010B
:103E8600626F000E0001646F020E636F01EC3CF07E
:103E9600020EA2EC3CF0000E00016B6F000E6C6F80
:103EA600000E6D6F000E6E6F9AEC3BF01200000E66
:103EB6000001766F050E756FFF0E00016B6FFF0E2A
:103EC6006C6FFF0E6D6F040E6E6F9AEC3BF00C0E6E
:103ED60000016B6FFF0E6C6FFF0E6D6FFF0E6E6F46
:103EE6009AEC3BF029C072F02AC073F00001746BA3
:103EF600000E000172250001606F800E0001732123
:103F06000001616F100E000174210001626F000E46
:103F16000001646F050E636F01EC3CF0020EA2EC2B
:103F26003CF029C072F02AC073F00001746B000ED9
:103F3600000172250001606F800E000173210001EF
:103F4600616F100E000174210001626F75C063F08D
:103F560076C064F001EC3CF0020EA2EC3CF029C005
:103F660072F02AC073F00001746B000E0001722516
:103F76000001606F800E000173210001616F100E59
:103F8600000174210001626F000E0001646F1A0EB9
:103F9600636F01EC3CF0020EA2EC3CF029C072F01B
:103FA6002AC073F00001746B000E00017225000137
:103FB600606F800E000173210001616F100E000119
:103FC60074210001626F000E0001646F000E636FC2
:103FD60001EC3CF0020EA2EC3CF029C072F02AC0C3
:103FE60073F00001746B000E000172250001626F10
:103FF600800E000173210001636F100E0001742111
:104006000001646F070E0001656F0F0E0001666FF9
:10401600CBEC39F0A2EC3CF00C0E00016B6FFF0EFE
:104026006C6FFF0E6D6FFF0E6E6F9AEC3BF029C042
:1040360072F02AC073F00001746B000E0001722545
:104046000001606F800E000173210001616F100E88
:10405600000174210001626F000E0001646F050EFD
:10406600636F01EC3CF0020EA2EC3CF029C072F04A
:104076002AC073F00001746B000E00017225000166
:10408600606F800E000173210001616F100E000148
:1040960074210001626F0F0E00017527000E762352
:1040A60075C063F076C064F001EC3CF0020EA2EC41
:1040B6003CF029C072F02AC073F00001746B000E48
:1040C600000172250001606F800E0001732100015E
:1040D600616F100E000174210001626F000E000175
:1040E600646F1A0E636F01EC3CF0020EA2EC3CF01A
:1040F60029C072F02AC073F00001746B000E000133
:1041060072250001606F800E000173210001616F4E
:10411600100E000174210001626F000E0001646F31
:10412600000E636F01EC3CF0020EA2EC3CF029C0DD
:1041360072F02AC073F00001746B000E0001722544
:104146000001626F800E000173210001636F100E83
:10415600000174210001646F2E0E0001656F0F0EC1
:104166000001666FCBEC39F0A2EC3CF00C0E0001BE
:104176006B6FFF0E6C6FFF0E6D6FFF0E6E6F9AEC1E
:104186003BF029C072F02AC073F00001746B000E78
:10419600000172250001606F800E0001732100018D
:1041A600616F100E000174210001626F000E0001A4
:1041B600646F050E636F01EC3CF0020EA2EC3CF05E
:1041C60029C072F02AC073F00001746B000E000162
:1041D60072250001606F800E000173210001616F7E
:1041E600100E000174210001626F190E000175277F
:1041F600000E762375C063F076C064F001EC3CF0E7
:10420600020EA2EC3CF029C072F02AC073F0000145
:10421600746B000E000172250001606F800E0001B4
:1042260073210001616F100E000174210001626F9D
:10423600000E0001646F1A0E636F01EC3CF0020E73
:10424600A2EC3CF029C072F02AC073F00001746B36
:10425600000E000172250001606F800E00017321BF
:104266000001616F100E000174210001626F000EE3
:104276000001646F000E636F01EC3CF0020EA2ECCD
:104286003CF029C072F02AC073F00001746B000E76
:10429600000172250001626F800E0001732100018A
:1042A600636F100E000174210001646F460E000159
:1042B600656F0F0E0001666FCBEC39F0A2EC3CF097
:1042C6000C0E00016B6FFF0E6C6FFF0E6D6FFF0E15
:1042D6006E6F9AEC3BF029C072F02AC073F00001B1
:1042E600746B000E000172250001606F800E0001E4
:1042F60073210001616F100E000174210001626FCD
:10430600000E0001646F050E636F01EC3CF0020EB7
:10431600A2EC3CF029C072F02AC073F00001746B65
:10432600000E000172250001606F800E00017321EE
:104336000001616F100E000174210001626F0F0E03
:1043460000017527000E762375C063F076C064F011
:1043560001EC3CF0020EA2EC3CF029C072F02AC03F
:1043660073F00001746B000E000172250001606F8E
:10437600800E000173210001616F100E000174218F
:104386000001626F000E0001646F1A0E636F01EC8C
:104396003CF0020EA2EC3CF029C072F02AC073F089
:1043A6000001746B000E000172250001606F800E23
:1043B600000173210001616F100E000174210001DC
:1043C600626F000E0001646F000E636F01EC3CF03B
:1043D600020EA2EC3CF029C072F02AC073F0000174
:1043E600746B000E000172250001626F800E0001E1
:1043F60073210001636F100E000174210001646FC8
:104406002E0E0001656F0F0E0001666FCBEC39F0C2
:10441600A2EC3CF00C0E00016B6FFF0E6C6FFF0EF2
:104426006D6FFF0E6E6F9AEC3BF029C072F02AC0DA
:1044360073F00001746B000E000172250001606FBD
:10444600800E000173210001616F100E00017421BE
:104456000001626F000E0001646F050E636F01ECD0
:104466003CF0020EA2EC3CF029C072F02AC073F0B8
:104476000001746B000E000172250001606F800E52
:10448600000173210001616F100E0001742100010B
:10449600626F190E00017527000E762375C063F052
:1044A60076C064F001EC3CF0020EA2EC3CF029C0B0
:1044B60072F02AC073F00001746B000E00017225C1
:1044C6000001606F800E000173210001616F100E04
:1044D600000174210001626F000E0001646F1A0E64
:1044E600636F01EC3CF0020EA2EC3CF029C072F0C6
:1044F6002AC073F00001746B000E000172250001E2
:10450600606F800E000173210001616F100E0001C3
:1045160074210001626F000E0001646F000E636F6C
:1045260001EC3CF0020EA2EC3CF029C072F02AC06D
:1045360073F00001746B000E000172250001626FBA
:10454600800E000173210001636F100E00017421BB
:104556000001646F290E0001656F0F0E0001666F82
:10456600CBEC39F0A2EC3CF00C0E00016B6FFF0EA9
:104576006C6FFF0E6D6FFF0E6E6F9AEC3BF029C0ED
:1045860072F02AC073F00001746B000E00017225F0
:104596000001606F800E000173210001616F100E33
:1045A600000174210001626F000E0001646F050EA8
:1045B600636F01EC3CF0020EA2EC3CF029C072F0F5
:1045C6002AC073F00001746B000E00017225000111
:1045D600606F800E000173210001616F100E0001F3
:1045E60074210001626F0F0E00017527000E7623FD
:1045F60075C063F076C064F001EC3CF0020EA2ECEC
:104606003CF029C072F02AC073F00001746B000EF2
:10461600000172250001606F800E00017321000108
:10462600616F100E000174210001626F000E00011F
:10463600646F1A0E636F01EC3CF0020EA2EC3CF0C4
:1046460029C072F02AC073F00001746B000E0001DD
:1046560072250001606F800E000173210001616FF9
:10466600100E000174210001626F000E0001646FDC
:10467600000E636F01EC3CF0020EA2EC3CF029C088
:1046860072F02AC073F00001746B000E00017225EF
:104696000001626F800E000173210001636F100E2E
:1046A600000174210001646F240E0001656F0F0E76
:1046B6000001666FCBEC39F0A2EC3CF00C0E000169
:1046C6006B6FFF0E6C6FFF0E6D6FFF0E6E6F9AECC9
:1046D6003BF029C072F02AC073F00001746B000E23
:1046E600000172250001606F800E00017321000138
:1046F600616F100E000174210001626F000E00014F
:10470600646F050E636F01EC3CF0020EA2EC3CF008
:1047160029C072F02AC073F00001746B000E00010C
:1047260072250001606F800E000173210001616F28
:10473600100E000174210001626F190E0001752729
:10474600000E762375C063F076C064F001EC3CF091
:10475600020EA2EC3CF029C072F02AC073F00001F0
:10476600746B000E000172250001606F800E00015F
:1047760073210001616F100E000174210001626F48
:10478600000E0001646F1A0E636F01EC3CF0020E1E
:10479600A2EC3CF029C072F02AC073F00001746BE1
:1047A600000E000172250001606F800E000173216A
:1047B6000001616F100E000174210001626F000E8E
:1047C6000001646F000E636F01EC3CF0020EA2EC78
:1047D6003CF029C072F02AC073F00001746B000E21
:1047E600000172250001626F800E00017321000135
:1047F600636F100E000174210001646F3D0E00010D
:10480600656F0F0E0001666FCBEC39F0A2EC3CF041
:104816000C0E00016B6FFF0E6C6FFF0E6D6FFF0EBF
:104826006E6F9AEC3BF029C072F02AC073F000015B
:10483600746B000E000172250001606F800E00018E
:1048460073210001616F100E000174210001626F77
:10485600000E0001646F050E636F01EC3CF0020E62
:10486600A2EC3CF029C072F02AC073F00001746B10
:10487600000E000172250001606F800E0001732199
:104886000001616F100E000174210001626F0F0EAE
:1048960000017527000E762375C063F076C064F0BC
:1048A60001EC3CF0020EA2EC3CF029C072F02AC0EA
:1048B60073F00001746B000E000172250001606F39
:1048C600800E000173210001616F100E000174213A
:1048D6000001626F000E0001646F1A0E636F01EC37
:1048E6003CF0020EA2EC3CF029C072F02AC073F034
:1048F6000001746B000E000172250001606F800ECE
:10490600000173210001616F100E00017421000186
:10491600626F000E0001646F000E636F01EC3CF0E5
:10492600020EA2EC3CF029C072F02AC073F000011E
:10493600746B000E000172250001626F800E00018B
:1049460073210001636F100E000174210001646F72
:10495600130E0001656F0F0E0001666FCBEC39F088
:10496600A2EC3CF00C0E00016B6FFF0E6C6FFF0E9D
:104976006D6FFF0E6E6F9AEC3BF029C072F02AC085
:1049860073F00001746B000E000172250001606F68
:10499600800E000173210001616F100E0001742169
:1049A6000001626F000E0001646F050E636F01EC7B
:1049B6003CF0020EA2EC3CF029C072F02AC073F063
:1049C6000001746B000E000172250001606F800EFD
:1049D600000173210001616F100E000174210001B6
:1049E600626F190E00017527000E762375C063F0FD
:1049F60076C064F001EC3CF0020EA2EC3CF029C05B
:104A060072F02AC073F00001746B000E000172256B
:104A16000001606F800E000173210001616F100EAE
:104A2600000174210001626F000E0001646F1A0E0E
:104A3600636F01EC3CF0020EA2EC3CF029C072F070
:104A46002AC073F00001746B000E0001722500018C
:104A5600606F800E000173210001616F100E00016E
:104A660074210001626F000E0001646F000E636F17
:104A760001EC3CF0020EA2EC3CF029C072F02AC018
:104A860073F00001746B000E000172250001626F65
:104A9600800E000173210001636F100E0001742166
:104AA6000001646F460E0001656F0F0E0001666F10
:104AB600CBEC39F0A2EC3CF00C0E00016B6FFF0E54
:104AC6006C6FFF0E6D6FFF0E6E6F9AEC3BF029C098
:104AD60072F02AC073F00001746B000E000172259B
:104AE6000001606F800E000173210001616F100EDE
:104AF600000174210001626F000E0001646F050E53
:104B0600636F01EC3CF0020EA2EC3CF029C072F09F
:104B16002AC073F00001746B000E000172250001BB
:104B2600606F800E000173210001616F100E00019D
:104B360074210001626F0F0E00017527000E7623A7
:104B460075C063F076C064F001EC3CF0020EA2EC96
:104B56003CF029C072F02AC073F00001746B000E9D
:104B6600000172250001606F800E000173210001B3
:104B7600616F100E000174210001626F000E0001CA
:104B8600646F1A0E636F01EC3CF0020EA2EC3CF06F
:104B960029C072F02AC073F00001746B000E000188
:104BA60072250001606F800E000173210001616FA4
:104BB600100E000174210001626F000E0001646F87
:104BC600000E636F01EC3CF0020EA2EC3CF029C033
:104BD60072F02AC073F00001746B000E000172259A
:104BE6000001626F800E000173210001636F100ED9
:104BF600000174210001646F0D0E0001656F0F0E38
:104C06000001666FCBEC39F0A2EC3CF00C0E000113
:104C16006B6FFF0E6C6FFF0E6D6FFF0E6E6F9AEC73
:104C26003BF029C072F02AC073F00001746B000ECD
:104C3600000172250001606F800E000173210001E2
:104C4600616F100E000174210001626F010E0001F8
:104C5600646F680E636F01EC3CF0020EA2EC3CF050
:104C660029C072F02AC073F00001746B000E0001B7
:104C760072250001606F800E000173210001616FD3
:104C8600100E000174210001626F000E0001646FB6
:104C9600820E636F01EC3CF0020EA2EC3CF029C0E0
:104CA60072F02AC073F00001746B000E00017225C9
:104CB6000001606F800E000173210001616F100E0C
:104CC600000174210001626F000E0001646F1A0E6C
:104CD600636F01EC3CF0020EA2EC3CF029C072F0CE
:104CE6002AC073F00001746B000E000172250001EA
:104CF600606F800E000173210001616F100E0001CC
:104D060074210001626F000E0001646F000E636F74
:104D160001EC3CF0020EA2EC3CF029C072F02AC075
:104D260073F00001746B000E000172250001626FC2
:104D3600800E000173210001636F100E00017421C3
:104D46000001646F010E0001656F0F0E0001666FB2
:104D5600CBEC39F0A2EC3CF00C0E00016B6FFF0EB1
:104D66006C6FFF0E6D6FFF0E6E6F9AEC3BF029C0F5
:104D760072F02AC073F00001746B000E00017225F8
:104D86000001606F800E000173210001616F100E3B
:104D9600000174210001626F010E0001646F680E4C
:104DA600636F01EC3CF0020EA2EC3CF029C072F0FD
:104DB6002AC073F00001746B000E00017225000119
:104DC600606F800E000173210001616F100E0001FB
:104DD60074210001626F000E0001646F910E636F13
:104DE60001EC3CF0020EA2EC3CF029C072F02AC0A5
:104DF60073F00001746B000E000172250001606FF4
:104E0600800E000173210001616F100E00017421F4
:104E16000001626F000E0001646F1A0E636F01ECF1
:104E26003CF0020EA2EC3CF029C072F02AC073F0EE
:104E36000001746B000E000172250001606F800E88
:104E4600000173210001616F100E00017421000141
:104E5600626F000E0001646F000E636F01EC3CF0A0
:104E6600020EA2EC3CF029C072F02AC073F00001D9
:104E7600746B000E000172250001626F800E000146
:104E860073210001636F100E000174210001646F2D
:104E9600420E0001656F0F0E0001666FCBEC39F014
:104EA600A2EC3CF00C0E00016B6FFF0E6C6FFF0E58
:104EB6006D6FFF0E6E6F9AEC3BF029C072F02AC040
:104EC60073F00001746B000E000172250001606F23
:104ED600800E000173210001616F100E0001742124
:104EE6000001626F010E0001646F7C0E636F01ECBE
:104EF6003CF0020EA2EC3CF029C072F02AC073F01E
:104F06000001746B000E000172250001606F800EB7
:104F1600000173210001616F100E00017421000170
:104F2600626F000E0001646FB40E636F01EC3CF01B
:104F3600020EA2EC3CF029C072F02AC073F0000108
:104F4600746B000E000172250001606F800E000177
:104F560073210001616F100E000174210001626F60
:104F6600000E0001646F1A0E636F01EC3CF0020E36
:104F7600A2EC3CF029C072F02AC073F00001746BF9
:104F8600000E000172250001606F800E0001732182
:104F96000001616F100E000174210001626F000EA6
:104FA6000001646F000E636F01EC3CF0020EA2EC90
:104FB6003CF029C072F02AC073F00001746B000E39
:104FC600000172250001626F800E0001732100014D
:104FD600636F100E000174210001646F5B0E000107
:104FE600656F0F0E0001666FCBEC39F0A2EC3CF05A
:104FF6000C0E00016B6FFF0E6C6FFF0E6D6FFF0ED8
:105006006E6F9AEC3BF029C072F02AC073F0000173
:10501600746B000E000172250001606F800E0001A6
:1050260073210001616F100E000174210001626F8F
:10503600010E0001646FCB0E636F01EC3CF0020EB3
:10504600A2EC3CF029C072F02AC073F00001746B28
:10505600000E000172250001606F800E00017321B1
:105066000001616F100E000174210001626F000ED5
:105076000001646FAE0E636F01EC3CF0020EA2EC11
:105086003CF029C072F02AC073F00001746B000E68
:10509600000172250001606F800E0001732100017E
:1050A600616F100E000174210001626F000E000195
:1050B600646F1C0E636F01EC3CF0020EA2EC3CF038
:1050C60029C072F02AC073F00001746B000E000153
:1050D60072250001606F800E000173210001616F6F
:1050E600100E000174210001626F000E0001646F52
:1050F600000E636F01EC3CF0020EA2EC3CF029C0FE
:1051060072F02AC073F00001746B000E0001722564
:105116000001626F800E000173210001636F100EA3
:10512600000174210001646F5E0E0001656F0F0EB1
:105136000001666FCBEC39F0A2EC3CF0020E0001E8
:105146006B6F000E6C6F000E6D6F1F0E6E6F9AEC1C
:105156003BF0140E00016B6F140E6C6F140E6D6F26
:10516600040E6E6F9AEC3BF0D60E00016B6F060EC6
:105176006C6F000E6D6F0D0E6E6F9AEC3BF0000EAD
:1051860000016B6F300E6C6F070E6D6F9E0E6E6FAB
:105196009AEC3BF03C0E00016B6F3C0E6C6F3C0EC4
:1051A6006D6F040E6E6F9AEC3BF0720E00016B6F22
:1051B600060E6C6F000E6D6F0D0E6E6F9AEC3BF067
:1051C600000E00016B6F300E6C6F070E6D6F9E0E3A
:1051D6006E6F9AEC3BF01200600E00016B6F000ED2
:1051E6006C6F000E6D6F0E0E6E6F9AEC3BF0000E3C
:1051F60000016B6F7D0E6C6FCA0E6D6F040E6E6FC5
:105206009AEC3BF0030E00016B6F000E6C6F000E04
:105216006D6F1F0E6E6F9AEC3BF06FD2000E0001A1
:105226006B6FF00E6C6F800E6D6FAF0E6E6F9AEC3B
:105236003BF0000E00016B6F300E6C6F870E6D6FCA
:10524600AF0E6E6F9AEC3BF0000E00016B6FF00E26
:105256006C6F800E6D6FAF0E6E6F9AEC3BF0000EAA
:1052660000016B6F300E6C6F870E6D6FB90E6E6F2F
:105276009AEC3BF0000E00016B6F400E6C6F870ED0
:105286006D6FB90E6E6F9AEC3BF0000E00016B6FFE
:10529600F00E6C6F800E6D6FB90E6E6F9AEC3BF070
:1052A6001200000E00016B6FF00E6C6F800E6D6FBA
:1052B600B40E6E6F9AEC3BF0000E00016B6F300E71
:1052C6006C6F870E6D6FB40E6E6F9AEC3BF0000E2E
:1052D60000016B6FF00E6C6F600E6D6FB40E6E6F2B
:1052E6009AEC3BF0000E00016B6FE00E6C6F010E46
:1052F6006D6FB20E6E6F9AEC3BF0000E00016B6F95
:10530600400E6C6FA70E6D6FB20E6E6F9AEC3BF08F
:10531600000E00016B6F400E6C6F670E6D6FB60E60
:105326006E6F9AEC3BF01200000E00016B6FF00EF0
:105336006C6F800E6D6FAF0E6E6F9AEC3BF0000EC9
:1053460000016B6FF00E6C6F800E6D6FB90E6E6F95
:105356009AEC3BF0000E00016B6F000E6C6F810E35
:105366006D6FB90E6E6F9AEC3BF0000E00016B6F1D
:10537600000E6C6F840E6D6FB90E6E6F9AEC3BF07B
:10538600000E00016B6F100E6C6F840E6D6FB90E00
:105396006E6F9AEC3BF0000E00016B6F100E6C6F97
:1053A600840E6D6FAF0E6E6F9AEC3BF0000E00012F
:1053B6006B6F200E6C6F840E6D6FAF0E6E6F9AEC76
:1053C6003BF0000E00016B6F300E6C6F870E6D6F39
:1053D600AF0E6E6F9AEC3BF0000E00016B6F300E55
:1053E6006C6FA70E6D6FAF0E6E6F9AEC3BF0000EF2
:1053F60000016B6F300E6C6F870E6D6FB90E6E6F9E
:105406009AEC3BF01200000E00016B6FF00E6C6F11
:10541600800E6D6FAF0E6E6F9AEC3BF0000E0001C2
:105426006B6FF00E6C6F600E6D6FB90E6E6F9AEC4F
:105436003BF0000E00016B6F000E6C6F810E6D6FFE
:10544600B90E6E6F9AEC3BF0000E00016B6F300EDA
:105456006C6F870E6D6FB90E6E6F9AEC3BF0000E97
:1054660000016B6F100E6C6F640E6D6FB90E6E6F70
:105476009AEC3BF0000E00016B6F100E6C6F840E01
:105486006D6FAF0E6E6F9AEC3BF0000E00016B6F06
:10549600300E6C6FA70E6D6FAF0E6E6F9AEC3BF011
:1054A600000E00016B6F300E6C6F670E6D6FB90EDC
:1054B6006E6F9AEC3BF01200000E00016B6FF00E5F
:1054C6006C6F800E6D6FAF0E6E6F9AEC3BF0000E38
:1054D60000016B6F000E6C6F840E6D6FAF0E6E6FFA
:1054E6009AEC3BF0000E00016B6F000E6C6F810EA4
:1054F6006D6FB90E6E6F9AEC3BF0000E00016B6F8C
:10550600300E6C6F870E6D6FB90E6E6F9AEC3BF0B6
:10551600000E00016B6F100E6C6F240E6D6FB90ECE
:105526006E6F9AEC3BF0000E00016B6F100E6C6F05
:10553600A40E6D6FAF0E6E6F9AEC3BF01200000E6C
:1055460000016B6FF00E6C6F800E6D6FAF0E6E6F9D
:105556009AEC3BF0000E00016B6FF00E6C6F600E64
:105566006D6FB90E6E6F9AEC3BF0000E00016B6F1B
:10557600000E6C6F810E6D6FAF0E6E6F9AEC3BF086
:10558600000E00016B6F000E6C6F840E6D6FAF0E18
:105596006E6F9AEC3BF0000E00016B6F100E6C6F95
:1055A600840E6D6FB90E6E6F9AEC3BF0000E000123
:1055B6006B6F200E6C6F870E6D6FB90E6E6F9AEC67
:1055C6003BF0000E00016B6F100E6C6F240E6D6FBA
:1055D600B90E6E6F9AEC3BF0000E00016B6F100E69
:1055E6006C6FA40E6D6FAF0E6E6F9AEC3BF0000EF3
:1055F60000016B6F300E6C6FA70E6D6FAF0E6E6F86
:105606009AEC3BF0000E00016B6F300E6C6F670E6C
:105616006D6FB90E6E6F9AEC3BF01200000E000132
:105626006B6FF00E6C6F800E6D6FAF0E6E6F9AEC37
:105636003BF0000E00016B6FF00E6C6F600E6D6F2D
:10564600B90E6E6F9AEC3BF0000E00016B6F000E08
:105656006C6F810E6D6FAF0E6E6F9AEC3BF0000EA5
:1056660000016B6F300E6C6F870E6D6FAF0E6E6F35
:105676009AEC3BF0000E00016B6F100E6C6F840EFF
:105686006D6FB90E6E6F9AEC3BF0000E00016B6FFA
:10569600200E6C6F870E6D6FB90E6E6F9AEC3BF035
:1056A600000E00016B6F100E6C6F240E6D6FB90E3D
:1056B6006E6F9AEC3BF0000E00016B6F100E6C6F74
:1056C600A40E6D6FAF0E6E6F9AEC3BF0000E0001EC
:1056D6006B6F300E6C6FA70E6D6FAF0E6E6F9AEC20
:1056E6003BF0000E00016B6F300E6C6F670E6D6F36
:1056F600B90E6E6F9AEC3BF0120072C074F073C074
:1057060075F000017551000AD8A412000001745109
:10571600000AD8B483D5010AD8B4C3D5030AD8B4CD
:1057260003D6010AD8B46FD6070AD8B4C5D6010A7B
:10573600D8B405D7030AD8A4120070D72E0E0001DC
:105746006B6FFF0E6C6FFF0E6D6FFF0E6E6F9AEC38
:105756003BF029C074F02AC075F00001766B000E8C
:10576600000174250001606F800E000175210001A3
:10577600616F100E000176210001626F000E0001BC
:10578600646F420E636F01EC3CF0020EA2EC3CF03B
:1057960029C074F02AC075F00001766B000E000176
:1057A60074250001606F800E000175210001616F94
:1057B600100E000176210001626F000E0001646F79
:1057C600820E636F01EC3CF0020EA2EC3CF029C0A5
:1057D60074F02AC075F00001766B000E0001742586
:1057E6000001606F800E000175210001616F100ECF
:1057F600000176210001626F000E0001646F1C0E2D
:10580600636F01EC3CF0020EA2EC3CF029C074F090
:105816002AC075F00001766B000E000174250001A8
:10582600606F800E000175210001616F100E00018E
:1058360076210001626F000E0001646F000E636F37
:1058460001EC3CF0020EA2EC3CF072C025F073C0F5
:1058560026F0000E286E0A0E276E71EC3AF025C06F
:105866006BF026C06CF00001000E6CBFFF0E6D6F72
:105876006E6F9AEC3BF00C0E00016B6FFF0E6C6FB7
:10588600FF0E6D6FFF0E6E6F9AEC3BF029C074F041
:105896002AC075F00001766B000E00017425000128
:1058A600606F800E000175210001616F100E00010E
:1058B60076210001626F000E0001646F5A0E636F5D
:1058C60001EC3CF0020EA2EC3CF029C074F02AC0B8
:1058D60075F00001766B000E000174250001606F03
:1058E600800E000175210001616F100E0001762106
:1058F6000001626F000E0001646F830E636F01EC9E
:105906003CF0020EA2EC3CF029C074F02AC075F0FF
:105916000001766B000E000174250001606F800E99
:10592600000175210001616F100E00017621000152
:10593600626F000E0001646F1C0E636F01EC3CF099
:10594600020EA2EC3CF029C074F02AC075F00001EA
:10595600766B000E000174250001606F800E000159
:1059660075210001616F100E000176210001626F42
:10597600000E0001646F000E636F01EC3CF0020E36
:10598600A2EC3CF029C074F02AC075F00001766BD9
:10599600000E000174250001626F800E0001752162
:1059A6000001636F100E000176210001646F600E26
:1059B6000001656F0F0E0001666FCBEC39F0A2ECAB
:1059C6003CF02E0E00016B6FFF0E6C6FFF0E6D6FBD
:1059D600FF0E6E6F9AEC3BF029C074F02AC075F08A
:1059E6000001766B000E000174250001606F800EC9
:1059F600000175210001616F100E00017621000182
:105A0600626F000E0001646F600E636F01EC3CF084
:105A1600020EA2EC3CF029C074F02AC075F0000119
:105A2600766B000E000174250001606F800E000188
:105A360075210001616F100E000176210001626F71
:105A4600000E0001646F820E636F01EC3CF0020EE3
:105A5600A2EC3CF029C074F02AC075F00001766B08
:105A6600000E000174250001606F800E0001752193
:105A76000001616F100E000176210001626F000EB9
:105A86000001646F1C0E636F01EC3CF0020EA2EC89
:105A96003CF029C074F02AC075F00001766B000E48
:105AA600000174250001606F800E00017521000160
:105AB600616F100E000176210001626F000E000179
:105AC600646F000E636F01EC3CF0020EA2EC3CF03A
:105AD60072C064F073C065F0000E0001676F0A0EB5
:105AE600666F20EC3AF0000164C06BF0000165C0FF
:105AF6006CF00001000E6CBFFF0E6D6F6E6F9AECBE
:105B06003BF012002E0E00016B6FFF0E6C6FFF0E46
:105B16006D6FFF0E6E6F9AEC3BF029C074F02AC0D1
:105B260075F00001766B000E000174250001606FB0
:105B3600800E000175210001616F100E00017621B3
:105B46000001626F000E0001646F420E636F01EC8C
:105B56003CF0020EA2EC3CF029C074F02AC075F0AD
:105B66000001766B000E000174250001606F800E47
:105B7600000175210001616F100E00017621000100
:105B8600626F000E0001646F590E636F01EC3CF00A
:105B9600020EA2EC3CF029C074F02AC075F0000198
:105BA600766B000E000174250001606F800E000107
:105BB60075210001616F100E000176210001626FF0
:105BC600000E0001646F1C0E636F01EC3CF0020EC8
:105BD600A2EC3CF029C074F02AC075F00001766B87
:105BE600000E000174250001606F800E0001752112
:105BF6000001616F100E000176210001626F000E38
:105C06000001646F000E636F01EC3CF0020EA2EC23
:105C16003CF0030E00016B6F000E6C6F000E6D6F93
:105C2600000E6E6F9AEC3BF00C0E00016B6FFF0ED0
:105C36006C6FFF0E6D6FFF0E6E6F9AEC3BF029C016
:105C460074F02AC075F00001766B000E0001742511
:105C56000001606F800E000175210001616F100E5A
:105C6600000176210001626F000E0001646F4E0E86
:105C7600636F01EC3CF0020EA2EC3CF029C074F01C
:105C86002AC075F00001766B000E00017425000134
:105C9600606F800E000175210001616F100E00011A
:105CA60076210001626F000E0001646F5A0E636F69
:105CB60001EC3CF0020EA2EC3CF029C074F02AC0C4
:105CC60075F00001766B000E000174250001606F0F
:105CD600800E000175210001616F100E0001762112
:105CE6000001626F000E0001646F1C0E636F01EC11
:105CF6003CF0020EA2EC3CF029C074F02AC075F00C
:105D06000001766B000E000174250001606F800EA5
:105D1600000175210001616F100E0001762100015E
:105D2600626F000E0001646F000E636F01EC3CF0C1
:105D3600020EA2EC3CF029C074F02AC075F00001F6
:105D4600766B000E000174250001626F800E000163
:105D560075210001636F100E000176210001646F4A
:105D6600600E0001656F0F0E0001666FCBEC39F017
:105D7600A2EC3CF02E0E00016B6FFF0E6C6FFF0E57
:105D86006D6FFF0E6E6F9AEC3BF029C074F02AC05F
:105D960075F00001766B000E000174250001606F3E
:105DA600800E000175210001616F100E0001762141
:105DB6000001626F000E0001646F530E636F01EC09
:105DC6003CF0020EA2EC3CF029C074F02AC075F03B
:105DD6000001766B000E000174250001606F800ED5
:105DE600000175210001616F100E0001762100018E
:105DF600626F000E0001646F590E636F01EC3CF098
:105E0600020EA2EC3CF029C074F02AC075F0000125
:105E1600766B000E000174250001606F800E000194
:105E260075210001616F100E000176210001626F7D
:105E3600000E0001646F1C0E636F01EC3CF0020E55
:105E4600A2EC3CF029C074F02AC075F00001766B14
:105E5600000E000174250001606F800E000175219F
:105E66000001616F100E000176210001626F000EC5
:105E76000001646F000E636F01EC3CF0020EA2ECB1
:105E86003CF0030E00016B6F000E6C6F000E6D6F21
:105E9600000E6E6F9AEC3BF012008B92680E0001BA
:105EA6006B6FE40EE82EFED76B2FFCD700F08B82CB
:105EB600680E00016B6FE40EE82EFED76B2FFCD741
:105EC60000F0000EBDEC3CF0440EBDEC3CF0620E62
:105ED600BDEC3CF0300E0001606F240E0001616FD6
:105EE600100E0001626F010E0001646FE00E636F19
:105EF60001EC3CF0440E0001606F240E0001616F5E
:105F0600100E0001626F010E0001646F100E636FC8
:105F160001EC3CF0280E0001606F240E0001616F59
:105F2600100E0001626F020E0001646F0D0E636FAA
:105F360001EC3CF0340E0001606F240E0001616F2D
:105F4600100E0001626F000E0001646F000E636F99
:105F560001EC3CF0380E0001606F240E0001616F09
:105F6600100E0001626F000E0001646F290E636F50
:105F760001EC3CF02C0E0001606F240E0001616FF5
:105F8600100E0001626F000E0001646F2B0E636F2E
:105F960001EC3CF03C0E0001606F240E0001616FC5
:105FA600100E0001626F010E0001646F1E0E636F1A
:105FB60001EC3CF0480E0001606F240E0001616F99
:105FC600100E0001626F000E0001646F000E636F19
:105FD60001EC3CF04C0E0001606F240E0001616F75
:105FE600100E0001626F000E0001646F0A0E636FEF
:105FF60001EC3CF0400E0001606F240E0001616F61
:10600600100E0001626F000E0001646F0C0E636FCC
:1060160001EC3CF0640E0001606F240E0001616F1C
:10602600100E0001626F000E0001636F43EC3CF03E
:106036005C0E0001606F240E0001616F100E0001FE
:10604600626F000E0001636F43EC3CF0580E0001D6
:10605600606F240E0001616F100E0001626F010E69
:106066000001646FB60E636F01EC3CF0600E000138
:10607600606F240E0001616F100E0001626F000E4A
:106086000001636F43EC3CF0680E0001606F240E64
:106096000001616F100E0001626F000E0001636F58
:1060A60043EC3CF0540E0001606F240E0001616F5A
:1060B600100E0001626F000E0001636F43EC3CF0AE
:1060C600000E0001606F000E0001616F100E0001EE
:1060D600626F000E0001636F1A0E646F000E656F2B
:1060E600020E666FBFEC3AF0040E0001606F000E00
:1060F6000001616F100E0001626F070E0001636FF1
:10610600000E646F000E656F260E666FBFEC3AF0E8
:10611600080E0001606F000E0001616F100E000195
:10612600626F000E0001636F000E646F000E656FF4
:10613600000E666FBFEC3AF0500E0001606F240E41
:106146000001616F100E0001626F020E0001636FA5
:1061560043EC3CF08C0E0001606F240E0001616F71
:10616600100E0001626FFC0E0001636F43EC3CF001
:10617600900E0001606F240E0001616F100E000189
:10618600626FFF0E0001636F43EC3CF06C0E000182
:10619600606F240E0001616F100E0001626F050E24
:1061A6000001636F43EC3CF0E80E266E240E276E6A
:1061B600100E286E48EC3BF026C029F027C02AF0C6
:1061C600E40E266E240E276E100E286E48EC3BF069
:1061D60029502618F5E12A502718D8B41200F0D70E
:1061E600000E00019B6F000E9A6F000E00019D6F5E
:1061F600000E9C6F000E00019F6F000E9E6F000E3A
:106206000001A16F000EA06F000E0001A36F000E2B
:10621600A26F000E0001A56F000EA46F000E000114
:10622600A76F000EA66F000E0001A96F000EA86FE3
:10623600000E0001AB6F000EAA6F000E0001976FF3
:10624600000E966F000E0001996F000E986F000EFB
:106256000001956F000E946F89928C9889908A9AA6
:106266008C9A8C96B0EC3CF0D7EC3CF0F28EF28C2B
:106276007080708A709E708C608A609C609460905A
:106286007680C80E0E01F46F000E0E01F56FC80E73
:106296000E01F06F200E0E01F16FC80E0E01EC6FAD
:1062A600400E0E01ED6FC80E0E01E86F600E0E0176
:1062B600E96FC80E0E01E46F800E0E01E56FC79EF2
:1062C600C78CC68AC688C690C692C694C69650EC37
:1062D6002FF0B0EC3CF09AC080F09BC081F09CC0DF
:1062E60082F09DC083F09EC084F09FC085F0A0C060
:1062F60086F0A1C087F0A2C088F0A3C089F0A4C030
:106306008AF0A5C08BF0A6C08CF0A7C08DF0A8C0FF
:106316008EF0A9C08FF0AAC090F0ABC091F05BECF4
:1063260039F00001AC51D8B4FCD7400E2E1850E11C
:10633600060E2F1830103110D8A44AD0345033C06E
:1063460092F00001936B92C093F00001926B0001F2
:10635600921100019A6F0001935100019B6F365014
:1063660035C092F00001936B92C093F00001926BDE
:1063760000019211256E00019351266E000E286EC3
:106386000A0E276E71EC3AF025C09CF026C09DF0EF
:1063960033500001926F936B0001923B933BF00EDA
:1063A600931792510F0B9313F00E9217385000016A
:1063B600921100019E6F0001935100019F6F39C039
:1063C600A0F00001A16B3AC0A2F00001A36B2BD094
:1063D600410E2E1813E1060E2F1830103110D8A4D6
:1063E6000DD033C096F00001976B34C098F00001D1
:1063F600996B39C0A4F00001A56B15D0420E2E187A
:1064060012E1060E2F1830103110D8A40CD033C06C
:10641600A6F00001A76B34C0A8F00001A96B35C037
:10642600AAF00001AB6B000E0001AC6FF28EF28C8D
:106436009AC080F09BC081F09CC082F09DC083F022
:106446009EC084F09FC085F0A0C086F0A1C087F0F2
:10645600A2C088F0A3C089F0A4C08AF0A5C08BF0C2
:10646600A6C08CF0A7C08DF0A8C08EF0A9C08FF092
:10647600AAC090F0ABC091F05BEC39F089928C9891
:1064860089908A9A8C9A8C964CD7000E166E60AEBE
:1064960083D062A61ED014C0D9FF15C0DAFF020E43
:1064A600DF6E64CF01F061CF02F062CF03F063507C
:1064B6003AEC34F020EE01F01450D9261550DA22C9
:1064C60001C0DEFF02C0DEFF03C0DEFF04C0DEFF48
:1064D60019D014C0D9FF15C0DAFF010EDF6E62CFE6
:1064E60001F0615005EC3BF020EE01F01450D92686
:1064F6001550DA2201C0DEFF02C0DEFF03C0DEFF58
:1065060004C0DEFF20EE05F01450D9261550DA221D
:1065160065CFDFFF20EE06F01450D9261550DA229B
:1065260066CFDFFF20EE07F01450D9261550DA2289
:1065360067CFDFFF20EE08F01450D9261550DA2277
:1065460068CFDFFF20EE09F01450D9261550DA2265
:1065560069CFDFFF20EE0AF01450D9261550DA2253
:106566006ACFDFFF20EE0BF01450D9261550DA2241
:106576006BCFDFFF20EE0CF01450D9261550DA222F
:106586006CCFDFFF20EE0DF01450D9261550DA221D
:106596006DCFDFFF609E89D00F0130AF88D00F012D
:1065A60032A71FD014C0D9FF15C0DAFF020EDF6E66
:1065B60034CF01F031CF02F032CF03F00F01335167
:1065C6003AEC34F020EE01F01450D9261550DA22B8
:1065D60001C0DEFF02C0DEFF03C0DEFF04C0DEFF37
:1065E6001AD014C0D9FF15C0DAFF010EDF6E32CF04
:1065F60001F00F01315105EC3BF020EE01F0145093
:10660600D9261550DA2201C0DEFF02C0DEFF03C024
:10661600DEFF04C0DEFF20EE05F01450D92615502B
:10662600DA2235CFDFFF20EE06F01450D9261550BA
:10663600DA2236CFDFFF20EE07F01450D9261550A8
:10664600DA2237CFDFFF20EE08F01450D926155096
:10665600DA2238CFDFFF20EE09F01450D926155084
:10666600DA2239CFDFFF20EE0AF01450D926155072
:10667600DA223ACFDFFF20EE0BF01450D926155060
:10668600DA223BCFDFFF20EE0CF01450D92615504E
:10669600DA223CCFDFFF20EE0DF01450D92615503C
:1066A600DA223DCFDFFF0F01309F010E166E779283
:1066B6001200090E00016B6F000E6C6F000E6D6FFD
:1066C6001F0E6E6F9AEC3BF03C0E00016B6F3C0E9A
:1066D6006C6F3C0E6D6F040E6E6F9AEC3BF0000E05
:1066E60000016B6F700E6C6FCD0E6D6FAB0E6E6F23
:1066F6009AEC3BF0000E00016B6F600E6C6FCE0ED5
:106706006D6F900E6E6F9AEC3BF0FF0E00016B6F93
:10671600FF0E6C6FFF0E6D6F040E6E6F9AEC3BF002
:106726000C0E00016B6FFF0E6C6FFF0E6D6FFF0E90
:106736006E6F9AEC3BF029C074F02AC075F0000128
:10674600766B000E000174250001606F800E00015B
:1067560075210001616F100E000176210001626F44
:10676600000E0001646FF00E636F01EC3CF0020E48
:10677600A2EC3CF029C074F02AC075F00001766BDB
:10678600000E000174250001606F800E0001752166
:106796000001616F100E000176210001626F000E8C
:1067A6000001646FDE0E636F01EC3CF0020EA2EC9A
:1067B6003CF029C074F02AC075F00001766B000E1B
:1067C600000174250001606F800E00017521000133
:1067D600616F100E000176210001626F000E00014C
:1067E600646F1C0E636F01EC3CF0020EA2EC3CF0F1
:1067F60029C074F02AC075F00001766B000E000106
:1068060074250001606F800E000175210001616F23
:10681600100E000176210001626F060E0001646F02
:10682600000E636F01EC3CF0020EA2EC3CF029C0B6
:1068360074F02AC075F00001766B000E0001742515
:106846000001626F800E000175210001636F100E5A
:10685600000176210001646F1F0E0001656F0F0EA7
:106866000001666FCBEC39F0A2EC3CF01200096E29
:10687600000E0A6E000E0B6E000E0C6E000E0D6EF4
:10688600000E106E000E116E000E126E000E136ECC
:106896000350030B0E6E0338E842070B0F6E0250CF
:1068A600056E066AD89005360636D8900536063641
:1068B600D8900536063605C010F006C011F0000E59
:1068C60011BEFF0E126E136E0F501024106E000EC6
:1068D6001120116E000E1220126E000E1320136E80
:1068E60010C005F011C006F012C007F013C008F082
:1068F600020ED8900536063607360836E82EF9D742
:1069060005C010F006C011F007C012F008C013F061
:106916000E501024106E000E1120116E000E122063
:10692600126E000E1320136E10C006F011C007F091
:1069360012C008F0056A05C010F006C011F007C0C5
:1069460012F008C013F009501024106E000E11202A
