:0400000093EF38F052
:10711800000EC76E210EC66E000EC86E1200306AD1
:107128002F6A2E6A2D6A0001BEEF39F0016EC69EE5
:1071380001C0C9FFC7A0FED7C9501200600ED36EA8
:10714800000ED26E000E9B6E000E9A6E1200DCECE2
:1071580038F0A2EC38F08CEC38F021EC3AF0120060
:10716800026E899202509AEC38F0000E9AEC38F0D0
:10717800000E9AEC38F08982120089920450800936
:107188009AEC38F002C006F003C007F004C008F01B
:1071980007C006F008C007F0086A06509AEC38F0F5
:1071A80002509AEC38F005509AEC38F089821200B7
:1071B800000E8D6E000E8C6E070E896E000E8A6EA4
:1071C800000E8B6E070E966EE90E926EFB0E936E96
:1071D800D60E946EFE0E956EF80E0F015D6F770E4B
:1071E8000F015C6F0F015B691200899204508009DE
:1071F8009AEC38F002C007F003C008F004C009F0A8
:1072080008C007F009C008F0096A07509AEC38F07E
:1072180002509AEC38F005509AEC38F006509AEC87
:1072280038F089821200899204509AEC38F002C032
:1072380005F003C006F004C007F006C005F007C05B
:1072480006F0076A05509AEC38F002509AEC38F0CC
:10725800000E9AEC38F0000E9AEC38F0C9CF08F01E
:10726800000E9AEC38F08982C950056E0850026EFB
:1072780005C003F012008992045080099AEC38F096
:1072880002C009F003C00AF004C00BF00AC009F0FC
:107298000BC00AF00B6A09509AEC38F002509AECCD
:1072A80038F005509AEC38F006509AEC38F0075050
:1072B8009AEC38F005C009F006C00AF007C00BF0D8
:1072C80008C00CF0110E05D0D8900C320B320A32DF
:1072D8000932E82EF9D70AC009F00BC00AF00CC031
:1072E8000BF00C6A09509AEC38F089821200076E8C
:1072F800000E086E000E096E000E0A6E000E0B6E70
:107308000750056E066AD89005360636D8900536B9
:107318000636D8900536063605C00CF006C00DF0C6
:10732800000E0DBEFF0E0E6E0F6E01C005F0050EAD
:10733800066ED8900532062EFCD705500C240C6E2C
:10734800000E0D200D6E000E0E200E6E000E0F208A
:107358000F6E0CC008F00DC009F00EC00AF00FC087
:107368000BF008C001F009C002F00AC003F00BC01E
:1073780004F01200ABEC38F07080708A709E708C4C
:10738800608A609C60946090959094908B900F01B7
:107398005D930F015D9592929294949A9496928A35
:1073A800C79EC78CC68AC688C690C692C694C6961B
:1073B8001CEC3DF08C80000E1C6EDE0E1B6E000E69
:1073C8001E6EDE0E1D6E1F0E146E000E156E07EC7F
:1073D8003CF00009D8B419D0400E201817E1060E69
:1073E800211822102310D8A411D025C01BF01C6A24
:1073F80026C01DF01E6A8C90680E1A6EE40EE82EE8
:10740800FED71A2EFCD700D001D08C80010E1F6E3B
:10741800200E206E010E216E000E226E000E236ECD
:10742800080E246E1BC025F01DC026F01F0E136E1B
:10743800000E146E61EC3EF0BED7800E6F6E6E507B
:10744800E00B800AD8A4FBD7000E726E0E01FA6911
:107458000E01FB690E01F8690E01F9690E01FE695A
:107468000E01FF690E01FC690E01FD69000E0E0197
:10747800E26F000E0E01E36FC80E0E01E06F000E02
:107488000E01E16F000E0E01E66F000E0E01E76FB0
:10749800000E0E01E46F000E0E01E56F000E0E01E6
:1074A800EA6F000E0E01EB6F000E0E01E86F000E82
:1074B8000E01E96F000E0E01EE6F000E0E01EF6F68
:1074C800000E0E01EC6F000E0E01ED6F000E0E01A6
:1074D800F26F000E0E01F36F000E0E01F06F000E3A
:1074E8000E01F16F000E0E01F66F000E0E01F76F20
:1074F800000E0E01F46F000E0E01F56F000E0E0166
:10750800436F980E0E01446F010E0E01456F000E79
:107518006F6E6ECF01F0E00E0116D8B41200F9D7E5
:10752800096E000E0A6E000E0B6E000E0C6E000E39
:107538000D6E000E106E000E116E000E126E000E13
:10754800136E0350030B0E6E0338E842070B0F6EE1
:107558000250056E066AD89005360636D89005366C
:107568000636D8900536063605C010F006C011F06C
:10757800000E11BEFF0E126E136E0F501024106E07
:10758800000E1120116E000E1220126E000E132034
:10759800136E10C005F011C006F012C007F013C03A
:1075A80008F0020ED8900536063607360836E82E5B
:1075B800F9D705C010F006C011F007C012F008C0D6
:1075C80013F00E501024106E000E1120116E000ED4
:1075D8001220126E000E1320136E10C006F011C098
:1075E80007F012C008F0056A05C010F006C011F0D7
:1075F80007C012F008C013F009501024106E000ED6
:107608001120116E000E1220126E000E1320136E40
:1076180010C006F011C007F012C008F0056A05C0D6
:1076280010F006C011F007C012F008C013F00150A6
:107638001024106E000E1120116E000E1220126E12
:10764800000E1320136E10C00AF011C00BF012C008
:107658000CF013C00DF00AC001F00BC002F00CC012
:1076680003F00DC004F01200000E126E020E051891
:10767800D8A481D008C0D9FF09C0DAFF01C0DFFF54
:1076880001C00EF002C00FF003C010F004C011F0EA
:107698000FC00EF010C00FF011C010F0116A0EC02C
:1076A80001F00FC002F010C003F011C004F006C0D2
:1076B800D9FF07C0DAFF01C0DFFF01C00EF002C02A
:1076C8000FF003C010F004C011F00FC00EF010C08E
:1076D8000FF011C010F0116A0EC001F00FC002F0D7
:1076E80010C003F011C004F00150030B126E01C06A
:1076F8000EF002C00FF003C010F004C011F0030E2A
:10770800D8900E360F3610361136E82EF9D70EC03F
:1077180001F00FC002F010C003F011C004F00150D6
:10772800E00B1224126E1250080F126E1250EB0B5F
:107738000CC0D9FF0DC0DAFFDF6E01C00EF002C029
:107748000FF003C010F004C011F00FC00EF010C00D
:107758000FF011C010F0116A0EC001F00FC002F056
:1077680010C003F011C004F00AC0D9FF0BC0DAFF43
:1077780001C0DFFF120006C0D9FF07C0DAFF000E04
:10778800DF6E08C0D9FF09C0DAFF000EDF6E01C046
:107798000EF002C00FF003C010F004C011F0050E87
:1077A800D8900E360F3610361136E82EF9D70EC09F
:1077B80001F00FC002F010C003F011C004F00CC0BB
:1077C800D9FF0DC0DAFF01C0DFFF01C00EF002C013
:1077D8000FF003C010F004C011F00FC00EF010C07D
:1077E8000FF011C010F0116A0EC001F00FC002F0C6
:1077F80010C003F011C004F00AC0D9FF0BC0DAFFB3
:1078080001C0DFFF1200000E166E60AE83D062A6C4
:107818001ED014C0D9FF15C0DAFF020EDF6E64CF88
:1078280001F061CF02F062CF03F0635094EC3AF0BC
:1078380020EE01F01450D9261550DA2201C0DEFFDF
:1078480002C0DEFF03C0DEFF04C0DEFF19D014C093
:10785800D9FF15C0DAFF010EDF6E62CF01F061506B
:107868007BEC39F020EE01F01450D9261550DA22BD
:1078780001C0DEFF02C0DEFF03C0DEFF04C0DEFF82
:1078880020EE05F01450D9261550DA2265CFDFFF17
:1078980020EE06F01450D9261550DA2266CFDFFF05
:1078A80020EE07F01450D9261550DA2267CFDFFFF3
:1078B80020EE08F01450D9261550DA2268CFDFFFE1
:1078C80020EE09F01450D9261550DA2269CFDFFFCF
:1078D80020EE0AF01450D9261550DA226ACFDFFFBD
:1078E80020EE0BF01450D9261550DA226BCFDFFFAB
:1078F80020EE0CF01450D9261550DA226CCFDFFF99
:1079080020EE0DF01450D9261550DA226DCFDFFF86
:10791800609E89D00F0130AF88D00F0132A71FD0E9
:1079280014C0D9FF15C0DAFF020EDF6E34CF01F0A4
:1079380031CF02F032CF03F00F01335194EC3AF01B
:1079480020EE01F01450D9261550DA2201C0DEFFCE
:1079580002C0DEFF03C0DEFF04C0DEFF1AD014C081
:10796800D9FF15C0DAFF010EDF6E32CF01F00F012B
:1079780031517BEC39F020EE01F01450D926155026
:10798800DA2201C0DEFF02C0DEFF03C0DEFF04C052
:10799800DEFF20EE05F01450D9261550DA2235CF37
:1079A800DFFF20EE06F01450D9261550DA2236CF24
:1079B800DFFF20EE07F01450D9261550DA2237CF12
:1079C800DFFF20EE08F01450D9261550DA2238CF00
:1079D800DFFF20EE09F01450D9261550DA2239CFEE
:1079E800DFFF20EE0AF01450D9261550DA223ACFDC
:1079F800DFFF20EE0BF01450D9261550DA223BCFCA
:107A0800DFFF20EE0CF01450D9261550DA223CCFB7
:107A1800DFFF20EE0DF01450D9261550DA223DCFA5
:107A2800DFFF0F01309F010E166E7792165012007D
:107A38008994680E0D6EE40EE82EFED70D2EFCD745
:107A480000D08984680E0D6EE40EE82EFED70D2E48
:107A5800FCD700D0000EB4EC38F0440EB4EC38F08B
:107A6800620EB4EC38F0300E026E240E036E100E67
:107A7800046E010E066EE00E056EF9EC38F0440E49
:107A8800026E240E036E100E046E010E066E100EAA
:107A9800056EF9EC38F0280E026E240E036E100EF7
:107AA800046E020E066E0D0E056EF9EC38F0340EFB
:107AB800026E240E036E100E046E000E066E000E8B
:107AC800056EF9EC38F0380E026E240E036E100EB7
:107AD800046E000E066E290E056EF9EC38F02C0EB9
:107AE800026E240E036E100E046E000E066E2B0E30
:107AF800056EF9EC38F03C0E026E240E036E100E83
:107B0800046E010E066E1E0E056EF9EC38F0480E76
:107B1800026E240E036E100E046E000E066E000E2A
:107B2800056EF9EC38F04C0E026E240E036E100E42
:107B3800046E000E066E0A0E056EF9EC38F0400E63
:107B4800026E240E036E100E046E000E066E0C0EEE
:107B5800056EF9EC38F0640E026E240E036E100EFA
:107B6800046E000E056EC1EC38F05C0E026E240E39
:107B7800036E100E046E000E056EC1EC38F0580E40
:107B8800026E240E036E100E046E010E066EB60E03
:107B9800056EF9EC38F0600E026E240E036E100EBE
:107BA800046E000E056EC1EC38F0680E026E240EED
:107BB800036E100E046E000E056EC1EC38F0540E04
:107BC800026E240E036E100E046E000E056EC1ECDC
:107BD80038F0000E026E000E036E100E046E000EDA
:107BE800056EFF0E066EFF0E076E020E086E3FEC66
:107BF80039F0040E026E000E036E100E046E070EAE
:107C0800056E000E066E000E076E260E086E3FEC1F
:107C180039F0080E026E000E036E100E046E000E90
:107C2800056E000E066E000E076E000E086E3FEC25
:107C380039F0500E026E240E036E100E046E020E02
:107C4800056EC1EC38F08C0E026E240E036E100E19
:107C5800046EFC0E056EC1EC38F0900E026E240E18
:107C6800036E100E046EFF0E056EC1EC38F06C0E3C
:107C7800026E240E036E100E046E050E056EC1EC26
:107C880038F0E80E026E240E036E100E046E17EC28
:107C980039F002C02DF003C02EF0E40E026E240E5F
:107CA800036E100E046E17EC39F02D500218F5E132
:107CB8002E500318D8B41200F0D7000E166E000E1E
:107CC800176E000E186E000E196E000E156E0F015D
:107CD80020B784D020EE01F01350D9261450DA22B0
:107CE800DECF01F0DECF02F0DECF03F0DECF04F00E
:107CF80013C0D9FF14C0DAFFDF50056E160E066EEA
:107D0800000E076E170E086E000E096E180E0A6E2A
:107D1800000E0B6E190E0C6E000E0D6E38EC3BF05B
:107D280016C023FF17C024FF18C021FF19C022FF67
:107D380020EE05F01350D9261450DA22DF500F0137
:107D4800256F20EE06F01350D9261450DA22DF50A2
:107D58000F01266F20EE07F01350D9261450DA22AF
:107D6800DF500F01276F20EE08F01350D92614506A
:107D7800DA22DF500F01286F20EE09F01350D926C0
:107D88001450DA22DF500F01296F20EE0AF0135049
:107D9800D9261450DA22DF500F012A6F20EE0BF09B
:107DA8001350D9261450DA22DF500F012B6F20EE22
:107DB8000CF01350D9261450DA22DF500F012C6F23
:107DC80020EE0DF01350D9261450DA22DF500F019F
:107DD8002D6F0F012087010E156E12000F0110B7CD
:107DE80084D020EE01F01350D9261450DA22DECFC9
:107DF80001F0DECF02F0DECF03F0DECF04F013C0D7
:107E0800D9FF14C0DAFFDF50056E160E066E000E9D
:107E1800076E170E086E000E096E180E0A6E000E19
:107E28000B6E190E0C6E000E0D6E38EC3BF016C082
:107E380013FF17C014FF18C011FF19C012FF20EE5E
:107E480005F01350D9261450DA22DF500F01156FB0
:107E580020EE06F01350D9261450DA22DF500F0115
:107E6800166F20EE07F01350D9261450DA22DF508F
:107E78000F01176F20EE08F01350D9261450DA229C
:107E8800DF500F01186F20EE09F01350D926145057
:107E9800DA22DF500F01196F20EE0AF01350D926AD
:107EA8001450DA22DF500F011A6F20EE0BF0135036
:107EB800D9261450DA22DF500F011B6F20EE0CF088
:107EC8001350D9261450DA22DF500F011C6F20EE10
:107ED8000DF01350D9261450DA22DF500F011D6F10
:107EE8000F011087010E156E12000F0100B7120066
:107EF80020EE01F01350D9261450DA22DECF01F01B
:107F0800DECF02F0DECF03F0DECF04F013C0D9FFDE
:107F180014C0DAFFDF50056E160E066E000E076EEF
:107F2800170E086E000E096E180E0A6E000E0B6E04
:107F3800190E0C6E000E0D6E38EC3BF016C003FFE8
:107F480017C004FF18C001FF19C002FF20EE05F09A
:107F58001350D9261450DA22DF500F01056F20EE96
:107F680006F01350D9261450DA22DF500F01066F9D
:107F780020EE07F01350D9261450DA22DF500F01F3
:107F8800076F20EE08F01350D9261450DA22DF507C
:107F98000F01086F20EE09F01350D9261450DA2289
:107FA800DF500F01096F20EE0AF01350D926145044
:107FB800DA22DF500F010A6F20EE0BF01350D9269A
:107FC8001450DA22DF500F010B6F20EE0CF0135023
:107FD800D9261450DA22DF500F010C6F20EE0DF075
:107FE8001350D9261450DA22DF500F010D6F0F01FC
:087FF8000087010E156E120056
:020000040020DA
:08000000FFFFFFFFFFFFFFFF00
:020000040030CA
:0E00000015037F7CFF8991FF0FC00FE00F40BA
:00000001FF
