:0400000075EF00F0A8
:100008003E82FACF10F0FBCF11F0E9CF12F0EACF21
:1000180013F0E1CF14F0E2CF15F0D9CF16F0DACF14
:1000280017F0F3CF18F0F4CF19F0F6CF1AF0F7CF96
:100038001BF0F8CF1CF0F5CF1DF03EC01EF03FC0FE
:100048001FF040C020F041C021F077A024D0769066
:10005800010E2C6E62CF01F0615073EC34F001C0D8
:100068002DF002C02EF003C02FF004C030F065CF91
:1000780031F066CF32F067CF33F068CF34F069CF14
:1000880035F06ACF36F06BCF37F06CCF38F06DCFE4
:1000980039F0609E768021C041F020C040F01FC03A
:1000A8003FF01EC03EF01DC0F5FF1CC0F8FF1BC08E
:1000B800F7FF1AC0F6FF19C0F4FF18C0F3FF17C006
:1000C800DAFF16C0D9FF15C0E2FF14C0E1FF13C064
:1000D800EAFF12C0E9FF11C0FBFF10C0FAFF3E9211
:0600E8001100ABEF36F041
:100F00000053504545440057415445520050524506
:100F1000535300564F4C54530068656C6C6F00522D
:100F20003138200055534544004655454C00544542
:100F30004D50004C415354004245535400424154DB
:100F400054004B5048004F494C0052504D004C410A
:100F50005000313000313100313200545000250052
:100F60002E003300340035003600370038003900D9
:050F70003A006B0000D7
:100F76006DC022F06EC023F0030E256EE80E246EBF
:100F8600B6EC34F022C076F023C077F0000E256E62
:100F9600640E246E6DC022F06EC023F0B6EC34F001
:100FA60022C060F023C061F0000E0001636F0A0EDC
:100FB600626F36EC35F060C074F061C075F0FF0EFC
:100FC6000001666FFF0E676FFF0E686F040E696F94
:100FD60019EC36F0090E0001666FFF0E676FFF0E03
:100FE600686FFF0E696F19EC36F0320E0001666FFE
:100FF600320E676F320E686F000E696F19EC36F0AD
:10100600130E0001666FFF0E676FFF0E686FFF0E0F
:10101600696F19EC36F03AC06FF03BC070F0000112
:10102600716B000E6F25236E800E7021246E100EDC
:101036007121256E000E276EF00E266EFBEC35F044
:10104600020E9DEC36F03AC06FF03BC070F0000126
:10105600716B000E6F25236E800E7021246E100EAC
:101066007121256E000E276E730E266EFBEC35F091
:10107600020E9DEC36F03AC06FF03BC070F00001F6
:10108600716B000E6F25236E800E7021246E100E7C
:101096007121256E000E276E820E266EFBEC35F052
:1010A600020E9DEC36F03AC06FF03BC070F00001C6
:1010B600716B000E6F25236E800E7021246E100E4C
:1010C6007121256E510E276E000E266EFBEC35F053
:1010D600020E9DEC36F03AC06FF03BC070F0000196
:1010E600716B000E6F25236E800E7021246E100E1C
:1010F6007121256E000E276E0A0E266EFBEC35F06A
:10110600020E9DEC36F03AC06FF03BC070F0000165
:10111600716B000E6F25236E800E7021246E100EEB
:101126007121256E000E276E050E266EFBEC35F03E
:10113600020E9DEC36F03AC06FF03BC070F0000135
:10114600716B000E6F25236E800E7021246E100EBB
:101156007121256E000E276E000E266EFBEC35F013
:10116600020E9DEC36F03AC06FF03BC070F0000105
:10117600716B000E6F25236E800E7021246E100E8B
:101186007121256E000E276E320E266EFBEC35F0B1
:10119600020E9DEC36F0000E0001666F000E676FC2
:1011A600FF0E686F040E696F19EC36F0000177BF09
:1011B60006D0775103E1020E765DD8B0CBD0130E80
:1011C600666FFF0E676FFF0E686FFF0E696F19EC93
:1011D60036F03AC06FF03BC070F00001716B000E44
:1011E6006F25236E800E7021246E100E7121256EE0
:1011F600000E276EF00E266EFBEC35F0020E9DEC0F
:1012060036F03AC06FF03BC070F00001716B000E13
:101216006F25236E800E7021246E100E7121256EAF
:10122600000E276E730E266EFBEC35F0020E9DEC5B
:1012360036F03AC06FF03BC070F00001716B000EE3
:101246006F25236E800E7021246E100E7121256E7F
:10125600000E276E820E266EFBEC35F0020E9DEC1C
:1012660036F03AC06FF03BC070F00001716B000EB3
:101276006F25236E800E7021246E100E7121256E4F
:10128600310E276E000E266EFBEC35F0020E9DEC3D
:1012960036F03AC06FF03BC070F00001716B000E83
:1012A6006F25236E800E7021246E100E7121256E1F
:1012B600000E276E0A0E266EFBEC35F0020E9DEC34
:1012C60036F03AC06FF03BC070F00001716B000E53
:1012D6006F25236E800E7021246E100E7121256EEF
:1012E600000E276E050E266EFBEC35F0020E9DEC09
:1012F60036F03AC06FF03BC070F00001716B000E23
:101306006F25236E800E7021246E100E7121256EBE
:1013160076C026F077C027F0FBEC35F0020E9DEC88
:1013260036F03AC06FF03BC070F00001716B000EF2
:101336006F25236E800E7021246E100E7121256E8E
:10134600000E276E320E266EFBEC35F0020E9DEC7B
:1013560036F0ECD0FE0E00017625226EFF0E7721C8
:10136600236E000E256E050E246E8AEC36F022C022
:101376006FF023C070F074C022F075C023F0000E29
:10138600256E020E246EB6EC34F0225000016F2555
:10139600726F23507021736F130E666FFF0E676FA7
:1013A600FF0E686FFF0E696F19EC36F03AC06FF0EA
:1013B6003BC070F00001716B000E6F25236E800E2E
:1013C6007021246E100E7121256E000E276EF00E10
:1013D600266EFBEC35F0020E9DEC36F03AC06FF04F
:1013E6003BC070F00001716B000E6F25236E800EFE
:1013F6007021246E100E7121256E000E276E730E5D
:10140600266EFBEC35F0020E9DEC36F03AC06FF01E
:101416003BC070F00001716B000E6F25236E800ECD
:101426007021246E100E7121256E000E276E820E1D
:10143600266EFBEC35F0020E9DEC36F03AC06FF0EE
:101446003BC070F00001716B000E6F25236E800E9D
:101456007021246E100E7121256E310E276E000E3E
:10146600266EFBEC35F0020E9DEC36F03AC06FF0BE
:101476003BC070F00001716B000E6F25236E800E6D
:101486007021246E100E7121256E000E276E0A0E35
:10149600266EFBEC35F0020E9DEC36F03AC06FF08E
:1014A6003BC070F00001716B000E6F25236E800E3D
:1014B6007021246E100E7121256E000E276E050E0A
:1014C600266EFBEC35F0020E9DEC36F03AC06FF05E
:1014D6003BC070F00001716B000E6F25236E800E0D
:1014E6007021246E100E7121256E72C026F073C015
:1014F60027F0FBEC35F0020E9DEC36F03AC06FF0AB
:101506003BC070F00001716B000E6F25236E800EDC
:101516007021246E100E7121256E000E276E320E7C
:10152600266EFBEC35F0020E9DEC36F0FF0E000148
:10153600666FFF0E676FFF0E686F040E696F19EC1A
:1015460036F02E0E0001666FFF0E676FFF0E686F96
:10155600FF0E696F19EC36F03AC06FF03BC070F0C1
:101566000001716B000E6F25236E800E7021246EB4
:10157600100E7121256E000E276EED0E266EFBEC09
:1015860035F0020E9DEC36F03AC06FF03BC070F0BD
:101596000001716B000E6F25236E800E7021246E84
:1015A600100E7121256E000E276E590E266EFBEC6D
:1015B60035F0020E9DEC36F03AC06FF03BC070F08D
:1015C6000001716B000E6F25236E800E7021246E54
:1015D600100E7121256E000E276E1F0E266EFBEC77
:1015E60035F0020E9DEC36F03AC06FF03BC070F05D
:1015F6000001716B000E6F25236E800E7021246E24
:10160600100E7121256E080E276E000E266EFBEC5D
:1016160035F0020E9DEC36F076C066F077C067F0C6
:101626000001000E67BFFF0E686F696F19EC36F098
:101636002E0E0001666FFF0E676FFF0E686FFF0EBE
:10164600696F19EC36F03AC06FF03BC070F00001DC
:10165600716B000E6F25236E800E7021246E100EA6
:101666007121256E000E276EF30E266EFBEC35F00B
:10167600020E9DEC36F03AC06FF03BC070F00001F0
:10168600716B000E6F25236E800E7021246E100E76
:101696007121256E000E276E590E266EFBEC35F075
:1016A600020E9DEC36F03AC06FF03BC070F00001C0
:1016B600716B000E6F25236E800E7021246E100E46
:1016C6007121256E000E276E1F0E266EFBEC35F07F
:1016D600020E9DEC36F03AC06FF03BC070F0000190
:1016E600716B000E6F25236E800E7021246E100E16
:1016F6007121256E000E276E000E266EFBEC35F06E
:10170600020E9DEC36F074C066F075C067F00001FD
:10171600000E67BFFF0E686F696F19EC36F00C0E8E
:101726000001666FFF0E676FFF0E686FFF0E696F31
:1017360019EC36F03AC06FF03BC070F00001716BE7
:10174600000E6F25236E800E7021246E100E7121FF
:10175600256E000E276EB70E266EFBEC35F0020ED8
:101766009DEC36F03AC06FF03BC070F00001716B33
:10177600000E6F25236E800E7021246E100E7121CF
:10178600256E000E276EA10E266EFBEC35F0020EBE
:101796009DEC36F03AC06FF03BC070F00001716B03
:1017A600000E6F25236E800E7021246E100E71219F
:1017B600256E000E276E1C0E266EFBEC35F0020E13
:1017C6009DEC36F03AC06FF03BC070F00001716BD3
:1017D600000E6F25236E800E7021246E100E71216F
:1017E600256E000E276E000E266EFBEC35F0020EFF
:1017F6009DEC36F03AC06FF03BC070F00001716BA3
:10180600000E6F25606F800E7021616F100E7121C2
:10181600626F590E636F0F0E646FE3EC33F09DEC4D
:1018260036F00C0E0001666FFF0E676FFF0E686FD5
:10183600FF0E696F19EC36F03AC06FF03BC070F0DE
:101846000001716B000E6F25236E800E7021246ED1
:10185600100E7121256E000E276EA00E266EFBEC73
:1018660035F0020E9DEC36F03AC06FF03BC070F0DA
:101876000001716B000E6F25236E800E7021246EA1
:10188600100E7121256E000E276E820E266EFBEC61
:1018960035F0020E9DEC36F03AC06FF03BC070F0AA
:1018A6000001716B000E6F25236E800E7021246E71
:1018B600100E7121256E000E276E1C0E266EFBEC97
:1018C60035F0020E9DEC36F03AC06FF03BC070F07A
:1018D6000001716B000E6F25236E800E7021246E41
:1018E600100E7121256E000E276E000E266EFBEC83
:1018F60035F0020E9DEC36F03AC06FF03BC070F04A
:101906000001716B000E6F25606F800E7021616F94
:10191600100E7121626F620E636F0F0E646FE3EC3F
:1019260033F09DEC36F00C0E0001666FFF0E676F0C
:10193600FF0E686FFF0E696F19EC36F03AC06FF054
:101946003BC070F00001716B000E6F25236E800E98
:101956007021246E100E7121256E000E276E9B0ECF
:10196600266EFBEC35F0020E9DEC36F03AC06FF0B9
:101976003BC070F00001716B000E6F25236E800E68
:101986007021246E100E7121256E000E276E5C0EDE
:10199600266EFBEC35F0020E9DEC36F03AC06FF089
:1019A6003BC070F00001716B000E6F25236E800E38
:1019B6007021246E100E7121256E000E276E1C0EEE
:1019C600266EFBEC35F0020E9DEC36F03AC06FF059
:1019D6003BC070F00001716B000E6F25236E800E08
:1019E6007021246E100E7121256E000E276E000EDA
:1019F600266EFBEC35F0020E9DEC36F03AC06FF029
:101A06003BC070F00001716B000E6F25606F800E99
:101A16007021616F100E7121626F640E636F0F0E7D
:101A2600646FE3EC33F09DEC36F00C0E0001666F4C
:101A3600FF0E676FFF0E686FFF0E696F19EC36F0C9
:101A46003AC06FF03BC070F00001716B000E6F255D
:101A5600236E800E7021246E100E7121256E000EED
:101A6600276EAB0E266EFBEC35F0020E9DEC36F0C3
:101A76003AC06FF03BC070F00001716B000E6F252D
:101A8600236E800E7021246E100E7121256E000EBD
:101A9600276E3A0E266EFBEC35F0020E9DEC36F004
:101AA6003AC06FF03BC070F00001716B000E6F25FD
:101AB600236E800E7021246E100E7121256E000E8D
:101AC600276E1C0E266EFBEC35F0020E9DEC36F0F2
:101AD6003AC06FF03BC070F00001716B000E6F25CD
:101AE600236E800E7021246E100E7121256E000E5D
:101AF600276E000E266EFBEC35F0020E9DEC36F0DE
:101B06003AC06FF03BC070F00001716B000E6F259C
:101B1600606F800E7021616F100E7121626F660E0C
:101B2600636F0F0E646FE3EC33F09DEC36F00C0E32
:101B36000001666FFF0E676FFF0E686FFF0E696F1D
:101B460019EC36F03AC06FF03BC070F00001716BD3
:101B5600000E6F25236E800E7021246E100E7121EB
:101B6600256E000E276EC90E266EFBEC35F0020EB2
:101B76009DEC36F03AC06FF03BC070F00001716B1F
:101B8600000E6F25236E800E7021246E100E7121BB
:101B9600256E000E276E210E266EFBEC35F0020E2A
:101BA6009DEC36F03AC06FF03BC070F00001716BEF
:101BB600000E6F25236E800E7021246E100E71218B
:101BC600256E000E276E1C0E266EFBEC35F0020EFF
:101BD6009DEC36F03AC06FF03BC070F00001716BBF
:101BE600000E6F25236E800E7021246E100E71215B
:101BF600256E000E276E000E266EFBEC35F0020EEB
:101C06009DEC36F03AC06FF03BC070F00001716B8E
:101C1600000E6F25606F800E7021616F100E7121AE
:101C2600626F680E636F0F0E646FE3EC33F09DEC2A
:101C360036F00C0E0001666FFF0E676FFF0E686FC1
:101C4600FF0E696F19EC36F03AC06FF03BC070F0CA
:101C56000001716B000E6F25236E800E7021246EBD
:101C6600100E7121256E000E276EEB0E266EFBEC14
:101C760035F0020E9DEC36F03AC06FF03BC070F0C6
:101C86000001716B000E6F25236E800E7021246E8D
:101C9600100E7121256E000E276E1A0E266EFBECB5
:101CA60035F0020E9DEC36F03AC06FF03BC070F096
:101CB6000001716B000E6F25236E800E7021246E5D
:101CC600100E7121256E000E276E1C0E266EFBEC83
:101CD60035F0020E9DEC36F03AC06FF03BC070F066
:101CE6000001716B000E6F25236E800E7021246E2D
:101CF600100E7121256E000E276E000E266EFBEC6F
:101D060035F0020E9DEC36F03AC06FF03BC070F035
:101D16000001716B000E6F25606F800E7021616F80
:101D2600100E7121626F6A0E636F0F0E646FE3EC23
:101D360033F09DEC36F00C0E0001666FFF0E676FF8
:101D4600FF0E686FFF0E696F19EC36F03AC06FF040
:101D56003BC070F00001716B000E6F25236E800E84
:101D66007021246E100E7121256E010E276E0D0E48
:101D7600266EFBEC35F0020E9DEC36F03AC06FF0A5
:101D86003BC070F00001716B000E6F25236E800E54
:101D96007021246E100E7121256E000E276E210E05
:101DA600266EFBEC35F0020E9DEC36F03AC06FF075
:101DB6003BC070F00001716B000E6F25236E800E24
:101DC6007021246E100E7121256E000E276E1C0EDA
:101DD600266EFBEC35F0020E9DEC36F03AC06FF045
:101DE6003BC070F00001716B000E6F25236E800EF4
:101DF6007021246E100E7121256E000E276E000EC6
:101E0600266EFBEC35F0020E9DEC36F03AC06FF014
:101E16003BC070F00001716B000E6F25606F800E85
:101E26007021616F100E7121626F6C0E636F0F0E61
:101E3600646FE3EC33F09DEC36F00C0E0001666F38
:101E4600FF0E676FFF0E686FFF0E696F19EC36F0B5
:101E56003AC06FF03BC070F00001716B000E6F2549
:101E6600236E800E7021246E100E7121256E010ED8
:101E7600276E2A0E266EFBEC35F0020E9DEC36F030
:101E86003AC06FF03BC070F00001716B000E6F2519
:101E9600236E800E7021246E100E7121256E000EA9
:101EA600276E3A0E266EFBEC35F0020E9DEC36F0F0
:101EB6003AC06FF03BC070F00001716B000E6F25E9
:101EC600236E800E7021246E100E7121256E000E79
:101ED600276E1C0E266EFBEC35F0020E9DEC36F0DE
:101EE6003AC06FF03BC070F00001716B000E6F25B9
:101EF600236E800E7021246E100E7121256E000E49
:101F0600276E000E266EFBEC35F0020E9DEC36F0C9
:101F16003AC06FF03BC070F00001716B000E6F2588
:101F2600606F800E7021616F100E7121626F6E0EF0
:101F3600636F0F0E646FE3EC33F09DEC36F00C0E1E
:101F46000001666FFF0E676FFF0E686FFF0E696F09
:101F560019EC36F03AC06FF03BC070F00001716BBF
:101F6600000E6F25236E800E7021246E100E7121D7
:101F7600256E010E276E2D0E266EFBEC35F0020E39
:101F86009DEC36F03AC06FF03BC070F00001716B0B
:101F9600000E6F25236E800E7021246E100E7121A7
:101FA600256E000E276E5C0E266EFBEC35F0020EDB
:101FB6009DEC36F03AC06FF03BC070F00001716BDB
:101FC600000E6F25236E800E7021246E100E712177
:101FD600256E000E276E1C0E266EFBEC35F0020EEB
:101FE6009DEC36F03AC06FF03BC070F00001716BAB
:101FF600000E6F25236E800E7021246E100E712147
:10200600256E000E276E000E266EFBEC35F0020ED6
:102016009DEC36F03AC06FF03BC070F00001716B7A
:10202600000E6F25606F800E7021616F100E71219A
:10203600626F520E636F0F0E646FE3EC33F09DEC2C
:1020460036F00C0E0001666FFF0E676FFF0E686FAD
:10205600FF0E696F19EC36F03AC06FF03BC070F0B6
:102066000001716B000E6F25236E800E7021246EA9
:10207600100E7121256E010E276E2B0E266EFBECBF
:1020860035F0020E9DEC36F03AC06FF03BC070F0B2
:102096000001716B000E6F25236E800E7021246E79
:1020A600100E7121256E000E276E820E266EFBEC39
:1020B60035F0020E9DEC36F03AC06FF03BC070F082
:1020C6000001716B000E6F25236E800E7021246E49
:1020D600100E7121256E000E276E1C0E266EFBEC6F
:1020E60035F0020E9DEC36F03AC06FF03BC070F052
:1020F6000001716B000E6F25236E800E7021246E19
:10210600100E7121256E000E276E000E266EFBEC5A
:1021160035F0020E9DEC36F03AC06FF03BC070F021
:102126000001716B000E6F25606F800E7021616F6C
:10213600100E7121626F550E636F0F0E646FE3EC24
:1021460033F09DEC36F00C0E0001666FFF0E676FE4
:10215600FF0E686FFF0E696F19EC36F03AC06FF02C
:102166003BC070F00001716B000E6F25236E800E70
:102176007021246E100E7121256E010E276E120E2F
:10218600266EFBEC35F0020E9DEC36F03AC06FF091
:102196003BC070F00001716B000E6F25236E800E40
:1021A6007021246E100E7121256E000E276EA10E71
:1021B600266EFBEC35F0020E9DEC36F03AC06FF061
:1021C6003BC070F00001716B000E6F25236E800E10
:1021D6007021246E100E7121256E000E276E1C0EC6
:1021E600266EFBEC35F0020E9DEC36F03AC06FF031
:1021F6003BC070F00001716B000E6F25236E800EE0
:102206007021246E100E7121256E000E276E000EB1
:10221600266EFBEC35F0020E9DEC36F03AC06FF000
:102226003BC070F00001716B000E6F25606F800E71
:102236007021616F100E7121626F580E636F0F0E61
:10224600646FE3EC33F09DEC36F00C0E0001666F24
:10225600FF0E676FFF0E686FFF0E696F19EC36F0A1
:102266003AC06FF03BC070F00001716B000E6F2535
:10227600236E800E7021246E100E7121256E000EC5
:10228600276EF10E266EFBEC35F0020E9DEC36F055
:102296003AC06FF03BC070F00001716B000E6F2505
:1022A600236E800E7021246E100E7121256E000E95
:1022B600276E720E266EFBEC35F0020E9DEC36F0A4
:1022C6003AC06FF03BC070F00001716B000E6F25D5
:1022D600236E800E7021246E100E7121256E000E65
:1022E600276E1F0E266EFBEC35F0020E9DEC36F0C7
:1022F6003AC06FF03BC070F00001716B000E6F25A5
:10230600236E800E7021246E100E7121256E060E2E
:10231600276E000E266EFBEC35F0020E9DEC36F0B5
:102326003AC06FF03BC070F00001716B000E6F2574
:10233600606F800E7021616F100E7121626F600EEA
:10234600636F0F0E646FE3EC33F09DEC36F00C0E0A
:102356000001666FFF0E676FFF0E686FFF0E696FF5
:1023660019EC36F03AC06FF03BC070F00001716BAB
:10237600000E6F25236E800E7021246E100E7121C3
:10238600256E010E276E0B0E266EFBEC35F0020E47
:102396009DEC36F03AC06FF03BC070F00001716BF7
:1023A600000E6F25236E800E7021246E100E712193
:1023B600256E000E276E6C0E266EFBEC35F0020EB7
:1023C6009DEC36F03AC06FF03BC070F00001716BC7
:1023D600000E6F25236E800E7021246E100E712163
:1023E600256E000E276E1C0E266EFBEC35F0020ED7
:1023F6009DEC36F03AC06FF03BC070F00001716B97
:10240600000E6F25236E800E7021246E100E712132
:10241600256E000E276E000E266EFBEC35F0020EC2
:102426009DEC36F03AC06FF03BC070F00001716B66
:10243600000E6F25606F800E7021616F100E712186
:10244600626F720E636F0F0E646FE3EC33F09DECF8
:1024560036F00C0E0001666FFF0E676FFF0E686F99
:10246600FF0E696F19EC36F03AC06FF03BC070F0A2
:102476000001716B000E6F25236E800E7021246E95
:10248600100E7121256E000E276EE30E266EFBECF4
:1024960035F0020E9DEC36F03AC06FF03BC070F09E
:1024A6000001716B000E6F25236E800E7021246E65
:1024B600100E7121256E000E276E840E266EFBEC23
:1024C60035F0020E9DEC36F03AC06FF03BC070F06E
:1024D6000001716B000E6F25236E800E7021246E35
:1024E600100E7121256E000E276E1A0E266EFBEC5D
:1024F60035F0020E9DEC36F03AC06FF03BC070F03E
:102506000001716B000E6F25236E800E7021246E04
:10251600100E7121256E000E276E000E266EFBEC46
:1025260035F0020E9DEC36F03AC06FF03BC070F00D
:102536000001716B000E6F25606F800E7021616F58
:10254600100E7121626F4A0E636F0F0E646FE3EC1B
:1025560033F09DEC36F01200000E0001666F000E9F
:10256600676FFF0E686F040E696F19EC36F0080E80
:102576000001666F000E676F000E686F1F0E696FB1
:1025860019EC36F0000E0001666F800E676F0C0EB8
:10259600686F800E696F19EC36F0000E0001666FE9
:1025A600800E676F6C0E686F970E696F19EC36F0C8
:1025B600000E0001666FD00E676F0A0E686F9B0EE5
:1025C600696F19EC36F0000E0001666FD00E676F6A
:1025D600EA0E686FA00E696F19EC36F0000E000166
:1025E600666F800E676F8C0E686FA40E696F19ECAC
:1025F60036F0000E0001666F800E676F0C0E686F76
:10260600BC0E696F19EC36F0000E0001666F000E05
:10261600676F000E686F040E696F19EC36F0080ECE
:102626000001666F000E676F000E686F1F0E696F00
:1026360019EC36F0000E0001666FD00E676F0C0EB7
:10264600686F800E696F19EC36F0000E0001666F38
:10265600C00E676FAC0E686F970E696F19EC36F097
:10266600000E0001666F100E676F2B0E686F9B0ED3
:10267600696F19EC36F0000E0001666F100E676F79
:10268600AB0E686FA00E696F19EC36F0000E0001F4
:10269600666FC00E676F2C0E686FA40E696F19EC1B
:1026A60036F0000E0001666FD00E676F6C0E686F15
:1026B600BC0E696F19EC36F0000E0001666F7D0ED8
:1026C600676FFF0E686F040E696F19EC36F00C0E1B
:1026D6000001666FFF0E676FFF0E686FFF0E696F72
:1026E60019EC36F03AC078F03BC079F000017A6B0D
:1026F600000E7825236E800E7921246E100E7A2125
:10270600256E000E276E050E266EFBEC35F0020ECA
:102716009DEC36F03AC078F03BC079F000017A6B58
:10272600000E7825236E800E7921246E100E7A21F4
:10273600256E000E276ECF0E266EFBEC35F0020ED0
:102746009DEC36F03AC078F03BC079F000017A6B28
:10275600000E7825236E800E7921246E100E7A21C4
:10276600256E000E276E1B0E266EFBEC35F0020E54
:102776009DEC36F03AC078F03BC079F000017A6BF8
:10278600000E7825236E800E7921246E100E7A2194
:10279600256E000E276E000E266EFBEC35F0020E3F
:1027A6009DEC36F03AC078F03BC079F000017A6BC8
:1027B600000E7825606F800E7921616F100E7A21E8
:1027C600626F330E636F0F0E646FE3EC33F09DECB4
:1027D60036F02E0E0001666FFF0E676FFF0E686FF4
:1027E600FF0E696F19EC36F03AC078F03BC079F00D
:1027F60000017A6B000E7825236E800E7921246EF7
:10280600100E7A21256E000E276E420E266EFBEC08
:1028160035F0020E9DEC36F03AC078F03BC079F008
:1028260000017A6B000E7825236E800E7921246EC6
:10283600100E7A21256E000E276ED90E266EFBEC41
:1028460035F0020E9DEC36F03AC078F03BC079F0D8
:1028560000017A6B000E7825236E800E7921246E96
:10286600100E7A21256E000E276E1B0E266EFBECCF
:1028760035F0020E9DEC36F03AC078F03BC079F0A8
:1028860000017A6B000E7825236E800E7921246E66
:10289600100E7A21256E060E276E000E266EFBECB4
:1028A60035F0020E9DEC36F0000E0001666F000E4C
:1028B600676F000E686F000E696F19EC36F00C0E2C
:1028C6000001666FFF0E676FFF0E686FFF0E696F80
:1028D60019EC36F03AC078F03BC079F000017A6B1B
:1028E600000E7825236E800E7921246E100E7A2133
:1028F600256E010E276EC00E266EFBEC35F0020E1D
:102906009DEC36F03AC078F03BC079F000017A6B66
:10291600000E7825236E800E7921246E100E7A2102
:10292600256E000E276ECF0E266EFBEC35F0020EDE
:102936009DEC36F03AC078F03BC079F000017A6B36
:10294600000E7825236E800E7921246E100E7A21D2
:10295600256E000E276E1B0E266EFBEC35F0020E62
:102966009DEC36F03AC078F03BC079F000017A6B06
:10297600000E7825236E800E7921246E100E7A21A2
:10298600256E080E276E000E266EFBEC35F0020E45
:102996009DEC36F03AC078F03BC079F000017A6BD6
:1029A600000E7825606F800E7921616F100E7A21F6
:1029B600626F380E636F0F0E646FE3EC33F09DECBD
:1029C60036F02E0E0001666FFF0E676FFF0E686F02
:1029D600FF0E696F19EC36F03AC078F03BC079F01B
:1029E60000017A6B000E7825236E800E7921246E05
:1029F600100E7A21256E010E276EDB0E266EFBEC7D
:102A060035F0020E9DEC36F03AC078F03BC079F016
:102A160000017A6B000E7825236E800E7921246ED4
:102A2600100E7A21256E000E276ECF0E266EFBEC59
:102A360035F0020E9DEC36F03AC078F03BC079F0E6
:102A460000017A6B000E7825236E800E7921246EA4
:102A5600100E7A21256E000E276E1B0E266EFBECDD
:102A660035F0020E9DEC36F03AC078F03BC079F0B6
:102A760000017A6B000E7825236E800E7921246E74
:102A8600100E7A21256E080E276E000E266EFBECC0
:102A960035F0020E9DEC36F0000E0001666F000E5A
:102AA600676F000E686F000E696F19EC36F00C0E3A
:102AB6000001666FFF0E676FFF0E686FFF0E696F8E
:102AC60019EC36F03AC078F03BC079F000017A6B29
:102AD600000E7825236E800E7921246E100E7A2141
:102AE600256E000E276EF00E266EFBEC35F0020EFC
:102AF6009DEC36F03AC078F03BC079F000017A6B75
:102B0600000E7825236E800E7921246E100E7A2110
:102B1600256E000E276EA50E266EFBEC35F0020E16
:102B26009DEC36F03AC078F03BC079F000017A6B44
:102B3600000E7825236E800E7921246E100E7A21E0
:102B4600256E000E276E1B0E266EFBEC35F0020E70
:102B56009DEC36F03AC078F03BC079F000017A6B14
:102B6600000E7825236E800E7921246E100E7A21B0
:102B7600256E060E276E000E266EFBEC35F0020E55
:102B86009DEC36F03AC078F03BC079F000017A6BE4
:102B9600000E7825606F800E7921616F100E7A2104
:102BA600626F4E0E636F0F0E646FE3EC33F09DECB5
:102BB60036F02E0E0001666FFF0E676FFF0E686F10
:102BC600FF0E696F19EC36F03AC078F03BC079F029
:102BD60000017A6B000E7825236E800E7921246E13
:102BE600100E7A21256E000E276EF00E266EFBEC77
:102BF60035F0020E9DEC36F03AC078F03BC079F025
:102C060000017A6B000E7825236E800E7921246EE2
:102C1600100E7A21256E000E276EBE0E266EFBEC78
:102C260035F0020E9DEC36F03AC078F03BC079F0F4
:102C360000017A6B000E7825236E800E7921246EB2
:102C4600100E7A21256E000E276E1D0E266EFBECE9
:102C560035F0020E9DEC36F03AC078F03BC079F0C4
:102C660000017A6B000E7825236E800E7921246E82
:102C7600100E7A21256E060E276E000E266EFBECD0
:102C860035F0020E9DEC36F0000E0001666F000E68
:102C9600676F000E686F000E696F19EC36F0FF0E55
:102CA6000001666FFF0E676FFF0E686F040E696F97
:102CB60019EC36F02E0E0001666FFF0E676FFF0EE1
:102CC600686FFF0E696F19EC36F03AC078F03BC0BA
:102CD60079F000017A6B000E7825236E800E79213B
:102CE600246E100E7A21256E000E276E240E266E97
:102CF600FBEC35F0020E9DEC36F03AC078F03BC0A6
:102D060079F000017A6B000E7825236E800E79210A
:102D1600246E100E7A21256E000E276EDE0E266EAC
:102D2600FBEC35F0020E9DEC36F03AC078F03BC075
:102D360079F000017A6B000E7825236E800E7921DA
:102D4600246E100E7A21256E000E276E1E0E266E3C
:102D5600FBEC35F0020E9DEC36F03AC078F03BC045
:102D660079F000017A6B000E7825236E800E7921AA
:102D7600246E100E7A21256E080E276E000E266E22
:102D8600FBEC35F0020E9DEC36F0000E0001666F8E
:102D9600000E676F000E686F000E696F19EC36F053
:102DA6000C0E0001666FFF0E676FFF0E686FFF0E59
:102DB600696F19EC36F03AC078F03BC079F0000143
:102DC6007A6B000E7825236E800E7921246E100E04
:102DD6007A21256E000E276E270E266EFBEC35F047
:102DE600020E9DEC36F03AC078F03BC079F0000157
:102DF6007A6B000E7825236E800E7921246E100ED4
:102E06007A21256E000E276EEE0E266EFBEC35F04F
:102E1600020E9DEC36F03AC078F03BC079F0000126
:102E26007A6B000E7825236E800E7921246E100EA3
:102E36007A21256E000E276E1C0E266EFBEC35F0F1
:102E4600020E9DEC36F03AC078F03BC079F00001F6
:102E56007A6B000E7825236E800E7921246E100E73
:102E66007A21256E060E276E000E266EFBEC35F0D7
:102E7600020E9DEC36F03AC078F03BC079F00001C6
:102E86007A6B000E7825606F800E7921616F100EC7
:102E96007A21626F700E636F0F0E646FE3EC33F08E
:102EA6009DEC36F02E0E0001666FFF0E676FFF0E6B
:102EB600686FFF0E696F19EC36F03AC078F03BC0C8
:102EC60079F000017A6B000E7825236E800E792149
:102ED600246E100E7A21256E000E276E2A0E266E9F
:102EE600FBEC35F0020E9DEC36F03AC078F03BC0B4
:102EF60079F000017A6B000E7825236E800E792119
:102F0600246E100E7A21256E000E276EDE0E266EBA
:102F1600FBEC35F0020E9DEC36F03AC078F03BC083
:102F260079F000017A6B000E7825236E800E7921E8
:102F3600246E100E7A21256E000E276E1E0E266E4A
:102F4600FBEC35F0020E9DEC36F03AC078F03BC053
:102F560079F000017A6B000E7825236E800E7921B8
:102F6600246E100E7A21256E000E276E020E266E36
:102F7600FBEC35F0020E9DEC36F0000E0001666F9C
:102F8600000E676F000E686F000E696F19EC36F061
:102F96000C0E0001666FFF0E676FFF0E686FFF0E67
:102FA600696F19EC36F03AC078F03BC079F0000151
:102FB6007A6B000E7825236E800E7921246E100E12
:102FC6007A21256E000E276E4F0E266EFBEC35F02D
:102FD600020E9DEC36F03AC078F03BC079F0000165
:102FE6007A6B000E7825236E800E7921246E100EE2
:102FF6007A21256E000E276EEE0E266EFBEC35F05E
:10300600020E9DEC36F03AC078F03BC079F0000134
:103016007A6B000E7825236E800E7921246E100EB1
:103026007A21256E000E276E1C0E266EFBEC35F0FF
:10303600020E9DEC36F03AC078F03BC079F0000104
:103046007A6B000E7825236E800E7921246E100E81
:103056007A21256E060E276E000E266EFBEC35F0E5
:10306600020E9DEC36F03AC078F03BC079F00001D4
:103076007A6B000E7825606F800E7921616F100ED5
:103086007A21626F700E636F0F0E646FE3EC33F09C
:103096009DEC36F02E0E0001666FFF0E676FFF0E79
:1030A600686FFF0E696F19EC36F03AC078F03BC0D6
:1030B60079F000017A6B000E7825236E800E792157
:1030C600246E100E7A21256E000E276E520E266E85
:1030D600FBEC35F0020E9DEC36F03AC078F03BC0C2
:1030E60079F000017A6B000E7825236E800E792127
:1030F600246E100E7A21256E000E276EDD0E266ECA
:10310600FBEC35F0020E9DEC36F03AC078F03BC091
:1031160079F000017A6B000E7825236E800E7921F6
:10312600246E100E7A21256E000E276E1E0E266E58
:10313600FBEC35F0020E9DEC36F03AC078F03BC061
:1031460079F000017A6B000E7825236E800E7921C6
:10315600246E100E7A21256E000E276E020E266E44
:10316600FBEC35F0020E9DEC36F0000E0001666FAA
:10317600000E676F000E686F000E696F19EC36F06F
:103186002E0E0001666FFF0E676FFF0E686FFF0E53
:10319600696F19EC36F03AC078F03BC079F000015F
:1031A6007A6B000E7825236E800E7921246E100E20
:1031B6007A21256E010E276E8D0E266EFBEC35F0FC
:1031C600020E9DEC36F03AC078F03BC079F0000173
:1031D6007A6B000E7825236E800E7921246E100EF0
:1031E6007A21256E000E276EDE0E266EFBEC35F07C
:1031F600020E9DEC36F03AC078F03BC079F0000143
:103206007A6B000E7825236E800E7921246E100EBF
:103216007A21256E000E276E1E0E266EFBEC35F00B
:10322600020E9DEC36F03AC078F03BC079F0000112
:103236007A6B000E7825236E800E7921246E100E8F
:103246007A21256E080E276E000E266EFBEC35F0F1
:10325600020E9DEC36F0000E0001666F000E676FE1
:10326600000E686F000E696F19EC36F00C0E000147
:10327600666FFF0E676FFF0E686FFF0E696F19ECC2
:1032860036F03AC078F03BC079F000017A6B000E58
:103296007825236E800E7921246E100E7A21256EF4
:1032A600010E276E900E266EFBEC35F0020E9DEC9D
:1032B60036F03AC078F03BC079F000017A6B000E28
:1032C6007825236E800E7921246E100E7A21256EC4
:1032D600000E276EEF0E266EFBEC35F0020E9DEC0F
:1032E60036F03AC078F03BC079F000017A6B000EF8
:1032F6007825236E800E7921246E100E7A21256E94
:10330600000E276E1C0E266EFBEC35F0020E9DECB1
:1033160036F03AC078F03BC079F000017A6B000EC7
:103326007825236E800E7921246E100E7A21256E63
:10333600060E276E000E266EFBEC35F0020E9DEC97
:1033460036F03AC078F03BC079F000017A6B000E97
:103356007825606F800E7921616F100E7A21626F79
:10336600700E636F0F0E646FE3EC33F09DEC36F076
:103376002E0E0001666FFF0E676FFF0E686FFF0E61
:10338600696F19EC36F03AC078F03BC079F000016D
:103396007A6B000E7825236E800E7921246E100E2E
:1033A6007A21256E010E276E930E266EFBEC35F004
:1033B600020E9DEC36F03AC078F03BC079F0000181
:1033C6007A6B000E7825236E800E7921246E100EFE
:1033D6007A21256E000E276EDE0E266EFBEC35F08A
:1033E600020E9DEC36F03AC078F03BC079F0000151
:1033F6007A6B000E7825236E800E7921246E100ECE
:103406007A21256E000E276E1E0E266EFBEC35F019
:10341600020E9DEC36F03AC078F03BC079F0000120
:103426007A6B000E7825236E800E7921246E100E9D
:103436007A21256E000E276E020E266EFBEC35F005
:10344600020E9DEC36F0000E0001666F000E676FEF
:10345600000E686F000E696F19EC36F00C0E000155
:10346600666FFF0E676FFF0E686FFF0E696F19ECD0
:1034760036F03AC078F03BC079F000017A6B000E66
:103486007825236E800E7921246E100E7A21256E02
:10349600010E276EB70E266EFBEC35F0020E9DEC84
:1034A60036F03AC078F03BC079F000017A6B000E36
:1034B6007825236E800E7921246E100E7A21256ED2
:1034C600000E276EEF0E266EFBEC35F0020E9DEC1D
:1034D60036F03AC078F03BC079F000017A6B000E06
:1034E6007825236E800E7921246E100E7A21256EA2
:1034F600000E276E1C0E266EFBEC35F0020E9DECC0
:1035060036F03AC078F03BC079F000017A6B000ED5
:103516007825236E800E7921246E100E7A21256E71
:10352600060E276E000E266EFBEC35F0020E9DECA5
:1035360036F03AC078F03BC079F000017A6B000EA5
:103546007825606F800E7921616F100E7A21626F87
:10355600700E636F0F0E646FE3EC33F09DEC36F084
:103566002E0E0001666FFF0E676FFF0E686FFF0E6F
:10357600696F19EC36F03AC078F03BC079F000017B
:103586007A6B000E7825236E800E7921246E100E3C
:103596007A21256E010E276EDB0E266EFBEC35F0CA
:1035A600020E9DEC36F03AC078F03BC079F000018F
:1035B6007A6B000E7825236E800E7921246E100E0C
:1035C6007A21256E000E276EDE0E266EFBEC35F098
:1035D600020E9DEC36F03AC078F03BC079F000015F
:1035E6007A6B000E7825236E800E7921246E100EDC
:1035F6007A21256E000E276E1E0E266EFBEC35F028
:10360600020E9DEC36F03AC078F03BC079F000012E
:103616007A6B000E7825236E800E7921246E100EAB
:103626007A21256E080E276E000E266EFBEC35F00D
:10363600020E9DEC36F0000E0001666F000E676FFD
:10364600000E686F000E696F19EC36F02E0E000141
:10365600666FFF0E676FFF0E686FFF0E696F19ECDE
:1036660036F03AC078F03BC079F000017A6B000E74
:103676007825236E800E7921246E100E7A21256E10
:10368600000E276ED90E266EFBEC35F0020E9DEC71
:1036960036F03AC078F03BC079F000017A6B000E44
:1036A6007825236E800E7921246E100E7A21256EE0
:1036B600000E276EED0E266EFBEC35F0020E9DEC2D
:1036C60036F03AC078F03BC079F000017A6B000E14
:1036D6007825236E800E7921246E100E7A21256EB0
:1036E600000E276E1E0E266EFBEC35F0020E9DECCC
:1036F60036F03AC078F03BC079F000017A6B000EE4
:103706007825236E800E7921246E100E7A21256E7F
:10371600080E276E000E266EFBEC35F0020E9DECB1
:1037260036F0000E0001666F000E676F000E686FC0
:10373600000E696F19EC36F00C0E0001666FFF0E75
:10374600676FFF0E686FFF0E696F19EC36F03AC0AF
:1037560078F03BC079F000017A6B000E7825236E75
:10376600800E7921246E100E7A21256E000E276EAA
:10377600DD0E266EFBEC35F0020E9DEC36F03AC0FF
:1037860078F03BC079F000017A6B000E7825236E45
:10379600800E7921246E100E7A21256E000E276E7A
:1037A600FE0E266EFBEC35F0020E9DEC36F03AC0AE
:1037B60078F03BC079F000017A6B000E7825236E15
:1037C600800E7921246E100E7A21256E000E276E4A
:1037D6001C0E266EFBEC35F0020E9DEC36F03AC060
:1037E60078F03BC079F000017A6B000E7825236EE5
:1037F600800E7921246E100E7A21256E060E276E14
:10380600000E266EFBEC35F0020E9DEC36F03AC04B
:1038160078F03BC079F000017A6B000E7825606F76
:10382600800E7921616F100E7A21626F700E636FC0
:103836000F0E646FE3EC33F09DEC36F02E0E0001B4
:10384600666FFF0E676FFF0E686FFF0E696F19ECEC
:1038560036F03AC078F03BC079F000017A6B000E82
:103866007825236E800E7921246E100E7A21256E1E
:10387600000E276EF00E266EFBEC35F0020E9DEC68
:1038860036F03AC078F03BC079F000017A6B000E52
:103896007825236E800E7921246E100E7A21256EEE
:1038A600000E276E2668FBEC35F0020E9DEC36F016
:1038B6003AC078F03BC079F000017A6B000E7825AB
:1038C600236E800E7921246E100E7A21256E000E4D
:1038D600276E1E0E266EFBEC35F0020E9DEC36F0C2
:1038E6003AC078F03BC079F000017A6B000E78257B
:1038F600236E800E7921246E100E7A21256E060E17
:10390600276E000E266EFBEC35F0020E9DEC36F0AF
:10391600000E0001666F000E676F000E686F000EE6
:10392600696F19EC36F00C0E0001666FFF0E676FBB
:10393600FF0E686FFF0E696F19EC36F03AC078F02B
:103946003BC079F000017A6B000E7825236E800E5D
:103956007921246E100E7A21256E010E276E050E32
:10396600266EFBEC35F0020E9DEC36F03AC078F090
:103976003BC079F000017A6B000E7825236E800E2D
:103986007921246E100E7A21256E000E276EFE0E0A
:10399600266EFBEC35F0020E9DEC36F03AC078F060
:1039A6003BC079F000017A6B000E7825236E800EFD
:1039B6007921246E100E7A21256E000E276E1C0EBC
:1039C600266EFBEC35F0020E9DEC36F03AC078F030
:1039D6003BC079F000017A6B000E7825236E800ECD
:1039E6007921246E100E7A21256E060E276E000EA2
:1039F600266EFBEC35F0020E9DEC36F03AC078F000
:103A06003BC079F000017A6B000E7825606F800E5E
:103A16007921616F100E7A21626F700E636F0F0E3F
:103A2600646FE3EC33F09DEC36F02E0E0001666F0A
:103A3600FF0E676FFF0E686FFF0E696F19EC36F0A9
:103A46003AC078F03BC079F000017A6B000E782519
:103A5600236E800E7921246E100E7A21256E010EBA
:103A6600276E2A0E266EFBEC35F0020E9DEC36F024
:103A76003AC078F03BC079F000017A6B000E7825E9
:103A8600236E800E7921246E100E7A21256E000E8B
:103A9600276EED0E266EFBEC35F0020E9DEC36F031
:103AA6003AC078F03BC079F000017A6B000E7825B9
:103AB600236E800E7921246E100E7A21256E000E5B
:103AC600276E1E0E266EFBEC35F0020E9DEC36F0D0
:103AD6003AC078F03BC079F000017A6B000E782589
:103AE600236E800E7921246E100E7A21256E080E23
:103AF600276E000E266EFBEC35F0020E9DEC36F0BE
:103B0600000E0001666F000E676F000E686F000EF4
:103B1600696F19EC36F01200000E0001716F050E88
:103B2600706FFF0E666FFF0E676FFF0E686F040EF5
:103B3600696F19EC36F00C0E0001666FFF0E676FA9
:103B4600FF0E686FFF0E696F19EC36F03AC06DF024
:103B56003BC06EF000016F6B000E6D25236E800E6C
:103B66006E21246E100E6F21256E000E276E050E37
:103B7600266EFBEC35F0020E9DEC36F03AC06DF089
:103B86003BC06EF000016F6B000E6D25236E800E3C
:103B96006E21246E100E6F21256E70C026F071C046
:103BA60027F0FBEC35F0020E9DEC36F03AC06DF0D6
:103BB6003BC06EF000016F6B000E6D25236E800E0C
:103BC6006E21246E100E6F21256E000E276E1A0EC2
:103BD600266EFBEC35F0020E9DEC36F03AC06DF029
:103BE6003BC06EF000016F6B000E6D25236E800EDC
:103BF6006E21246E100E6F21256E000E276E000EAC
:103C0600266EFBEC35F0020E9DEC36F03AC06DF0F8
:103C16003BC06EF000016F6B000E6D25606F800E6D
:103C26006E21616F100E6F21626F070E636F0F0EAC
:103C3600646FE3EC33F09DEC36F00C0E0001666F1A
:103C4600FF0E676FFF0E686FFF0E696F19EC36F097
:103C56003AC06DF03BC06EF000016F6B000E6D2533
:103C6600236E800E6E21246E100E6F21256E000EBF
:103C7600276E050E266EFBEC35F0020E9DEC36F037
:103C86003AC06DF03BC06EF000016F6B000E6D2503
:103C9600236E800E6E21246E100E6F21256E0F0E80
:103CA6007027000E712370C026F071C027F0FBEC60
:103CB60035F0020E9DEC36F03AC06DF03BC06EF06A
:103CC60000016F6B000E6D25236E800E6E21246E33
:103CD600100E6F21256E000E276E1A0E266EFBEC57
:103CE60035F0020E9DEC36F03AC06DF03BC06EF03A
:103CF60000016F6B000E6D25236E800E6E21246E03
:103D0600100E6F21256E000E276E000E266EFBEC40
:103D160035F0020E9DEC36F03AC06DF03BC06EF009
:103D260000016F6B000E6D25606F800E6E21616F56
:103D3600100E6F21626F2E0E636F0F0E646FE3EC31
:103D460033F09DEC36F00C0E0001666FFF0E676FC8
:103D5600FF0E686FFF0E696F19EC36F03AC06DF012
:103D66003BC06EF000016F6B000E6D25236E800E5A
:103D76006E21246E100E6F21256E000E276E050E25
:103D8600266EFBEC35F0020E9DEC36F03AC06DF077
:103D96003BC06EF000016F6B000E6D25236E800E2A
:103DA6006E21246E100E6F21256E190E7027000EDF
:103DB600712370C026F071C027F0FBEC35F0020EBF
:103DC6009DEC36F03AC06DF03BC06EF000016F6BB3
:103DD600000E6D25236E800E6E21246E100E6F214F
:103DE600256E000E276E1A0E266EFBEC35F0020EBF
:103DF6009DEC36F03AC06DF03BC06EF000016F6B83
:103E0600000E6D25236E800E6E21246E100E6F211E
:103E1600256E000E276E000E266EFBEC35F0020EA8
:103E26009DEC36F03AC06DF03BC06EF000016F6B52
:103E3600000E6D25606F800E6E21616F100E6F2172
:103E4600626F460E636F0F0E646FE3EC33F09DEC0A
:103E560036F00C0E0001666FFF0E676FFF0E686F7F
:103E6600FF0E696F19EC36F03AC06DF03BC06EF08C
:103E760000016F6B000E6D25236E800E6E21246E81
:103E8600100E6F21256E000E276E050E266EFBECBA
:103E960035F0020E9DEC36F03AC06DF03BC06EF088
:103EA60000016F6B000E6D25236E800E6E21246E51
:103EB600100E6F21256E0F0E7027000E712370C035
:103EC60026F071C027F0FBEC35F0020E9DEC36F0C3
:103ED6003AC06DF03BC06EF000016F6B000E6D25B1
:103EE600236E800E6E21246E100E6F21256E000E3D
:103EF600276E1A0E266EFBEC35F0020E9DEC36F0A0
:103F06003AC06DF03BC06EF000016F6B000E6D2580
:103F1600236E800E6E21246E100E6F21256E000E0C
:103F2600276E000E266EFBEC35F0020E9DEC36F089
:103F36003AC06DF03BC06EF000016F6B000E6D2550
:103F4600606F800E6E21616F100E6F21626F2E0EF4
:103F5600636F0F0E646FE3EC33F09DEC36F00C0EDE
:103F66000001666FFF0E676FFF0E686FFF0E696FC9
:103F760019EC36F03AC06DF03BC06EF000016F6B85
:103F8600000E6D25236E800E6E21246E100E6F219D
:103F9600256E000E276E050E266EFBEC35F0020E22
:103FA6009DEC36F03AC06DF03BC06EF000016F6BD1
:103FB600000E6D25236E800E6E21246E100E6F216D
:103FC600256E190E7027000E712370C026F071C081
:103FD60027F0FBEC35F0020E9DEC36F03AC06DF0A2
:103FE6003BC06EF000016F6B000E6D25236E800ED8
:103FF6006E21246E100E6F21256E000E276E1A0E8E
:10400600266EFBEC35F0020E9DEC36F03AC06DF0F4
:104016003BC06EF000016F6B000E6D25236E800EA7
:104026006E21246E100E6F21256E000E276E000E77
:10403600266EFBEC35F0020E9DEC36F03AC06DF0C4
:104046003BC06EF000016F6B000E6D25606F800E39
:104056006E21616F100E6F21626F290E636F0F0E56
:10406600646FE3EC33F09DEC36F00C0E0001666FE6
:10407600FF0E676FFF0E686FFF0E696F19EC36F063
:104086003AC06DF03BC06EF000016F6B000E6D25FF
:10409600236E800E6E21246E100E6F21256E000E8B
:1040A600276E050E266EFBEC35F0020E9DEC36F003
:1040B6003AC06DF03BC06EF000016F6B000E6D25CF
:1040C600236E800E6E21246E100E6F21256E0F0E4C
:1040D6007027000E712370C026F071C027F0FBEC2C
:1040E60035F0020E9DEC36F03AC06DF03BC06EF036
:1040F60000016F6B000E6D25236E800E6E21246EFF
:10410600100E6F21256E000E276E1A0E266EFBEC22
:1041160035F0020E9DEC36F03AC06DF03BC06EF005
:1041260000016F6B000E6D25236E800E6E21246ECE
:10413600100E6F21256E000E276E000E266EFBEC0C
:1041460035F0020E9DEC36F03AC06DF03BC06EF0D5
:1041560000016F6B000E6D25606F800E6E21616F22
:10416600100E6F21626F240E636F0F0E646FE3EC07
:1041760033F09DEC36F00C0E0001666FFF0E676F94
:10418600FF0E686FFF0E696F19EC36F03AC06DF0DE
:104196003BC06EF000016F6B000E6D25236E800E26
:1041A6006E21246E100E6F21256E000E276E050EF1
:1041B600266EFBEC35F0020E9DEC36F03AC06DF043
:1041C6003BC06EF000016F6B000E6D25236E800EF6
:1041D6006E21246E100E6F21256E190E7027000EAB
:1041E600712370C026F071C027F0FBEC35F0020E8B
:1041F6009DEC36F03AC06DF03BC06EF000016F6B7F
:10420600000E6D25236E800E6E21246E100E6F211A
:10421600256E000E276E1A0E266EFBEC35F0020E8A
:104226009DEC36F03AC06DF03BC06EF000016F6B4E
:10423600000E6D25236E800E6E21246E100E6F21EA
:10424600256E000E276E000E266EFBEC35F0020E74
:104256009DEC36F03AC06DF03BC06EF000016F6B1E
:10426600000E6D25606F800E6E21616F100E6F213E
:10427600626F3D0E636F0F0E646FE3EC33F09DECDF
:1042860036F00C0E0001666FFF0E676FFF0E686F4B
:10429600FF0E696F19EC36F03AC06DF03BC06EF058
:1042A60000016F6B000E6D25236E800E6E21246E4D
:1042B600100E6F21256E000E276E050E266EFBEC86
:1042C60035F0020E9DEC36F03AC06DF03BC06EF054
:1042D60000016F6B000E6D25236E800E6E21246E1D
:1042E600100E6F21256E0F0E7027000E712370C001
:1042F60026F071C027F0FBEC35F0020E9DEC36F08F
:104306003AC06DF03BC06EF000016F6B000E6D257C
:10431600236E800E6E21246E100E6F21256E000E08
:10432600276E1A0E266EFBEC35F0020E9DEC36F06B
:104336003AC06DF03BC06EF000016F6B000E6D254C
:10434600236E800E6E21246E100E6F21256E000ED8
:10435600276E000E266EFBEC35F0020E9DEC36F055
:104366003AC06DF03BC06EF000016F6B000E6D251C
:10437600606F800E6E21616F100E6F21626F130EDB
:10438600636F0F0E646FE3EC33F09DEC36F00C0EAA
:104396000001666FFF0E676FFF0E686FFF0E696F95
:1043A60019EC36F03AC06DF03BC06EF000016F6B51
:1043B600000E6D25236E800E6E21246E100E6F2169
:1043C600256E000E276E050E266EFBEC35F0020EEE
:1043D6009DEC36F03AC06DF03BC06EF000016F6B9D
:1043E600000E6D25236E800E6E21246E100E6F2139
:1043F600256E190E7027000E712370C026F071C04D
:1044060027F0FBEC35F0020E9DEC36F03AC06DF06D
:104416003BC06EF000016F6B000E6D25236E800EA3
:104426006E21246E100E6F21256E000E276E1A0E59
:10443600266EFBEC35F0020E9DEC36F03AC06DF0C0
:104446003BC06EF000016F6B000E6D25236E800E73
:104456006E21246E100E6F21256E000E276E000E43
:10446600266EFBEC35F0020E9DEC36F03AC06DF090
:104476003BC06EF000016F6B000E6D25606F800E05
:104486006E21616F100E6F21626F460E636F0F0E05
:10449600646FE3EC33F09DEC36F00C0E0001666FB2
:1044A600FF0E676FFF0E686FFF0E696F19EC36F02F
:1044B6003AC06DF03BC06EF000016F6B000E6D25CB
:1044C600236E800E6E21246E100E6F21256E000E57
:1044D600276E050E266EFBEC35F0020E9DEC36F0CF
:1044E6003AC06DF03BC06EF000016F6B000E6D259B
:1044F600236E800E6E21246E100E6F21256E0F0E18
:104506007027000E712370C026F071C027F0FBECF7
:1045160035F0020E9DEC36F03AC06DF03BC06EF001
:1045260000016F6B000E6D25236E800E6E21246ECA
:10453600100E6F21256E000E276E1A0E266EFBECEE
:1045460035F0020E9DEC36F03AC06DF03BC06EF0D1
:1045560000016F6B000E6D25236E800E6E21246E9A
:10456600100E6F21256E000E276E000E266EFBECD8
:1045760035F0020E9DEC36F03AC06DF03BC06EF0A1
:1045860000016F6B000E6D25606F800E6E21616FEE
:10459600100E6F21626F0D0E636F0F0E646FE3ECEA
:1045A60033F09DEC36F00C0E0001666FFF0E676F60
:1045B600FF0E686FFF0E696F19EC36F03AC06DF0AA
:1045C6003BC06EF000016F6B000E6D25236E800EF2
:1045D6006E21246E100E6F21256E010E276E680E59
:1045E600266EFBEC35F0020E9DEC36F03AC06DF00F
:1045F6003BC06EF000016F6B000E6D25236E800EC2
:104606006E21246E100E6F21256E000E276E820E0F
:10461600266EFBEC35F0020E9DEC36F03AC06DF0DE
:104626003BC06EF000016F6B000E6D25236E800E91
:104636006E21246E100E6F21256E000E276E1A0E47
:10464600266EFBEC35F0020E9DEC36F03AC06DF0AE
:104656003BC06EF000016F6B000E6D25236E800E61
:104666006E21246E100E6F21256E000E276E000E31
:10467600266EFBEC35F0020E9DEC36F03AC06DF07E
:104686003BC06EF000016F6B000E6D25606F800EF3
:104696006E21616F100E6F21626F010E636F0F0E38
:1046A600646FE3EC33F09DEC36F00C0E0001666FA0
:1046B600FF0E676FFF0E686FFF0E696F19EC36F01D
:1046C6003AC06DF03BC06EF000016F6B000E6D25B9
:1046D600236E800E6E21246E100E6F21256E010E44
:1046E600276E680E266EFBEC35F0020E9DEC36F05A
:1046F6003AC06DF03BC06EF000016F6B000E6D2589
:10470600236E800E6E21246E100E6F21256E000E14
:10471600276E910E266EFBEC35F0020E9DEC36F000
:104726003AC06DF03BC06EF000016F6B000E6D2558
:10473600236E800E6E21246E100E6F21256E000EE4
:10474600276E1A0E266EFBEC35F0020E9DEC36F047
:104756003AC06DF03BC06EF000016F6B000E6D2528
:10476600236E800E6E21246E100E6F21256E000EB4
:10477600276E000E266EFBEC35F0020E9DEC36F031
:104786003AC06DF03BC06EF000016F6B000E6D25F8
:10479600606F800E6E21616F100E6F21626F420E88
:1047A600636F0F0E646FE3EC33F09DEC36F00C0E86
:1047B6000001666FFF0E676FFF0E686FFF0E696F71
:1047C60019EC36F03AC06DF03BC06EF000016F6B2D
:1047D600000E6D25236E800E6E21246E100E6F2145
:1047E600256E010E276E7C0E266EFBEC35F0020E52
:1047F6009DEC36F03AC06DF03BC06EF000016F6B79
:10480600000E6D25236E800E6E21246E100E6F2114
:10481600256E000E276EB40E266EFBEC35F0020EEA
:104826009DEC36F03AC06DF03BC06EF000016F6B48
:10483600000E6D25236E800E6E21246E100E6F21E4
:10484600256E000E276E1A0E266EFBEC35F0020E54
:104856009DEC36F03AC06DF03BC06EF000016F6B18
:10486600000E6D25236E800E6E21246E100E6F21B4
:10487600256E000E276E000E266EFBEC35F0020E3E
:104886009DEC36F03AC06DF03BC06EF000016F6BE8
:10489600000E6D25606F800E6E21616F100E6F2108
:1048A600626F5B0E636F0F0E646FE3EC33F09DEC8B
:1048B60036F00C0E0001666FFF0E676FFF0E686F15
:1048C600FF0E696F19EC36F03AC06DF03BC06EF022
:1048D60000016F6B000E6D25236E800E6E21246E17
:1048E600100E6F21256E010E276ECB0E266EFBEC89
:1048F60035F0020E9DEC36F03AC06DF03BC06EF01E
:1049060000016F6B000E6D25236E800E6E21246EE6
:10491600100E6F21256E000E276EAE0E266EFBEC76
:1049260035F0020E9DEC36F03AC06DF03BC06EF0ED
:1049360000016F6B000E6D25236E800E6E21246EB6
:10494600100E6F21256E000E276E1C0E266EFBECD8
:1049560035F0020E9DEC36F03AC06DF03BC06EF0BD
:1049660000016F6B000E6D25236E800E6E21246E86
:10497600100E6F21256E000E276E000E266EFBECC4
:1049860035F0020E9DEC36F03AC06DF03BC06EF08D
:1049960000016F6B000E6D25606F800E6E21616FDA
:1049A600100E6F21626F5E0E636F0F0E646FE3EC85
:1049B60033F09DEC36F0020E0001666F000E676F55
:1049C600000E686F1F0E696F19EC36F0140E0001A9
:1049D600666F140E676F140E686F040E696F19EC1C
:1049E60036F0D60E0001666F060E676F000E686F12
:1049F6000D0E696F19EC36F0000E0001666F300E71
:104A0600676F070E686F9E0E696F19EC36F03C0EE5
:104A16000001666F3C0E676F3C0E686F040E696F8F
:104A260019EC36F0720E0001666F060E676F000E07
:104A3600686F0D0E696F19EC36F0000E0001666F97
:104A4600300E676F070E686F9E0E696F19EC36F0B1
:104A56001200600E0001666F000E676F000E686F31
:104A66000E0E696F19EC36F0000E0001666F7D0EB2
:104A7600676FCA0E686F040E696F19EC36F0030E85
:104A86000001666F000E676F000E686F1F0E696F7C
:104A960019EC36F06FD2000E0001666FF00E676FEC
:104AA600800E686FAF0E696F19EC36F0000E0001CC
:104AB600666F300E676F870E686FAF0E696F19EC01
:104AC60036F0000E0001666FF00E676F800E686F9D
:104AD600AF0E696F19EC36F0000E0001666F300EEE
:104AE600676F870E686FB90E696F19EC36F0000EA6
:104AF6000001666F400E676F870E686FB90E696FAB
:104B060019EC36F0000E0001666FF00E676F800E2E
:104B1600686FB90E696F19EC36F01200000E0001CD
:104B2600666FF00E676F800E686FB40E696F19ECD2
:104B360036F0000E0001666F300E676F870E686FE5
:104B4600B40E696F19EC36F0000E0001666FF00EB8
:104B5600676F600E686FB40E696F19EC36F0000E61
:104B66000001666FE00E676F010E686FB20E696F27
:104B760019EC36F0000E0001666F400E676FA70E47
:104B8600686FB20E696F19EC36F0000E0001666FA1
:104B9600400E676F670E686FB60E696F19EC36F0D8
:104BA6001200000E0001666FF00E676F800E686FD0
:104BB600AF0E696F19EC36F0000E0001666FF00E4D
:104BC600676F800E686FB90E696F19EC36F0000ECC
:104BD6000001666F000E676F810E686FB90E696F10
:104BE60019EC36F0000E0001666F000E676F840E3A
:104BF600686FB90E696F19EC36F0000E0001666F2A
:104C0600100E676F840E686FB90E696F19EC36F077
:104C1600000E0001666F100E676F840E686FAF0E90
:104C2600696F19EC36F0000E0001666F200E676F93
:104C3600840E686FAF0E696F19EC36F0000E000136
:104C4600666F300E676F870E686FAF0E696F19EC6F
:104C560036F0000E0001666F300E676FA70E686FA4
:104C6600AF0E696F19EC36F0000E0001666F300E5C
:104C7600676F870E686FB90E696F19EC36F0120010
:104C8600000E0001666FF00E676F800E686FAF0E44
:104C9600696F19EC36F0000E0001666FF00E676F53
:104CA600600E686FB90E696F19EC36F0000E0001E0
:104CB600666F000E676F810E686FB90E696F19EC2B
:104CC60036F0000E0001666F300E676F870E686F54
:104CD600B90E696F19EC36F0000E0001666F100E02
:104CE600676F640E686FB90E696F19EC36F0000EC7
:104CF6000001666F100E676F840E686FAF0E696FE6
:104D060019EC36F0000E0001666F300E676FA70EC5
:104D1600686FAF0E696F19EC36F0000E0001666F12
:104D2600300E676F670E686FB90E696F19EC36F053
:104D36001200000E0001666FF00E676F800E686F3E
:104D4600AF0E696F19EC36F0000E0001666F000EAB
:104D5600676F840E686FAF0E696F19EC36F0000E40
:104D66000001666F000E676F810E686FB90E696F7E
:104D760019EC36F0000E0001666F300E676F870E75
:104D8600686FB90E696F19EC36F0000E0001666F98
:104D9600100E676F240E686FB90E696F19EC36F046
:104DA600000E0001666F100E676FA40E686FAF0EDF
:104DB600696F19EC36F01200000E0001666FF00EF6
:104DC600676F800E686FAF0E696F19EC36F0000ED4
:104DD6000001666FF00E676F600E686FB90E696F3F
:104DE60019EC36F0000E0001666F000E676F810E3B
:104DF600686FAF0E696F19EC36F0000E0001666F32
:104E0600000E676F840E686FAF0E696F19EC36F08F
:104E1600000E0001666F100E676F840E686FB90E84
:104E2600696F19EC36F0000E0001666F200E676F91
:104E3600870E686FB90E696F19EC36F0000E000127
:104E4600666F100E676F240E686FB90E696F19ECE6
:104E560036F0000E0001666F100E676FA40E686FC5
:104E6600AF0E696F19EC36F0000E0001666F300E5A
:104E7600676FA70E686FAF0E696F19EC36F0000EFC
:104E86000001666F300E676F670E686FB90E696F47
:104E960019EC36F01200000E0001666FF00E676F17
:104EA600800E686FAF0E696F19EC36F0000E0001C8
:104EB600666FF00E676F600E686FB90E696F19EC5A
:104EC60036F0000E0001666F000E676F810E686F88
:104ED600AF0E696F19EC36F0000E0001666F300EEA
:104EE600676F870E686FAF0E696F19EC36F0000EAC
:104EF6000001666F100E676F840E686FB90E696FDA
:104F060019EC36F0000E0001666F200E676F870EF3
:104F1600686FB90E696F19EC36F0000E0001666F06
:104F2600100E676F240E686FB90E696F19EC36F0B4
:104F3600000E0001666F100E676FA40E686FAF0E4D
:104F4600696F19EC36F0000E0001666F300E676F60
:104F5600A70E686FAF0E696F19EC36F0000E0001F0
:104F6600666F300E676F670E686FB90E696F19EC62
:104F760036F012006DC06FF06EC070F00001705117
:104F8600000AD8A412006F51000AD8B484D5010AC9
:104F9600D8B4C4D5030AD8B404D6010AD8B470D696
:104FA600070AD8B4C6D6010AD8B406D7030AD8A4C5
:104FB600120071D72E0E0001666FFF0E676FFF0E8F
:104FC600686FFF0E696F19EC36F03AC06FF03BC0A0
:104FD60070F00001716B000E6F25236E800E70213C
:104FE600246E100E7121256E000E276E420E266E5F
:104FF600FBEC35F0020E9DEC36F03AC06FF03BC08C
:1050060070F00001716B000E6F25236E800E70210B
:10501600246E100E7121256E000E276E820E266EEE
:10502600FBEC35F0020E9DEC36F03AC06FF03BC05B
:1050360070F00001716B000E6F25236E800E7021DB
:10504600246E100E7121256E000E276E1C0E266E24
:10505600FBEC35F0020E9DEC36F03AC06FF03BC02B
:1050660070F00001716B000E6F25236E800E7021AB
:10507600246E100E7121256E000E276E000E266E10
:10508600FBEC35F0020E9DEC36F06DC022F06EC0E2
:1050960023F0000E256E0A0E246EB6EC34F022C004
:1050A60066F023C067F00001000E67BFFF0E686F51
:1050B600696F19EC36F00C0E0001666FFF0E676F14
:1050C600FF0E686FFF0E696F19EC36F03AC06FF08D
:1050D6003BC070F00001716B000E6F25236E800ED1
:1050E6007021246E100E7121256E000E276E5A0E49
:1050F600266EFBEC35F0020E9DEC36F03AC06FF0F2
:105106003BC070F00001716B000E6F25236E800EA0
:105116007021246E100E7121256E000E276E830EEF
:10512600266EFBEC35F0020E9DEC36F03AC06FF0C1
:105136003BC070F00001716B000E6F25236E800E70
:105146007021246E100E7121256E000E276E1C0E26
:10515600266EFBEC35F0020E9DEC36F03AC06FF091
:105166003BC070F00001716B000E6F25236E800E40
:105176007021246E100E7121256E000E276E000E12
:10518600266EFBEC35F0020E9DEC36F03AC06FF061
:105196003BC070F00001716B000E6F25606F800ED2
:1051A6007021616F100E7121626F600E636F0F0EBA
:1051B600646FE3EC33F09DEC36F02E0E0001666F63
:1051C600FF0E676FFF0E686FFF0E696F19EC36F002
:1051D6003AC06FF03BC070F00001716B000E6F2596
:1051E600236E800E7021246E100E7121256E000E26
:1051F600276E600E266EFBEC35F0020E9DEC36F047
:105206003AC06FF03BC070F00001716B000E6F2565
:10521600236E800E7021246E100E7121256E000EF5
:10522600276E820E266EFBEC35F0020E9DEC36F0F4
:105236003AC06FF03BC070F00001716B000E6F2535
:10524600236E800E7021246E100E7121256E000EC5
:10525600276E1C0E266EFBEC35F0020E9DEC36F02A
:105266003AC06FF03BC070F00001716B000E6F2505
:10527600236E800E7021246E100E7121256E000E95
:10528600276E000E266EFBEC35F0020E9DEC36F016
:105296006DC060F06EC061F0000E0001636F0A0E13
:1052A600626F36EC35F0000160C066F061C067F0F1
:1052B600000E67BFFF0E686F696F19EC36F01200BB
:1052C6002E0E0001666FFF0E676FFF0E686FFF0EF2
:1052D600696F19EC36F03AC06FF03BC070F0000110
:1052E600716B000E6F25236E800E7021246E100EDA
:1052F6007121256E000E276E420E266EFBEC35F0F0
:10530600020E9DEC36F03AC06FF03BC070F0000123
:10531600716B000E6F25236E800E7021246E100EA9
:105326007121256E000E276E590E266EFBEC35F0A8
:10533600020E9DEC36F03AC06FF03BC070F00001F3
:10534600716B000E6F25236E800E7021246E100E79
:105356007121256E000E276E1C0E266EFBEC35F0B5
:10536600020E9DEC36F03AC06FF03BC070F00001C3
:10537600716B000E6F25236E800E7021246E100E49
:105386007121256E000E276E000E266EFBEC35F0A1
:10539600020E9DEC36F0030E0001666F000E676F7D
:1053A600000E686F000E696F19EC36F00C0E0001E6
:1053B600666FFF0E676FFF0E686FFF0E696F19EC61
:1053C60036F03AC06FF03BC070F00001716B000E12
:1053D6006F25236E800E7021246E100E7121256EAE
:1053E600000E276E4E0E266EFBEC35F0020E9DEC7F
:1053F60036F03AC06FF03BC070F00001716B000EE2
:105406006F25236E800E7021246E100E7121256E7D
:10541600000E276E5A0E266EFBEC35F0020E9DEC42
:1054260036F03AC06FF03BC070F00001716B000EB1
:105436006F25236E800E7021246E100E7121256E4D
:10544600000E276E1C0E266EFBEC35F0020E9DEC50
:1054560036F03AC06FF03BC070F00001716B000E81
:105466006F25236E800E7021246E100E7121256E1D
:10547600000E276E000E266EFBEC35F0020E9DEC3C
:1054860036F03AC06FF03BC070F00001716B000E51
:105496006F25606F800E7021616F100E7121626F33
:1054A600600E636F0F0E646FE3EC33F09DEC36F025
:1054B6002E0E0001666FFF0E676FFF0E686FFF0E00
:1054C600696F19EC36F03AC06FF03BC070F000011E
:1054D600716B000E6F25236E800E7021246E100EE8
:1054E6007121256E000E276E530E266EFBEC35F0ED
:1054F600020E9DEC36F03AC06FF03BC070F0000132
:10550600716B000E6F25236E800E7021246E100EB7
:105516007121256E000E276E590E266EFBEC35F0B6
:10552600020E9DEC36F03AC06FF03BC070F0000101
:10553600716B000E6F25236E800E7021246E100E87
:105546007121256E000E276E1C0E266EFBEC35F0C3
:10555600020E9DEC36F03AC06FF03BC070F00001D1
:10556600716B000E6F25236E800E7021246E100E57
:105576007121256E000E276E000E266EFBEC35F0AF
:10558600020E9DEC36F0030E0001666F000E676F8B
:10559600000E686F000E696F19EC36F01200000EEF
:1055A60000019A6F000E996F000E9C6F000E9B6FA4
:1055B600000E9E6F000E9D6F000EA06F000E9F6F77
:1055C600000E966F000E956F000EA26F000EA16F73
:1055D600000EA46F000EA36F000EA66F000EA56F3F
:1055E600000EA86F000EA76F000E926F000E916F4F
:1055F600000E946F000E936F000E986F000E976F5B
:10560600B8EC36F0000E0001906F000E8F6FC5ECFF
:1056160036F07080708A709E708C608A609C609490
:1056260060907680C80E0E01F46F000EF56FC80EFE
:10563600F06F200EF16FC80EEC6F400EED6FC79E37
:10564600C78CC68AC688C690C692C694C69635ECDE
:105656002CF0EAEC36F0B8EC36F089928C9889900A
:105666008A8A8C9A8C868B8499C07BF09AC07CF04F
:105676009BC07DF09CC07EF09DC07FF09EC080F0F8
:105686009FC081F0A0C082F095C083F096C084F0E0
:10569600A1C085F0A2C086F0A3C087F0A4C088F0A0
:1056A600A5C089F0A6C08AF0A7C08BF0A8C08CF070
:1056B600D5EC32F0A90E2A6E000E2B6E7AEC2DF088
:1056C6000009D8B4F7D7400E0001AA194CE1060E1E
:1056D600AB19AC11AD11D8A446D0B051AFC08DF006
:1056E6008E6B8DC08EF08D6B8D11996F8E519A6F6A
:1056F600B251B1C08DF08E6B8DC08EF08D6B8D1159
:10570600226E8E51236E000E256E0A0E246EB6ECA6
:1057160034F022C09BF023C09CF00001AF518D6F86
:105726008E6B8D3B8E3BF00E8E178D510F0B8E13AD
:10573600F00E8D17B4518D119D6F8E519E6FB5C0B1
:105746009FF0A06BB6C095F0966B8C8A050E000193
:105756008E6F0F0E8D6FF10EE82EFED78D2FFCD7B4
:105766008E2FFAD752D0410E0001AA1924E1060E57
:10577600AB19AC11AD11D8A41ED0AFC091F0926B8D
:10578600B0C093F0946BB5C0A1F0A26B8D6BB6AFB1
:1057960001D08D2B8D51976F986B8A8A050E00016B
:1057A6008E6F0F0E8D6FF10EE82EFED78D2FFCD764
:1057B6008E2FFAD72AD0420E0001AA1910E1060E42
:1057C600AB19AC11AD11D8A40AD0AFC0A3F0A46B2D
:1057D600B0C0A5F0A66BB1C0A7F0A86B16D0430E5B
:1057E600AA1913E1060EAB19AC11AD11D8A40DD050
:1057F6008980050E00018E6F0F0E8D6FF10EE82E5B
:10580600FED78D2FFCD78E2FFAD799C07BF09AC082
:105816007CF09BC07DF09CC07EF09DC07FF09EC05A
:1058260080F09FC081F0A0C082F097C083F098C03E
:1058360084F0A1C085F0A2C086F0A3C087F0A4C002
:1058460088F0A5C089F0A6C08AF0A7C08BF0A8C0D2
:105856008CF0D5EC32F089928C9889908A9A8C9A41
:105866008C9628D78B92680E2B6EE40EE82EFED708
:105876002B2EFCD700D08B82680E2B6EE40EE82E02
:10588600FED72B2EFCD700D0000ED2EC36F0440EFD
:10589600D2EC36F0620ED2EC36F0300E236E240EC9
:1058A600246E100E256E010E276EE00E266EFBECA2
:1058B60035F0440E236E240E246E100E256E010E56
:1058C600276E100E266EFBEC35F0280E236E240E86
:1058D600246E100E256E020E276E0D0E266EFBEC44
:1058E60035F0340E236E240E246E100E256E000E37
:1058F600276E000E266EFBEC35F0380E236E240E56
:10590600246E100E256E000E276E290E266EFBECF9
:1059160035F02C0E236E240E246E100E256E000E0E
:10592600276E2B0E266EFBEC35F03C0E236E240EF6
:10593600246E100E256E010E276E1E0E266EFBECD3
:1059460035F0480E236E240E246E100E256E000EC2
:10595600276E000E266EFBEC35F04C0E236E240EE1
:10596600246E100E256E000E276E0A0E266EFBECB8
:1059760035F0400E236E240E246E100E256E000E9A
:10598600276E0C0E266EFBEC35F0640E236E240E8D
:10599600246E100E256E000E266E6FEC36F05C0E31
:1059A600236E240E246E100E256E000E266E6FECEE
:1059B60036F0580E236E240E246E100E256E010E40
:1059C600276EB60E266EFBEC35F0600E236E240EA7
:1059D600246E100E256E000E266E6FEC36F0680EE5
:1059E600236E240E246E100E256E000E266E6FECAE
:1059F60036F0540E236E240E246E100E256E000E05
:105A0600266E6FEC36F0000E236E000E246E100E1E
:105A1600256E000E266E1A0E276E000E286E020EDA
:105A2600296EF8EC34F0040E236E000E246E100E70
:105A3600256E070E266E000E276E000E286E260EA9
:105A4600296EF8EC34F0080E236E000E246E100E4C
:105A5600256E000E266E000E276E000E286E000EB6
:105A6600296EF8EC34F0500E236E240E246E100EC0
:105A7600256E020E266E6FEC36F08C0E236E240E0B
:105A8600246E100E256EFC0E266E6FEC36F0900E10
:105A9600236E240E246E100E256EFF0E266E6FECFE
:105AA60036F06C0E236E240E246E100E256E050E37
:105AB600266E6FEC36F0E80E236E240E246E100E62
:105AC600256E6FEC35F023C03AF024C03BF0E40EAF
:105AD600236E240E246E100E256E6FEC35F03A50B0
:105AE6002318F5E13B502418D8B41200F0D7000E65
:105AF60000016B6F60AE83D062A61ED02AC0D9FFAC
:105B06002BC0DAFF020EDF6E64CF22F061CF23F0E6
:105B160062CF24F063504AEC2FF020EE01F02A50B9
:105B2600D9262B50DA2222C0DEFF23C0DEFF24C096
:105B3600DEFF25C0DEFF19D02AC0D9FF2BC0DAFF51
:105B4600010EDF6E62CF22F061502EEC34F020EEB3
:105B560001F02A50D9262B50DA2222C0DEFF23C0BC
:105B6600DEFF24C0DEFF25C0DEFF20EE05F02A5052
:105B7600D9262B50DA2265CFDFFF20EE06F02A5019
:105B8600D9262B50DA2266CFDFFF20EE07F02A5007
:105B9600D9262B50DA2267CFDFFF20EE08F02A50F5
:105BA600D9262B50DA2268CFDFFF20EE09F02A50E3
:105BB600D9262B50DA2269CFDFFF20EE0AF02A50D1
:105BC600D9262B50DA226ACFDFFF20EE0BF02A50BF
:105BD600D9262B50DA226BCFDFFF20EE0CF02A50AD
:105BE600D9262B50DA226CCFDFFF20EE0DF02A509B
:105BF600D9262B50DA226DCFDFFF609E87D00F01AA
:105C060030AF87D032A71ED02AC0D9FF2BC0DAFF0B
:105C1600020EDF6E34CF22F031CF23F032CF24F0E4
:105C260033514AEC2FF020EE01F02A50D9262B50A2
:105C3600DA2222C0DEFF23C0DEFF24C0DEFF25C03D
:105C4600DEFF1AD02AC0D9FF2BC0DAFF010EDF6EA5
:105C560032CF22F00F0131512EEC34F020EE01F05C
:105C66002A50D9262B50DA2222C0DEFF23C0DEFFBF
:105C760024C0DEFF25C0DEFF20EE05F02A50D9261F
:105C86002B50DA2235CFDFFF20EE06F02A50D92638
:105C96002B50DA2236CFDFFF20EE07F02A50D92626
:105CA6002B50DA2237CFDFFF20EE08F02A50D92614
:105CB6002B50DA2238CFDFFF20EE09F02A50D92602
:105CC6002B50DA2239CFDFFF20EE0AF02A50D926F0
:105CD6002B50DA223ACFDFFF20EE0BF02A50D926DE
:105CE6002B50DA223BCFDFFF20EE0CF02A50D926CC
:105CF6002B50DA223CCFDFFF20EE0DF02A50D926BA
:105D06002B50DA223DCFDFFF0F01309F010E00013D
:105D16006B6F779200016B511200090E0001666FDE
:105D2600000E676F000E686F1F0E696F19EC36F074
:105D36003C0E0001666F3C0E676F3C0E686F040EEA
:105D4600696F19EC36F0000E0001666F700E676F12
:105D5600CD0E686FAB0E696F19EC36F0000E0001C0
:105D6600666F600E676FCE0E686F900E696F19ECE6
:105D760036F0FF0E0001666FFF0E676FFF0E686F4D
:105D8600040E696F19EC36F00C0E0001666FFF0EFB
:105D9600676FFF0E686FFF0E696F19EC36F03AC039
:105DA6006FF03BC070F00001716B000E6F25236E23
:105DB600800E7021246E100E7121256E000E276E46
:105DC600F00E266EFBEC35F0020E9DEC36F03AC076
:105DD6006FF03BC070F00001716B000E6F25236EF3
:105DE600800E7021246E100E7121256E000E276E16
:105DF600DE0E266EFBEC35F0020E9DEC36F03AC058
:105E06006FF03BC070F00001716B000E6F25236EC2
:105E1600800E7021246E100E7121256E000E276EE5
:105E26001C0E266EFBEC35F0020E9DEC36F03AC0E9
:105E36006FF03BC070F00001716B000E6F25236E92
:105E4600800E7021246E100E7121256E060E276EAF
:105E5600000E266EFBEC35F0020E9DEC36F03AC0D5
:105E66006FF03BC070F00001716B000E6F25606F24
:105E7600800E7021616F100E7121626F1F0E636FAD
:105E86000F0E646FE3EC33F09DEC36F01200000168
:105E9600606F000E0001616F000E626F000E636F8F
:105EA600000E646F000E676F000E686F000E696F5C
:105EB600000E6A6F2450030B656F2438E842070B07
:105EC600666F2350266E276AD89026362736D890D6
:105ED60026362736D8902636273626C067F027C0BE
:105EE60068F0000E68BFFF0E696F6A6F665167251E
:105EF600676F000E6821686F000E6921696F000EDA
:105F06006A216A6F67C026F068C027F069C028F06A
:105F16006AC029F0020ED89026362736283629364A
:105F2600E82EF9D726C067F027C068F028C069F0C8
:105F360029C06AF065516725676F000E6821686F92
:105F4600000E6921696F000E6A216A6F67C027F02B
:105F560068C028F069C029F0266A26C067F027C005
:105F660068F028C069F029C06AF060516725676F3C
:105F7600000E6821686F000E6921696F000E6A21A4
:105F86006A6F67C027F068C028F069C029F0266AE2
:105F960026C067F027C068F028C069F029C06AF0FB
:105FA60022506725676F000E6821686F000E692111
:105FB600696F000E6A216A6F67C061F068C062F09F
:105FC60069C063F06AC064F061C022F062C023F069
:105FD60063C024F064C025F01200FF0E0001666F56
:105FE600FF0E676FFF0E686F040E696F19EC36F0CF
:105FF6002E0E0001666FFF0E676FFF0E686FFF0EB5
:10600600696F19EC36F03AC06FF03BC070F00001D2
:10601600716B000E6F25236E800E7021246E100E9C
:106026007121256E000E276E400E266EFBEC35F0B4
:10603600020E9DEC36F03AC06FF03BC070F00001E6
:10604600716B000E6F25236E800E7021246E100E6C
:106056007121256E000E276E070E266EFBEC35F0BD
:10606600020E9DEC36F03AC06FF03BC070F00001B6
:10607600716B000E6F25236E800E7021246E100E3C
:106086007121256E000E276E1C0E266EFBEC35F078
:10609600020E9DEC36F03AC06FF03BC070F0000186
:1060A600716B000E6F25236E800E7021246E100E0C
:1060B6007121256E000E276E000E266EFBEC35F064
:1060C600020E9DEC36F06DC066F06EC067F0000102
:1060D600000E67BFFF0E686F696F19EC36F012008D
:1060E6002E0E0001666FFF0E676FFF0E686FFF0EC4
:1060F600696F19EC36F03AC070F03BC071F00001E0
:10610600726B000E7025236E800E7121246E100EA8
:106116007221256E000E276E420E266EFBEC35F0C0
:10612600020E9DEC36F03AC070F03BC071F00001F3
:10613600726B000E7025236E800E7121246E100E78
:106146007221256E000E276EAB0E266EFBEC35F027
:10615600020E9DEC36F03AC070F03BC071F00001C3
:10616600726B000E7025236E800E7121246E100E48
:106176007221256E000E276E1C0E266EFBEC35F086
:10618600020E9DEC36F03AC070F03BC071F0000193
:10619600726B000E7025236E800E7121246E100E18
:1061A6007221256E000E276E000E266EFBEC35F072
:1061B600020E9DEC36F06DC022F06EC023F06FC06B
:1061C60024F0F1EC30F022C066F023C067F024C062
:1061D60068F025C069F019EC36F0120024C026F0EC
:1061E600276A286A2334263601E3278026500001D1
:1061F600656F6551D8A409D0000E226E000E236E7D
:10620600000E246E000E256E1200170E266E22C09A
:1062160027F023C028F024C029F026282A6E04D0AF
:10622600D8902932283227322A2EFAD72750000151
:10623600606F238EFF0E2216FF0E2316000E241605
:106246002250616F2350626F2450636F646B8E0E11
:10625600655F65AF16D06551800A8F0FD8B009D03B
:10626600000E226E000E236E000E246E000E256EAA
:106276001200D8906433633362336133653FF9D7D4
:1062860015D0170E65650FD0000E226E000E236E18
:10629600000E246E000E256E1200D890613762370C
:1062A6006337643765076551D8A4F7D76051D8B40A
:1062B60008D0641F631F621F616D000E6223632393
:1062C600642361C022F062C023F063C024F064C07E
:1062D60025F012002E0E0001666FFF0E676FFF0E8F
:1062E600686FFF0E696F19EC36F03AC06FF03BC06D
:1062F60070F00001716B000E6F25236E800E702109
:10630600246E100E7121256E010E276EC70E266EA5
:10631600FBEC35F0020E9DEC36F03AC06FF03BC058
:1063260070F00001716B000E6F25236E800E7021D8
:10633600246E100E7121256E000E276EA60E266E97
:10634600FBEC35F0020E9DEC36F03AC06FF03BC028
:1063560070F00001716B000E6F25236E800E7021A8
:10636600246E100E7121256E000E276E1E0E266EEF
:10637600FBEC35F0020E9DEC36F03AC06FF03BC0F8
:1063860070F00001716B000E6F25236E800E702178
:10639600246E100E7121256E080E276E000E266ED5
:1063A600FBEC35F0020E9DEC36F06DC066F06EC06B
:1063B60067F00001000E67BFFF0E686F696F19EC8A
:1063C60036F012002E0E0001666FFF0E676FFF0E8D
:1063D600686FFF0E696F19EC36F03AC06FF03BC07C
:1063E60070F00001716B000E6F25236E800E702118
:1063F600246E100E7121256E010E276EDB0E266EA1
:10640600FBEC35F0020E9DEC36F03AC06FF03BC067
:1064160070F00001716B000E6F25236E800E7021E7
:10642600246E100E7121256E000E276E780E266ED4
:10643600FBEC35F0020E9DEC36F03AC06FF03BC037
:1064460070F00001716B000E6F25236E800E7021B7
:10645600246E100E7121256E000E276E1F0E266EFD
:10646600FBEC35F0020E9DEC36F03AC06FF03BC007
:1064760070F00001716B000E6F25236E800E702187
:10648600246E100E7121256E080E276E000E266EE4
:10649600FBEC35F0020E9DEC36F06DC066F06EC07A
:1064A60067F00001000E67BFFF0E686F696F19EC99
:1064B60036F012002E0E0001666FFF0E676FFF0E9C
:1064C600686FFF0E696F19EC36F03AC06FF03BC08B
:1064D60070F00001716B000E6F25236E800E702127
:1064E600246E100E7121256E000E276E420E266E4A
:1064F600FBEC35F0020E9DEC36F03AC06FF03BC077
:1065060070F00001716B000E6F25236E800E7021F6
:10651600246E100E7121256E000E276E300E266E2B
:10652600FBEC35F0020E9DEC36F03AC06FF03BC046
:1065360070F00001716B000E6F25236E800E7021C6
:10654600246E100E7121256E000E276E1C0E266E0F
:10655600FBEC35F0020E9DEC36F03AC06FF03BC016
:1065660070F00001716B000E6F25236E800E702196
:10657600246E100E7121256E000E276E000E266EFB
:10658600FBEC35F0020E9DEC36F06DC066F06EC089
:1065960067F00001000E67BFFF0E686F696F19ECA8
:1065A60036F01200BAEC35F08FEC1DF087C06DF0B6
:1065B60088C06EF0F0EC2FF089C06DF08AC06EF0E6
:1065C6005DEC32F0000E00016E6F040E6D6F63EC31
:1065D60029F08BC06DF08CC06EF0DDEC27F07DC02D
:1065E60060F07EC061F036EC36F060C06DF061C0E0
:1065F6006EF062C06FF073EC30F085C06DF086C04F
:106606006EF02CEC25F07BC06DF07CC06EF0BBEC20
:1066160007F083C06DF084C06EF0E5EC31F081C008
:106626006DF082C06EF06DEC31F0000E00016D6F02
:10663600000E6E6F000E6F6F000E706F000E716FA2
:10664600000E726F000E736F000E746F000E756F82
:10665600000E776F000E766FAFEC12F0190E000188
:106666006D6F0F0E6E6F90EC2EF097EC35F01200FA
:106676002550D8B405D0225023102410D8A40CD00D
:10668600000E226E000E236E000E246E1200252AC6
:10669600D890243223322232000E2214276E000EA6
:1066A6002314286EFE0E2414296E27502810291054
:1066B600D8B40CD0ECD7252A010E2226000E2322B0
:1066C600000E2422D890243223322232000E2214C5
:1066D600276E000E2314286EFF0E2414296E2750F1
:1066E60028102910D8B406D0E6D72506D890223629
:1066F6002336243623BE03D0020E2560F6D725A006
:10670600239ED8902532255024122650D8A4248EB4
:1067160022C022F023C023F024C024F01200800EF1
:106726006F6E6E50E00B800AD8A4FBD7000E726E17
:106736000E01FA69FB69F869F969FE69FF69FC6986
:10674600FD69000EE26F000EE36F000EE06F000EB3
:10675600E16F000EE66F000EE76F000EE46F000EAD
:10676600E56F000EEA6F000EEB6F000EE86F000E8D
:10677600E96F000EEE6F000EEF6F000EEC6F000E6D
:10678600ED6F000EF26F000EF36F000EF06F000E4D
:10679600F16F000EF66F000EF76F000EF46F000E2D
:1067A600F56F000E436F980E446F010E456F000E95
:1067B6006F6E6ECF22F0E00E2216D8B41200F9D713
:1067C6008C90000162518009FEEC36F060C028F022
:1067D60061C029F062C02AF029C028F02AC029F039
:1067E6002A6A2850FEEC36F000016051FEEC36F0C5
:1067F60063C022F064C023F0DCEC35F022500001C7
:10680600656F000E666F14D06651010D63C028F0E7
:1068160064C029F0F3502826F450292228C0F6FF38
:1068260029C0F7FF0800F550FEEC36F00001662B94
:106836006651655DD8A006D0E7D7000EFEEC36F0AF
:106846000001662B66C028F0030E2816D8A4F5D7DB
:106856008C80665112000001606F000E0001616FAE
:10686600000E626F000E636F000E646F6051266E3D
:10687600276AD89026362736D89026362736D890D7
:106886002636273626C065F027C066F0000E66BF9E
:10689600FF0E676F686F22C026F0050E276ED89030
:1068A6002632272EFCD726506525656F000E6621F9
:1068B600666F000E6721676F000E6821686F65C0FE
:1068C60061F066C062F067C063F068C064F061C0E2
:1068D60022F062C023F063C024F064C025F01200E9
:1068E600076E000E086E000E096E000E0A6E000E90
