:0400000065EF00F0B8
:100008004282FACF10F0FBCF11F0E9CF12F0EACF1D
:1000180013F0E1CF14F0E2CF15F0D9CF16F0DACF14
:1000280017F0F3CF18F0F4CF19F0F6CF1AF0F7CF96
:100038001BF0F8CF1CF0F5CF1DF077A024D07690F8
:10004800010E306E62CF01F0615049EC38F001C00A
:1000580031F002C032F003C033F004C034F065CF91
:1000680035F066CF36F067CF37F068CF38F069CF14
:1000780039F06ACF3AF06BCF3BF06CCF3CF06DCFE4
:100088003DF0609E76801DC0F5FF1CC0F8FF1BC0C8
:10009800F7FF1AC0F6FF19C0F4FF18C0F3FF17C026
:1000A800DAFF16C0D9FF15C0E2FF14C0E1FF13C084
:1000B800EAFF12C0E9FF11C0FBFF10C0FAFF42922D
:0600C80011006CEF3AF09C
:100F000000476173205072657373204C6F77200027
:100F100053504545440057415445520050524553A3
:100F20005300564F4C54530068656C6C6F0055531A
:100F30004544004655454C0054454D50004C4153E6
:100F40005400424553540042415454004B50480011
:100F50004F494C0052504D004C415000313000314F
:100F6000310031320054500025002E00330034008F
:0F0F7000350036003700380039003A006B0000BA
:100F800064C01EF065C01FF0030E216EE80E206ED7
:100F90008CEC38F01EC06BF01FC06CF0000E216EA0
:100FA000640E206E64C01EF065C01FF08CEC38F03B
:100FB0001EC026F01FC027F0000E296E0A0E286EF4
:100FC0000AEC39F026C069F027C06AF0FF0E000174
:100FD000606FFF0E616FFF0E626F040E636F0BECAC
:100FE0003AF0090E0001606FFF0E616FFF0E626F35
:100FF000FF0E636F0BEC3AF0320E0001606F320EA1
:10100000616F320E626F000E636F0BEC3AF0130EDD
:101010000001606FFF0E616FFF0E626FFF0E636F66
:101020000BEC3AF03EC066F03FC067F00001686B21
:10103000000E000166251F6E800E00016721206EE4
:10104000100E00016821216E000E236EF00E226E3C
:10105000EDEC39F0020E5EEC3AF03EC066F03FC0B7
:1010600067F00001686B000E000166251F6E800EA0
:1010700000016721206E100E00016821216E000E14
:10108000236E730E226EEDEC39F0020E5EEC3AF038
:101090003EC066F03FC067F00001686B000E0001C3
:1010A00066251F6E800E00016721206E100E000164
:1010B0006821216E000E236E820E226EEDEC39F057
:1010C000020E5EEC3AF03EC066F03FC067F00001F1
:1010D000686B000E000166251F6E800E00016721FF
:1010E000206E100E00016821216E510E236E000E3D
:1010F000226EEDEC39F0020E5EEC3AF03EC066F086
:101100003FC067F00001686B000E000166251F6E8E
:10111000800E00016721206E100E00016821216EF3
:10112000000E236E0A0E226EEDEC39F0020E5EEC1C
:101130003AF03EC066F03FC067F00001686B000EF9
:10114000000166251F6E800E00016721206E100EC3
:1011500000016821216E000E236E050E226EEDEC5B
:1011600039F0020E5EEC3AF03EC066F03FC067F028
:101170000001686B000E000166251F6E800E0001E5
:101180006721206E100E00016821216E000E236E73
:10119000000E226EEDEC39F0020E5EEC3AF03EC02D
:1011A00066F03FC067F00001686B000E0001662525
:1011B0001F6E800E00016721206E100E0001682155
:1011C000216E000E236E0A0E226EEDEC39F0020E37
:1011D0005EEC3AF0000E0001606F000E616FFF0ED2
:1011E000626F040E636F0BEC3AF000016CBF08D025
:1011F00000016C5104E1020E00016B5DD8B0E4D037
:10120000130E0001606FFF0E616FFF0E626FFF0E25
:10121000636F0BEC3AF03EC066F03FC067F0000130
:10122000686B000E000166251F6E800E00016721AD
:10123000206E100E00016821216E000E236EF00E4C
:10124000226EEDEC39F0020E5EEC3AF03EC066F034
:101250003FC067F00001686B000E000166251F6E3D
:10126000800E00016721206E100E00016821216EA2
:10127000000E236E730E226EEDEC39F0020E5EEC62
:101280003AF03EC066F03FC067F00001686B000EA8
:10129000000166251F6E800E00016721206E100E72
:1012A00000016821216E000E236E820E226EEDEC8D
:1012B00039F0020E5EEC3AF03EC066F03FC067F0D7
:1012C0000001686B000E000166251F6E800E000194
:1012D0006721206E100E00016821216E310E236EF1
:1012E000000E226EEDEC39F0020E5EEC3AF03EC0DC
:1012F00066F03FC067F00001686B000E00016625D4
:101300001F6E800E00016721206E100E0001682103
:10131000216E000E236E0A0E226EEDEC39F0020EE5
:101320005EEC3AF03EC066F03FC067F00001686BCB
:10133000000E000166251F6E800E00016721206EE1
:10134000100E00016821216E000E236E050E226E24
:10135000EDEC39F0020E5EEC3AF03EC066F03FC0B4
:1013600067F00001686B000E000166251F6E800E9D
:1013700000016721206E100E00016821216E6BC0F4
:1013800022F06CC023F0EDEC39F0020E5EEC3AF086
:101390003EC066F03FC067F00001686B000E0001C0
:1013A00066251F6E800E00016721206E100E000161
:1013B0006821216E000E236E0A0E226EEDEC39F0CC
:1013C000020E5EEC3AF0E7D0130E0001606FFF0EE4
:1013D000616FFF0E626FFF0E636F0BEC3AF03EC061
:1013E00066F03FC067F00001686B000E00016625E3
:1013F0001F6E800E00016721206E100E0001682113
:10140000216E000E236EF00E226EEDEC39F0020E0E
:101410005EEC3AF03EC066F03FC067F00001686BDA
:10142000000E000166251F6E800E00016721206EF0
:10143000100E00016821216E000E236E730E226EC5
:10144000EDEC39F0020E5EEC3AF03EC066F03FC0C3
:1014500067F00001686B000E000166251F6E800EAC
:1014600000016721206E100E00016821216E000E20
:10147000236E820E226EEDEC39F0020E5EEC3AF035
:101480003EC066F03FC067F00001686B000E0001CF
:1014900066251F6E800E00016721206E100E000170
:1014A0006821216E310E236E000E226EEDEC39F0B4
:1014B000020E5EEC3AF03EC066F03FC067F00001FD
:1014C000686B000E000166251F6E800E000167210B
:1014D000206E100E00016821216E000E236E0A0E90
:1014E000226EEDEC39F0020E5EEC3AF03EC066F092
:1014F0003FC067F00001686B000E000166251F6E9B
:10150000800E00016721206E100E00016821216EFF
:10151000000E236E050E226EEDEC39F0020E5EEC2D
:101520003AF03EC066F03FC067F00001686B000E05
:10153000000166251F6E800E00016721206E100ECF
:1015400000016821216EFE0E00016B25226EFF0E48
:1015500000016C21236EEDEC39F0020E5EEC3AF0E6
:101560003EC066F03FC067F00001686B000E0001EE
:1015700066251F6E800E00016721206E100E00018F
:101580006821216E000E236E0A0E226EEDEC39F0FA
:10159000020E5EEC3AF0FF0E0001606FFF0E616F0D
:1015A000FF0E626F040E636F0BEC3AF02E0E00011B
:1015B000606FFF0E616FFF0E626FFF0E636F0BECCB
:1015C0003AF03EC066F03FC067F00001686B000E65
:1015D000000166251F6E800E00016721206E100E2F
:1015E00000016821216E000E236EED0E226EEDECDF
:1015F00039F0020E5EEC3AF03EC066F03FC067F094
:101600000001686B000E000166251F6E800E000150
:101610006721206E100E00016821216E000E236EDE
:10162000590E226EEDEC39F0020E5EEC3AF03EC03F
:1016300066F03FC067F00001686B000E0001662590
:101640001F6E800E00016721206E100E00016821C0
:10165000216E000E236E1F0E226EEDEC39F0020E8D
:101660005EEC3AF03EC066F03FC067F00001686B88
:10167000000E000166251F6E800E00016721206E9E
:10168000100E00016821216E080E236E000E226EDE
:10169000EDEC39F0020E5EEC3AF06BC060F06CC01D
:1016A00061F00001000E61BFFF0E626F636F0BEC13
:1016B0003AF02E0E0001606FFF0E616FFF0E626F39
:1016C000FF0E636F0BEC3AF03EC066F03FC067F070
:1016D0000001686B000E000166251F6E800E000180
:1016E0006721206E100E00016821216E000E236E0E
:1016F000F30E226EEDEC39F0020E5EEC3AF03EC0D5
:1017000066F03FC067F00001686B000E00016625BF
:101710001F6E800E00016721206E100E00016821EF
:10172000216E000E236E590E226EEDEC39F0020E82
:101730005EEC3AF03EC066F03FC067F00001686BB7
:10174000000E000166251F6E800E00016721206ECD
:10175000100E00016821216E000E236E1F0E226EF6
:10176000EDEC39F0020E5EEC3AF03EC066F03FC0A0
:1017700067F00001686B000E000166251F6E800E89
:1017800000016721206E100E00016821216E000EFD
:10179000236E000E226EEDEC39F0020E5EEC3AF094
:1017A00069C060F06AC061F00001000E61BFFF0E09
:1017B000626F636F0BEC3AF00C0E0001606FFF0E6E
:1017C000616FFF0E626FFF0E636F0BEC3AF03EC06D
:1017D00066F03FC067F00001686B000E00016625EF
:1017E0001F6E800E00016721206E100E000168211F
:1017F000216E000E236EB70E226EEDEC39F0020E54
:101800005EEC3AF03EC066F03FC067F00001686BE6
:10181000000E000166251F6E800E00016721206EFC
:10182000100E00016821216E000E236EA10E226EA3
:10183000EDEC39F0020E5EEC3AF03EC066F03FC0CF
:1018400067F00001686B000E000166251F6E800EB8
:1018500000016721206E100E00016821216E000E2C
:10186000236E1C0E226EEDEC39F0020E5EEC3AF0A7
:101870003EC066F03FC067F00001686B000E0001DB
:1018800066251F6E800E00016721206E100E00017C
:101890006821216E000E236E000E226EEDEC39F0F1
:1018A000020E5EEC3AF03EC066F03FC067F0000109
:1018B000686B000E00016625246E800E0001672112
:1018C000256E100E00016821266E630E276E0F0E26
:1018D000286EC0EC37F05EEC3AF00C0E0001606F41
:1018E000FF0E616FFF0E626FFF0E636F0BEC3AF03D
:1018F0003EC066F03FC067F00001686B000E00015B
:1019000066251F6E800E00016721206E100E0001FB
:101910006821216E000E236EA00E226EEDEC39F0D0
:10192000020E5EEC3AF03EC066F03FC067F0000188
:10193000686B000E000166251F6E800E0001672196
:10194000206E100E00016821216E000E236E820EA3
:10195000226EEDEC39F0020E5EEC3AF03EC066F01D
:101960003FC067F00001686B000E000166251F6E26
:10197000800E00016721206E100E00016821216E8B
:10198000000E236E1C0E226EEDEC39F0020E5EECA2
:101990003AF03EC066F03FC067F00001686B000E91
:1019A000000166251F6E800E00016721206E100E5B
:1019B00000016821216E000E236E000E226EEDECF8
:1019C00039F0020E5EEC3AF03EC066F03FC067F0C0
:1019D0000001686B000E00016625246E800E000178
:1019E0006721256E100E00016821266E6C0E276E91
:1019F0000F0E286EC0EC37F05EEC3AF00C0E0001D2
:101A0000606FFF0E616FFF0E626FFF0E636F0BEC76
:101A10003AF03EC066F03FC067F00001686B000E10
:101A2000000166251F6E800E00016721206E100EDA
:101A300000016821216E000E236E9B0E226EEDECDC
:101A400039F0020E5EEC3AF03EC066F03FC067F03F
:101A50000001686B000E000166251F6E800E0001FC
:101A60006721206E100E00016821216E000E236E8A
:101A70005C0E226EEDEC39F0020E5EEC3AF03EC0E8
:101A800066F03FC067F00001686B000E000166253C
:101A90001F6E800E00016721206E100E000168216C
:101AA000216E000E236E1C0E226EEDEC39F0020E3C
:101AB0005EEC3AF03EC066F03FC067F00001686B34
:101AC000000E000166251F6E800E00016721206E4A
:101AD000100E00016821216E000E236E000E226E92
:101AE000EDEC39F0020E5EEC3AF03EC066F03FC01D
:101AF00067F00001686B000E00016625246E800E01
:101B000000016721256E100E00016821266E6E0E01
:101B1000276E0F0E286EC0EC37F05EEC3AF00C0E1C
:101B20000001606FFF0E616FFF0E626FFF0E636F4B
:101B30000BEC3AF03EC066F03FC067F00001686B06
:101B4000000E000166251F6E800E00016721206EC9
:101B5000100E00016821216E000E236EAB0E226E66
:101B6000EDEC39F0020E5EEC3AF03EC066F03FC09C
:101B700067F00001686B000E000166251F6E800E85
:101B800000016721206E100E00016821216E000EF9
:101B9000236E3A0E226EEDEC39F0020E5EEC3AF056
:101BA0003EC066F03FC067F00001686B000E0001A8
:101BB00066251F6E800E00016721206E100E000149
:101BC0006821216E000E236E1C0E226EEDEC39F0A2
:101BD000020E5EEC3AF03EC066F03FC067F00001D6
:101BE000686B000E000166251F6E800E00016721E4
:101BF000206E100E00016821216E000E236E000E73
:101C0000226EEDEC39F0020E5EEC3AF03EC066F06A
:101C10003FC067F00001686B000E00016625246E6E
:101C2000800E00016721256E100E00016821266ECE
:101C3000700E276E0F0E286EC0EC37F05EEC3AF097
:101C40000C0E0001606FFF0E616FFF0E626FFF0EE2
:101C5000636F0BEC3AF03EC066F03FC067F00001E6
:101C6000686B000E000166251F6E800E0001672163
:101C7000206E100E00016821216E000E236EC90E29
:101C8000226EEDEC39F0020E5EEC3AF03EC066F0EA
:101C90003FC067F00001686B000E000166251F6EF3
:101CA000800E00016721206E100E00016821216E58
:101CB000000E236E210E226EEDEC39F0020E5EEC6A
:101CC0003AF03EC066F03FC067F00001686B000E5E
:101CD000000166251F6E800E00016721206E100E28
:101CE00000016821216E000E236E1C0E226EEDECA9
:101CF00039F0020E5EEC3AF03EC066F03FC067F08D
:101D00000001686B000E000166251F6E800E000149
:101D10006721206E100E00016821216E000E236ED7
:101D2000000E226EEDEC39F0020E5EEC3AF03EC091
:101D300066F03FC067F00001686B000E0001662589
:101D4000246E800E00016721256E100E00016821AF
:101D5000266E720E276E0F0E286EC0EC37F05EEC0A
:101D60003AF00C0E0001606FFF0E616FFF0E626FA4
:101D7000FF0E636F0BEC3AF03EC066F03FC067F0B9
:101D80000001686B000E000166251F6E800E0001C9
:101D90006721206E100E00016821216E000E236E57
:101DA000EB0E226EEDEC39F0020E5EEC3AF03EC026
:101DB00066F03FC067F00001686B000E0001662509
:101DC0001F6E800E00016721206E100E0001682139
:101DD000216E000E236E1A0E226EEDEC39F0020E0B
:101DE0005EEC3AF03EC066F03FC067F00001686B01
:101DF000000E000166251F6E800E00016721206E17
:101E0000100E00016821216E000E236E1C0E226E42
:101E1000EDEC39F0020E5EEC3AF03EC066F03FC0E9
:101E200067F00001686B000E000166251F6E800ED2
:101E300000016721206E100E00016821216E000E46
:101E4000236E000E226EEDEC39F0020E5EEC3AF0DD
:101E50003EC066F03FC067F00001686B000E0001F5
:101E60006625246E800E00016721256E100E00018C
:101E70006821266E740E276E0F0E286EC0EC37F0A8
:101E80005EEC3AF00C0E0001606FFF0E616FFF0E0A
:101E9000626FFF0E636F0BEC3AF03EC066F03FC01E
:101EA00067F00001686B000E000166251F6E800E52
:101EB00000016721206E100E00016821216E010EC5
:101EC000236E0D0E226EEDEC39F0020E5EEC3AF050
:101ED0003EC066F03FC067F00001686B000E000175
:101EE00066251F6E800E00016721206E100E000116
:101EF0006821216E000E236E210E226EEDEC39F06A
:101F0000020E5EEC3AF03EC066F03FC067F00001A2
:101F1000686B000E000166251F6E800E00016721B0
:101F2000206E100E00016821216E000E236E1C0E23
:101F3000226EEDEC39F0020E5EEC3AF03EC066F037
:101F40003FC067F00001686B000E000166251F6E40
:101F5000800E00016721206E100E00016821216EA5
:101F6000000E236E000E226EEDEC39F0020E5EECD8
:101F70003AF03EC066F03FC067F00001686B000EAB
:101F800000016625246E800E00016721256E100E6B
:101F900000016821266E760E276E0F0E286EC0ECAB
:101FA00037F05EEC3AF00C0E0001606FFF0E616FCF
:101FB000FF0E626FFF0E636F0BEC3AF03EC066F0EF
:101FC0003FC067F00001686B000E000166251F6EC0
:101FD000800E00016721206E100E00016821216E25
:101FE000010E236E2A0E226EEDEC39F0020E5EEC2D
:101FF0003AF03EC066F03FC067F00001686B000E2B
:10200000000166251F6E800E00016721206E100EF4
:1020100000016821216E000E236E3A0E226EEDEC57
:1020200039F0020E5EEC3AF03EC066F03FC067F059
:102030000001686B000E000166251F6E800E000116
:102040006721206E100E00016821216E000E236EA4
:102050001C0E226EEDEC39F0020E5EEC3AF03EC042
:1020600066F03FC067F00001686B000E0001662556
:102070001F6E800E00016721206E100E0001682186
:10208000216E000E236E000E226EEDEC39F0020E72
:102090005EEC3AF03EC066F03FC067F00001686B4E
:1020A000000E00016625246E800E00016721256E5A
:1020B000100E00016821266E780E276E0F0E286E16
:1020C000C0EC37F05EEC3AF00C0E0001606FFF0ED2
:1020D000616FFF0E626FFF0E636F0BEC3AF03EC054
:1020E00066F03FC067F00001686B000E00016625D6
:1020F0001F6E800E00016721206E100E0001682106
:10210000216E010E236E2D0E226EEDEC39F0020EC3
:102110005EEC3AF03EC066F03FC067F00001686BCD
:10212000000E000166251F6E800E00016721206EE3
:10213000100E00016821216E000E236E5C0E226ECF
:10214000EDEC39F0020E5EEC3AF03EC066F03FC0B6
:1021500067F00001686B000E000166251F6E800E9F
:1021600000016721206E100E00016821216E000E13
:10217000236E1C0E226EEDEC39F0020E5EEC3AF08E
:102180003EC066F03FC067F00001686B000E0001C2
:1021900066251F6E800E00016721206E100E000163
:1021A0006821216E000E236E000E226EEDEC39F0D8
:1021B000020E5EEC3AF03EC066F03FC067F00001F0
:1021C000686B000E00016625246E800E00016721F9
:1021D000256E100E00016821266E5C0E276E0F0E14
:1021E000286EC0EC37F05EEC3AF00C0E0001606F28
:1021F000FF0E616FFF0E626FFF0E636F0BEC3AF024
:102200003EC066F03FC067F00001686B000E000141
:1022100066251F6E800E00016721206E100E0001E2
:102220006821216E010E236E2B0E226EEDEC39F02B
:10223000020E5EEC3AF03EC066F03FC067F000016F
:10224000686B000E000166251F6E800E000167217D
:10225000206E100E00016821216E000E236E820E8A
:10226000226EEDEC39F0020E5EEC3AF03EC066F004
:102270003FC067F00001686B000E000166251F6E0D
:10228000800E00016721206E100E00016821216E72
:10229000000E236E1C0E226EEDEC39F0020E5EEC89
:1022A0003AF03EC066F03FC067F00001686B000E78
:1022B000000166251F6E800E00016721206E100E42
:1022C00000016821216E000E236E000E226EEDECDF
:1022D00039F0020E5EEC3AF03EC066F03FC067F0A7
:1022E0000001686B000E00016625246E800E00015F
:1022F0006721256E100E00016821266E5F0E276E85
:102300000F0E286EC0EC37F05EEC3AF00C0E0001B8
:10231000606FFF0E616FFF0E626FFF0E636F0BEC5D
:102320003AF03EC066F03FC067F00001686B000EF7
:10233000000166251F6E800E00016721206E100EC1
:1023400000016821216E010E236E120E226EEDEC4B
:1023500039F0020E5EEC3AF03EC066F03FC067F026
:102360000001686B000E000166251F6E800E0001E3
:102370006721206E100E00016821216E000E236E71
:10238000A10E226EEDEC39F0020E5EEC3AF03EC08A
:1023900066F03FC067F00001686B000E0001662523
:1023A0001F6E800E00016721206E100E0001682153
:1023B000216E000E236E1C0E226EEDEC39F0020E23
:1023C0005EEC3AF03EC066F03FC067F00001686B1B
:1023D000000E000166251F6E800E00016721206E31
:1023E000100E00016821216E000E236E000E226E79
:1023F000EDEC39F0020E5EEC3AF03EC066F03FC004
:1024000067F00001686B000E00016625246E800EE7
:1024100000016721256E100E00016821266E620EF4
:10242000276E0F0E286EC0EC37F05EEC3AF00C0E03
:102430000001606FFF0E616FFF0E626FFF0E636F32
:102440000BEC3AF03EC066F03FC067F00001686BED
:10245000000E000166251F6E800E00016721206EB0
:10246000100E00016821216E000E236EF10E226E07
:10247000EDEC39F0020E5EEC3AF03EC066F03FC083
:1024800067F00001686B000E000166251F6E800E6C
:1024900000016721206E100E00016821216E000EE0
:1024A000236E720E226EEDEC39F0020E5EEC3AF005
:1024B0003EC066F03FC067F00001686B000E00018F
:1024C00066251F6E800E00016721206E100E000130
:1024D0006821216E000E236E1F0E226EEDEC39F086
:1024E000020E5EEC3AF03EC066F03FC067F00001BD
:1024F000686B000E000166251F6E800E00016721CB
:10250000206E100E00016821216E060E236E000E53
:10251000226EEDEC39F0020E5EEC3AF03EC066F051
:102520003FC067F00001686B000E00016625246E55
:10253000800E00016721256E100E00016821266EB5
:102540006A0E276E0F0E286EC0EC37F05EEC3AF084
:102550000C0E0001606FFF0E616FFF0E626FFF0EC9
:10256000636F0BEC3AF03EC066F03FC067F00001CD
:10257000686B000E000166251F6E800E000167214A
:10258000206E100E00016821216E010E236E0B0ECD
:10259000226EEDEC39F0020E5EEC3AF03EC066F0D1
:1025A0003FC067F00001686B000E000166251F6EDA
:1025B000800E00016721206E100E00016821216E3F
:1025C000000E236E6C0E226EEDEC39F0020E5EEC06
:1025D0003AF03EC066F03FC067F00001686B000E45
:1025E000000166251F6E800E00016721206E100E0F
:1025F00000016821216E000E236E1C0E226EEDEC90
:1026000039F0020E5EEC3AF03EC066F03FC067F073
:102610000001686B000E000166251F6E800E000130
:102620006721206E100E00016821216E000E236EBE
:10263000000E226EEDEC39F0020E5EEC3AF03EC078
:1026400066F03FC067F00001686B000E0001662570
:10265000246E800E00016721256E100E0001682196
:10266000266E7C0E276E0F0E286EC0EC37F05EECE7
:102670003AF00C0E0001606FFF0E616FFF0E626F8B
:10268000FF0E636F0BEC3AF03EC066F03FC067F0A0
:102690000001686B000E000166251F6E800E0001B0
:1026A0006721206E100E00016821216E000E236E3E
:1026B000E30E226EEDEC39F0020E5EEC3AF03EC015
:1026C00066F03FC067F00001686B000E00016625F0
:1026D0001F6E800E00016721206E100E0001682120
:1026E000216E000E236E840E226EEDEC39F0020E88
:1026F0005EEC3AF03EC066F03FC067F00001686BE8
:10270000000E000166251F6E800E00016721206EFD
:10271000100E00016821216E000E236E1A0E226E2B
:10272000EDEC39F0020E5EEC3AF03EC066F03FC0D0
:1027300067F00001686B000E000166251F6E800EB9
:1027400000016721206E100E00016821216E000E2D
:10275000236E000E226EEDEC39F0020E5EEC3AF0C4
:102760003EC066F03FC067F00001686B000E0001DC
:102770006625246E800E00016721256E100E000173
:102780006821266E540E276E0F0E286EC0EC37F0AF
:102790005EEC3AF01200000E0001606F000E616FF7
:1027A000FF0E626F040E636F0BEC3AF0080E00012F
:1027B000606F000E616F000E626F1F0E636F0BEC97
:1027C0003AF0000E0001606F800E616F0C0E626FB8
:1027D000800E636F0BEC3AF0000E0001606F800E0C
:1027E000616F6C0E626F970E636F0BEC3AF0000E28
:1027F0000001606FD00E616F0A0E626F9B0E636FF7
:102800000BEC3AF0000E0001606FD00E616FEA0E23
:10281000626FA00E636F0BEC3AF0000E0001606F68
:10282000800E616F8C0E626FA40E636F0BEC3AF03A
:10283000000E0001606F800E616F0C0E626FBC0EA7
:10284000636F0BEC3AF0000E0001606F000E616FD9
:10285000000E626F040E636F0BEC3AF0080E00017D
:10286000606F000E616F000E626F1F0E636F0BECE6
:102870003AF0000E0001606FD00E616F0C0E626FB7
:10288000800E636F0BEC3AF0000E0001606FC00E1B
:10289000616FAC0E626F970E636F0BEC3AF0000E37
:1028A0000001606F100E616F2B0E626F9B0E636FE5
:1028B0000BEC3AF0000E0001606F100E616FAB0E72
:1028C000626FA00E636F0BEC3AF0000E0001606FB8
:1028D000C00E616F2C0E626FA40E636F0BEC3AF0AA
:1028E000000E0001606FD00E616F6C0E626FBC0E47
:1028F000636F0BEC3AF0000E0001606F7D0E616FAC
:10290000FF0E626F040E636F0BEC3AF00C0E0001C9
:10291000606FFF0E616FFF0E626FFF0E636F0BEC57
:102920003AF03EC06FF03FC070F00001716B000ED6
:1029300000016F251F6E800E00017021206E100EA9
:1029400000017121216E000E236E050E226EEDEC4A
:1029500039F0020E5EEC3AF03EC06FF03FC070F00E
:102960000001716B000E00016F251F6E800E0001CB
:102970007021206E100E00017121216E000E236E59
:10298000CF0E226EEDEC39F0020E5EEC3AF03EC056
:102990006FF03FC070F00001716B000E00016F25F9
:1029A0001F6E800E00017021206E100E000171213B
:1029B000216E000E236E1B0E226EEDEC39F0020E1E
:1029C0005EEC3AF03EC06FF03FC070F00001716BFA
:1029D000000E00016F251F6E800E00017021206E19
:1029E000100E00017121216E000E236E000E226E6A
:1029F000EDEC39F0020E5EEC3AF03EC06FF03FC0F5
:102A000070F00001716B000E00016F25246E800EC6
:102A100000017021256E100E00017121266E3D0E01
:102A2000276E0F0E286EC0EC37F05EEC3AF02E0EDB
:102A30000001606FFF0E616FFF0E626FFF0E636F2C
:102A40000BEC3AF03EC06FF03FC070F00001716BCC
:102A5000000E00016F251F6E800E00017021206E98
:102A6000100E00017121216E000E236E420E226EA7
:102A7000EDEC39F0020E5EEC3AF03EC06FF03FC074
:102A800070F00001716B000E00016F251F6E800E4B
:102A900000017021206E100E00017121216E000EC8
:102AA000236ED90E226EEDEC39F0020E5EEC3AF098
:102AB0003EC06FF03FC070F00001716B000E00016E
:102AC0006F251F6E800E00017021206E100E000118
:102AD0007121216E000E236E1B0E226EEDEC39F07B
:102AE000020E5EEC3AF03EC06FF03FC070F00001A5
:102AF000716B000E00016F251F6E800E00017021AA
:102B0000206E100E00017121216E060E236E000E44
:102B1000226EEDEC39F0020E5EEC3AF0030E00018D
:102B2000606F000E616F000E626F000E636F0BEC42
:102B30003AF00C0E0001606FFF0E616FFF0E626FC6
:102B4000FF0E636F0BEC3AF03EC06FF03FC070F0C9
:102B50000001716B000E00016F251F6E800E0001D9
:102B60007021206E100E00017121216E010E236E66
:102B7000C00E226EEDEC39F0020E5EEC3AF03EC073
:102B80006FF03FC070F00001716B000E00016F2507
:102B90001F6E800E00017021206E100E0001712149
:102BA000216E000E236ECF0E226EEDEC39F0020E78
:102BB0005EEC3AF03EC06FF03FC070F00001716B08
:102BC000000E00016F251F6E800E00017021206E27
:102BD000100E00017121216E000E236E1B0E226E5D
:102BE000EDEC39F0020E5EEC3AF03EC06FF03FC003
:102BF00070F00001716B000E00016F251F6E800EDA
:102C000000017021206E100E00017121216E080E4E
:102C1000236E000E226EEDEC39F0020E5EEC3AF0FF
:102C20003EC06FF03FC070F00001716B000E0001FC
:102C30006F25246E800E00017021256E100E00019C
:102C40007121266E420E276E0F0E286EC0EC37F0F3
:102C50005EEC3AF02E0E0001606FFF0E616FFF0E0A
:102C6000626FFF0E636F0BEC3AF03EC06FF03FC037
:102C700070F00001716B000E00016F251F6E800E59
:102C800000017021206E100E00017121216E010ED5
:102C9000236EDB0E226EEDEC39F0020E5EEC3AF0A4
:102CA0003EC06FF03FC070F00001716B000E00017C
:102CB0006F251F6E800E00017021206E100E000126
:102CC0007121216E000E236ECF0E226EEDEC39F0D5
:102CD000020E5EEC3AF03EC06FF03FC070F00001B3
:102CE000716B000E00016F251F6E800E00017021B8
:102CF000206E100E00017121216E000E236E1B0E3E
:102D0000226EEDEC39F0020E5EEC3AF03EC06FF050
:102D10003FC070F00001716B000E00016F251F6E47
:102D2000800E00017021206E100E00017121216EB5
:102D3000080E236E000E226EEDEC39F0020E5EECF2
:102D40003AF0010E0001606F000E616F000E626FBD
:102D5000000E636F0BEC3AF00C0E0001606FFF0E7B
:102D6000616FFF0E626FFF0E636F0BEC3AF03EC0B7
:102D70006FF03FC070F00001716B000E00016F2515
:102D80001F6E800E00017021206E100E0001712157
:102D9000216E000E236EF00E226EEDEC39F0020E65
:102DA0005EEC3AF03EC06FF03FC070F00001716B16
:102DB000000E00016F251F6E800E00017021206E35
:102DC000100E00017121216E000E236EA50E226EE1
:102DD000EDEC39F0020E5EEC3AF03EC06FF03FC011
:102DE00070F00001716B000E00016F251F6E800EE8
:102DF00000017021206E100E00017121216E000E65
:102E0000236E1B0E226EEDEC39F0020E5EEC3AF0F2
:102E10003EC06FF03FC070F00001716B000E00010A
:102E20006F251F6E800E00017021206E100E0001B4
:102E30007121216E060E236E000E226EEDEC39F02C
:102E4000020E5EEC3AF03EC06FF03FC070F0000141
:102E5000716B000E00016F25246E800E0001702141
:102E6000256E100E00017121266E580E276E0F0E72
:102E7000286EC0EC37F05EEC3AF02E0E0001606F69
:102E8000FF0E616FFF0E626FFF0E636F0BEC3AF087
:102E90003EC06FF03FC070F00001716B000E00018A
:102EA0006F251F6E800E00017021206E100E000134
:102EB0007121216E000E236EF00E226EEDEC39F0C2
:102EC000020E5EEC3AF03EC06FF03FC070F00001C1
:102ED000716B000E00016F251F6E800E00017021C6
:102EE000206E100E00017121216E000E236EBE0EA9
:102EF000226EEDEC39F0020E5EEC3AF03EC06FF05F
:102F00003FC070F00001716B000E00016F251F6E55
:102F1000800E00017021206E100E00017121216EC3
:102F2000000E236E1D0E226EEDEC39F0020E5EECEB
:102F30003AF03EC06FF03FC070F00001716B000EC0
:102F400000016F251F6E800E00017021206E100E93
:102F500000017121216E060E236E000E226EEDEC33
:102F600039F0020E5EEC3AF0070E0001606F000EC1
:102F7000616F000E626F000E636F0BEC3AF0FF0E94
:102F80000001606FFF0E616FFF0E626F040E636FD2
:102F90000BEC3AF02E0E0001606FFF0E616FFF0E1A
:102FA000626FFF0E636F0BEC3AF03EC06FF03FC0F4
:102FB00070F00001716B000E00016F251F6E800E16
:102FC00000017021206E100E00017121216E000E93
:102FD000236E240E226EEDEC39F0020E5EEC3AF018
:102FE0003EC06FF03FC070F00001716B000E000139
:102FF0006F251F6E800E00017021206E100E0001E3
:103000007121216E000E236EDE0E226EEDEC39F082
:10301000020E5EEC3AF03EC06FF03FC070F000016F
:10302000716B000E00016F251F6E800E0001702174
:10303000206E100E00017121216E000E236E1E0EF7
:10304000226EEDEC39F0020E5EEC3AF03EC06FF00D
:103050003FC070F00001716B000E00016F251F6E04
:10306000800E00017021206E100E00017121216E72
:10307000080E236E000E226EEDEC39F0020E5EECAF
:103080003AF0120E0001606F000E616F000E626F69
:10309000000E636F0BEC3AF00C0E0001606FFF0E38
:1030A000616FFF0E626FFF0E636F0BEC3AF03EC074
:1030B0006FF03FC070F00001716B000E00016F25D2
:1030C0001F6E800E00017021206E100E0001712114
:1030D000216E000E236E270E226EEDEC39F0020EEB
:1030E0005EEC3AF03EC06FF03FC070F00001716BD3
:1030F000000E00016F251F6E800E00017021206EF2
:10310000100E00017121216E000E236EEE0E226E54
:10311000EDEC39F0020E5EEC3AF03EC06FF03FC0CD
:1031200070F00001716B000E00016F251F6E800EA4
:1031300000017021206E100E00017121216E000E21
:10314000236E1C0E226EEDEC39F0020E5EEC3AF0AE
:103150003EC06FF03FC070F00001716B000E0001C7
:103160006F251F6E800E00017021206E100E000171
:103170007121216E060E236E000E226EEDEC39F0E9
:10318000020E5EEC3AF03EC06FF03FC070F00001FE
:10319000716B000E00016F25246E800E00017021FE
:1031A000256E100E00017121266E7A0E276E0F0E0D
:1031B000286EC0EC37F05EEC3AF02E0E0001606F26
:1031C000FF0E616FFF0E626FFF0E636F0BEC3AF044
:1031D0003EC06FF03FC070F00001716B000E000147
:1031E0006F251F6E800E00017021206E100E0001F1
:1031F0007121216E000E236E2A0E226EEDEC39F045
:10320000020E5EEC3AF03EC06FF03FC070F000017D
:10321000716B000E00016F251F6E800E0001702182
:10322000206E100E00017121216E000E236EDE0E45
:10323000226EEDEC39F0020E5EEC3AF03EC06FF01B
:103240003FC070F00001716B000E00016F251F6E12
:10325000800E00017021206E100E00017121216E80
:10326000000E236E1E0E226EEDEC39F0020E5EECA7
:103270003AF03EC06FF03FC070F00001716B000E7D
:1032800000016F251F6E800E00017021206E100E50
:1032900000017121216E000E236E020E226EEDECF4
:1032A00039F0020E5EEC3AF0240E0001606F000E61
:1032B000616F000E626F000E636F0BEC3AF00C0E44
:1032C0000001606FFF0E616FFF0E626FFF0E636F94
:1032D0000BEC3AF03EC06FF03FC070F00001716B34
:1032E000000E00016F251F6E800E00017021206E00
:1032F000100E00017121216E000E236E4F0E226E02
:10330000EDEC39F0020E5EEC3AF03EC06FF03FC0DB
:1033100070F00001716B000E00016F251F6E800EB2
:1033200000017021206E100E00017121216E000E2F
:10333000236EEE0E226EEDEC39F0020E5EEC3AF0EA
:103340003EC06FF03FC070F00001716B000E0001D5
:103350006F251F6E800E00017021206E100E00017F
:103360007121216E000E236E1C0E226EEDEC39F0E1
:10337000020E5EEC3AF03EC06FF03FC070F000010C
:10338000716B000E00016F251F6E800E0001702111
:10339000206E100E00017121216E060E236E000EAC
:1033A000226EEDEC39F0020E5EEC3AF03EC06FF0AA
:1033B0003FC070F00001716B000E00016F25246E9C
:1033C000800E00017021256E100E00017121266E05
:1033D0007A0E276E0F0E286EC0EC37F05EEC3AF0D6
:1033E0002E0E0001606FFF0E616FFF0E626FFF0E09
:1033F000636F0BEC3AF03EC06FF03FC070F000011D
:10340000716B000E00016F251F6E800E0001702190
:10341000206E100E00017121216E000E236E520EDF
:10342000226EEDEC39F0020E5EEC3AF03EC06FF029
:103430003FC070F00001716B000E00016F251F6E20
:10344000800E00017021206E100E00017121216E8E
:10345000000E236EDD0E226EEDEC39F0020E5EECF6
:103460003AF03EC06FF03FC070F00001716B000E8B
:1034700000016F251F6E800E00017021206E100E5E
:1034800000017121216E000E236E1E0E226EEDECE6
:1034900039F0020E5EEC3AF03EC06FF03FC070F0C3
:1034A0000001716B000E00016F251F6E800E000180
:1034B0007021206E100E00017121216E000E236E0E
:1034C000020E226EEDEC39F0020E5EEC3AF0590E6F
:1034D0000001606F000E616F000E626F000E636F7F
:1034E0000BEC3AF02E0E0001606FFF0E616FFF0EC5
:1034F000626FFF0E636F0BEC3AF03EC06FF03FC09F
:1035000070F00001716B000E00016F251F6E800EC0
:1035100000017021206E100E00017121216E010E3C
:10352000236E8D0E226EEDEC39F0020E5EEC3AF059
:103530003EC06FF03FC070F00001716B000E0001E3
:103540006F251F6E800E00017021206E100E00018D
:103550007121216E000E236EDE0E226EEDEC39F02D
:10356000020E5EEC3AF03EC06FF03FC070F000011A
:10357000716B000E00016F251F6E800E000170211F
:10358000206E100E00017121216E000E236E1E0EA2
:10359000226EEDEC39F0020E5EEC3AF03EC06FF0B8
:1035A0003FC070F00001716B000E00016F251F6EAF
:1035B000800E00017021206E100E00017121216E1D
:1035C000080E236E000E226EEDEC39F0020E5EEC5A
:1035D0003AF0130E0001606F000E616F000E626F13
:1035E000000E636F0BEC3AF00C0E0001606FFF0EE3
:1035F000616FFF0E626FFF0E636F0BEC3AF03EC01F
:103600006FF03FC070F00001716B000E00016F257C
:103610001F6E800E00017021206E100E00017121BE
:10362000216E010E236E900E226EEDEC39F0020E2B
:103630005EEC3AF03EC06FF03FC070F00001716B7D
:10364000000E00016F251F6E800E00017021206E9C
:10365000100E00017121216E000E236EEF0E226EFE
:10366000EDEC39F0020E5EEC3AF03EC06FF03FC078
:1036700070F00001716B000E00016F251F6E800E4F
:1036800000017021206E100E00017121216E000ECC
:10369000236E1C0E226EEDEC39F0020E5EEC3AF059
:1036A0003EC06FF03FC070F00001716B000E000172
:1036B0006F251F6E800E00017021206E100E00011C
:1036C0007121216E060E236E000E226EEDEC39F094
:1036D000020E5EEC3AF03EC06FF03FC070F00001A9
:1036E000716B000E00016F25246E800E00017021A9
:1036F000256E100E00017121266E7A0E276E0F0EB8
:10370000286EC0EC37F05EEC3AF02E0E0001606FD0
:10371000FF0E616FFF0E626FFF0E636F0BEC3AF0EE
:103720003EC06FF03FC070F00001716B000E0001F1
:103730006F251F6E800E00017021206E100E00019B
:103740007121216E010E236E930E226EEDEC39F085
:10375000020E5EEC3AF03EC06FF03FC070F0000128
:10376000716B000E00016F251F6E800E000170212D
:10377000206E100E00017121216E000E236EDE0EF0
:10378000226EEDEC39F0020E5EEC3AF03EC06FF0C6
:103790003FC070F00001716B000E00016F251F6EBD
:1037A000800E00017021206E100E00017121216E2B
:1037B000000E236E1E0E226EEDEC39F0020E5EEC52
:1037C0003AF03EC06FF03FC070F00001716B000E28
:1037D00000016F251F6E800E00017021206E100EFB
:1037E00000017121216E000E236E020E226EEDEC9F
:1037F00039F0020E5EEC3AF0190E0001606F000E17
:10380000616F000E626F000E636F0BEC3AF00C0EEE
:103810000001606FFF0E616FFF0E626FFF0E636F3E
:103820000BEC3AF03EC06FF03FC070F00001716BDE
:10383000000E00016F251F6E800E00017021206EAA
:10384000100E00017121216E010E236EB70E226E43
:10385000EDEC39F0020E5EEC3AF03EC06FF03FC086
:1038600070F00001716B000E00016F251F6E800E5D
:1038700000017021206E100E00017121216E000EDA
:10388000236EEF0E226EEDEC39F0020E5EEC3AF094
:103890003EC06FF03FC070F00001716B000E000180
:1038A0006F251F6E800E00017021206E100E00012A
:1038B0007121216E000E236E1C0E226EEDEC39F08C
:1038C000020E5EEC3AF03EC06FF03FC070F00001B7
:1038D000716B000E00016F251F6E800E00017021BC
:1038E000206E100E00017121216E060E236E000E57
:1038F000226EEDEC39F0020E5EEC3AF03EC06FF055
:103900003FC070F00001716B000E00016F25246E46
:10391000800E00017021256E100E00017121266EAF
:103920007A0E276E0F0E286EC0EC37F05EEC3AF080
:103930002E0E0001606FFF0E616FFF0E626FFF0EB3
:10394000636F0BEC3AF03EC06FF03FC070F00001C7
:10395000716B000E00016F251F6E800E000170213B
:10396000206E100E00017121216E010E236EDB0E00
:10397000226EEDEC39F0020E5EEC3AF03EC06FF0D4
:103980003FC070F00001716B000E00016F251F6ECB
:10399000800E00017021206E100E00017121216E39
:1039A000000E236EDE0E226EEDEC39F0020E5EECA0
:1039B0003AF03EC06FF03FC070F00001716B000E36
:1039C00000016F251F6E800E00017021206E100E09
:1039D00000017121216E000E236E1E0E226EEDEC91
:1039E00039F0020E5EEC3AF03EC06FF03FC070F06E
:1039F0000001716B000E00016F251F6E800E00012B
:103A00007021206E100E00017121216E080E236EB0
:103A1000000E226EEDEC39F0020E5EEC3AF0590E1B
:103A20000001606F000E616F000E626F000E636F29
:103A30000BEC3AF02E0E0001606FFF0E616FFF0E6F
:103A4000626FFF0E636F0BEC3AF03EC06FF03FC049
:103A500070F00001716B000E00016F251F6E800E6B
:103A600000017021206E100E00017121216E000EE8
:103A7000236ED90E226EEDEC39F0020E5EEC3AF0B8
:103A80003EC06FF03FC070F00001716B000E00018E
:103A90006F251F6E800E00017021206E100E000138
:103AA0007121216E000E236EED0E226EEDEC39F0C9
:103AB000020E5EEC3AF03EC06FF03FC070F00001C5
:103AC000716B000E00016F251F6E800E00017021CA
:103AD000206E100E00017121216E000E236E1E0E4D
:103AE000226EEDEC39F0020E5EEC3AF03EC06FF063
:103AF0003FC070F00001716B000E00016F251F6E5A
:103B0000800E00017021206E100E00017121216EC7
:103B1000080E236E000E226EEDEC39F0020E5EEC04
:103B20003AF0130E0001606F000E616F000E626FBD
:103B3000000E636F0BEC3AF00C0E0001606FFF0E8D
:103B4000616FFF0E626FFF0E636F0BEC3AF03EC0C9
:103B50006FF03FC070F00001716B000E00016F2527
:103B60001F6E800E00017021206E100E0001712169
:103B7000216E000E236EDD0E226EEDEC39F0020E8A
:103B80005EEC3AF03EC06FF03FC070F00001716B28
:103B9000000E00016F251F6E800E00017021206E47
:103BA000100E00017121216E000E236EFE0E226E9A
:103BB000EDEC39F0020E5EEC3AF03EC06FF03FC023
:103BC00070F00001716B000E00016F251F6E800EFA
:103BD00000017021206E100E00017121216E000E77
:103BE000236E1C0E226EEDEC39F0020E5EEC3AF004
:103BF0003EC06FF03FC070F00001716B000E00011D
:103C00006F251F6E800E00017021206E100E0001C6
:103C10007121216E060E236E000E226EEDEC39F03E
:103C2000020E5EEC3AF03EC06FF03FC070F0000153
:103C3000716B000E00016F25246E800E0001702153
:103C4000256E100E00017121266E7A0E276E0F0E62
:103C5000286EC0EC37F05EEC3AF02E0E0001606F7B
:103C6000FF0E616FFF0E626FFF0E636F0BEC3AF099
:103C70003EC06FF03FC070F00001716B000E00019C
:103C80006F251F6E800E00017021206E100E000146
:103C90007121216E000E236EF00E226EEDEC39F0D4
:103CA000020E5EEC3AF03EC06FF03FC070F00001D3
:103CB000716B000E00016F251F6E800E00017021D8
:103CC000206E100E00017121216E000E236E2268FD
:103CD000EDEC39F0020E5EEC3AF03EC06FF03FC002
:103CE00070F00001716B000E00016F251F6E800ED9
:103CF00000017021206E100E00017121216E000E56
:103D0000236E1E0E226EEDEC39F0020E5EEC3AF0E0
:103D10003EC06FF03FC070F00001716B000E0001FB
:103D20006F251F6E800E00017021206E100E0001A5
:103D30007121216E060E236E000E226EEDEC39F01D
:103D4000020E5EEC3AF0190E0001606F000E616F1A
:103D5000000E626F000E636F0BEC3AF00C0E000168
:103D6000606FFF0E616FFF0E626FFF0E636F0BECF3
:103D70003AF03EC06FF03FC070F00001716B000E72
:103D800000016F251F6E800E00017021206E100E45
:103D900000017121216E010E236E050E226EEDECE5
:103DA00039F0020E5EEC3AF03EC06FF03FC070F0AA
:103DB0000001716B000E00016F251F6E800E000167
:103DC0007021206E100E00017121216E000E236EF5
:103DD000FE0E226EEDEC39F0020E5EEC3AF03EC0C3
:103DE0006FF03FC070F00001716B000E00016F2595
:103DF0001F6E800E00017021206E100E00017121D7
:103E0000216E000E236E1C0E226EEDEC39F0020EB8
:103E10005EEC3AF03EC06FF03FC070F00001716B95
:103E2000000E00016F251F6E800E00017021206EB4
:103E3000100E00017121216E060E236E000E226EFF
:103E4000EDEC39F0020E5EEC3AF03EC06FF03FC090
:103E500070F00001716B000E00016F25246E800E62
:103E600000017021256E100E00017121266E7A0E60
:103E7000276E0F0E286EC0EC37F05EEC3AF02E0E77
:103E80000001606FFF0E616FFF0E626FFF0E636FC8
:103E90000BEC3AF03EC06FF03FC070F00001716B68
:103EA000000E00016F251F6E800E00017021206E34
:103EB000100E00017121216E010E236E2A0E226E5A
:103EC000EDEC39F0020E5EEC3AF03EC06FF03FC010
:103ED00070F00001716B000E00016F251F6E800EE7
:103EE00000017021206E100E00017121216E000E64
:103EF000236EED0E226EEDEC39F0020E5EEC3AF020
:103F00003EC06FF03FC070F00001716B000E000109
:103F10006F251F6E800E00017021206E100E0001B3
:103F20007121216E000E236E1E0E226EEDEC39F013
:103F3000020E5EEC3AF03EC06FF03FC070F0000140
:103F4000716B000E00016F251F6E800E0001702145
:103F5000206E100E00017121216E080E236E000EDE
:103F6000226EEDEC39F0020E5EEC3AF0590E0001D3
:103F7000606F000E616F000E626F000E636F0BECDE
:103F80003AF01200000E0001686F050E676FFF0E19
:103F90000001606FFF0E616FFF0E626F040E636FB2
:103FA0000BEC3AF00C0E0001606FFF0E616FFF0E1C
:103FB000626FFF0E636F0BEC3AF03EC064F03FC0DF
:103FC00065F00001666B000E000164251F6E800E17
:103FD00000016521206E100E00016621216E000E89
:103FE000236E050E226EEDEC39F0020E5EEC3AF017
:103FF0003EC064F03FC065F00001666B000E00013A
:1040000064251F6E800E00016521206E100E0001D8
:104010006621216E67C022F068C023F0EDEC39F014
:10402000020E5EEC3AF03EC064F03FC065F0000165
:10403000666B000E000164251F6E800E0001652175
:10404000206E100E00016621216E000E236E1A0EE6
:10405000226EEDEC39F0020E5EEC3AF03EC064F0F8
:104060003FC065F00001666B000E000164251F6E05
:10407000800E00016521206E100E00016621216E68
:10408000000E236E000E226EEDEC39F0020E5EEC97
:104090003AF03EC064F03FC065F00001666B000E70
:1040A00000016425246E800E00016521256E100E2E
:1040B00000016621266E160E276E0F0E286EC0ECCC
:1040C00037F05EEC3AF00C0E0001606FFF0E616F8E
:1040D000FF0E626FFF0E636F0BEC3AF03EC064F0B0
:1040E0003FC065F00001666B000E000164251F6E85
:1040F000800E00016521206E100E00016621216EE8
:10410000000E236E050E226EEDEC39F0020E5EEC11
:104110003AF03EC064F03FC065F00001666B000EEF
:10412000000164251F6E800E00016521206E100EB7
:1041300000016621216E0F0E00016727000E682323
:1041400067C022F068C023F0EDEC39F0020E5EEC9F
:104150003AF03EC064F03FC065F00001666B000EAF
:10416000000164251F6E800E00016521206E100E77
:1041700000016621216E000E236E1A0E226EEDECF8
:1041800039F0020E5EEC3AF03EC064F03FC065F0DC
:104190000001666B000E000164251F6E800E000199
:1041A0006521206E100E00016621216E000E236E27
:1041B000000E226EEDEC39F0020E5EEC3AF03EC0DD
:1041C00064F03FC065F00001666B000E00016425DD
:1041D000246E800E00016521256E100E00016621FF
:1041E000266E380E276E0F0E286EC0EC37F05EEC90
:1041F0003AF00C0E0001606FFF0E616FFF0E626FF0
:10420000FF0E636F0BEC3AF03EC064F03FC065F008
:104210000001666B000E000164251F6E800E000118
:104220006521206E100E00016621216E000E236EA6
:10423000050E226EEDEC39F0020E5EEC3AF03EC057
:1042400064F03FC065F00001666B000E000164255C
:104250001F6E800E00016521206E100E0001662188
:10426000216E190E00016727000E682367C022F037
:1042700068C023F0EDEC39F0020E5EEC3AF03EC07F
:1042800064F03FC065F00001666B000E000164251C
:104290001F6E800E00016521206E100E0001662148
:1042A000216E000E236E1A0E226EEDEC39F0020E16
:1042B0005EEC3AF03EC064F03FC065F00001666B12
:1042C000000E000164251F6E800E00016521206E26
:1042D000100E00016621216E000E236E000E226E6C
:1042E000EDEC39F0020E5EEC3AF03EC064F03FC0F7
:1042F00065F00001666B000E00016425246E800EDF
:1043000000016521256E100E00016621266E500EFB
:10431000276E0F0E286EC0EC37F05EEC3AF00C0EF4
:104320000001606FFF0E616FFF0E626FFF0E636F23
:104330000BEC3AF03EC064F03FC065F00001666BE4
:10434000000E000164251F6E800E00016521206EA5
:10435000100E00016621216E000E236E050E226EE6
:10436000EDEC39F0020E5EEC3AF03EC064F03FC076
:1043700065F00001666B000E000164251F6E800E63
:1043800000016521206E100E00016621216E0F0EC6
:1043900000016727000E682367C022F068C023F081
:1043A000EDEC39F0020E5EEC3AF03EC064F03FC036
:1043B00065F00001666B000E000164251F6E800E23
:1043C00000016521206E100E00016621216E000E95
:1043D000236E1A0E226EEDEC39F0020E5EEC3AF00E
:1043E0003EC064F03FC065F00001666B000E000146
:1043F00064251F6E800E00016521206E100E0001E5
:104400006621216E000E236E000E226EEDEC39F057
:10441000020E5EEC3AF03EC064F03FC065F0000171
:10442000666B000E00016425246E800E000165217C
:10443000256E100E00016621266E380E276E0F0EB7
:10444000286EC0EC37F05EEC3AF00C0E0001606FA5
:10445000FF0E616FFF0E626FFF0E636F0BEC3AF0A1
:104460003EC064F03FC065F00001666B000E0001C5
:1044700064251F6E800E00016521206E100E000164
:104480006621216E000E236E050E226EEDEC39F0D2
:10449000020E5EEC3AF03EC064F03FC065F00001F1
:1044A000666B000E000164251F6E800E0001652101
:1044B000206E100E00016621216E190E0001672783
:1044C000000E682367C022F068C023F0EDEC39F0DD
:1044D000020E5EEC3AF03EC064F03FC065F00001B1
:1044E000666B000E000164251F6E800E00016521C1
:1044F000206E100E00016621216E000E236E1A0E32
:10450000226EEDEC39F0020E5EEC3AF03EC064F043
:104510003FC065F00001666B000E000164251F6E50
:10452000800E00016521206E100E00016621216EB3
:10453000000E236E000E226EEDEC39F0020E5EECE2
:104540003AF03EC064F03FC065F00001666B000EBB
:1045500000016425246E800E00016521256E100E79
:1045600000016621266E330E276E0F0E286EC0ECFA
:1045700037F05EEC3AF00C0E0001606FFF0E616FD9
:10458000FF0E626FFF0E636F0BEC3AF03EC064F0FB
:104590003FC065F00001666B000E000164251F6ED0
:1045A000800E00016521206E100E00016621216E33
:1045B000000E236E050E226EEDEC39F0020E5EEC5D
:1045C0003AF03EC064F03FC065F00001666B000E3B
:1045D000000164251F6E800E00016521206E100E03
:1045E00000016621216E0F0E00016727000E68236F
:1045F00067C022F068C023F0EDEC39F0020E5EECEB
:104600003AF03EC064F03FC065F00001666B000EFA
:10461000000164251F6E800E00016521206E100EC2
:1046200000016621216E000E236E1A0E226EEDEC43
:1046300039F0020E5EEC3AF03EC064F03FC065F027
:104640000001666B000E000164251F6E800E0001E4
:104650006521206E100E00016621216E000E236E72
:10466000000E226EEDEC39F0020E5EEC3AF03EC028
:1046700064F03FC065F00001666B000E0001642528
:10468000246E800E00016521256E100E000166214A
:10469000266E2E0E276E0F0E286EC0EC37F05EECE5
:1046A0003AF00C0E0001606FFF0E616FFF0E626F3B
:1046B000FF0E636F0BEC3AF03EC064F03FC065F054
:1046C0000001666B000E000164251F6E800E000164
:1046D0006521206E100E00016621216E000E236EF2
:1046E000050E226EEDEC39F0020E5EEC3AF03EC0A3
:1046F00064F03FC065F00001666B000E00016425A8
:104700001F6E800E00016521206E100E00016621D3
:10471000216E190E00016727000E682367C022F082
:1047200068C023F0EDEC39F0020E5EEC3AF03EC0CA
:1047300064F03FC065F00001666B000E0001642567
:104740001F6E800E00016521206E100E0001662193
:10475000216E000E236E1A0E226EEDEC39F0020E61
:104760005EEC3AF03EC064F03FC065F00001666B5D
:10477000000E000164251F6E800E00016521206E71
:10478000100E00016621216E000E236E000E226EB7
:10479000EDEC39F0020E5EEC3AF03EC064F03FC042
:1047A00065F00001666B000E00016425246E800E2A
:1047B00000016521256E100E00016621266E470E50
:1047C000276E0F0E286EC0EC37F05EEC3AF00C0E40
:1047D0000001606FFF0E616FFF0E626FFF0E636F6F
:1047E0000BEC3AF03EC064F03FC065F00001666B30
:1047F000000E000164251F6E800E00016521206EF1
:10480000100E00016621216E000E236E050E226E31
:10481000EDEC39F0020E5EEC3AF03EC064F03FC0C1
:1048200065F00001666B000E000164251F6E800EAE
:1048300000016521206E100E00016621216E0F0E11
:1048400000016727000E682367C022F068C023F0CC
:10485000EDEC39F0020E5EEC3AF03EC064F03FC081
:1048600065F00001666B000E000164251F6E800E6E
:1048700000016521206E100E00016621216E000EE0
:10488000236E1A0E226EEDEC39F0020E5EEC3AF059
:104890003EC064F03FC065F00001666B000E000191
:1048A00064251F6E800E00016521206E100E000130
:1048B0006621216E000E236E000E226EEDEC39F0A3
:1048C000020E5EEC3AF03EC064F03FC065F00001BD
:1048D000666B000E00016425246E800E00016521C8
:1048E000256E100E00016621266E220E276E0F0E19
:1048F000286EC0EC37F05EEC3AF00C0E0001606FF1
:10490000FF0E616FFF0E626FFF0E636F0BEC3AF0EC
:104910003EC064F03FC065F00001666B000E000110
:1049200064251F6E800E00016521206E100E0001AF
:104930006621216E000E236E050E226EEDEC39F01D
:10494000020E5EEC3AF03EC064F03FC065F000013C
:10495000666B000E000164251F6E800E000165214C
:10496000206E100E00016621216E190E00016727CE
:10497000000E682367C022F068C023F0EDEC39F028
:10498000020E5EEC3AF03EC064F03FC065F00001FC
:10499000666B000E000164251F6E800E000165210C
:1049A000206E100E00016621216E000E236E1A0E7D
:1049B000226EEDEC39F0020E5EEC3AF03EC064F08F
:1049C0003FC065F00001666B000E000164251F6E9C
:1049D000800E00016521206E100E00016621216EFF
:1049E000000E236E000E226EEDEC39F0020E5EEC2E
:1049F0003AF03EC064F03FC065F00001666B000E07
:104A000000016425246E800E00016521256E100EC4
:104A100000016621266E500E276E0F0E286EC0EC28
:104A200037F05EEC3AF00C0E0001606FFF0E616F24
:104A3000FF0E626FFF0E636F0BEC3AF03EC064F046
:104A40003FC065F00001666B000E000164251F6E1B
:104A5000800E00016521206E100E00016621216E7E
:104A6000000E236E050E226EEDEC39F0020E5EECA8
:104A70003AF03EC064F03FC065F00001666B000E86
:104A8000000164251F6E800E00016521206E100E4E
:104A900000016621216E0F0E00016727000E6823BA
:104AA00067C022F068C023F0EDEC39F0020E5EEC36
:104AB0003AF03EC064F03FC065F00001666B000E46
:104AC000000164251F6E800E00016521206E100E0E
:104AD00000016621216E000E236E1A0E226EEDEC8F
:104AE00039F0020E5EEC3AF03EC064F03FC065F073
:104AF0000001666B000E000164251F6E800E000130
:104B00006521206E100E00016621216E000E236EBD
:104B1000000E226EEDEC39F0020E5EEC3AF03EC073
:104B200064F03FC065F00001666B000E0001642573
:104B3000246E800E00016521256E100E0001662195
:104B4000266E1C0E276E0F0E286EC0EC37F05EEC42
:104B50003AF00C0E0001606FFF0E616FFF0E626F86
:104B6000FF0E636F0BEC3AF03EC064F03FC065F09F
:104B70000001666B000E000164251F6E800E0001AF
:104B80006521206E100E00016621216E010E236E3C
:104B9000680E226EEDEC39F0020E5EEC3AF03EC08B
:104BA00064F03FC065F00001666B000E00016425F3
:104BB0001F6E800E00016521206E100E000166211F
:104BC000216E000E236E820E226EEDEC39F0020E85
:104BD0005EEC3AF03EC064F03FC065F00001666BE9
:104BE000000E000164251F6E800E00016521206EFD
:104BF000100E00016621216E000E236E1A0E226E29
:104C0000EDEC39F0020E5EEC3AF03EC064F03FC0CD
:104C100065F00001666B000E000164251F6E800EBA
:104C200000016521206E100E00016621216E000E2C
:104C3000236E000E226EEDEC39F0020E5EEC3AF0BF
:104C40003EC064F03FC065F00001666B000E0001DD
:104C50006425246E800E00016521256E100E000172
:104C60006621266E100E276E0F0E286EC0EC37F0F0
:104C70005EEC3AF00C0E0001606FFF0E616FFF0EEC
:104C8000626FFF0E636F0BEC3AF03EC064F03FC002
:104C900065F00001666B000E000164251F6E800E3A
:104CA00000016521206E100E00016621216E010EAB
:104CB000236E680E226EEDEC39F0020E5EEC3AF0D7
:104CC0003EC064F03FC065F00001666B000E00015D
:104CD00064251F6E800E00016521206E100E0001FC
:104CE0006621216E000E236E910E226EEDEC39F0DE
:104CF000020E5EEC3AF03EC064F03FC065F0000189
:104D0000666B000E000164251F6E800E0001652198
:104D1000206E100E00016621216E000E236E1A0E09
:104D2000226EEDEC39F0020E5EEC3AF03EC064F01B
:104D30003FC065F00001666B000E000164251F6E28
:104D4000800E00016521206E100E00016621216E8B
:104D5000000E236E000E226EEDEC39F0020E5EECBA
:104D60003AF03EC064F03FC065F00001666B000E93
:104D700000016425246E800E00016521256E100E51
:104D800000016621266E4C0E276E0F0E286EC0ECB9
:104D900037F05EEC3AF00C0E0001606FFF0E616FB1
:104DA000FF0E626FFF0E636F0BEC3AF03EC064F0D3
:104DB0003FC065F00001666B000E000164251F6EA8
:104DC000800E00016521206E100E00016621216E0B
:104DD000010E236E7C0E226EEDEC39F0020E5EECBD
:104DE0003AF03EC064F03FC065F00001666B000E13
:104DF000000164251F6E800E00016521206E100EDB
:104E000000016621216E000E236EB40E226EEDECC1
:104E100039F0020E5EEC3AF03EC064F03FC065F03F
:104E20000001666B000E000164251F6E800E0001FC
:104E30006521206E100E00016621216E000E236E8A
:104E40001A0E226EEDEC39F0020E5EEC3AF03EC026
:104E500064F03FC065F00001666B000E0001642540
:104E60001F6E800E00016521206E100E000166216C
:104E7000216E000E236E000E226EEDEC39F0020E54
:104E80005EEC3AF03EC064F03FC065F00001666B36
:104E9000000E00016425246E800E00016521256E40
:104EA000100E00016621266E650E276E0F0E286E0D
:104EB000C0EC37F05EEC3AF00C0E0001606FFF0EB4
:104EC000616FFF0E626FFF0E636F0BEC3AF03EC036
:104ED00064F03FC065F00001666B000E00016425C0
:104EE0001F6E800E00016521206E100E00016621EC
:104EF000216E010E236ECB0E226EEDEC39F0020E08
:104F00005EEC3AF03EC064F03FC065F00001666BB5
:104F1000000E000164251F6E800E00016521206EC9
:104F2000100E00016621216E000E236EAE0E226E61
:104F3000EDEC39F0020E5EEC3AF03EC064F03FC09A
:104F400065F00001666B000E000164251F6E800E87
:104F500000016521206E100E00016621216E000EF9
:104F6000236E1C0E226EEDEC39F0020E5EEC3AF070
:104F70003EC064F03FC065F00001666B000E0001AA
:104F800064251F6E800E00016521206E100E000149
:104F90006621216E000E236E000E226EEDEC39F0BC
:104FA000020E5EEC3AF03EC064F03FC065F00001D6
:104FB000666B000E00016425246E800E00016521E1
:104FC000256E100E00016621266E680E276E0F0EEC
:104FD000286EC0EC37F05EEC3AF0020E0001606F14
:104FE000000E616F000E626F1F0E636F0BEC3AF0E4
:104FF000140E0001606F140E616F140E626F040EC8
:10500000636F0BEC3AF0D60E0001606F060E616F15
:10501000000E626F0D0E636F0BEC3AF0000E000194
:10502000606F300E616F070E626F9E0E636F0BEC48
:105030003AF03C0E0001606F3C0E616F3C0E626FF7
:10504000040E636F0BEC3AF0720E0001606F060EF7
:10505000616F000E626F0D0E636F0BEC3AF0000E85
:105060000001606F300E616F070E626F9E0E636FFE
:105070000BEC3AF01200600E0001606F000E616FE1
:10508000000E626F0E0E636F0BEC3AF0000E000123
:10509000606F7D0E616FCA0E626F040E636F0BEC62
:1050A0003AF0030E0001606F000E616F000E626F38
:1050B0001F0E636F0BEC3AF06FD2000E0001606FB1
:1050C000F00E616F800E626FAF0E636F0BEC3AF003
:1050D000000E0001606F300E616F870E626FAF0EC1
:1050E000636F0BEC3AF0000E0001606FF00E616F21
:1050F000800E626FAF0E636F0BEC3AF0000E000192
:10510000606F300E616F870E626FB90E636F0BECCC
:105110003AF0000E0001606F400E616F870E626F03
:10512000B90E636F0BEC3AF0000E0001606FF00EE9
:10513000616F800E626FB90E636F0BEC3AF0120074
:10514000000E0001606FF00E616F800E626FB40E92
:10515000636F0BEC3AF0000E0001606F300E616F70
:10516000870E626FB40E636F0BEC3AF0000E000115
:10517000606FF00E616F600E626FB40E636F0BECC8
:105180003AF0000E0001606FE00E616F010E626F79
:10519000B20E636F0BEC3AF0000E0001606F400E30
:1051A000616FA70E626FB20E636F0BEC3AF0000EE8
:1051B0000001606F400E616F670E626FB60E636F25
:1051C0000BEC3AF01200000E0001606FF00E616F00
:1051D000800E626FAF0E636F0BEC3AF0000E0001B1
:1051E000606FF00E616F800E626FB90E636F0BEC33
:1051F0003AF0000E0001606F000E616F810E626F69
:10520000B90E636F0BEC3AF0000E0001606F000EF8
:10521000616F840E626FB90E636F0BEC3AF0000E93
:105220000001606F100E616F840E626FB90E636FC4
:105230000BEC3AF0000E0001606F100E616F840EEF
:10524000626FAF0E636F0BEC3AF0000E0001606FFF
:10525000200E616F840E626FAF0E636F0BEC3AF03D
:10526000000E0001606F300E616F870E626FAF0E2F
:10527000636F0BEC3AF0000E0001606F300E616F4F
:10528000A70E626FAF0E636F0BEC3AF0000E0001D9
:10529000606F300E616F870E626FB90E636F0BEC3B
:1052A0003AF01200000E0001606FF00E616F800E88
:1052B000626FAF0E636F0BEC3AF0000E0001606F8F
:1052C000F00E616F600E626FB90E636F0BEC3AF017
:1052D000000E0001606F000E616F810E626FB90EEB
:1052E000636F0BEC3AF0000E0001606F300E616FDF
:1052F000870E626FB90E636F0BEC3AF0000E00017F
:10530000606F100E616F640E626FB90E636F0BEC0D
:105310003AF0000E0001606F100E616F840E626F34
:10532000AF0E636F0BEC3AF0000E0001606F300EB1
:10533000616FA70E626FAF0E636F0BEC3AF0000E59
:105340000001606F300E616F670E626FB90E636FA0
:105350000BEC3AF01200000E0001606FF00E616F6E
:10536000800E626FAF0E636F0BEC3AF0000E00011F
:10537000606F000E616F840E626FAF0E636F0BEC97
:105380003AF0000E0001606F000E616F810E626FD7
:10539000B90E636F0BEC3AF0000E0001606F300E37
:1053A000616F870E626FB90E636F0BEC3AF0000EFF
:1053B0000001606F100E616F240E626FB90E636F93
:1053C0000BEC3AF0000E0001606F100E616FA40E3E
:1053D000626FAF0E636F0BEC3AF01200000E00012B
:1053E000606FF00E616F800E626FAF0E636F0BEC3B
:1053F0003AF0000E0001606FF00E616F600E626F98
:10540000B90E636F0BEC3AF0000E0001606F000EF6
:10541000616F810E626FAF0E636F0BEC3AF0000E9E
:105420000001606F000E616F840E626FAF0E636FDC
:105430000BEC3AF0000E0001606F100E616F840EED
:10544000626FB90E636F0BEC3AF0000E0001606FF3
:10545000200E616F870E626FB90E636F0BEC3AF02E
:10546000000E0001606F100E616F240E626FB90EA6
:10547000636F0BEC3AF0000E0001606F100E616F6D
:10548000A40E626FAF0E636F0BEC3AF0000E0001DA
:10549000606F300E616FA70E626FAF0E636F0BEC23
:1054A0003AF0000E0001606F300E616F670E626FA0
:1054B000B90E636F0BEC3AF01200000E0001606F42
:1054C000F00E616F800E626FAF0E636F0BEC3AF0FF
:1054D000000E0001606FF00E616F600E626FB90E1A
:1054E000636F0BEC3AF0000E0001606F000E616F0D
:1054F000810E626FAF0E636F0BEC3AF0000E00018D
:10550000606F300E616F870E626FAF0E636F0BECD2
:105510003AF0000E0001606F100E616F840E626F32
:10552000B90E636F0BEC3AF0000E0001606F200EB5
:10553000616F870E626FB90E636F0BEC3AF0000E6D
:105540000001606F100E616F240E626FB90E636F01
:105550000BEC3AF0000E0001606F100E616FA40EAC
:10556000626FAF0E636F0BEC3AF0000E0001606FDC
:10557000300E616FA70E626FAF0E636F0BEC3AF0E7
:10558000000E0001606F300E616F670E626FB90E22
:10559000636F0BEC3AF0120064C066F065C067F010
:1055A00000016751000AD8A4120000016651000AE8
:1055B000D8B483D5010AD8B4C3D5030AD8B403D666
:1055C000010AD8B46FD6070AD8B4C5D6010AD8B430
:1055D00005D7030AD8A4120070D72E0E0001606F01
:1055E000FF0E616FFF0E626FFF0E636F0BEC3AF000
:1055F0003EC066F03FC067F00001686B000E00011E
:1056000066251F6E800E00016721206E100E0001BE
:105610006821216E000E236E420E226EEDEC39F0F1
:10562000020E5EEC3AF03EC066F03FC067F000014B
:10563000686B000E000166251F6E800E0001672159
:10564000206E100E00016821216E000E236E820E66
:10565000226EEDEC39F0020E5EEC3AF03EC066F0E0
:105660003FC067F00001686B000E000166251F6EE9
:10567000800E00016721206E100E00016821216E4E
:10568000000E236E1C0E226EEDEC39F0020E5EEC65
:105690003AF03EC066F03FC067F00001686B000E54
:1056A000000166251F6E800E00016721206E100E1E
:1056B00000016821216E000E236E000E226EEDECBB
:1056C00039F0020E5EEC3AF064C01EF065C01FF0C7
:1056D000000E216E0A0E206E8CEC38F01EC060F0B9
:1056E0001FC061F00001000E61BFFF0E626F636FAB
:1056F0000BEC3AF00C0E0001606FFF0E616FFF0EB5
:10570000626FFF0E636F0BEC3AF03EC066F03FC075
:1057100067F00001686B000E000166251F6E800EA9
:1057200000016721206E100E00016821216E000E1D
:10573000236E5A0E226EEDEC39F0020E5EEC3AF05A
:105740003EC066F03FC067F00001686B000E0001CC
:1057500066251F6E800E00016721206E100E00016D
:105760006821216E000E236E830E226EEDEC39F05F
:10577000020E5EEC3AF03EC066F03FC067F00001FA
:10578000686B000E000166251F6E800E0001672108
:10579000206E100E00016821216E000E236E1C0E7B
:1057A000226EEDEC39F0020E5EEC3AF03EC066F08F
:1057B0003FC067F00001686B000E000166251F6E98
:1057C000800E00016721206E100E00016821216EFD
:1057D000000E236E000E226EEDEC39F0020E5EEC30
:1057E0003AF03EC066F03FC067F00001686B000E03
:1057F00000016625246E800E00016721256E100EC3
:1058000000016821266E6A0E276E0F0E286EC0EC0E
:1058100037F05EEC3AF02E0E0001606FFF0E616F04
:10582000FF0E626FFF0E636F0BEC3AF03EC066F046
:105830003FC067F00001686B000E000166251F6E17
:10584000800E00016721206E100E00016821216E7C
:10585000000E236E600E226EEDEC39F0020E5EEC4F
:105860003AF03EC066F03FC067F00001686B000E82
:10587000000166251F6E800E00016721206E100E4C
:1058800000016821216E000E236E820E226EEDEC67
:1058900039F0020E5EEC3AF03EC066F03FC067F0B1
:1058A0000001686B000E000166251F6E800E00016E
:1058B0006721206E100E00016821216E000E236EFC
:1058C0001C0E226EEDEC39F0020E5EEC3AF03EC09A
:1058D00066F03FC067F00001686B000E00016625AE
:1058E0001F6E800E00016721206E100E00016821DE
:1058F000216E000E236E000E226EEDEC39F0020ECA
:105900005EEC3AF064C026F065C027F0000E296E08
:105910000A0E286E0AEC39F026C060F027C061F04C
:105920000001000E61BFFF0E626F636F0BEC3AF077
:1059300012002E0E0001606FFF0E616FFF0E626F8E
:10594000FF0E636F0BEC3AF03EC066F03FC067F0AD
:105950000001686B000E000166251F6E800E0001BD
:105960006721206E100E00016821216E000E236E4B
:10597000420E226EEDEC39F0020E5EEC3AF03EC0C3
:1059800066F03FC067F00001686B000E00016625FD
:105990001F6E800E00016721206E100E000168212D
:1059A000216E000E236E590E226EEDEC39F0020EC0
:1059B0005EEC3AF03EC066F03FC067F00001686BF5
:1059C000000E000166251F6E800E00016721206E0B
:1059D000100E00016821216E000E236E1C0E226E37
:1059E000EDEC39F0020E5EEC3AF03EC066F03FC0DE
:1059F00067F00001686B000E000166251F6E800EC7
:105A000000016721206E100E00016821216E000E3A
:105A1000236E000E226EEDEC39F0020E5EEC3AF0D1
:105A2000030E0001606F000E616F000E626F000ECA
:105A3000636F0BEC3AF00C0E0001606FFF0E616FAC
:105A4000FF0E626FFF0E636F0BEC3AF03EC066F024
:105A50003FC067F00001686B000E000166251F6EF5
:105A6000800E00016721206E100E00016821216E5A
:105A7000000E236E4E0E226EEDEC39F0020E5EEC3F
:105A80003AF03EC066F03FC067F00001686B000E60
:105A9000000166251F6E800E00016721206E100E2A
:105AA00000016821216E000E236E5A0E226EEDEC6D
:105AB00039F0020E5EEC3AF03EC066F03FC067F08F
:105AC0000001686B000E000166251F6E800E00014C
:105AD0006721206E100E00016821216E000E236EDA
:105AE0001C0E226EEDEC39F0020E5EEC3AF03EC078
:105AF00066F03FC067F00001686B000E000166258C
:105B00001F6E800E00016721206E100E00016821BB
:105B1000216E000E236E000E226EEDEC39F0020EA7
:105B20005EEC3AF03EC066F03FC067F00001686B83
:105B3000000E00016625246E800E00016721256E8F
:105B4000100E00016821266E6A0E276E0F0E286E59
:105B5000C0EC37F05EEC3AF02E0E0001606FFF0EE5
:105B6000616FFF0E626FFF0E636F0BEC3AF03EC089
:105B700066F03FC067F00001686B000E000166250B
:105B80001F6E800E00016721206E100E000168213B
:105B9000216E000E236E530E226EEDEC39F0020ED4
:105BA0005EEC3AF03EC066F03FC067F00001686B03
:105BB000000E000166251F6E800E00016721206E19
:105BC000100E00016821216E000E236E590E226E08
:105BD000EDEC39F0020E5EEC3AF03EC066F03FC0EC
:105BE00067F00001686B000E000166251F6E800ED5
:105BF00000016721206E100E00016821216E000E49
:105C0000236E1C0E226EEDEC39F0020E5EEC3AF0C3
:105C10003EC066F03FC067F00001686B000E0001F7
:105C200066251F6E800E00016721206E100E000198
:105C30006821216E000E236E000E226EEDEC39F00D
:105C4000020E5EEC3AF0030E0001606F000E616F11
:105C5000000E626F000E636F0BEC3AF01200000E44
:105C60000001896F000E886F000E00018B6F000E1F
:105C70008A6F000E00018D6F000E8C6F000E000108
:105C80008F6F000E8E6F000E0001916F000E906FEF
:105C9000000E0001936F000E926F000E0001956FD1
:105CA000000E946F000E0001976F000E966F000EAD
:105CB0000001996F000E986F79EC3AF0000E000128
:105CC000876F000E866F86EC3AF07080708A709E47
:105CD000708C608A609C609460907680C80E0E0123
:105CE000F46F000E0E01F56FC80E0E01F06F200E5E
:105CF0000E01F16FC80E0E01EC6F400E0E01ED6F3C
:105D0000C79EC78CC68AC688C690C692C694C696D9
:105D100077EC2FF0ABEC3AF079EC3AF089928C9872
:105D200089908A8A8C9A8C868B8488C072F089C00C
:105D300073F08AC074F08BC075F08CC076F08DC0A3
:105D400077F08EC078F08FC079F090C07AF091C073
:105D50007BF092C07CF093C07DF094C07EF095C043
:105D60007FF096C080F097C081F098C082F099C013
:105D700083F0F9EC36F09A0E2D6E000E2E6EBCEC10
:105D800030F00009D8B4F7D7400E00019B1957E155
:105D9000060E00019C1900019D1100019E11D8A45E
:105DA0004ED00001A151A0C084F00001856B84C0D9
:105DB00085F00001846B000184110001886F0001EF
:105DC00085510001896F0001A351A2C084F0000138
:105DD000856B84C085F00001846B000184111E6E08
:105DE000000185511F6E000E216E0A0E206E8CEC94
:105DF00038F01EC08AF01FC08BF00001A0510001D6
:105E0000846F856B0001843B853BF00E85178451C0
:105E10000F0B8513F00E84170001A55100018411AA
:105E200000018C6F0001855100018D6FA6C08EF0BE
:105E300000018F6BA7C090F00001916B2BD0410E39
:105E400000019B190EE1060E00019C1900019D1135
:105E500000019E11D8A405D0A6C092F00001936B5A
:105E600019D0420E00019B1915E1060E00019C1984
:105E700000019D1100019E11D8A40CD0A0C094F087
:105E80000001956BA1C096F00001976BA2C098F03D
:105E90000001996B88C072F089C073F08AC074F0F9
:105EA0008BC075F08CC076F08DC077F08EC078F026
:105EB0008FC079F090C07AF091C07BF092C07CF0F6
:105EC00093C07DF094C07EF095C07FF096C080F0C6
:105ED00097C081F098C082F099C083F0F9EC36F059
:105EE00089828C8889808A8A8C8A8C8644D78B9216
:105EF000680E2A6EE40EE82EFED72A2EFCD700D0BC
:105F00008B82680E2A6EE40EE82EFED72A2EFCD76E
:105F100000D0000E93EC3AF0440E93EC3AF0620E8F
:105F200093EC3AF0300E1F6E240E206E100E216E90
:105F3000010E236EE00E226EEDEC39F0440E1F6E62
:105F4000240E206E100E216E010E236E100E226E96
:105F5000EDEC39F0280E1F6E240E206E100E216E0F
:105F6000020E236E0D0E226EEDEC39F0340E1F6E14
:105F7000240E206E100E216E000E236E000E226E77
:105F8000EDEC39F0380E1F6E240E206E100E216ECF
:105F9000000E236E290E226EEDEC39F02C0E1F6ED2
:105FA000240E206E100E216E000E236E2B0E226E1C
:105FB000EDEC39F03C0E1F6E240E206E100E216E9B
:105FC000010E236E1E0E226EEDEC39F0480E1F6E90
:105FD000240E206E100E216E000E236E000E226E17
:105FE000EDEC39F04C0E1F6E240E206E100E216E5B
:105FF000000E236E0A0E226EEDEC39F0400E1F6E7D
:10600000240E206E100E216E000E236E0C0E226EDA
:10601000EDEC39F0640E1F6E240E206E100E216E12
:10602000000E226E43EC3AF05C0E1F6E240E206EC2
:10603000100E216E000E226E43EC3AF0580E1F6EC9
:10604000240E206E100E216E010E236EB60E226EEF
:10605000EDEC39F0600E1F6E240E206E100E216ED6
:10606000000E226E43EC3AF0680E1F6E240E206E76
:10607000100E216E000E226E43EC3AF0540E1F6E8D
:10608000240E206E100E216E000E226E43EC3AF0AC
:10609000000E1F6E000E206E100E216E000E226E7E
:1060A0001A0E236E000E246E020E256ECEEC38F012
:1060B000040E1F6E000E206E100E216E070E226E53
:1060C000000E236E000E246E260E256ECEEC38F0E8
:1060D000080E1F6E000E206E100E216E000E226E36
:1060E000000E236E000E246E000E256ECEEC38F0EE
:1060F000500E1F6E240E206E100E216E020E226EA8
:1061000043EC3AF08C0E1F6E240E206E100E216EA2
:10611000FC0E226E43EC3AF0900E1F6E240E206EA1
:10612000100E216EFF0E226E43EC3AF06C0E1F6EC5
:10613000240E206E100E216E050E226E43EC3AF0F6
:10614000E80E1F6E240E206E100E216E42EC39F008
:106150001FC03EF020C03FF0E40E1F6E240E206EE4
:10616000100E216E42EC39F03E501F18F5E13F5001
:106170002018D8B41200F0D7000E2F6E60AE83D076
:1061800062A61ED02DC0D9FF2EC0DAFF020EDF6E30
:1061900064CF1EF061CF1FF062CF20F06350D1ECCE
:1061A00031F020EE01F02D50D9262E50DA221EC0FB
:1061B000DEFF1FC0DEFF20C0DEFF21C0DEFF19D0E2
:1061C0002DC0D9FF2EC0DAFF010EDF6E62CF1EF0A8
:1061D000615006EC38F020EE01F02D50D9262E50FB
:1061E000DA221EC0DEFF1FC0DEFF20C0DEFF21C09E
:1061F000DEFF20EE05F02D50D9262E50DA2265CF95
:10620000DFFF20EE06F02D50D9262E50DA2266CF81
:10621000DFFF20EE07F02D50D9262E50DA2267CF6F
:10622000DFFF20EE08F02D50D9262E50DA2268CF5D
:10623000DFFF20EE09F02D50D9262E50DA2269CF4B
:10624000DFFF20EE0AF02D50D9262E50DA226ACF39
:10625000DFFF20EE0BF02D50D9262E50DA226BCF27
:10626000DFFF20EE0CF02D50D9262E50DA226CCF15
:10627000DFFF20EE0DF02D50D9262E50DA226DCF03
:10628000DFFF609E89D00F0130AF88D00F0132A7A9
:106290001FD02DC0D9FF2EC0DAFF020EDF6E34CF23
:1062A0001EF031CF1FF032CF20F00F013351D1EC6F
:1062B00031F020EE01F02D50D9262E50DA221EC0EA
:1062C000DEFF1FC0DEFF20C0DEFF21C0DEFF1AD0D0
:1062D0002DC0D9FF2EC0DAFF010EDF6E32CF1EF0C7
:1062E0000F01315106EC38F020EE01F02D50D92687
:1062F0002E50DA221EC0DEFF1FC0DEFF20C0DEFFF0
:1063000021C0DEFF20EE05F02D50D9262E50DA22D6
:1063100035CFDFFF20EE06F02D50D9262E50DA22A1
:1063200036CFDFFF20EE07F02D50D9262E50DA228F
:1063300037CFDFFF20EE08F02D50D9262E50DA227D
:1063400038CFDFFF20EE09F02D50D9262E50DA226B
:1063500039CFDFFF20EE0AF02D50D9262E50DA2259
:106360003ACFDFFF20EE0BF02D50D9262E50DA2247
:106370003BCFDFFF20EE0CF02D50D9262E50DA2235
:106380003CCFDFFF20EE0DF02D50D9262E50DA2223
:106390003DCFDFFF0F01309F010E2F6E77922F5000
:1063A00012000001606F000E0001616F000E626F4D
:1063B000000E636F000E646F000E0001676F000E29
:1063C000686F000E696F000E6A6F2050030B0001AA
:1063D000656F2038E842070B0001666F1F50226E80
:1063E000236AD89022362336D89022362336D89086
:1063F0002236233622C067F023C068F00001000E69
:1064000068BFFF0E696F6A6F000166510001672562
:106410000001676F000E000168210001686F000E27
:10642000000169210001696F000E00016A2100016D
:106430006A6F67C022F068C023F069C024F06AC0A8
:1064400025F0020ED8902236233624362536E82E43
:10645000F9D722C067F023C068F024C069F025C0D6
:106460006AF000016551000167250001676F000EA9
:10647000000168210001686F000E00016921000120
:10648000696F000E00016A2100016A6F67C023F086
:1064900068C024F069C025F0226A22C067F023C0DA
:1064A00068F024C069F025C06AF000016051000165
:1064B00067250001676F000E000168210001686F09
:1064C000000E000169210001696F000E00016A21C0
:1064D00000016A6F67C023F068C024F069C025F02E
:1064E000226A22C067F023C068F024C069F025C08A
:1064F0006AF01E50000167250001676F000E000161
:1065000068210001686F000E000169210001696FB8
:10651000000E00016A2100016A6F67C061F068C067
:1065200062F069C063F06AC064F061C01EF062C0CE
:106530001FF063C020F064C021F01200090E0001BA
:10654000606F000E616F000E626F1F0E636F0BECC9
:106550003AF03C0E0001606F3C0E616F3C0E626FC2
:10656000040E636F0BEC3AF0000E0001606F700ECA
:10657000616FCD0E626FAB0E636F0BEC3AF0000EE5
:106580000001606F600E616FCE0E626F900E636FE0
:106590000BEC3AF0FF0E0001606FFF0E616FFF0E13
:1065A000626F040E636F0BEC3AF00C0E0001606F2B
:1065B000FF0E616FFF0E626FFF0E636F0BEC3AF020
:1065C0003EC066F03FC067F00001686B000E00013E
:1065D00066251F6E800E00016721206E100E0001DF
:1065E0006821216E000E236EF00E226EEDEC39F064
:1065F000020E5EEC3AF03EC066F03FC067F000016C
:10660000686B000E000166251F6E800E0001672179
:10661000206E100E00016821216E000E236EDE0E2A
:10662000226EEDEC39F0020E5EEC3AF03EC066F000
:106630003FC067F00001686B000E000166251F6E09
:10664000800E00016721206E100E00016821216E6E
:10665000000E236E1C0E226EEDEC39F0020E5EEC85
:106660003AF03EC066F03FC067F00001686B000E74
:10667000000166251F6E800E00016721206E100E3E
:1066800000016821216E060E236E000E226EEDECD5
:1066900039F0020E5EEC3AF03EC066F03FC067F0A3
:1066A0000001686B000E00016625246E800E00015B
:1066B0006721256E100E00016821266E010E276EDF
:1066C0000F0E286EC0EC37F05EEC3AF01200FF0EB1
:1066D0000001606FFF0E616FFF0E626F040E636F4B
:1066E0000BEC3AF02E0E0001606FFF0E616FFF0E93
:1066F000626FFF0E636F0BEC3AF03EC066F03FC076
:1067000067F00001686B000E000166251F6E800EA9
:1067100000016721206E100E00016821216E000E1D
:10672000236E400E226EEDEC39F0020E5EEC3AF074
:106730003EC066F03FC067F00001686B000E0001CC
:1067400066251F6E800E00016721206E100E00016D
:106750006821216E000E236E070E226EEDEC39F0DB
:10676000020E5EEC3AF03EC066F03FC067F00001FA
:10677000686B000E000166251F6E800E0001672108
:10678000206E100E00016821216E000E236E1C0E7B
:10679000226EEDEC39F0020E5EEC3AF03EC066F08F
:1067A0003FC067F00001686B000E000166251F6E98
:1067B000800E00016721206E100E00016821216EFD
:1067C000000E236E000E226EEDEC39F0020E5EEC30
:1067D0003AF064C060F065C061F00001000E61BF76
:1067E000FF0E626F636F0BEC3AF012002E0E000189
:1067F000606FFF0E616FFF0E626FFF0E636F0BEC39
:106800003AF03EC067F03FC068F00001696B000ECF
:10681000000167251F6E800E00016821206E100E9A
:1068200000016921216E000E236E420E226EEDECF6
:1068300039F0020E5EEC3AF03EC067F03FC068F0FF
:106840000001696B000E000167251F6E800E0001BC
:106850006821206E100E00016921216E000E236E4A
:10686000AB0E226EEDEC39F0020E5EEC3AF03EC05B
:1068700067F03FC068F00001696B000E00016725FA
:106880001F6E800E00016821206E100E000169212C
:10689000216E000E236E1C0E226EEDEC39F0020EFE
:1068A0005EEC3AF03EC067F03FC068F00001696BF3
:1068B000000E000167251F6E800E00016821206E0A
:1068C000100E00016921216E000E236E000E226E53
:1068D000EDEC39F0020E5EEC3AF064C01EF065C0DB
:1068E0001FF066C020F00CEC36F01EC060F01FC038
:1068F00061F020C062F021C063F00BEC3AF01200AE
:106900002E0E0001606FFF0E616FFF0E626FFF0EB3
