:0400000044EF00F0D9
:100008003D82FACF01F0FBCF02F0E9CF03F0EACF4F
:1000180004F0E1CF05F0E2CF06F0D9CF07F0DACF50
:1000280008F0F3CF09F0F4CF0AF0F6CF0BF0F7CFD2
:100038000CF0F8CF0DF0F5CF0EF0F2B6F2A002D02A
:1000480000EC30F00EC0F5FF0DC0F8FF0CC0F7FF54
:100058000BC0F6FF0AC0F4FF09C0F3FF08C0DAFFBF
:1000680007C0D9FF06C0E2FF05C0E1FF04C0EAFFF0
:1000780003C0E9FF02C0FBFF01C0FAFF3D92110077
:04008800C3EF2FF0A3
:100F000000476173205072657373204C6F77200027
:100F100053504545440057415445520050524553A3
:100F20005300564F4C54530068656C6C6F0055531A
:100F30004544004655454C0054454D50004C4153E6
:100F40005400424553540042415454004B50480011
:100F50004F494C0052504D004C415000313000314F
:100F6000310031320054500025002E00330034008F
:0F0F7000350036003700380039003A006B0000BA
:100F8000000E1E6E000E1F6EFF0E206E040E216EF0
:100F900054EC2FF0080E1E6E000E1F6E000E206E19
:100FA0001F0E216E54EC2FF0000E1E6E800E1F6E71
:100FB0000C0E206E800E216E54EC2FF0000E1E6E73
:100FC000800E1F6E6C0E206E970E216E54EC2FF06B
:100FD000000E1E6ED00E1F6E0A0E206E9B0E216E2E
:100FE00054EC2FF0000E1E6ED00E1F6EEA0E206E17
:100FF000A00E216E54EC2FF0000E1E6E800E1F6EA0
:101000008C0E206EA40E216E54EC2FF0000E1E6E7E
:10101000800E1F6E0C0E206EBC0E216E54EC2FF055
:10102000000E1E6E000E1F6E000E206E040E216E4E
:1010300054EC2FF0080E1E6E000E1F6E000E206E78
:101040001F0E216E54EC2FF0000E1E6ED00E1F6E80
:101050000C0E206E800E216E54EC2FF0000E1E6ED2
:10106000C00E1F6EAC0E206E970E216E54EC2FF04A
:10107000000E1E6E100E1F6E2B0E206E9B0E216E2C
:1010800054EC2FF0000E1E6E100E1F6EAB0E206E75
:10109000A00E216E54EC2FF0000E1E6EC00E1F6EBF
:1010A0002C0E206EA40E216E54EC2FF0000E1E6E3E
:1010B000D00E1F6E6C0E206EBC0E216E54EC2FF005
:1010C000000E1E6E7D0E1F6EFF0E206E040E216E32
:1010D00054EC2FF00C0E1E6EFF0E1F6EFF0E206ED6
:1010E000FF0E216E54EC2FF037C030F038C031F0D5
:1010F000326A000E3024106E800E3120116E100EF8
:101100003220126E000E146E050E136E36EC2FF0A8
:10111000020E9BEC2FF037C030F038C031F0326A4D
:10112000000E3024106E800E3120116E100E322011
:10113000126E000E146ECF0E136E36EC2FF0020EF0
:101140009BEC2FF037C030F038C031F0326A000E1F
:101150003024106E800E3120116E100E3220126E6F
:10116000000E146E1B0E136E36EC2FF0020E9BEC6D
:101170002FF037C030F038C031F0326A000E302422
:10118000106E800E3120116E100E3220126E000E85
:10119000146E000E136E36EC2FF0020E9BEC2FF047
:1011A00037C030F038C031F0326A000E3024156E8E
:1011B000800E3120166E100E3220176E3D0E186E06
:1011C0000F0E196E8DEC2DF09BEC2FF02E0E1E6E77
:1011D000FF0E1F6EFF0E206EFF0E216E54EC2FF0DF
:1011E00037C030F038C031F0326A000E3024106E53
:1011F000800E3120116E100E3220126E000E146E11
:10120000420E136E36EC2FF0020E9BEC2FF037C01F
:1012100030F038C031F0326A000E3024106E800E8B
:101220003120116E100E3220126E000E146ED90E87
:10123000136E36EC2FF0020E9BEC2FF037C030F01F
:1012400038C031F0326A000E3024106E800E31202A
:10125000116E100E3220126E000E146E1B0E136EE5
:1012600036EC2FF0020E9BEC2FF037C030F038C078
:1012700031F0326A000E3024106E800E3120116E73
:10128000100E3220126E060E146E000E136E36EC27
:101290002FF0020E9BEC2FF0030E1E6E000E1F6E41
:1012A000000E206E000E216E54EC2FF00C0E1E6E00
:1012B000FF0E1F6EFF0E206EFF0E216E54EC2FF0FE
:1012C00037C030F038C031F0326A000E3024106E72
:1012D000800E3120116E100E3220126E010E146E2F
:1012E000C00E136E36EC2FF0020E9BEC2FF037C0C1
:1012F00030F038C031F0326A000E3024106E800EAB
:101300003120116E100E3220126E000E146ECF0EB0
:10131000136E36EC2FF0020E9BEC2FF037C030F03E
:1013200038C031F0326A000E3024106E800E312049
:10133000116E100E3220126E000E146E1B0E136E04
:1013400036EC2FF0020E9BEC2FF037C030F038C097
:1013500031F0326A000E3024106E800E3120116E92
:10136000100E3220126E080E146E000E136E36EC44
:101370002FF0020E9BEC2FF037C030F038C031F068
:10138000326A000E3024156E800E3120166E100E5B
:101390003220176E420E186E0F0E196E8DEC2DF066
:1013A0009BEC2FF02E0E1E6EFF0E1F6EFF0E206E9A
:1013B000FF0E216E54EC2FF037C030F038C031F002
:1013C000326A000E3024106E800E3120116E100E25
:1013D0003220126E010E146EDB0E136E36EC2FF0FF
:1013E000020E9BEC2FF037C030F038C031F0326A7B
:1013F000000E3024106E800E3120116E100E32203F
:10140000126E000E146ECF0E136E36EC2FF0020E1D
:101410009BEC2FF037C030F038C031F0326A000E4C
:101420003024106E800E3120116E100E3220126E9C
:10143000000E146E1B0E136E36EC2FF0020E9BEC9A
:101440002FF037C030F038C031F0326A000E30244F
:10145000106E800E3120116E100E3220126E080EAA
:10146000146E000E136E36EC2FF0020E9BEC2FF074
:10147000010E1E6E000E1F6E000E206E000E216EFD
:1014800054EC2FF00C0E1E6EFF0E1F6EFF0E206E22
:10149000FF0E216E54EC2FF037C030F038C031F021
:1014A000326A000E3024106E800E3120116E100E44
:1014B0003220126E000E146EF00E136E36EC2FF00A
:1014C000020E9BEC2FF037C030F038C031F0326A9A
:1014D000000E3024106E800E3120116E100E32205E
:1014E000126E000E146EA50E136E36EC2FF0020E67
:1014F0009BEC2FF037C030F038C031F0326A000E6C
:101500003024106E800E3120116E100E3220126EBB
:10151000000E146E1B0E136E36EC2FF0020E9BECB9
:101520002FF037C030F038C031F0326A000E30246E
:10153000106E800E3120116E100E3220126E060ECB
:10154000146E000E136E36EC2FF0020E9BEC2FF093
:1015500037C030F038C031F0326A000E3024156EDA
:10156000800E3120166E100E3220176E580E186E37
:101570000F0E196E8DEC2DF09BEC2FF02E0E1E6EC3
:10158000FF0E1F6EFF0E206EFF0E216E54EC2FF02B
:1015900037C030F038C031F0326A000E3024106E9F
:1015A000800E3120116E100E3220126E000E146E5D
:1015B000F00E136E36EC2FF0020E9BEC2FF037C0BE
:1015C00030F038C031F0326A000E3024106E800ED8
:1015D0003120116E100E3220126E000E146EBE0EEF
:1015E000136E36EC2FF0020E9BEC2FF037C030F06C
:1015F00038C031F0326A000E3024106E800E312077
:10160000116E100E3220126E000E146E1D0E136E2F
:1016100036EC2FF0020E9BEC2FF037C030F038C0C4
:1016200031F0326A000E3024106E800E3120116EBF
:10163000100E3220126E060E146E000E136E36EC73
:101640002FF0020E9BEC2FF0070E1E6E000E1F6E89
:10165000000E206E000E216E54EC2FF0FF0E1E6E59
:10166000FF0E1F6EFF0E206E040E216E54EC2FF045
:101670002E0E1E6EFF0E1F6EFF0E206EFF0E216ED1
:1016800054EC2FF037C030F038C031F0326A000E21
:101690003024106E800E3120116E100E3220126E2A
:1016A000000E146E240E136E36EC2FF0020E9BEC1F
:1016B0002FF037C030F038C031F0326A000E3024DD
:1016C000106E800E3120116E100E3220126E000E40
:1016D000146EDE0E136E36EC2FF0020E9BEC2FF024
:1016E00037C030F038C031F0326A000E3024106E4E
:1016F000800E3120116E100E3220126E000E146E0C
:101700001E0E136E36EC2FF0020E9BEC2FF037C03E
:1017100030F038C031F0326A000E3024106E800E86
:101720003120116E100E3220126E080E146E000E53
:10173000136E36EC2FF0020E9BEC2FF0120E1E6E85
:10174000000E1F6E000E206E000E216E54EC2FF066
:101750000C0E1E6EFF0E1F6EFF0E206EFF0E216E12
:1017600054EC2FF037C030F038C031F0326A000E40
:101770003024106E800E3120116E100E3220126E49
:10178000000E146E270E136E36EC2FF0020E9BEC3B
:101790002FF037C030F038C031F0326A000E3024FC
:1017A000106E800E3120116E100E3220126E000E5F
:1017B000146EEE0E136E36EC2FF0020E9BEC2FF033
:1017C00037C030F038C031F0326A000E3024106E6D
:1017D000800E3120116E100E3220126E000E146E2B
:1017E0001C0E136E36EC2FF0020E9BEC2FF037C060
:1017F00030F038C031F0326A000E3024106E800EA6
:101800003120116E100E3220126E060E146E000E74
:10181000136E36EC2FF0020E9BEC2FF037C030F039
:1018200038C031F0326A000E3024156E800E31203F
:10183000166E100E3220176E7A0E186E0F0E196E7D
:101840008DEC2DF09BEC2FF02E0E1E6EFF0E1F6EFA
:10185000FF0E206EFF0E216E54EC2FF037C030F0DB
:1018600038C031F0326A000E3024106E800E312004
:10187000116E100E3220126E000E146E2A0E136EB0
:1018800036EC2FF0020E9BEC2FF037C030F038C052
:1018900031F0326A000E3024106E800E3120116E4D
:1018A000100E3220126E000E146EDE0E136E36EC29
:1018B0002FF0020E9BEC2FF037C030F038C031F023
:1018C000326A000E3024106E800E3120116E100E20
:1018D0003220126E000E146E1E0E136E36EC2FF0B8
:1018E000020E9BEC2FF037C030F038C031F0326A76
:1018F000000E3024106E800E3120116E100E32203A
:10190000126E000E146E020E136E36EC2FF0020EE5
:101910009BEC2FF0240E1E6E000E1F6E000E206E2C
:10192000000E216E54EC2FF00C0E1E6EFF0E1F6E7B
:10193000FF0E206EFF0E216E54EC2FF037C030F0FA
:1019400038C031F0326A000E3024106E800E312023
:10195000116E100E3220126E000E146E4F0E136EAA
:1019600036EC2FF0020E9BEC2FF037C030F038C071
:1019700031F0326A000E3024106E800E3120116E6C
:10198000100E3220126E000E146EEE0E136E36EC38
:101990002FF0020E9BEC2FF037C030F038C031F042
:1019A000326A000E3024106E800E3120116E100E3F
:1019B0003220126E000E146E1C0E136E36EC2FF0D9
:1019C000020E9BEC2FF037C030F038C031F0326A95
:1019D000000E3024106E800E3120116E100E322059
:1019E000126E060E146E000E136E36EC2FF0020E01
:1019F0009BEC2FF037C030F038C031F0326A000E67
:101A00003024156E800E3120166E100E3220176EA7
:101A10007A0E186E0F0E196E8DEC2DF09BEC2FF0D8
:101A20002E0E1E6EFF0E1F6EFF0E206EFF0E216E1D
:101A300054EC2FF037C030F038C031F0326A000E6D
:101A40003024106E800E3120116E100E3220126E76
:101A5000000E146E520E136E36EC2FF0020E9BEC3D
:101A60002FF037C030F038C031F0326A000E302429
:101A7000106E800E3120116E100E3220126E000E8C
:101A8000146EDD0E136E36EC2FF0020E9BEC2FF071
:101A900037C030F038C031F0326A000E3024106E9A
:101AA000800E3120116E100E3220126E000E146E58
:101AB0001E0E136E36EC2FF0020E9BEC2FF037C08B
:101AC00030F038C031F0326A000E3024106E800ED3
:101AD0003120116E100E3220126E000E146E020EA6
:101AE000136E36EC2FF0020E9BEC2FF0590E1E6E8B
:101AF000000E1F6E000E206E000E216E54EC2FF0B3
:101B00002E0E1E6EFF0E1F6EFF0E206EFF0E216E3C
:101B100054EC2FF037C030F038C031F0326A000E8C
:101B20003024106E800E3120116E100E3220126E95
:101B3000010E146E8D0E136E36EC2FF0020E9BEC20
:101B40002FF037C030F038C031F0326A000E302448
:101B5000106E800E3120116E100E3220126E000EAB
:101B6000146EDE0E136E36EC2FF0020E9BEC2FF08F
:101B700037C030F038C031F0326A000E3024106EB9
:101B8000800E3120116E100E3220126E000E146E77
:101B90001E0E136E36EC2FF0020E9BEC2FF037C0AA
:101BA00030F038C031F0326A000E3024106E800EF2
:101BB0003120116E100E3220126E080E146E000EBF
:101BC000136E36EC2FF0020E9BEC2FF0130E1E6EF0
:101BD000000E1F6E000E206E000E216E54EC2FF0D2
:101BE0000C0E1E6EFF0E1F6EFF0E206EFF0E216E7E
:101BF00054EC2FF037C030F038C031F0326A000EAC
:101C00003024106E800E3120116E100E3220126EB4
:101C1000010E146E900E136E36EC2FF0020E9BEC3C
:101C20002FF037C030F038C031F0326A000E302467
:101C3000106E800E3120116E100E3220126E000ECA
:101C4000146EEF0E136E36EC2FF0020E9BEC2FF09D
:101C500037C030F038C031F0326A000E3024106ED8
:101C6000800E3120116E100E3220126E000E146E96
:101C70001C0E136E36EC2FF0020E9BEC2FF037C0CB
:101C800030F038C031F0326A000E3024106E800E11
:101C90003120116E100E3220126E060E146E000EE0
:101CA000136E36EC2FF0020E9BEC2FF037C030F0A5
:101CB00038C031F0326A000E3024156E800E3120AB
:101CC000166E100E3220176E7A0E186E0F0E196EE9
:101CD0008DEC2DF09BEC2FF02E0E1E6EFF0E1F6E66
:101CE000FF0E206EFF0E216E54EC2FF037C030F047
:101CF00038C031F0326A000E3024106E800E312070
:101D0000116E100E3220126E010E146E930E136EB1
:101D100036EC2FF0020E9BEC2FF037C030F038C0BD
:101D200031F0326A000E3024106E800E3120116EB8
:101D3000100E3220126E000E146EDE0E136E36EC94
:101D40002FF0020E9BEC2FF037C030F038C031F08E
:101D5000326A000E3024106E800E3120116E100E8B
:101D60003220126E000E146E1E0E136E36EC2FF023
:101D7000020E9BEC2FF037C030F038C031F0326AE1
:101D8000000E3024106E800E3120116E100E3220A5
:101D9000126E000E146E020E136E36EC2FF0020E51
:101DA0009BEC2FF0190E1E6E000E1F6E000E206EA3
:101DB000000E216E54EC2FF00C0E1E6EFF0E1F6EE7
:101DC000FF0E206EFF0E216E54EC2FF037C030F066
:101DD00038C031F0326A000E3024106E800E31208F
:101DE000116E100E3220126E010E146EB70E136EAD
:101DF00036EC2FF0020E9BEC2FF037C030F038C0DD
:101E000031F0326A000E3024106E800E3120116ED7
:101E1000100E3220126E000E146EEF0E136E36ECA2
:101E20002FF0020E9BEC2FF037C030F038C031F0AD
:101E3000326A000E3024106E800E3120116E100EAA
:101E40003220126E000E146E1C0E136E36EC2FF044
:101E5000020E9BEC2FF037C030F038C031F0326A00
:101E6000000E3024106E800E3120116E100E3220C4
:101E7000126E060E146E000E136E36EC2FF0020E6C
:101E80009BEC2FF037C030F038C031F0326A000ED2
:101E90003024156E800E3120166E100E3220176E13
:101EA0007A0E186E0F0E196E8DEC2DF09BEC2FF044
:101EB0002E0E1E6EFF0E1F6EFF0E206EFF0E216E89
:101EC00054EC2FF037C030F038C031F0326A000ED9
:101ED0003024106E800E3120116E100E3220126EE2
:101EE000010E146EDB0E136E36EC2FF0020E9BEC1F
:101EF0002FF037C030F038C031F0326A000E302495
:101F0000106E800E3120116E100E3220126E000EF7
:101F1000146EDE0E136E36EC2FF0020E9BEC2FF0DB
:101F200037C030F038C031F0326A000E3024106E05
:101F3000800E3120116E100E3220126E000E146EC3
:101F40001E0E136E36EC2FF0020E9BEC2FF037C0F6
:101F500030F038C031F0326A000E3024106E800E3E
:101F60003120116E100E3220126E080E146E000E0B
:101F7000136E36EC2FF0020E9BEC2FF0590E1E6EF6
:101F8000000E1F6E000E206E000E216E54EC2FF01E
:101F90002E0E1E6EFF0E1F6EFF0E206EFF0E216EA8
:101FA00054EC2FF037C030F038C031F0326A000EF8
:101FB0003024106E800E3120116E100E3220126E01
:101FC000000E146ED90E136E36EC2FF0020E9BEC41
:101FD0002FF037C030F038C031F0326A000E3024B4
:101FE000106E800E3120116E100E3220126E000E17
:101FF000146EED0E136E36EC2FF0020E9BEC2FF0EC
:1020000037C030F038C031F0326A000E3024106E24
:10201000800E3120116E100E3220126E000E146EE2
:102020001E0E136E36EC2FF0020E9BEC2FF037C015
:1020300030F038C031F0326A000E3024106E800E5D
:102040003120116E100E3220126E080E146E000E2A
:10205000136E36EC2FF0020E9BEC2FF0130E1E6E5B
:10206000000E1F6E000E206E000E216E54EC2FF03D
:102070000C0E1E6EFF0E1F6EFF0E206EFF0E216EE9
:1020800054EC2FF037C030F038C031F0326A000E17
:102090003024106E800E3120116E100E3220126E20
:1020A000000E146EDD0E136E36EC2FF0020E9BEC5C
:1020B0002FF037C030F038C031F0326A000E3024D3
:1020C000106E800E3120116E100E3220126E000E36
:1020D000146EFE0E136E36EC2FF0020E9BEC2FF0FA
:1020E00037C030F038C031F0326A000E3024106E44
:1020F000800E3120116E100E3220126E000E146E02
:102100001C0E136E36EC2FF0020E9BEC2FF037C036
:1021100030F038C031F0326A000E3024106E800E7C
:102120003120116E100E3220126E060E146E000E4B
:10213000136E36EC2FF0020E9BEC2FF037C030F010
:1021400038C031F0326A000E3024156E800E312016
:10215000166E100E3220176E7A0E186E0F0E196E54
:102160008DEC2DF09BEC2FF02E0E1E6EFF0E1F6ED1
:10217000FF0E206EFF0E216E54EC2FF037C030F0B2
:1021800038C031F0326A000E3024106E800E3120DB
:10219000116E100E3220126E000E146EF00E136EC1
:1021A00036EC2FF0020E9BEC2FF037C030F038C029
:1021B00031F0326A000E3024106E800E3120116E24
:1021C000100E3220126E000E146E136836EC2FF0D3
:1021D000020E9BEC2FF037C030F038C031F0326A7D
:1021E000000E3024106E800E3120116E100E322041
:1021F000126E000E146E1E0E136E36EC2FF0020ED1
:102200009BEC2FF037C030F038C031F0326A000E4E
:102210003024106E800E3120116E100E3220126E9E
:10222000060E146E000E136E36EC2FF0020E9BECB1
:102230002FF0190E1E6E000E1F6E000E206E000E87
:10224000216E54EC2FF00C0E1E6EFF0E1F6EFF0E53
:10225000206EFF0E216E54EC2FF037C030F038C0E6
:1022600031F0326A000E3024106E800E3120116E73
:10227000100E3220126E010E146E050E136E36EC27
:102280002FF0020E9BEC2FF037C030F038C031F049
:10229000326A000E3024106E800E3120116E100E46
:1022A0003220126E000E146EFE0E136E36EC2FF0FE
:1022B000020E9BEC2FF037C030F038C031F0326A9C
:1022C000000E3024106E800E3120116E100E322060
:1022D000126E000E146E1C0E136E36EC2FF0020EF2
:1022E0009BEC2FF037C030F038C031F0326A000E6E
:1022F0003024106E800E3120116E100E3220126EBE
:10230000060E146E000E136E36EC2FF0020E9BECD0
:102310002FF037C030F038C031F0326A000E302470
:10232000156E800E3120166E100E3220176E7A0E4A
:10233000186E0F0E196E8DEC2DF09BEC2FF02E0EFB
:102340001E6EFF0E1F6EFF0E206EFF0E216E54ECF0
:102350002FF037C030F038C031F0326A000E302430
:10236000106E800E3120116E100E3220126E010E92
:10237000146E2A0E136E36EC2FF0020E9BEC2FF02B
:1023800037C030F038C031F0326A000E3024106EA1
:10239000800E3120116E100E3220126E000E146E5F
:1023A000ED0E136E36EC2FF0020E9BEC2FF037C0C3
:1023B00030F038C031F0326A000E3024106E800EDA
:1023C0003120116E100E3220126E000E146E1E0E91
:1023D000136E36EC2FF0020E9BEC2FF037C030F06E
:1023E00038C031F0326A000E3024106E800E312079
:1023F000116E100E3220126E080E146E000E136E47
:1024000036EC2FF0020E9BEC2FF0590E1E6E000ED4
:102410001F6E000E206E000E216E54EC2FF0120085
:1024200025C00FF026C010F0030E126EE80E116EDC
:10243000D3EC2DF00FC02CF010C02DF0000E126E5A
:10244000640E116E25C00FF026C010F0D3EC2DF0F5
:102450000FC017F010C018F0000E1A6E0A0E196E99
:1024600051EC2EF017C02AF018C02BF0FF0E1E6E94
:10247000FF0E1F6EFF0E206E040E216E54EC2FF027
:10248000090E1E6EFF0E1F6EFF0E206EFF0E216ED8
:1024900054EC2FF0320E1E6E320E1F6E320E206E76
:1024A000000E216E54EC2FF0130E1E6EFF0E1F6EE9
:1024B000FF0E206EFF0E216E54EC2FF037C027F078
:1024C00038C028F0296A000E2724106E800E2820BC
:1024D000116E100E2920126E000E146EF00E136E87
:1024E00036EC2FF0020E9BEC2FF037C027F038C0EF
:1024F00028F0296A000E2724106E800E2820116E05
:10250000100E2920126E000E146E730E136E36EC30
:102510002FF0020E9BEC2FF037C027F038C028F0C8
:10252000296A000E2724106E800E2820116E100ECE
:102530002920126E000E146E820E136E36EC2FF0F0
:10254000020E9BEC2FF037C027F038C028F0296A24
:10255000000E2724106E800E2820116E100E2920E8
:10256000126E510E146E000E136E36EC2FF0020E2A
:102570009BEC2FF037C027F038C028F0296A000EF6
:102580002724106E800E2820116E100E2920126E46
:10259000000E146E0A0E136E36EC2FF0020E9BEC3A
:1025A0002FF037C027F038C028F0296A000E272402
:1025B000106E800E2820116E100E2920126E000E53
:1025C000146E050E136E36EC2FF0020E9BEC2FF0FE
:1025D00037C027F038C028F0296A000E2724106E73
:1025E000800E2820116E100E2920126E000E146E1F
:1025F000000E136E36EC2FF0020E9BEC2FF037C05E
:1026000027F038C028F0296A000E2724106E800EAB
:102610002820116E100E2920126E000E146E0A0E64
:10262000136E36EC2FF0020E9BEC2FF0000E1E6E98
:10263000000E1F6EFF0E206E040E216E54EC2FF064
:10264000130E1E6EFF0E1F6EFF0E206EFF0E216E0C
:1026500054EC2FF037C027F038C028F0296A000E5C
:102660002724106E800E2820116E100E2920126E65
:10267000000E146EF00E136E36EC2FF0020E9BEC73
:102680002FF037C027F038C028F0296A000E272421
:10269000106E800E2820116E100E2920126E000E72
:1026A000146E730E136E36EC2FF0020E9BEC2FF0AF
:1026B00037C027F038C028F0296A000E2724106E92
:1026C000800E2820116E100E2920126E000E146E3E
:1026D000820E136E36EC2FF0020E9BEC2FF037C0FB
:1026E00027F038C028F0296A000E2724106E800ECB
:1026F0002820116E100E2920126E310E146E000E5D
:10270000136E36EC2FF0020E9BEC2FF037C027F043
:1027100038C028F0296A000E2724106E800E282069
:10272000116E100E2920126E000E146E0A0E136E1A
:1027300036EC2FF0020E9BEC2FF037C027F038C09C
:1027400028F0296A000E2724106E800E2820116EB2
:10275000100E2920126E000E146E050E136E36EC4C
:102760002FF0020E9BEC2FF037C027F038C028F076
:10277000296A000E2724106E800E2820116E100E7C
:102780002920126EFE0E2C24136EFF0E2D20146EC7
:1027900036EC2FF0020E9BEC2FF037C027F038C03C
:1027A00028F0296A000E2724106E800E2820116E52
:1027B000100E2920126E000E146E0A0E136E36ECE7
:1027C0002FF0020E9BEC2FF0FF0E1E6EFF0E1F6E01
:1027D000FF0E206E040E216E54EC2FF02E0E1E6E96
:1027E000FF0E1F6EFF0E206EFF0E216E54EC2FF0B9
:1027F00037C027F038C028F0296A000E2724106E51
:10280000800E2820116E100E2920126E000E146EFC
:10281000ED0E136E36EC2FF0020E9BEC2FF037C04E
:1028200027F038C028F0296A000E2724106E800E89
:102830002820116E100E2920126E000E146E590EF3
:10284000136E36EC2FF0020E9BEC2FF037C027F002
:1028500038C028F0296A000E2724106E800E282028
:10286000116E100E2920126E000E146E1F0E136EC4
:1028700036EC2FF0020E9BEC2FF037C027F038C05B
:1028800028F0296A000E2724106E800E2820116E71
:10289000100E2920126E080E146E000E136E36EC08
:1028A0002FF0020E9BEC2FF02CC01EF02DC01FF05D
:1028B000000E1FBEFF0E206E216E54EC2FF02E0E68
:1028C0001E6EFF0E1F6EFF0E206EFF0E216E54EC6B
:1028D0002FF037C027F038C028F0296A000E2724CF
:1028E000106E800E2820116E100E2920126E000E20
:1028F000146EF30E136E36EC2FF0020E9BEC2FF0DD
:1029000037C027F038C028F0296A000E2724106E3F
:10291000800E2820116E100E2920126E000E146EEB
:10292000590E136E36EC2FF0020E9BEC2FF037C0D1
:1029300027F038C028F0296A000E2724106E800E78
:102940002820116E100E2920126E000E146E1F0E1C
:10295000136E36EC2FF0020E9BEC2FF037C027F0F1
:1029600038C028F0296A000E2724106E800E282017
:10297000116E100E2920126E000E146E000E136ED2
:1029800036EC2FF0020E9BEC2FF02AC01EF02BC06D
:102990001FF0000E1FBEFF0E206E216E54EC2FF0B4
:1029A0000C0E1E6EFF0E1F6EFF0E206EFF0E216EB0
:1029B00054EC2FF037C027F038C028F0296A000EF9
:1029C0002724106E800E2820116E100E2920126E02
:1029D000000E146EB70E136E36EC2FF0020E9BEC49
:1029E0002FF037C027F038C028F0296A000E2724BE
:1029F000106E800E2820116E100E2920126E000E0F
:102A0000146EA10E136E36EC2FF0020E9BEC2FF01D
:102A100037C027F038C028F0296A000E2724106E2E
:102A2000800E2820116E100E2920126E000E146EDA
:102A30001C0E136E36EC2FF0020E9BEC2FF037C0FD
:102A400027F038C028F0296A000E2724106E800E67
:102A50002820116E100E2920126E000E146E000E2A
:102A6000136E36EC2FF0020E9BEC2FF037C027F0E0
:102A700038C028F0296A000E2724156E800E282001
:102A8000166E100E2920176E630E186E0F0E196E3B
:102A90008DEC2DF09BEC2FF00C0E1E6EFF0E1F6EBA
:102AA000FF0E206EFF0E216E54EC2FF037C027F082
:102AB00038C028F0296A000E2724106E800E2820C6
:102AC000116E100E2920126E000E146EA00E136EE1
:102AD00036EC2FF0020E9BEC2FF037C027F038C0F9
:102AE00028F0296A000E2724106E800E2820116E0F
:102AF000100E2920126E000E146E820E136E36EC2C
:102B00002FF0020E9BEC2FF037C027F038C028F0D2
:102B1000296A000E2724106E800E2820116E100ED8
:102B20002920126E000E146E1C0E136E36EC2FF060
:102B3000020E9BEC2FF037C027F038C028F0296A2E
:102B4000000E2724106E800E2820116E100E2920F2
:102B5000126E000E146E000E136E36EC2FF0020E85
:102B60009BEC2FF037C027F038C028F0296A000E00
:102B70002724156E800E2820166E100E2920176E41
:102B80006C0E186E0F0E196E8DEC2DF09BEC2FF065
:102B90000C0E1E6EFF0E1F6EFF0E206EFF0E216EBE
:102BA00054EC2FF037C027F038C028F0296A000E07
:102BB0002724106E800E2820116E100E2920126E10
:102BC000000E146E9B0E136E36EC2FF0020E9BEC73
:102BD0002FF037C027F038C028F0296A000E2724CC
:102BE000106E800E2820116E100E2920126E000E1D
:102BF000146E5C0E136E36EC2FF0020E9BEC2FF071
:102C000037C027F038C028F0296A000E2724106E3C
:102C1000800E2820116E100E2920126E000E146EE8
:102C20001C0E136E36EC2FF0020E9BEC2FF037C00B
:102C300027F038C028F0296A000E2724106E800E75
:102C40002820116E100E2920126E000E146E000E38
:102C5000136E36EC2FF0020E9BEC2FF037C027F0EE
:102C600038C028F0296A000E2724156E800E28200F
:102C7000166E100E2920176E6E0E186E0F0E196E3E
:102C80008DEC2DF09BEC2FF00C0E1E6EFF0E1F6EC8
:102C9000FF0E206EFF0E216E54EC2FF037C027F090
:102CA00038C028F0296A000E2724106E800E2820D4
:102CB000116E100E2920126E000E146EAB0E136EE4
:102CC00036EC2FF0020E9BEC2FF037C027F038C007
:102CD00028F0296A000E2724106E800E2820116E1D
:102CE000100E2920126E000E146E3A0E136E36EC82
:102CF0002FF0020E9BEC2FF037C027F038C028F0E1
:102D0000296A000E2724106E800E2820116E100EE6
:102D10002920126E000E146E1C0E136E36EC2FF06E
:102D2000020E9BEC2FF037C027F038C028F0296A3C
:102D3000000E2724106E800E2820116E100E292000
:102D4000126E000E146E000E136E36EC2FF0020E93
:102D50009BEC2FF037C027F038C028F0296A000E0E
:102D60002724156E800E2820166E100E2920176E4F
:102D7000700E186E0F0E196E8DEC2DF09BEC2FF06F
:102D80000C0E1E6EFF0E1F6EFF0E206EFF0E216ECC
:102D900054EC2FF037C027F038C028F0296A000E15
:102DA0002724106E800E2820116E100E2920126E1E
:102DB000000E146EC90E136E36EC2FF0020E9BEC53
:102DC0002FF037C027F038C028F0296A000E2724DA
:102DD000106E800E2820116E100E2920126E000E2B
:102DE000146E210E136E36EC2FF0020E9BEC2FF0BA
:102DF00037C027F038C028F0296A000E2724106E4B
:102E0000800E2820116E100E2920126E000E146EF6
:102E10001C0E136E36EC2FF0020E9BEC2FF037C019
:102E200027F038C028F0296A000E2724106E800E83
:102E30002820116E100E2920126E000E146E000E46
:102E4000136E36EC2FF0020E9BEC2FF037C027F0FC
:102E500038C028F0296A000E2724156E800E28201D
:102E6000166E100E2920176E720E186E0F0E196E48
:102E70008DEC2DF09BEC2FF00C0E1E6EFF0E1F6ED6
:102E8000FF0E206EFF0E216E54EC2FF037C027F09E
:102E900038C028F0296A000E2724106E800E2820E2
:102EA000116E100E2920126E000E146EEB0E136EB2
:102EB00036EC2FF0020E9BEC2FF037C027F038C015
:102EC00028F0296A000E2724106E800E2820116E2B
:102ED000100E2920126E000E146E1A0E136E36ECB0
:102EE0002FF0020E9BEC2FF037C027F038C028F0EF
:102EF000296A000E2724106E800E2820116E100EF5
:102F00002920126E000E146E1C0E136E36EC2FF07C
:102F1000020E9BEC2FF037C027F038C028F0296A4A
:102F2000000E2724106E800E2820116E100E29200E
:102F3000126E000E146E000E136E36EC2FF0020EA1
:102F40009BEC2FF037C027F038C028F0296A000E1C
:102F50002724156E800E2820166E100E2920176E5D
:102F6000740E186E0F0E196E8DEC2DF09BEC2FF079
:102F70000C0E1E6EFF0E1F6EFF0E206EFF0E216EDA
:102F800054EC2FF037C027F038C028F0296A000E23
:102F90002724106E800E2820116E100E2920126E2C
:102FA000010E146E0D0E136E36EC2FF0020E9BEC1C
:102FB0002FF037C027F038C028F0296A000E2724E8
:102FC000106E800E2820116E100E2920126E000E39
:102FD000146E210E136E36EC2FF0020E9BEC2FF0C8
:102FE00037C027F038C028F0296A000E2724106E59
:102FF000800E2820116E100E2920126E000E146E05
:103000001C0E136E36EC2FF0020E9BEC2FF037C027
:1030100027F038C028F0296A000E2724106E800E91
:103020002820116E100E2920126E000E146E000E54
:10303000136E36EC2FF0020E9BEC2FF037C027F00A
:1030400038C028F0296A000E2724156E800E28202B
:10305000166E100E2920176E760E186E0F0E196E52
:103060008DEC2DF09BEC2FF00C0E1E6EFF0E1F6EE4
:10307000FF0E206EFF0E216E54EC2FF037C027F0AC
:1030800038C028F0296A000E2724106E800E2820F0
:10309000116E100E2920126E010E146E2A0E136E80
:1030A00036EC2FF0020E9BEC2FF037C027F038C023
:1030B00028F0296A000E2724106E800E2820116E39
:1030C000100E2920126E000E146E3A0E136E36EC9E
:1030D0002FF0020E9BEC2FF037C027F038C028F0FD
:1030E000296A000E2724106E800E2820116E100E03
:1030F0002920126E000E146E1C0E136E36EC2FF08B
:10310000020E9BEC2FF037C027F038C028F0296A58
:10311000000E2724106E800E2820116E100E29201C
:10312000126E000E146E000E136E36EC2FF0020EAF
:103130009BEC2FF037C027F038C028F0296A000E2A
:103140002724156E800E2820166E100E2920176E6B
:10315000780E186E0F0E196E8DEC2DF09BEC2FF083
:103160000C0E1E6EFF0E1F6EFF0E206EFF0E216EE8
:1031700054EC2FF037C027F038C028F0296A000E31
:103180002724106E800E2820116E100E2920126E3A
:10319000010E146E2D0E136E36EC2FF0020E9BEC0A
:1031A0002FF037C027F038C028F0296A000E2724F6
:1031B000106E800E2820116E100E2920126E000E47
:1031C000146E5C0E136E36EC2FF0020E9BEC2FF09B
:1031D00037C027F038C028F0296A000E2724106E67
:1031E000800E2820116E100E2920126E000E146E13
:1031F0001C0E136E36EC2FF0020E9BEC2FF037C036
:1032000027F038C028F0296A000E2724106E800E9F
:103210002820116E100E2920126E000E146E000E62
:10322000136E36EC2FF0020E9BEC2FF037C027F018
:1032300038C028F0296A000E2724156E800E282039
:10324000166E100E2920176E5C0E186E0F0E196E7A
:103250008DEC2DF09BEC2FF00C0E1E6EFF0E1F6EF2
:10326000FF0E206EFF0E216E54EC2FF037C027F0BA
:1032700038C028F0296A000E2724106E800E2820FE
:10328000116E100E2920126E010E146E2B0E136E8D
:1032900036EC2FF0020E9BEC2FF037C027F038C031
:1032A00028F0296A000E2724106E800E2820116E47
:1032B000100E2920126E000E146E820E136E36EC64
:1032C0002FF0020E9BEC2FF037C027F038C028F00B
:1032D000296A000E2724106E800E2820116E100E11
:1032E0002920126E000E146E1C0E136E36EC2FF099
:1032F000020E9BEC2FF037C027F038C028F0296A67
:10330000000E2724106E800E2820116E100E29202A
:10331000126E000E146E000E136E36EC2FF0020EBD
:103320009BEC2FF037C027F038C028F0296A000E38
:103330002724156E800E2820166E100E2920176E79
:103340005F0E186E0F0E196E8DEC2DF09BEC2FF0AA
:103350000C0E1E6EFF0E1F6EFF0E206EFF0E216EF6
:1033600054EC2FF037C027F038C028F0296A000E3F
:103370002724106E800E2820116E100E2920126E48
:10338000010E146E120E136E36EC2FF0020E9BEC33
:103390002FF037C027F038C028F0296A000E272404
:1033A000106E800E2820116E100E2920126E000E55
:1033B000146EA10E136E36EC2FF0020E9BEC2FF064
:1033C00037C027F038C028F0296A000E2724106E75
:1033D000800E2820116E100E2920126E000E146E21
:1033E0001C0E136E36EC2FF0020E9BEC2FF037C044
:1033F00027F038C028F0296A000E2724106E800EAE
:103400002820116E100E2920126E000E146E000E70
:10341000136E36EC2FF0020E9BEC2FF037C027F026
:1034200038C028F0296A000E2724156E800E282047
:10343000166E100E2920176E620E186E0F0E196E82
:103440008DEC2DF09BEC2FF00C0E1E6EFF0E1F6E00
:10345000FF0E206EFF0E216E54EC2FF037C027F0C8
:1034600038C028F0296A000E2724106E800E28200C
:10347000116E100E2920126E000E146EF10E136ED6
:1034800036EC2FF0020E9BEC2FF037C027F038C03F
:1034900028F0296A000E2724106E800E2820116E55
:1034A000100E2920126E000E146E720E136E36EC82
:1034B0002FF0020E9BEC2FF037C027F038C028F019
:1034C000296A000E2724106E800E2820116E100E1F
:1034D0002920126E000E146E1F0E136E36EC2FF0A4
:1034E000020E9BEC2FF037C027F038C028F0296A75
:1034F000000E2724106E800E2820116E100E292039
:10350000126E060E146E000E136E36EC2FF0020EC5
:103510009BEC2FF037C027F038C028F0296A000E46
:103520002724156E800E2820166E100E2920176E87
:103530006A0E186E0F0E196E8DEC2DF09BEC2FF0AD
:103540000C0E1E6EFF0E1F6EFF0E206EFF0E216E04
:1035500054EC2FF037C027F038C028F0296A000E4D
:103560002724106E800E2820116E100E2920126E56
:10357000010E146E0B0E136E36EC2FF0020E9BEC48
:103580002FF037C027F038C028F0296A000E272412
:10359000106E800E2820116E100E2920126E000E63
:1035A000146E6C0E136E36EC2FF0020E9BEC2FF0A7
:1035B00037C027F038C028F0296A000E2724106E83
:1035C000800E2820116E100E2920126E000E146E2F
:1035D0001C0E136E36EC2FF0020E9BEC2FF037C052
:1035E00027F038C028F0296A000E2724106E800EBC
:1035F0002820116E100E2920126E000E146E000E7F
:10360000136E36EC2FF0020E9BEC2FF037C027F034
:1036100038C028F0296A000E2724156E800E282055
:10362000166E100E2920176E7C0E186E0F0E196E76
:103630008DEC2DF09BEC2FF00C0E1E6EFF0E1F6E0E
:10364000FF0E206EFF0E216E54EC2FF037C027F0D6
:1036500038C028F0296A000E2724106E800E28201A
:10366000116E100E2920126E000E146EE30E136EF2
:1036700036EC2FF0020E9BEC2FF037C027F038C04D
:1036800028F0296A000E2724106E800E2820116E63
:10369000100E2920126E000E146E840E136E36EC7E
:1036A0002FF0020E9BEC2FF037C027F038C028F027
:1036B000296A000E2724106E800E2820116E100E2D
:1036C0002920126E000E146E1A0E136E36EC2FF0B7
:1036D000020E9BEC2FF037C027F038C028F0296A83
:1036E000000E2724106E800E2820116E100E292047
:1036F000126E000E146E000E136E36EC2FF0020EDA
:103700009BEC2FF037C027F038C028F0296A000E54
:103710002724156E800E2820166E100E2920176E95
:10372000540E186E0F0E196E8DEC2DF09BEC2FF0D1
:103730001200000E296E050E286EFF0E1E6EFF0E83
:103740001F6EFF0E206E040E216E54EC2FF00C0E37
:103750001E6EFF0E1F6EFF0E206EFF0E216E54ECCC
:103760002FF037C025F038C026F0276A000E252438
:10377000106E800E2620116E100E2720126E000E85
:10378000146E050E136E36EC2FF0020E9BEC2FF02C
:1037900037C025F038C026F0276A000E2524106EA9
:1037A000800E2620116E100E2720126E28C013F0F6
:1037B00029C014F036EC2FF0020E9BEC2FF037C02E
:1037C00025F038C026F0276A000E2524106E800EE2
:1037D0002620116E100E2720126E000E146E1A0E87
:1037E000136E36EC2FF0020E9BEC2FF037C025F055
:1037F00038C026F0276A000E2524106E800E262081
:10380000116E100E2720126E000E146E000E136E35
:1038100036EC2FF0020E9BEC2FF037C025F038C0AD
:1038200026F0276A000E2524156E800E2620166EBF
:10383000100E2720176E160E186E0F0E196E8DECD7
:103840002DF09BEC2FF00C0E1E6EFF0E1F6EFF0E68
:10385000206EFF0E216E54EC2FF037C025F038C0DB
:1038600026F0276A000E2524106E800E2620116E89
:10387000100E2720126E000E146E050E136E36EC1D
:103880002FF0020E9BEC2FF037C025F038C026F049
:10389000276A000E2524106E800E2620116E100E51
:1038A0002720126E0F0E2826000E292228C013F0A2
:1038B00029C014F036EC2FF0020E9BEC2FF037C02D
:1038C00025F038C026F0276A000E2524106E800EE1
:1038D0002620116E100E2720126E000E146E1A0E86
:1038E000136E36EC2FF0020E9BEC2FF037C025F054
:1038F00038C026F0276A000E2524106E800E262080
:10390000116E100E2720126E000E146E000E136E34
:1039100036EC2FF0020E9BEC2FF037C025F038C0AC
:1039200026F0276A000E2524156E800E2620166EBE
:10393000100E2720176E380E186E0F0E196E8DECB4
:103940002DF09BEC2FF00C0E1E6EFF0E1F6EFF0E67
:10395000206EFF0E216E54EC2FF037C025F038C0DA
:1039600026F0276A000E2524106E800E2620116E88
:10397000100E2720126E000E146E050E136E36EC1C
:103980002FF0020E9BEC2FF037C025F038C026F048
:10399000276A000E2524106E800E2620116E100E50
:1039A0002720126E190E2826000E292228C013F097
:1039B00029C014F036EC2FF0020E9BEC2FF037C02C
:1039C00025F038C026F0276A000E2524106E800EE0
:1039D0002620116E100E2720126E000E146E1A0E85
:1039E000136E36EC2FF0020E9BEC2FF037C025F053
:1039F00038C026F0276A000E2524106E800E26207F
:103A0000116E100E2720126E000E146E000E136E33
:103A100036EC2FF0020E9BEC2FF037C025F038C0AB
:103A200026F0276A000E2524156E800E2620166EBD
:103A3000100E2720176E500E186E0F0E196E8DEC9B
:103A40002DF09BEC2FF00C0E1E6EFF0E1F6EFF0E66
:103A5000206EFF0E216E54EC2FF037C025F038C0D9
:103A600026F0276A000E2524106E800E2620116E87
:103A7000100E2720126E000E146E050E136E36EC1B
:103A80002FF0020E9BEC2FF037C025F038C026F047
:103A9000276A000E2524106E800E2620116E100E4F
:103AA0002720126E0F0E2826000E292228C013F0A0
:103AB00029C014F036EC2FF0020E9BEC2FF037C02B
:103AC00025F038C026F0276A000E2524106E800EDF
:103AD0002620116E100E2720126E000E146E1A0E84
:103AE000136E36EC2FF0020E9BEC2FF037C025F052
:103AF00038C026F0276A000E2524106E800E26207E
:103B0000116E100E2720126E000E146E000E136E32
:103B100036EC2FF0020E9BEC2FF037C025F038C0AA
:103B200026F0276A000E2524156E800E2620166EBC
:103B3000100E2720176E380E186E0F0E196E8DECB2
:103B40002DF09BEC2FF00C0E1E6EFF0E1F6EFF0E65
:103B5000206EFF0E216E54EC2FF037C025F038C0D8
:103B600026F0276A000E2524106E800E2620116E86
:103B7000100E2720126E000E146E050E136E36EC1A
:103B80002FF0020E9BEC2FF037C025F038C026F046
:103B9000276A000E2524106E800E2620116E100E4E
:103BA0002720126E190E2826000E292228C013F095
:103BB00029C014F036EC2FF0020E9BEC2FF037C02A
:103BC00025F038C026F0276A000E2524106E800EDE
:103BD0002620116E100E2720126E000E146E1A0E83
:103BE000136E36EC2FF0020E9BEC2FF037C025F051
:103BF00038C026F0276A000E2524106E800E26207D
:103C0000116E100E2720126E000E146E000E136E31
:103C100036EC2FF0020E9BEC2FF037C025F038C0A9
:103C200026F0276A000E2524156E800E2620166EBB
:103C3000100E2720176E330E186E0F0E196E8DECB6
:103C40002DF09BEC2FF00C0E1E6EFF0E1F6EFF0E64
:103C5000206EFF0E216E54EC2FF037C025F038C0D7
:103C600026F0276A000E2524106E800E2620116E85
:103C7000100E2720126E000E146E050E136E36EC19
:103C80002FF0020E9BEC2FF037C025F038C026F045
:103C9000276A000E2524106E800E2620116E100E4D
:103CA0002720126E0F0E2826000E292228C013F09E
:103CB00029C014F036EC2FF0020E9BEC2FF037C029
:103CC00025F038C026F0276A000E2524106E800EDD
:103CD0002620116E100E2720126E000E146E1A0E82
:103CE000136E36EC2FF0020E9BEC2FF037C025F050
:103CF00038C026F0276A000E2524106E800E26207C
:103D0000116E100E2720126E000E146E000E136E30
:103D100036EC2FF0020E9BEC2FF037C025F038C0A8
:103D200026F0276A000E2524156E800E2620166EBA
:103D3000100E2720176E2E0E186E0F0E196E8DECBA
:103D40002DF09BEC2FF00C0E1E6EFF0E1F6EFF0E63
:103D5000206EFF0E216E54EC2FF037C025F038C0D6
:103D600026F0276A000E2524106E800E2620116E84
:103D7000100E2720126E000E146E050E136E36EC18
:103D80002FF0020E9BEC2FF037C025F038C026F044
:103D9000276A000E2524106E800E2620116E100E4C
:103DA0002720126E190E2826000E292228C013F093
:103DB00029C014F036EC2FF0020E9BEC2FF037C028
:103DC00025F038C026F0276A000E2524106E800EDC
:103DD0002620116E100E2720126E000E146E1A0E81
:103DE000136E36EC2FF0020E9BEC2FF037C025F04F
:103DF00038C026F0276A000E2524106E800E26207B
:103E0000116E100E2720126E000E146E000E136E2F
:103E100036EC2FF0020E9BEC2FF037C025F038C0A7
:103E200026F0276A000E2524156E800E2620166EB9
:103E3000100E2720176E470E186E0F0E196E8DECA0
:103E40002DF09BEC2FF00C0E1E6EFF0E1F6EFF0E62
:103E5000206EFF0E216E54EC2FF037C025F038C0D5
:103E600026F0276A000E2524106E800E2620116E83
:103E7000100E2720126E000E146E050E136E36EC17
:103E80002FF0020E9BEC2FF037C025F038C026F043
:103E9000276A000E2524106E800E2620116E100E4B
:103EA0002720126E0F0E2826000E292228C013F09C
:103EB00029C014F036EC2FF0020E9BEC2FF037C027
:103EC00025F038C026F0276A000E2524106E800EDB
:103ED0002620116E100E2720126E000E146E1A0E80
:103EE000136E36EC2FF0020E9BEC2FF037C025F04E
:103EF00038C026F0276A000E2524106E800E26207A
:103F0000116E100E2720126E000E146E000E136E2E
:103F100036EC2FF0020E9BEC2FF037C025F038C0A6
:103F200026F0276A000E2524156E800E2620166EB8
:103F3000100E2720176E220E186E0F0E196E8DECC4
:103F40002DF09BEC2FF00C0E1E6EFF0E1F6EFF0E61
:103F5000206EFF0E216E54EC2FF037C025F038C0D4
:103F600026F0276A000E2524106E800E2620116E82
:103F7000100E2720126E000E146E050E136E36EC16
:103F80002FF0020E9BEC2FF037C025F038C026F042
:103F9000276A000E2524106E800E2620116E100E4A
:103FA0002720126E190E2826000E292228C013F091
:103FB00029C014F036EC2FF0020E9BEC2FF037C026
:103FC00025F038C026F0276A000E2524106E800EDA
:103FD0002620116E100E2720126E000E146E1A0E7F
:103FE000136E36EC2FF0020E9BEC2FF037C025F04D
:103FF00038C026F0276A000E2524106E800E262079
:10400000116E100E2720126E000E146E000E136E2D
:1040100036EC2FF0020E9BEC2FF037C025F038C0A5
:1040200026F0276A000E2524156E800E2620166EB7
:10403000100E2720176E500E186E0F0E196E8DEC95
:104040002DF09BEC2FF00C0E1E6EFF0E1F6EFF0E60
:10405000206EFF0E216E54EC2FF037C025F038C0D3
:1040600026F0276A000E2524106E800E2620116E81
:10407000100E2720126E000E146E050E136E36EC15
:104080002FF0020E9BEC2FF037C025F038C026F041
:10409000276A000E2524106E800E2620116E100E49
:1040A0002720126E0F0E2826000E292228C013F09A
:1040B00029C014F036EC2FF0020E9BEC2FF037C025
:1040C00025F038C026F0276A000E2524106E800ED9
:1040D0002620116E100E2720126E000E146E1A0E7E
:1040E000136E36EC2FF0020E9BEC2FF037C025F04C
:1040F00038C026F0276A000E2524106E800E262078
:10410000116E100E2720126E000E146E000E136E2C
:1041100036EC2FF0020E9BEC2FF037C025F038C0A4
:1041200026F0276A000E2524156E800E2620166EB6
:10413000100E2720176E1C0E186E0F0E196E8DECC8
:104140002DF09BEC2FF00C0E1E6EFF0E1F6EFF0E5F
:10415000206EFF0E216E54EC2FF037C025F038C0D2
:1041600026F0276A000E2524106E800E2620116E80
:10417000100E2720126E010E146E680E136E36ECB0
:104180002FF0020E9BEC2FF037C025F038C026F040
:10419000276A000E2524106E800E2620116E100E48
:1041A0002720126E000E146E820E136E36EC2FF066
:1041B000020E9BEC2FF037C025F038C026F0276A9E
:1041C000000E2524106E800E2620116E100E272062
:1041D000126E000E146E1A0E136E36EC2FF0020ED5
:1041E0009BEC2FF037C025F038C026F0276A000E70
:1041F0002524106E800E2620116E100E2720126EC0
:10420000000E146E000E136E36EC2FF0020E9BECB7
:104210002FF037C025F038C026F0276A000E25247D
:10422000156E800E2620166E100E2720176E100EAB
:10423000186E0F0E196E8DEC2DF09BEC2FF00C0EFE
:104240001E6EFF0E1F6EFF0E206EFF0E216E54ECD1
:104250002FF037C025F038C026F0276A000E25243D
:10426000106E800E2620116E100E2720126E010E89
:10427000146E680E136E36EC2FF0020E9BEC2FF0CE
:1042800037C025F038C026F0276A000E2524106EAE
:10429000800E2620116E100E2720126E000E146E56
:1042A000910E136E36EC2FF0020E9BEC2FF037C000
:1042B00025F038C026F0276A000E2524106E800EE7
:1042C0002620116E100E2720126E000E146E1A0E8C
:1042D000136E36EC2FF0020E9BEC2FF037C025F05A
:1042E00038C026F0276A000E2524106E800E262086
:1042F000116E100E2720126E000E146E000E136E3B
:1043000036EC2FF0020E9BEC2FF037C025F038C0B2
:1043100026F0276A000E2524156E800E2620166EC4
:10432000100E2720176E4C0E186E0F0E196E8DECA6
:104330002DF09BEC2FF00C0E1E6EFF0E1F6EFF0E6D
:10434000206EFF0E216E54EC2FF037C025F038C0E0
:1043500026F0276A000E2524106E800E2620116E8E
:10436000100E2720126E010E146E7C0E136E36ECAA
:104370002FF0020E9BEC2FF037C025F038C026F04E
:10438000276A000E2524106E800E2620116E100E56
:104390002720126E000E146EB40E136E36EC2FF042
:1043A000020E9BEC2FF037C025F038C026F0276AAC
:1043B000000E2524106E800E2620116E100E272070
:1043C000126E000E146E1A0E136E36EC2FF0020EE3
:1043D0009BEC2FF037C025F038C026F0276A000E7E
:1043E0002524106E800E2620116E100E2720126ECE
:1043F000000E146E000E136E36EC2FF0020E9BECC6
:104400002FF037C025F038C026F0276A000E25248B
:10441000156E800E2620166E100E2720176E650E64
:10442000186E0F0E196E8DEC2DF09BEC2FF00C0E0C
:104430001E6EFF0E1F6EFF0E206EFF0E216E54ECDF
:104440002FF037C025F038C026F0276A000E25244B
:10445000106E800E2620116E100E2720126E010E97
:10446000146ECB0E136E36EC2FF0020E9BEC2FF079
:1044700037C025F038C026F0276A000E2524106EBC
:10448000800E2620116E100E2720126E000E146E64
:10449000AE0E136E36EC2FF0020E9BEC2FF037C0F1
:1044A00025F038C026F0276A000E2524106E800EF5
:1044B0002620116E100E2720126E000E146E1C0E98
:1044C000136E36EC2FF0020E9BEC2FF037C025F068
:1044D00038C026F0276A000E2524106E800E262094
:1044E000116E100E2720126E000E146E000E136E49
:1044F00036EC2FF0020E9BEC2FF037C025F038C0C1
:1045000026F0276A000E2524156E800E2620166ED2
:10451000100E2720176E680E186E0F0E196E8DEC98
:104520002DF09BEC2FF0020E1E6E000E1F6E000E83
:10453000206E1F0E216E54EC2FF0140E1E6E140E02
:104540001F6E140E206E040E216E54EC2FF0D60E4A
:104550001E6E060E1F6E000E206E0D0E216E54ECA8
:104560002FF0000E1E6E300E1F6E070E206E9E0E78
:10457000216E54EC2FF03C0E1E6E3C0E1F6E3C0E56
:10458000206E040E216E54EC2FF0720E1E6E060E7D
:104590001F6E000E206E0D0E216E54EC2FF0000EDB
:1045A0001E6E300E1F6E070E206E9E0E216E54EC96
:1045B0002FF01200600E1E6E000E1F6E000E206E99
:1045C0000E0E216E54EC2FF0000E1E6E7D0E1F6E2F
:1045D000CA0E206E040E216E54EC2FF0030E1E6ED8
:1045E000000E1F6E000E206E1F0E216E54EC2FF079
:1045F000FAD1000E1E6EF00E1F6E800E206EB40EED
:10460000216E54EC2FF0000E1E6E300E1F6E870EC2
:10461000206EB40E216E54EC2FF0000E1E6EF00EC4
:104620001F6E600E206EB40E216E54EC2FF0000E43
:104630001E6EE00E1F6E010E206EB20E216E54EC47
:104640002FF0000E1E6E400E1F6EA70E206EB20ED3
:10465000216E54EC2FF0000E1E6E400E1F6E670E82
:10466000206EB60E216E54EC2FF01200000E1E6E5E
:10467000F00E1F6E800E206EAF0E216E54EC2FF0E8
:10468000000E1E6EF00E1F6E800E206EB90E216E93
:1046900054EC2FF0000E1E6E000E1F6E810E206E69
:1046A000B90E216E54EC2FF0000E1E6E000E1F6E20
:1046B000840E206EB90E216E54EC2FF0000E1E6E8B
:1046C000100E1F6E840E206EB90E216E54EC2FF06A
:1046D000000E1E6E100E1F6E840E206EAF0E216E29
:1046E00054EC2FF0000E1E6E200E1F6E840E206EF6
:1046F000AF0E216E54EC2FF0000E1E6E300E1F6EAA
:10470000870E206EAF0E216E54EC2FF0000E1E6E41
:10471000300E1F6EA70E206EAF0E216E54EC2FF0E0
:10472000000E1E6E300E1F6E870E206EB90E216EAB
:1047300054EC2FF01200000E1E6EF00E1F6E800E55
:10474000206EAF0E216E54EC2FF0000E1E6EF00E98
:104750001F6E600E206EB90E216E54EC2FF0000E0D
:104760001E6E000E1F6E810E206EB90E216E54EC6F
:104770002FF0000E1E6E300E1F6E870E206EB90ECB
:10478000216E54EC2FF0000E1E6E100E1F6E640E84
:10479000206EB90E216E54EC2FF0000E1E6E100E1E
:1047A0001F6E840E206EAF0E216E54EC2FF0000EA3
:1047B0001E6E300E1F6EA70E206EAF0E216E54ECD3
:1047C0002FF0000E1E6E300E1F6E670E206EB90E9B
:1047D000216E54EC2FF01200000E1E6EF00E1F6EB4
:1047E000800E206EAF0E216E54EC2FF0000E1E6E68
:1047F000000E1F6E840E206EAF0E216E54EC2FF053
:10480000000E1E6E000E1F6E810E206EB90E216E00
:1048100054EC2FF0000E1E6E300E1F6E870E206EB1
:10482000B90E216E54EC2FF0000E1E6E100E1F6E8E
:10483000240E206EB90E216E54EC2FF0000E1E6E69
:10484000100E1F6EA40E206EAF0E216E54EC2FF0D2
:104850001200000E1E6EF00E1F6E800E206EAF0E48
:10486000216E54EC2FF0000E1E6EF00E1F6E600EC7
:10487000206EB90E216E54EC2FF0000E1E6E000E4D
:104880001F6E810E206EAF0E216E54EC2FF0000EC5
:104890001E6E000E1F6E840E206EAF0E216E54EC45
:1048A0002FF0000E1E6E100E1F6E840E206EB90EBD
:1048B000216E54EC2FF0000E1E6E200E1F6E870E20
:1048C000206EB90E216E54EC2FF0000E1E6E100EED
:1048D0001F6E240E206EB90E216E54EC2FF0000EC8
:1048E0001E6E100E1F6EA40E206EAF0E216E54ECC5
:1048F0002FF0000E1E6E300E1F6EA70E206EAF0E34
:10490000216E54EC2FF0000E1E6E300E1F6E670EDF
:10491000206EB90E216E54EC2FF01200000E1E6EA8
:10492000F00E1F6E800E206EAF0E216E54EC2FF035
:10493000000E1E6EF00E1F6E600E206EB90E216E00
:1049400054EC2FF0000E1E6E000E1F6E810E206EB6
:10495000AF0E216E54EC2FF0000E1E6E300E1F6E47
:10496000870E206EAF0E216E54EC2FF0000E1E6EDF
:10497000100E1F6E840E206EB90E216E54EC2FF0B7
:10498000000E1E6E200E1F6E870E206EB90E216E59
:1049900054EC2FF0000E1E6E100E1F6E240E206EB3
:1049A000B90E216E54EC2FF0000E1E6E100E1F6E0D
:1049B000A40E206EAF0E216E54EC2FF0000E1E6E72
:1049C000300E1F6EA70E206EAF0E216E54EC2FF02E
:1049D000000E1E6E300E1F6E670E206EB90E216E19
:1049E00054EC2FF0120025C027F026C028F02850E4
:1049F000000AD8A412002750010AD8B4FAD5030A35
:104A0000D8B434D6010AD8B496D6070AD8B4E4D6B6
:104A1000010AD8B41ED7030AD8A412007FD72E0EDD
:104A20001E6EFF0E1F6EFF0E206EFF0E216E54ECE9
:104A30002FF037C027F038C028F0296A000E27244D
:104A4000106E800E2820116E100E2920126E000E9E
:104A5000146E420E136E36EC2FF0020E9BEC2FF00C
:104A600037C027F038C028F0296A000E2724106EBE
:104A7000800E2820116E100E2920126E000E146E6A
:104A8000590E136E36EC2FF0020E9BEC2FF037C050
:104A900027F038C028F0296A000E2724106E800EF7
:104AA0002820116E100E2920126E000E146E1C0E9E
:104AB000136E36EC2FF0020E9BEC2FF037C027F070
:104AC00038C028F0296A000E2724106E800E282096
:104AD000116E100E2920126E000E146E000E136E51
:104AE00036EC2FF0020E9BEC2FF0030E1E6E000E24
:104AF0001F6E000E206E000E216E54EC2FF00C0E77
:104B00001E6EFF0E1F6EFF0E206EFF0E216E54EC08
:104B10002FF037C027F038C028F0296A000E27246C
:104B2000106E800E2820116E100E2920126E000EBD
:104B3000146E4E0E136E36EC2FF0020E9BEC2FF01F
:104B400037C027F038C028F0296A000E2724106EDD
:104B5000800E2820116E100E2920126E000E146E89
:104B60005A0E136E36EC2FF0020E9BEC2FF037C06E
:104B700027F038C028F0296A000E2724106E800E16
:104B80002820116E100E2920126E000E146E1C0EBD
:104B9000136E36EC2FF0020E9BEC2FF037C027F08F
:104BA00038C028F0296A000E2724106E800E2820B5
:104BB000116E100E2920126E000E146E000E136E70
:104BC00036EC2FF0020E9BEC2FF037C027F038C0E8
:104BD00028F0296A000E2724156E800E2820166EF4
:104BE000100E2920176E6A0E186E0F0E196E8DECBE
:104BF0002DF09BEC2FF02E0E1E6EFF0E1F6EFF0E83
:104C0000206EFF0E216E54EC2FF037C027F038C015
:104C100028F0296A000E2724106E800E2820116EBD
:104C2000100E2920126E000E146E530E136E36EC09
:104C30002FF0020E9BEC2FF037C027F038C028F081
:104C4000296A000E2724106E800E2820116E100E87
:104C50002920126E000E146E590E136E36EC2FF0D2
:104C6000020E9BEC2FF037C027F038C028F0296ADD
:104C7000000E2724106E800E2820116E100E2920A1
:104C8000126E000E146E1C0E136E36EC2FF0020E18
:104C90009BEC2FF037C027F038C028F0296A000EAF
:104CA0002724106E800E2820116E100E2920126EFF
:104CB000000E146E000E136E36EC2FF0020E9BECFD
:104CC0002FF0030E1E6E000E1F6E000E206E000EE3
:104CD000216E54EC2FF012002E0E1E6EFF0E1F6E72
:104CE000FF0E206EFF0E216E54EC2FF037C028F01F
:104CF00038C029F02A6A000E2824106E800E292060
:104D0000116E100E2A20126E000E146E420E136EDB
:104D100036EC2FF0020E9BEC2FF037C028F038C095
:104D200029F02A6A000E2824106E800E2920116EA8
:104D3000100E2A20126E000E146E820E136E36ECC8
:104D40002FF0020E9BEC2FF037C028F038C029F06E
:104D50002A6A000E2824106E800E2920116E100E73
:104D60002A20126E000E146E1C0E136E36EC2FF0FD
:104D7000020E9BEC2FF037C028F038C029F02A6AC9
:104D8000000E2824106E800E2920116E100E2A208D
:104D9000126E000E146E000E136E36EC2FF0020E23
:104DA0009BEC2FF00D0E1E6E000E1F6E000E206E7F
:104DB000000E216E54EC2FF00C0E1E6EFF0E1F6EB7
:104DC000FF0E206EFF0E216E54EC2FF037C028F03E
:104DD00038C029F02A6A000E2824106E800E29207F
:104DE000116E100E2A20126E000E146E5A0E136EE3
:104DF00036EC2FF0020E9BEC2FF037C028F038C0B5
:104E000029F02A6A000E2824106E800E2920116EC7
:104E1000100E2A20126E000E146E830E136E36ECE6
:104E20002FF0020E9BEC2FF037C028F038C029F08D
:104E30002A6A000E2824106E800E2920116E100E92
:104E40002A20126E000E146E1C0E136E36EC2FF01C
:104E5000020E9BEC2FF037C028F038C029F02A6AE8
:104E6000000E2824106E800E2920116E100E2A20AC
:104E7000126E000E146E000E136E36EC2FF0020E42
:104E80009BEC2FF037C028F038C029F02A6A000EBA
:104E90002824156E800E2920166E100E2A20176EFB
:104EA0006A0E186E0F0E196E8DEC2DF09BEC2FF024
:104EB0002E0E1E6EFF0E1F6EFF0E206EFF0E216E59
:104EC00054EC2FF037C028F038C029F02A6A000EC1
:104ED0002824106E800E2920116E100E2A20126ECA
:104EE000000E146E600E136E36EC2FF0020E9BEC6B
:104EF0002FF037C028F038C029F02A6A000E282485
:104F0000106E800E2920116E100E2A20126E000ED7
:104F1000146E820E136E36EC2FF0020E9BEC2FF007
:104F200037C028F038C029F02A6A000E2824106EF5
:104F3000800E2920116E100E2A20126E000E146EA3
:104F40001C0E136E36EC2FF0020E9BEC2FF037C0C8
:104F500028F038C029F02A6A000E2824106E800E2E
:104F60002920116E100E2A20126E000E146E000EF3
:104F7000136E36EC2FF0020E9BEC2FF0020E1E6E1D
:104F8000000E1F6E000E206E000E216E54EC2FF0EE
:104F900012008B92680E1B6EE40EE82EFED71B2EBD
:104FA000FCD700D08B82680E1B6EE40EE82EFED775
:104FB0001B2EFCD700D0000EB6EC2FF0440EB6EC42
:104FC0002FF0620EB6EC2FF0300E106E240E116E24
:104FD000100E126E010E146EE00E136E36EC2FF0F2
:104FE000440E106E240E116E100E126E010E146E11
:104FF000100E136E36EC2FF0280E106E240E116E6C
:10500000100E126E020E146E0D0E136E36EC2FF093
:10501000340E106E240E116E100E126E000E146EF1
:10502000000E136E36EC2FF0380E106E240E116E3B
:10503000100E126E000E146E290E136E36EC2FF049
:105040002C0E106E240E116E100E126E000E146EC9
:105050002B0E136E36EC2FF03C0E106E240E116EDC
:10506000100E126E010E146E1E0E136E36EC2FF023
:10507000480E106E240E116E100E126E000E146E7D
:10508000000E136E36EC2FF04C0E106E240E116EC7
:10509000100E126E000E146E0A0E136E36EC2FF008
:1050A000400E106E240E116E100E126E000E146E55
:1050B0000C0E136E36EC2FF0640E106E240E116E73
:1050C000100E126E000E136E70EC2FF05C0E106E50
:1050D000240E116E100E126E000E136E70EC2FF077
:1050E000580E106E240E116E100E126E010E146EFC
:1050F000B60E136E36EC2FF0600E106E240E116E8D
:10510000100E126E000E136E70EC2FF0680E106E03
:10511000240E116E100E126E000E136E70EC2FF036
:10512000540E106E240E116E100E126E000E136EC1
:1051300070EC2FF0000E106E000E116E100E126E3D
:10514000000E136E1A0E146E000E156E020E166E01
:1051500015EC2EF0040E106E000E116E100E126E75
:10516000070E136E000E146E000E156E260E166ED0
:1051700015EC2EF0080E106E000E116E100E126E51
:10518000000E136E000E146E000E156E000E166EDD
:1051900015EC2EF0500E106E240E116E100E126EC5
:1051A000020E136E70EC2FF08C0E106E240E116E2A
:1051B000100E126EFC0E136E70EC2FF0900E106E2F
:1051C000240E116E100E126EFF0E136E70EC2FF087
:1051D0006C0E106E240E116E100E126E050E136EF4
:1051E00070EC2FF0E80E106E240E116E100E126E81
:1051F00089EC2EF010C037F011C038F0E40E106EBC
:10520000240E116E100E126E89EC2EF0375010180D
:10521000F5E138501118D8B41200F0D7090E1E6EFF
:10522000000E1F6E000E206E1F0E216E54EC2FF02C
:105230003C0E1E6E3C0E1F6E3C0E206E040E216E48
:1052400054EC2FF0000E1E6E700E1F6ECD0E206EF1
:10525000AB0E216E54EC2FF0000E1E6E600E1F6E12
:10526000CE0E206E900E216E54EC2FF0FF0E1E6EAF
:10527000FF0E1F6EFF0E206E040E216E54EC2FF0F9
:105280000C0E1E6EFF0E1F6EFF0E206EFF0E216EA7
:1052900054EC2FF037C027F038C028F0296A000EF0
:1052A0002724106E800E2820116E100E2920126EF9
:1052B000000E146EF00E136E36EC2FF0020E9BEC07
:1052C0002FF037C027F038C028F0296A000E2724B5
:1052D000106E800E2820116E100E2920126E000E06
:1052E000146EDE0E136E36EC2FF0020E9BEC2FF0D8
:1052F00037C027F038C028F0296A000E2724106E26
:10530000800E2820116E100E2920126E000E146ED1
:105310001C0E136E36EC2FF0020E9BEC2FF037C0F4
:1053200027F038C028F0296A000E2724106E800E5E
:105330002820116E100E2920126E060E146E000E1B
:10534000136E36EC2FF0020E9BEC2FF037C027F0D7
:1053500038C028F0296A000E2724156E800E2820F8
:10536000166E100E2920176E010E186E0F0E196E94
:105370008DEC2DF09BEC2FF01200000E366E000E1F
:10538000356ED9EC2FF07080708A709E708C608AB8
:10539000609C60946090C79EC78CC68AC688C69081
:1053A000C692C694C696C9EC27F0CEEC2FF0A9ECB5
:1053B0002FF0F8EC2EF099EC1BF0000E266E5F0E2D
:1053C000256E55EC2AF0000E266E650E256E1BEC40
:1053D0002DF0000E266E040E256E0FEC25F0330E18
:1053E000256E530E266E410E276E6CEC26F0000ED5
:1053F000256E800E266E400E276E4BEC2BF0000EB5
:10540000266E020E256EDAEC22F0240E266EF10EC8
:10541000256E10EC12F0000E266E660E256EA9ECBD
:105420002CF0000E266E140E256E37EC2CF0000EBC
:10543000256E000E266E000E276E000E286E000EE2
:10544000296E000E2A6E000E2B6E000E2C6E000EC2
:105450002D6E000E2F6E000E2E6EC0EC07F0280E83
:10546000256E0F0E266E0EEC29F0D7EC2EF08982F9
:10547000020E346E040E336EBA0EE82EFED7332EB3
:10548000FCD7342EFAD700D0AA0EFAEC2FF089926E
:10549000020E346E040E336EBA0EE82EFED7332E93
:1054A000FCD7342EFAD700D0E2D7FF0E1E6EFF0EC7
:1054B0001F6EFF0E206E040E216E54EC2FF02E0E88
:1054C0001E6EFF0E1F6EFF0E206EFF0E216E54EC3F
:1054D0002FF037C027F038C028F0296A000E2724A3
:1054E000106E800E2820116E100E2920126E000EF4
:1054F000146E400E136E36EC2FF0020E9BEC2FF064
:1055000037C027F038C028F0296A000E2724106E13
:10551000800E2820116E100E2920126E000E146EBF
:10552000070E136E36EC2FF0020E9BEC2FF037C0F7
:1055300027F038C028F0296A000E2724106E800E4C
:105540002820116E100E2920126E000E146E1C0EF3
:10555000136E36EC2FF0020E9BEC2FF037C027F0C5
:1055600038C028F0296A000E2724106E800E2820EB
:10557000116E100E2920126E000E146E000E136EA6
:1055800036EC2FF0020E9BEC2FF025C01EF026C04B
:105590001FF0000E1FBEFF0E206E216E54EC2FF088
:1055A000120011C013F0146A156A1034133601E3A7
:1055B000148013501D6E1D50D8A409D0000E0F6E1C
:1055C000000E106E000E116E000E126E1200170EFD
:1055D000136E0FC014F010C015F011C016F0132890
:1055E000176E04D0D890163215321432172EFAD70F
:1055F0001450186E108EFF0E0F16FF0E1016000EB0
:1056000011160F50196E10501A6E11501B6E1C6A35
:105610008E0E1D5E1DAE16D01D50800A8F0FD8B0A5
:1056200009D0000E0F6E000E106E000E116E000EEF
:10563000126E1200D8901C321B321A3219321D3EE3
:10564000F9D715D0170E1D640FD0000E0F6E000E87
:10565000106E000E116E000E126E1200D8901936E8
:105660001A361B361C361D061D50D8A4F7D7185005
:10567000D8B408D01C1E1B1E1A1E196C000E1A224C
:105680001B221C2219C00FF01AC010F01BC011F011
:105690001CC012F012002E0E1E6EFF0E1F6EFF0EAB
:1056A000206EFF0E216E54EC2FF037C028F038C06A
:1056B00029F02A6A000E2824106E800E2920116E0F
:1056C000100E2A20126E000E146E420E136E36EC6F
:1056D0002FF0020E9BEC2FF037C028F038C029F0D5
:1056E0002A6A000E2824106E800E2920116E100EDA
:1056F0002A20126E000E146EAB0E136E36EC2FF0D5
:10570000020E9BEC2FF037C028F038C029F02A6A2F
:10571000000E2824106E800E2920116E100E2A20F3
:10572000126E000E146E1C0E136E36EC2FF0020E6D
:105730009BEC2FF037C028F038C029F02A6A000E01
:105740002824106E800E2920116E100E2A20126E51
:10575000000E146E000E136E36EC2FF0020E9BEC52
:105760002FF025C00FF026C010F027C011F0D1ECAB
:105770002AF00FC01EF010C01FF011C020F012C0A0
:1057800021F054EC2FF01200800E6F6E6E50E00B83
:10579000800AD8A4FBD7000E726E0E01FA690E01C2
:1057A000FB690E01F8690E01F9690E01FE690E012F
:1057B000FF690E01FC690E01FD69000E0E01E26F2A
:1057C000000E0E01E36FC80E0E01E06F000E0E0119
:1057D000E16F000E0E01E66F000E0E01E76F000E86
:1057E0000E01E46F000E0E01E56F000E0E01EA6F70
:1057F000000E0E01EB6F000E0E01E86F000E0E01A1
:10580000E96F000E0E01EE6F000E0E01EF6F000E3D
:105810000E01EC6F000E0E01ED6F000E0E01F26F27
:10582000000E0E01F36F000E0E01F06F000E0E0160
:10583000F16F000E0E01F66F000E0E01F76F000EF5
:105840000E01F46F000E0E01F56F000E0E01436F96
:10585000980E0E01446F010E0E01456F000E6F6E23
:105860006ECF0FF0E00E0F16D8B41200F9D72E0E3F
:105870001E6EFF0E1F6EFF0E206EFF0E216E54EC8B
:105880002FF037C027F038C028F0296A000E2724EF
:10589000106E800E2820116E100E2920126E010E3F
:1058A000146EC70E136E36EC2FF0020E9BEC2FF029
:1058B00037C027F038C028F0296A000E2724106E60
:1058C000800E2820116E100E2920126E000E146E0C
:1058D000A60E136E36EC2FF0020E9BEC2FF037C0A5
:1058E00027F038C028F0296A000E2724106E800E99
:1058F0002820116E100E2920126E000E146E1E0E3E
:10590000136E36EC2FF0020E9BEC2FF037C027F011
:1059100038C028F0296A000E2724106E800E282037
:10592000116E100E2920126E080E146E000E136EEA
:1059300036EC2FF0020E9BEC2FF025C01EF026C097
:105940001FF0000E1FBEFF0E206E216E54EC2FF0D4
:1059500012002E0E1E6EFF0E1F6EFF0E206EFF0E2B
:10596000216E54EC2FF037C027F038C028F0296A98
:10597000000E2724106E800E2820116E100E292094
:10598000126E010E146E950E136E36EC2FF0020E91
:105990009BEC2FF037C027F038C028F0296A000EA2
:1059A0002724106E800E2820116E100E2920126EF2
:1059B000000E146E780E136E36EC2FF0020E9BEC78
:1059C0002FF037C027F038C028F0296A000E2724AE
:1059D000106E800E2820116E100E2920126E000EFF
:1059E000146E1F0E136E36EC2FF0020E9BEC2FF090
:1059F00037C027F038C028F0296A000E2724106E1F
:105A0000800E2820116E100E2920126E000E146ECA
:105A1000000E136E36EC2FF0020E9BEC2FF025C01B
:105A20001EF026C01FF0000E1FBEFF0E206E216E5E
:105A300054EC2FF012002E0E1E6EFF0E1F6EFF0E86
:105A4000206EFF0E216E54EC2FF037C027F038C0C7
:105A500028F0296A000E2724106E800E2820116E6F
:105A6000100E2920126E000E146E420E136E36ECCC
:105A70002FF0020E9BEC2FF037C027F038C028F033
:105A8000296A000E2724106E800E2820116E100E39
:105A90002920126E000E146E300E136E36EC2FF0AD
:105AA000020E9BEC2FF037C027F038C028F0296A8F
:105AB000000E2724106E800E2820116E100E292053
:105AC000126E000E146E1C0E136E36EC2FF0020ECA
:105AD0009BEC2FF037C027F038C028F0296A000E61
:105AE0002724106E800E2820116E100E2920126EB1
:105AF000000E146E000E136E36EC2FF0020E9BECAF
:105B00002FF025C01EF026C01FF0000E1FBEFF0E96
:105B1000206E216E54EC2FF012008C9017508009EB
:105B2000EBEC2FF015C01AF016C01BF017C01CF0DC
:105B30001BC01AF01CC01BF01C6A1A50EBEC2FF0B3
:105B40001550EBEC2FF018C00FF019C010F017EC47
:105B50002FF00F501D6E000E1E6E13D01E50010D43
:105B600018C01AF019C01BF0F3501A26F4501B226B
:105B70001AC0F6FF1BC0F7FF0800F550EBEC2FF042
:105B80001E2A1E501D5CD8A005D0E8D7000EEBECF5
:105B90002FF01E2A1EC01AF0030E1A16D8A4F6D72C
:105BA0008C801E501200000E146E12AE06D0116CC6
:105BB000121ED8B0122A010E146E10AE06D00F6C51
:105BC000101ED8B0102A010E141A000E166E000E08
:105BD000156E11501210D8B41CD0010E136E04D0E3
:105BE000D89011361236132A12AEFAD7D89015363D
:105BF000163611500F5C12501058D8A005D0115015
:105C00000F5E1250105A1580D89012321132132E96
:105C1000EDD71450D8B404D0156C161ED8B0162A7F
:105C200015C00FF016C010F012008C9012508009B1
:105C3000EBEC2FF010C017F011C018F012C019F0E3
:105C400018C017F019C018F0196A1750EBEC2FF0B4
:105C50001050EBEC2FF01350EBEC2FF01450EBEC5A
:105C60002FF01550EBEC2FF013C017F014C018F004
:105C700015C019F016C01AF0110E05D0D8901A32BE
:105C8000193218321732E82EF9D718C017F019C098
:105C900018F01AC019F01A6A1750EBEC2FF08C802C
:105CA0001200000E1C6E18AE06D0176C181ED8B06D
:105CB000182A010E1C6E1AAE04D0196C1A1ED8B028
:105CC0001A2A19501A10D8B418D0010E1B6E04D01D
:105CD000D89019361A361B2A1AAEFAD71950175C03
:105CE0001A501858D8A004D01950175E1A50185AD4
:105CF000D8901A3219321B2EF1D71C50D8B404D0C8
:105D0000176C181ED8B0182A17C017F018C018F052
:105D100012008C901250EBEC2FF010C013F011C059
:105D200014F012C015F014C013F015C014F0156A69
:105D30001350EBEC2FF01050EBEC2FF0000EEBECCF
:105D40002FF0000EEBEC2FF0C9CF16F0000EEBECAD
:105D50002FF08C80C950136E1650106E13C011F0C6
:105D60001200000E8D6E000E8C6E070E896E000EF6
:105D70008A6E000E8B6E070E966EED0E926EFB0E07
:105D8000936E950E946EBC0E956EF80E0F015D6FBE
:105D9000650E0F015C6F0F015B690F015A89160ECA
:105DA0000F6E600E106E06EC30F0F2861200000EE0
:105DB0001E6E000E1F6E000E206E000E216E54EC43
:105DC0002FF0010E1E6EFF0E1F6EFF0E206EFF0ED7
:105DD000216E54EC2FF0E80E106E240E116E100E92
:105DE000126E37C013F038C014F036EC2FF01200EA
:105DF000000E1E6EFF0E1F6EFF0E206EFF0E216E38
:105E000054EC2FF0140E1E6E140E1F6E140E206E26
:105E1000020E216E54EC2FF0070E1E6E000E1F6E48
:105E2000000E206E260E216E54EC2FF012000FC0D3
:105E300013F010C014F002D0134A142A13C0F6FF56
:105E400014C0F7FF0800F5500009D8A4F5D70FC01B
:105E500011F010C012F0111E121E114A122A135016
:105E600011240F6E14501220106E12008C901250DC
:105E70008009EBEC2FF010C015F011C016F012C025
:105E800017F016C015F017C016F0176A1550EBEC96
:105E90002FF01050EBEC2FF01350EBEC2FF01450D0
:105EA000EBEC2FF08C80120037C022F038C023F0CA
:105EB000246A000E2224106E800E2320116E100E14
:105EC0002420126E1EC013F01FC014F020C015F065
:105ED00021C016F015EC2EF0040E9BEC2FF01200F2
:105EE0008C9012508009EBEC2FF010C014F011C010
:105EF00015F012C016F015C014F016C015F0166A91
:105F00001450EBEC2FF01050EBEC2FF01350EBECA7
:105F10002FF08C8012003B503C10D8B4120001D8F6
:105F200012000500FA6E3B50FD6E3C50FE6EF850BC
:105F3000FF6EFA501200116E115037240F6E000ED2
:105F40003820106EFF0E0F14376E0F0E1014386EBF
:105F50001200290E106E960E0F6E7F0EE82EFED7E1
:105F60000F2EFCD7102EFAD700F01200106E8C9076
:105F70001050EBEC2FF0000EEBEC2FF0000EEBECE2
:105F80002FF08C8012003A6A396A386A376A3D907D
:105F90003D92000EF86E0001BDEF29F0080EA76ECD
:105FA000900EAB6E240EAC6E220EAF6E000E7D6EA8
:105FB0001200B1EC2EF0E2EC2FF0F3EC2FF0C4EC79
:105FC0002BF01200600ED36E000ED26E000E9B6E90
:105FD000000E9A6E12000F6EC69E0FC0C9FFC7A0BA
:105FE000FED7C9501200000EC76E200EC66E000EFE
:105FF000C86E12000F6E9EA8FED70FC0ADFF120034
:106000000F015AB98BEC2FF0F29012000FC03BF049
:0860100010C03CF01200120068
:020000040020DA
:08000000FFFFFFFFFFFFFFFF00
:020000040030CA
:0E00000015037F7CFF8991FF0FC00FE00F40BA
:00000001FF
